:100000000C947C010C94AD010C94AD010C94AD01E9
:100010000C94AD010C94AD010C94AD010C94AD01A8
:100020000C94AD010C94AD010C94AD010C94AD0198
:100030000C94AD010C94AD010C94AD010C94AD0188
:100040000C94AD010C94AD010C94AD010C94AD0178
:100050000C94AD010C94AD010C94AD010C9475128F
:100060000C94AD010C94D0160C9406170C94AD01B1
:100070000C94AD010C94AD010C94AD010C94AD0148
:100080000C94AD010C94AD010C94AD010C94AD0138
:100090000C94AD010C94AD010C94AD010C94190EAF
:1000A0000C94AD010C94AD010C94AD010C94AD0118
:1000B0000C94AD010C94AD010C94AD010C94AD0108
:1000C0000C94AD010C94AD010C94AD010C94AD01F8
:1000D0000C94AD010C94AD010C94AD010C94AD01E8
:1000E0000C94AD0187109B10B110CD10F1101F11B1
:1000F0003E1175111C10AF1146106910D011EA1194
:10010000711075108F10A510C110DF10131132116E
:100110005A128E11A311AF115D10C411F511CE1337
:10012000D313D813E213EC136514F613FE1306145D
:1001300010141A14241433143D1465144714511464
:100140005B1487148A1479147D148314C1148E14DB
:10015000921498149C14A014A614AA14AE14C114DA
:10016000B414B814BC14687474703A2F2F6769748F
:100170006875622E636F6D2F776865656C65722D8B
:100180006D6963726F666C7569646963732F626110
:1001900073655F6E6F64655F7270632E676974006C
:1001A000302E313500576865656C6572204C616290
:1001B00000626173652D6E6F64652D7270630062FD
:1001C0006173652D6E6F64652D72706300302E3122
:1001D000350000000A0B02090C0D0E08070304018C
:1001E000000000000000000000000000000000000F
:1001F00000000000000000000000000000001211DC
:1002000010000000000000000000000000000000DE
:10021000000000000000000001021020200808106B
:100220002040102040800201020108040201010266
:10023000040810204080804020100804020180043F
:10024000020180402010080402010804020101029A
:100250000408102040800102040810204080050599
:100260000505070508080808020202020A0A08082C
:10027000040404040101010101010101030303035A
:1002800003030303040707070C0C0C0C0C0C0C0CE9
:100290000202020206060606060606060B0B0B0BFA
:1002A0000B0B0B0B000020002300260029002C0064
:1002B0002F003200000100000301060109010000C7
:1002C0002200250028002B002E00310034000201FE
:1002D0000000050108010B01000021002400270097
:1002E0002A002D0030003300010100000401070145
:1002F0000A015903210D3A1711241FBECFEFD1E295
:10030000DEBFCDBF00E00CBF12E0A0E0B2E0E6E34C
:10031000F0E300E00BBF02C007900D92A436B107D6
:10032000D9F726E0A4E6B2E001C01D92AF3BB207C8
:10033000E1F712E0C8EFD2E000E006C02297010921
:10034000FE010BBF0E94CE17C23FD10780E0080715
:10035000A9F70E947A0B0C9419180C940000CF9303
:10036000DF9300D000D0CDB7DEB720E829831A8212
:100370001B821C8285599D4F9E838D8330E040E017
:1003800050E0682F7E8180E090E026960FB6F894CA
:10039000DEBF0FBECDBFDF91CF91089502970C94C1
:1003A000AF0104970C94AF01E091CC04F091CD041F
:1003B0000280F381E02DBC018CEC94E01994FC01E7
:1003C000828193810C94630FCF93DF93EC010E94A1
:1003D000DF011C82DF91CF910895EF92FF920F937E
:1003E0001F93CF93DF9300D000D0CDB7DEB78C0141
:1003F000F62EE72EBC018F2D9E2D0E94D717C80127
:100400000E94DE17AC0160E070E049835A836B8381
:100410007C83FD82EE82282F3A818B815C816F2D57
:100420007E2D482F80E090E026960FB6F894DEBF30
:100430000FBECDBFDF91CF911F910F91FF90EF9035
:10044000089508950F931F93CF93DF93EC011A86BD
:10045000198600E010E02B813C8189859A8502177E
:10046000130760F4EF81F885E00FF11F60810E94AF
:100470004A0F9A8789870F5F1F4FEDCF0E94620F47
:100480009A878987DF91CF911F910F91089526E078
:1004900040E052EC61E070E08EE196E00E946E1662
:1004A0008CE08093B80064ED71E081E595E00C94F8
:1004B0001C0DDC01ED91FC910280F381E02D41E007
:1004C00050E019940F931F93CF93DF93EC018B01AE
:1004D000E881F9816F5F7F4F0280F381E02D41E079
:1004E00050E01995E881F9810280F381E02D41E027
:1004F00050E0B801CE01DF91CF911F910F91199477
:10050000FC01E15DFE4F0190F081E02D2189222365
:1005100059F0835D9E4FDC01ED91FC910190F081DB
:10052000E02D199580E0089580890895FC01E15D32
:10053000FE4F0190F081E02D2189222331F0835D6F
:100540009E4F0E94E40180E00895808908950F93F2
:100550001F93CF93DF93EC018B01E881F9816F5FEB
:100560007F4F0280F381E02D41E050E01995E88152
:10057000F9810280F381E02D41E050E0B801CE0125
:10058000DF91CF911F910F911994CF92DF92EF924B
:10059000FF920F93CF93DF93CDB7DEB768970FB677
:1005A000F894DEBF0FBECDBF6C012A8B3B8B4C8B0A
:1005B0005D8B6E8B7F8B088F4A895B896C897D8907
:1005C0008FEF9FEF9B878A87FA82E9820B838E8960
:1005D0009F895F834E83998788875D834C83CE0193
:1005E00001960E9422028CE79CE7ACE7B0E08C8782
:1005F0009D87AE87BF87D6018D919C91DC01ED91DF
:10060000FC910280F381E02D43E050E0BE01645F85
:100610007F4F1995BE016F5F7F4FF60180819181F9
:100620000E94A702D6018D919C91DC01ED91FC9175
:100630000280F381E02D41E050E0BE01685E7F4F13
:1006400019958B81843611F0833729F58C819D8132
:10065000998B888BBE01605F7F4FD6018D919C91F5
:100660000E94A7024C815D814115510561F0F601A0
:1006700080819181DC01ED91FC9168857985028012
:10068000F381E02D1995BE01665F7F4FF6018081F1
:1006900091810E94A70268960FB6F894DEBF0FBE44
:1006A000CDBFDF91CF910F91FF90EF90DF90CF9072
:1006B00008954F925F926F927F928F929F92AF9226
:1006C000BF92CF92DF92EF92FF920F931F93CF933F
:1006D000DF93C6E6D2E08BE092E09983888388E6D8
:1006E000E82E82E0F82E81E192E0D7018D939C9371
:1006F0000AE612E087E192E0F80191838083ECE65C
:10070000F3E01182108210926E0310927003109227
:100710006F0344244A94542C5092760340927503FC
:10072000612C7724739470927203609271038CE64B
:1007300092E0909374038093730337E7A32E33E022
:10074000B32ED5011C92109278031092840310925C
:100750008303109286031092850310928A031092ED
:1007600089031092980310929703F0938C03E093FF
:100770008B03C5010E94630F49E9C42E43E0D42EC8
:100780005DE1852E52E0952EF60191828082B09235
:100790009C03A0929B03C6010E94DF0185E292E0C8
:1007A000D6018D939C938EE196E090939E03809367
:1007B0009D03EFE9F4E0118210821092A1041092DF
:1007C000A3041092A2045092A9044092A80470922B
:1007D000A5046092A4048FE993E09093A70480930A
:1007E000A6046AEAA62E64E0B62ED5011C921092E9
:1007F000AB041092B7041092B6041092B904109290
:10080000B8041092BD041092BC041092CB04109254
:10081000CA04F093BF04E093BE04C5010E94630FB5
:100820007CECC72E74E0D72EF60191828082B092C4
:10083000CF04A092CE04C6010E94DF018DE292E0B7
:10084000D6018D939C931092D004C6010E94E401BE
:1008500085E392E0998388838BE392E0F7019183AB
:10086000808381E492E0D8018D939C93D0936502BC
:10087000C0936402DF91CF911F910F91FF90EF9091
:10088000DF90CF90BF90AF909F908F907F906F90B0
:100890005F904F900895CF93DF93E0919903F0918B
:1008A0009A03C281D3818EE196E00E945C15BC015F
:1008B00089E993E0FE01DF91CF911994BF92CF9225
:1008C000DF92EF92FF920F931F93CF93DF931F92CC
:1008D000CDB7DEB78C017B0181E595E00E94BD0BB1
:1008E000B82E81E0E81AF108F8018481811101C075
:1008F000B482C12CD12CCE14DF04A4F481E595E0A0
:100900000E94BD0B8983F8018481B81207C0BE0123
:100910006F5F7F4F828193810E94820FFFEFCF1A1A
:10092000DF0AE9CF0F90DF91CF911F910F91FF90D8
:10093000EF90DF90CF90BF900895EF92FF920F93CA
:100940001F93CF93DF93CDB7DEB769970FB6F894B7
:10095000DEBF0FBECDBF7C012B8B3C8B4D8B5E8BE6
:100960006F8B788F098F4B895C896D897E891A829C
:1009700019828FEF9FEF9B878A870B838F89988DD2
:100980005F834E83998788875D834C83CE01019670
:100990000E9422028CE79CE7ACE7B0E08C879D8741
:1009A000AE87BF878091BA0086958A8BF7016081F8
:1009B00081E595E00E94980CBE016E5E7F4F81E557
:1009C00095E00E94590243E050E0BE01645F7F4F12
:1009D00081E595E00E940F0CBE016F5F7F4F81E5BE
:1009E00095E00E946202BE01675E7F4F81E595E05F
:1009F0000E9459028C819D81998B888BBE01605F1A
:100A00007F4F81E595E00E94620281E595E00E94BA
:100A1000190D0C811D810115110551F100321105CF
:100A200010F00FE110E0F701608181E595E00E9490
:100A3000980CBE016E5E7F4F81E595E00E945902E1
:100A400068857985A80181E595E00E940F0C81E514
:100A500095E00E94190D88859985800F911F9987CF
:100A600088878C819D81801B910B9D838C83D1CF46
:100A7000F701608181E595E00E94980CBE016E5EF1
:100A80007F4F81E595E00E945902BE01665F7F4F6E
:100A900081E595E00E94620281E595E00E94190DD2
:100AA00069960FB6F894DEBF0FBECDBFDF91CF9130
:100AB0001F910F91FF90EF9008954F925F926F9268
:100AC0007F928F929F92AF92BF92CF92DF92EF92DE
:100AD000FF920F931F93CF93DF93CDB7DEB7C0592B
:100AE000D1090FB6F894DEBF0FBECDBFFC01CB57C6
:100AF000DF4F2883C558D040CA57DF4F3883C658C8
:100B0000D040C957DF4F4883C758D040C857DF4F40
:100B10005883C858D040C757DF4F6883C958D04062
:100B2000C657DF4F7883CA58D040C557DF4FC882B9
:100B3000CB58D040C457DF4FD882CC58D040C35791
:100B4000DF4FE882CD58D040C257DF4FF882CE58F1
:100B5000D040C157DF4F0883CF58D040C057DF4F38
:100B60001883C059D040C757DF4FA881B981C958F1
:100B7000D040C157DF4F68807980CF58D0402D9149
:100B80003C9111972F3F81E0380709F4F0C208F03B
:100B9000D0C02A30310509F47AC208F04FC02430A1
:100BA000310509F413C260F52130310509F4ACC1F7
:100BB00008F476C12230310509F4DAC12330310559
:100BC00009F038C480819181DC01ED91FC910190A4
:100BD000F081E02D19956BAF7CAF6BAD7CAD85EAF4
:100BE00091E00E94ED0129AB3AAB4BAB5CAB6DAB36
:100BF0007EABC9A8DAA8EBA8FCA86DA87EA83CC467
:100C00002730310509F41EC280F42530310509F47E
:100C1000FBC12630310509F00DC40E94CB12F3014F
:100C2000608371838283938315C22830310509F470
:100C300017C22930310509F41DC2FCC32F3031051C
:100C400009F44DC298F42C30310509F43BC208F484
:100C500031C22D30310509F43AC22E30310509F088
:100C6000E9C312968C910E948313F0C222313105A0
:100C700009F453C2C8F52031310509F439C22131D4
:100C8000310509F0D7C3FD01329616968D919C91DE
:100C900017978E0F9F1F17969C938E93169786E03B
:100CA000DE01A758BF4F01900D928A95E1F786E0CB
:100CB000FE01E758FF4FDE01AD58BF4F01900D9286
:100CC0008A95E1F7E9966EAC7FACE997E796CCACF4
:100CD000DDACEEACFFACE79712E0CC0CDD1CEE1CFB
:100CE000FF1C1A95D1F7C8C32F3F310509F403C380
:100CF0002E3F314009F09EC39D012E5F3F4F189655
:100D00008D919C911997820F931F19969C938E93A6
:100D1000189712962D913C91139714964D915D91D1
:100D20006D917C911797F894B9010E94F717789408
:100D300088C3263083E0380709F4D7C208F061C0C1
:100D4000211583E0380709F43BC2D8F42D3FE2E0D7
:100D50003E0709F42AC248F42115324009F06AC35B
:100D60008FEF9FE0A0E0B0E049C32E3FA2E03A073A
:100D700009F422C22F3F324009F05CC380E290E0C8
:100D800065C2233083E0380709F46CC270F4213067
:100D9000A3E03A0709F456C22230334009F04AC3AF
:100DA00081E595E00E94BD0B5AC2243083E03807EC
:100DB00009F468C22530334009F03CC3CD010296E6
:100DC0001796AD90BC901897A80EB91E1896BC92B5
:100DD000AE9217971396CD90DD90ED90FC901697FC
:100DE00012966C9181E595E00E94980CA601B501E0
:100DF00081E595E00E940F0C81E595E00E94190DB8
:100E000020C32B3F84E0380709F4D1C2F0F42C3F13
:100E100083E0380709F46FC240F42730334009F00B
:100E200009C38091BA008E7F63C22D3F83E03807EB
:100E300009F466C22E3F334009F0FCC280819181E3
:100E40008A599D4F0E94E401FCC22E3F84E038077E
:100E500009F4C9C278F42C3FE4E03E0709F4B1C2BA
:100E60002D3F344009F0E6C28CB5837F12969C91E9
:100E7000892BB7C22A3F85E0380709F4C5C22B3F4A
:100E8000354009F0D7C226E040E052EC61E070E066
:100E90008EE196E00E946E168CE08093B800D1C27D
:100EA00080819181DC01ED91FC910190F081E02D38
:100EB0001995A0966FAFA097A1967FAFA197A19625
:100EC0006EAD7FADA1978DEC91E00E94ED0166962D
:100ED0002FAF669767963FAF679768964FAF689753
:100EE00069965FAF69976A966FAF6A976B967FAFA7
:100EF0006B976996CCACDDACEEACFFAC69976B96AA
:100F00006EAC7FAC6B97B8C280819181DC01ED91B2
:100F1000FC910190F081E02D199564966FAF649774
:100F200065967FAF659765966EAD7FAD65978FEBE4
:100F300091E00E94ED012A962FAF2A972B963FAFA2
:100F40002B972C964FAF2C972D965FAF2D972E9603
:100F50006FAF2E972F967FAF2F972D96CCACDDAC31
:100F6000EEACFFAC2D972F966EAC7FAC2F9784C262
:100F700080819181DC01ED91FC910190F081E02D67
:100F8000199528966FAF289729967FAF29972996AC
:100F90006EAD7FAD299781EB91E00E94ED012DAF01
:100FA0003EAF4FAF21965FAF219722966FAF22974A
:100FB00023967FAF23972196CCACDDACEEACFFAC93
:100FC000219723966EAC7FAC239756C28081918186
:100FD000DC01ED91FC910190F081E02D19956FA756
:100FE00078AB6FA578A980EA91E00E94ED012DA36E
:100FF0003EA34FA358A769A77AA7CDA0DEA0EFA074
:10100000F8A469A47AA438C280819181DC01ED91B1
:10101000FC910190F081E02D19956BA37CA36BA14D
:101020007CA186E691E00E94ED01298F3A8F4B8FDB
:101030005C8F6D8F7E8FC98CDA8CEB8CFC8C6D8C09
:101040007E8C1AC20E94BF12D3016D937D938D9343
:101050009C93139704E0C02ED12CE12CF12C0CC2F0
:1010600012968D919C911397009709F4EAC10E9402
:101070001613E7C112966D917C9113976115710556
:1010800009F4DFC180E090E00E94EE12DAC1209105
:10109000BB063091BC068DB79EB72115310519F4FA
:1010A0008F5B964002C0821B930BAA2797FDA095E9
:1010B000BA2FA4C113966C91139712968C910E942B
:1010C000C214BFC112968C910E943115C8C01396EC
:1010D0006C91139712968C910E94FB14B2C11396D7
:1010E0006C91139770E012968C910E94A813A9C17D
:1010F0009D012E5F3F4F16968D919C911797820F01
:10110000931F17969C938E93169712968D919C9190
:101110001397D3018D939C939CC0FD013296169634
:101120008D919C9117978E0F9F1F17969C938E936E
:10113000169786E0DE01A359BF4F01900D928A9564
:10114000E1F786E0FE01E359FF4FDE01A959BF4FE9
:1011500001900D928A95E1F7AB96CCACDDACEEAC8C
:10116000FFACAB97AD966EAC7FACAD9785C11496D6
:10117000CD90DC9015971296ED90FC90139780819E
:101180009181DC011296ED91FC9113970190F08111
:10119000E02D029619956F8B788F6F88788CA60159
:1011A000B701C3010E94E7179DC012966C9181E5BB
:1011B00095E00E94850C45C18091BA0086954FC08C
:1011C00080819181DC011496ED91FC91159701903D
:1011D000F081E02D049619952D873E874F87588B17
:1011E000698B7A8B8D849E84AF84B88869887A886D
:1011F00018E0C12CD12CC601A0E0B0E088159905FB
:10120000AA05BB0508F06EC0612F81E595E00E943C
:10121000980C81E595E00E94190D81110FC07601AF
:10122000BFEFEB1AFB0AF301EC0DFD1D108361E02B
:1012300070E080E090E00E94EE1267011F5F1837B7
:10124000D1F650C081E595E00E94B50BF301918382
:101250008083B2E0CB2ED12CE12CF12C0DC1D30137
:101260008C930BC013964C91139712966C9181E559
:1012700095E00E94160DF3018083C12CD12C7601DC
:10128000C394FAC013961C9113971296FC90808118
:101290009181DC011496ED91FC9115970190F081FC
:1012A000E02D049619956B877C876B847C84412F95
:1012B0006F2D81E595E00E94160DD62C730103C0B9
:1012C000F70181937F01CE2CCD1881E595E00E9436
:1012D000B50B892B31F081E595E00E94BD0BC1165D
:1012E00078F3D12CE12CF12CC7C08091BA00816039
:1012F0008093BA00A6C089EF90E0A0E0B0E07EC085
:101300009D012E5F3F4F17968D919C911897820FEC
:10131000931F18969C938E93179712961C91129771
:10132000E080F18086E0FD013396DE01AF59BF4FCA
:1013300001900D928A95E1F786E0FE01EF59FF4F8B
:10134000DE01119601900D928A95E1F75701FAE9B5
:10135000AF1AFDEFBF0AC5010E94E401C70186591B
:101360009D4FDC011C9304E629813A814B815C810D
:101370006D817E810E949D040E94BF122B013C0161
:101380006701B7ECCB1ABEEFDB0A0E94BF126419EB
:10139000750986099709683873418105910508F038
:1013A00054C0C6010E94960281114FC0EECF129622
:1013B0008C91811103C08CB5806213C08CB58F7D78
:1013C00010C012962C919CB5822F83709C7F892B24
:1013D0008CBD8DB522FB222720F98E7F822B8DBDFF
:1013E00030C08CBD2EC012968C918EBD00000DB405
:1013F00007FEFDCF8EB590E0A0E0B0E0F301808362
:101400009183A283B38326CE80819181DC01ED910B
:10141000FC910190F081E02D199529833A834B834B
:101420005C836D837E83C980DA80EB80FC806D8075
:101430007E8022C0612C712CCC24CA94DC2C7601D5
:101440001BC0C12CD12C760117C0F701E75CFD4F02
:1014500067807084C380D480E12CF12CB8EFCB1668
:10146000D104E104F10428F0E7EFCE2ED12CE12CD9
:10147000F12CC5010E94E401C158DF4FC882D98216
:10148000EA82FB82CF57D040CD57DF4F7982688206
:10149000C358D0402C2DC058DF4F3881C058D040A1
:1014A000CF57DF4F4881C158D040CE57DF4F5881CA
:1014B000C258D040662DCC57DF4F7881C458D040F9
:1014C00080E090E0C057DF4F0FB6F894DEBF0FBE4C
:1014D000CDBFDF91CF911F910F91FF90EF90DF90E3
:1014E000CF90BF90AF909F908F907F906F905F90C4
:1014F0004F9008958F929F92AF92BF92CF92DF92BA
:10150000EF92FF920F931F93CF93DF93CDB7DEB788
:1015100062970FB6F894DEBF0FBECDBFFC01CB01C2
:10152000438154812281243619F44115510539F43F
:1015300060E080E02FEF4FEF30E090E02CC037818B
:10154000A085032F3D83AE8385809680A12CB12C8E
:10155000C82C89829A82AB82BC8260E070E0242F22
:101560004F83588769877A87632F3B87AC87DA80F8
:10157000EB80FC801A2F388549855A857A2F0E9486
:101580005D052D873E874F87588B698B7A8B432F5C
:101590003F85952F872F29834A833B839C836D83C7
:1015A0008E83342F4B81592F782F80E090E0629604
:1015B0000FB6F894DEBF0FBECDBFDF91CF911F9164
:1015C0000F91FF90EF90DF90CF90BF90AF909F90E2
:1015D0008F900895EF92FF920F93CF93DF93CDB743
:1015E000DEB72C970FB6F894DEBF0FBECDBF8CE6EA
:1015F00092E00E948002882389F18CE692E00E94AA
:101600008002882359F164E672E08CE693E00E9440
:101610007A0A38875A876B877C87322F6885542FE0
:101620004A858B859C85892B21F430E060E050E071
:1016300040E0232F3F83688759874A87E12CF12CAC
:1016400004E6362F452F5A856B857C858DE993E01E
:101650000E94C50289E993E00E94DF018FE993E0CF
:101660000E9496028823D1F18FE993E00E949602AE
:101670008823A1F164E672E08FE994E00E947A0A7F
:101680003A835C836D837E83322F6A81542F4C8131
:101690008D819E81892B21F430E060E050E040E0B4
:1016A000232F39836A835B834C8304E6362F452FCF
:1016B0005C816D817E8180ED94E00E949D048CECC4
:1016C00094E02C960FB6F894DEBF0FBECDBFDF912D
:1016D000CF910F91FF90EF900C94E4012C960FB6F0
:1016E000F894DEBF0FBECDBFDF91CF910F91FF9079
:1016F000EF9008950E9421130E9421020E94470248
:10170000C9E8D5E10E94EA0A2097E1F30E94891511
:10171000F9CFCF92DF92EF92FF920F931F93CF9367
:10172000DF931F92CDB7DEB77C016B0100E010E0C4
:101730000C151D0584F48EE196E00E9475158983D1
:10174000BE016F5F7F4FF701828193810E94820FFC
:101750000F5F1F4FEDCF0F90DF91CF911F910F9132
:10176000FF90EF90DF90CF9008958091850590E0F5
:1017700020918605821B910908952091860580910C
:101780008505281750F4E22FF0E0E957FA4F8081E1
:1017900090E02F5F2093860508958FEF9FEF0895C7
:1017A000E091860580918505E81730F4F0E0E9576F
:1017B000FA4F808190E008958FEF9FEF089508958C
:1017C000E0915D05F0915E053097E1F0309186057E
:1017D000209185053217B0F040E0242F30E0261725
:1017E000370754F4DC01A20FB31F5C91D901A9574C
:1017F000BA4F5C934F5FF1CF1092860560938505D9
:10180000CB0119940895E0915F05F0916005309740
:1018100029F0109263051092620519940895CF92F1
:10182000DF92EF92FF920F931F93CF93DF937C0190
:10183000CB018A0120916105222389F0EB016B0124
:10184000C40ED51ECC15DD0569F06991D701ED9167
:10185000FC910190F081E02DC7011995F3CF642F21
:101860000E94E60DC801DF91CF911F910F91FF906B
:10187000EF90DF90CF900895CF93DF931F92CDB775
:10188000DEB76983209161052223D1F020916205A2
:10189000203240F021E030E0FC013383228380E0FD
:1018A00090E015C080916305E82FF0E0EC59FA4F05
:1018B000998190838F5F809363058093620505C053
:1018C00061E0CE0101960E94E60D81E090E00F906C
:1018D000DF91CF910895FC011382128248EE53E00C
:1018E00060E070E0448355836683778387E492E009
:1018F0009183808308951092860510928505109239
:101900006305109262050C94250DCF93DF93EC01D3
:10191000862F0E94430D83E09CE00E94040E80EE1F
:101920009BE00E94FF0DCE01DF91CF910C947B0CC8
:1019300081E08093610560938405109263051092A5
:10194000620508950F93062F21E04091620564E639
:1019500075E0809184050E948F0D109263051092AE
:101960006205109261050F9108958F929F92AF9238
:10197000BF92CF92DF92EF92FF920F931F93CF937C
:10198000DF93EC01F62ED42E48015901EE2019F117
:101990000E94980C1E2D143008F013E01150B8F07E
:1019A000E881F98128E0129FB0011124A50194017A
:1019B00004C056954795379527956A95D2F7CA0181
:1019C000B9010190F081E02DCE011995E7CF60E0DB
:1019D000CE010E94A20C4D2D413208F040E22C2D88
:1019E00067E875E08F2D0E94470D10928605809361
:1019F0008505DF91CF911F910F91FF90EF90DF90C0
:101A0000CF90BF90AF909F908F900895CF92EF921C
:101A10000F931F93C22EE12C00E010E098010E946A
:101A2000B50C1F910F91EF90CF90089521E00C9489
:101A3000060D61E00C94A20C70935E0560935D0549
:101A4000089581E595E00C946B0C1092140681E0EA
:101A5000809312061092110661E084E10E94FB144B
:101A600061E085E10E94FB14E9EBF0E080818E7F6C
:101A7000808380818D7F808388E48093B80085E4B3
:101A80008093BC000895880F8093BA000895413276
:101A900008F043C0909114069111FCCF91E090930F
:101AA0001406209312062FEF2093A7051092EC0541
:101AB000240F2093EB059093130690911306880F43
:101AC000892B8093130680911106813061F4109266
:101AD0001106809113068093BB008091BC0083FDAA
:101AE000F8CF85EC01C085EE8093BC008091140690
:101AF0008130E1F38091EC05841710F44091EC05FE
:101B00002DEE35E0FB01D9018A2F821B841718F4D2
:101B10008D918193F9CF842F089580E008950F93DC
:101B2000413208F04AC0909114069111FCCF92E026
:101B300090931406009312069FEF9093A7051092BE
:101B4000EC054093EB05FB016DEE75E0DB019A2F90
:101B5000961B941718F491919D93F9CF1092130648
:101B600090911306880F892B80931306809111069C
:101B7000813061F410921106809113068093BB00AE
:101B80008091BC0083FDF8CF85EC01C085EE809389
:101B9000BC00222321F0809114068230E1F3809171
:101BA000A7058F3F61F08091A705803251F08091A9
:101BB000A705803341F483E007C081E005C080E0E1
:101BC00003C082E001C084E00F910895613298F46F
:101BD00020911406243089F46093C905FC018BEC34
:101BE00095E0DC012A2F281B261718F421912D934C
:101BF000F9CF80E0089581E0089582E00895909300
:101C00000E0680930D0608959093100680930F069C
:101C1000089585ED8093BC008091BC0084FDFCCFCD
:101C200010921406089585EC8093BC00109214065F
:101C300008951F920F920FB60F9211240BB60F92B8
:101C40002F933F934F935F936F937F938F939F93C4
:101C5000AF93BF93EF93FF938091B900887F803655
:101C600009F49EC078F5883209F45DC090F48031A3
:101C700009F456C038F4882309F4F5C0883009F413
:101C80004FC0F5C0883109F44EC0803209F45FC0FE
:101C9000EEC0803409F46AC058F4803309F457C0A8
:101CA000883309F0E4C08093A7050E94130EDFC0BB
:101CB000803509F44FC0883509F45DC0883409F0D7
:101CC000D6C0D3C0883909F4C4C0A8F4883709F451
:101CD00067C038F4883609F463C0803709F460C0FF
:101CE000C6C0883809F4B5C0803909F45FC08038AF
:101CF00009F0BDC05BC0803B09F483C038F4803A72
:101D000009F466C0883A09F47CC0B1C0803C09F48B
:101D1000A4C0883C09F4A1C0883B09F487C0A7C0CF
:101D20008091130610C09091EC058091EB059817F7
:101D300070F5E091EC0581E08E0F8093EC05F0E00A
:101D4000E351FA4F80818093BB0085EC83C0809380
:101D5000A7058BC0E091EC0581E08E0F8093EC0528
:101D60008091BB00F0E0E351FA4F80839091EC0545
:101D70008091EB056BC0E091EC0581E08E0F8093C4
:101D8000EC058091BB00F0E0E351FA4F8083809135
:101D9000120681116AC081E08093110684EA5EC058
:101DA00083E0809314061092A805CFCF8091A805F8
:101DB000803208F04EC0E091A80581E08E0F80933C
:101DC000A8058091BB00F0E0E755FA4F8083BDCFB6
:101DD0000E94130E8091A805803230F4E091A8058E
:101DE000F0E0E755FA4F10826091A80570E0E091AD
:101DF0000D06F0910E0689EA95E019951092A80556
:101E000036C084E0809314061092CA051092C9056A
:101E1000E0910F06F091100619958091C905811186
:101E200005C081E08093C9051092CB05E091CA05F9
:101E300081E08E0F8093CA05F0E0E553FA4F808170
:101E40008093BB009091CA058091C905981708F44A
:101E50007CCF85E88093BC000AC085EC8093BC00F1
:101E60001092140604C01092A7050E94090EFF915B
:101E7000EF91BF91AF919F918F917F916F915F9102
:101E80004F913F912F910F900BBE0F900FBE0F906F
:101E90001F9018958627682F62956827062E6695ED
:101EA00066956025062E669560256770082E892F39
:101EB000669507946795902D8627069467959025DB
:101EC000862708950895FC01A489B58912961C926D
:101ED000129714961C921E9213978FEF9FEF1A96EB
:101EE0009C938E931997138A128A108A118A1786E7
:101EF000168611A210A28CE090E093838283178E45
:101F0000168E0895AF92BF92CF92DF92EF92FF921A
:101F10000F931F93CF93DF931F92CDB7DEB78C0142
:101F20006115710581F4CE010196D80115969C9337
:101F30008E93149717969C938E93169719969C934D
:101F40008E93189707C0FC01758364836F5F7F4F82
:101F500077836683D80114962D913C911597169638
:101F60008D919C9117972817390709F057C071C2B6
:101F7000608180E090E00E944A0FF801938B828B91
:101F80000488F589E02D0780F085E02DD8011E96A4
:101F90008D919C911F979C012F5F3F4F1F963C9303
:101FA0002E931E9714962D913C911597D9012C9143
:101FB000E80FF91F2083F8012685378584859585EC
:101FC0002817390709F011C2068CF78DE02DCF01D3
:101FD0000197D8015F969C938E935E973A96EE0F89
:101FE000FF1FE00FF11F8081918113969C938E93C8
:101FF0001297D8011296ED91FC911397EF30F105ED
:1020000008F454C2F80184819581019695838483F4
:10201000268137818217930709F41BC2D8011296D3
:10202000ED91FC9113973197EE30F10508F0EBC17B
:10203000EE58FF4F0C94C817D8015496ED91FC91BF
:102040005597F184E12CF286E18614968D919C914E
:102050001597DC018C919701280F311DC90132873A
:102060002187D80152962D913C915397821793075F
:1020700049F481E050968C9350971E968D919C91D7
:102080001F9719C081E0F801818B17C0D8011C96F9
:102090008D919C911D975496ED91FC9155972581BA
:1020A00036812817390718F421E051962C9321E046
:1020B000D80150962C9394838383F8018481958171
:1020C000019695838483268137818217930709F4CB
:1020D0009AC1D8011496ED91FC91159780818C37A7
:1020E00021F0F80113821282F4C1D80114968D9167
:1020F0009C911597019615969C938E93149716961E
:102100002D913C9117978217930709F47FC1D8014D
:102110001496ED91FC91159780818C3711F7F80199
:1021200084819581019695838483268137818217E6
:10213000930709F46EC1D8011496ED91FC9115979F
:1021400080818C3771F650961C92F80184819581BC
:10215000019695838483268137818217930709F43A
:1021600060C1D8015496ED91FC915597118210826F
:1021700014968D919C911597DC018C9190E0918340
:102180008083F801848195810196958384832681DB
:1021900037818217930709F447C1D8015496ED910E
:1021A000FC91559714968D919C911597DC018C911B
:1021B000B080A12C9501282BC90191838083D8017F
:1021C00014968D919C911597019615969C938E93DC
:1021D000149716962D913C9117978217930709F43F
:1021E00026C1D8011496ED91FC9115978081843613
:1021F000A1F068F4813609F074CFD8015496ED91BE
:10220000FC915597828381E050968C9356CF8E3601
:1022100009F493C0833709F064CFD8015496ED9147
:10222000FC9155978283F80184819581019695836D
:102230008483268137818217930709F4FBC0D80174
:1022400091961C921E9290971D961C921E921C971E
:102250001496ED91FC911597808190E01D969C93CA
:102260008E931C97F80184819581019695838483D0
:10227000268137818217930709F4DFC0D8011C96A5
:10228000DC901C97C12C1D96DC92CE921C97149664
:10229000ED91FC9115978081F601E80FF11DCF01BA
:1022A0001D96FC93EE931C975496ED91FC915597D7
:1022B000258136812817390718F481E051968C93CF
:1022C000D8015E96ED91FC915F97CF0101965F96E4
:1022D0009C938E935E973B96EE0FFF1FE00FF11FCE
:1022E00088E090E0918380834FC0D80152968D9111
:1022F0009C9153970E94620FF801938B828B048804
:10230000F589E02D12861186D80114968D919C9145
:102310001597DC018C9190E092878187F801848188
:10232000958101969583848326813781821793074F
:1023300009F082CE89E090E089C0D8015496ED91F1
:10234000FC9155978283F80184819581019695834C
:102350008483268137818217930709F471C0D801DD
:1023600014968D919C911597019615969C938E933A
:10237000149716962D913C9117978217930709F0A1
:1023800085CE8BE090E062C0F80184819581019652
:1023900095838483268137818217930709F453C07C
:1023A000D8011F961C921E921E9753961C921E9245
:1023B00052971C968D919C911D971496ED91FC91CE
:1023C0001597892B09F0D4CD31971596FC93EE9390
:1023D000149765C0D8011496ED91FC911597608112
:1023E00052968D919C915397C6CDF8018481958129
:1023F000019695838483268137818217930751F74D
:102400008EE090E023C08CE090E005C081E090E099
:102410001DC082E090E0D80113969C938E93129792
:1024200018C083E090E012C084E090E0F4CF85E033
:1024300090E00CC086E090E0EECF87E090E006C030
:102440008AE090E0E8CF8DE090E0E5CFF80193835B
:102450008283D80114968D919C91159718962D9191
:102460003C91199782179307A1F512962D913C91F3
:1024700013972D30310569F51F961C921E921E97F9
:1024800053961C921E9252971C962D913C911D972B
:10249000232BF9F4019715969C938E9314975E96CF
:1024A000ED91FC915F97CF01019794CDE058FF4FDC
:1024B0000C94C817F80184819581019695838483D3
:1024C000268137818217930709F00FCF88E090E0CB
:1024D000A2CF0F90DF91CF911F910F91FF90EF90BE
:1024E000DF90CF90BF90AF9008951F920F920FB6DC
:1024F0000F9211242F933F938F939F93AF93BF938A
:102500008091160690911706A0911806B0911906B1
:102510003091150623E0230F2D3720F40196A11DDD
:10252000B11D05C026E8230F0296A11DB11D209301
:1025300015068093160690931706A0931806B0937D
:10254000190680911A0690911B06A0911C06B09165
:102550001D060196A11DB11D80931A0690931B06BE
:10256000A0931C06B0931D06BF91AF919F918F91D0
:102570003F912F910F900FBE0F901F9018952FB77E
:10258000F894609116067091170680911806909144
:1025900019062FBF08953FB7F89480911A069091BD
:1025A0001B06A0911C06B0911D0626B5A89B05C070
:1025B0002F3F19F00196A11DB11D3FBF6627782F4F
:1025C000892F9A2F620F711D811D911D42E0660FA8
:1025D000771F881F991F4A95D1F70895CF92DF92F0
:1025E000EF92FF92CF93DF936B017C010E94CB129D
:1025F000EB01C114D104E104F10489F00E94A51794
:102600000E94CB126C1B7D0B683E734090F381E0FF
:10261000C81AD108E108F108C851DC4FEACFDF91B0
:10262000CF91FF90EF90DF90CF9008958230910589
:1026300038F0880F991F880F991F05970197F1F7B8
:102640000895789484B5826084BD84B5816084BD2A
:1026500085B5826085BD85B5816085BDEEE6F0E01B
:10266000808181608083E1E8F0E010828081826077
:102670008083808181608083E0E8F0E080818160F8
:102680008083E1EBF0E0808184608083E0EBF0E028
:10269000808181608083E1E9F0E0808182608083D5
:1026A000808181608083E0E9F0E0808181608083C7
:1026B000E1EAF0E0808182608083808181608083B4
:1026C000E0EAF0E0808181608083E1E2F1E08081F6
:1026D00082608083808181608083E0E2F1E080819C
:1026E00081608083EAE7F0E080818460808380817C
:1026F0008260808380818160808380818068808324
:102700001092C1000895863308F0865320917B0013
:10271000982F9870277F922B90937B008770209141
:10272000060290E4299F90011124822B80937C0063
:1027300080917A00806480937A0080917A0086FD8F
:10274000FCCF809178002091790090E0922B089541
:102750001F93CF93DF93182FEB0161E00E94C21407
:10276000209711F460E004C0CF3FD10539F461E057
:10277000812FDF91CF911F910C94FB14E12FF0E09A
:10278000EE52FE4F449150E0FA013197E231F105EB
:1027900008F09BC0E157FF4F0C94C81784B58068C0
:1027A00084BDC7BD97C084B5806284BDC8BD92C0DA
:1027B00080918000806880938000D0938900C093CE
:1027C000880088C080918000806280938000D093D0
:1027D0008B00C0938A007EC08091800088608093C7
:1027E0008000D0938D00C0938C0074C08091B000A5
:1027F00080688093B000C093B3006CC08091B0003B
:1028000080628093B000C093B40064C08091900057
:10281000806880939000D0939900C09398005AC02C
:1028200080919000806280939000D0939B00C09331
:102830009A0050C080919000886080939000D0935F
:102840009D00C0939C0046C08091A000806880934A
:10285000A0008091A0008F7B8093A000D093A9005E
:10286000C093A80037C08091A00080628093A00030
:10287000D093AB00C093AA002DC08091A0008860C7
:102880008093A000D093AD00C093AC0023C0809192
:102890002001806880932001D0932901C0932801F2
:1028A00019C080912001806280932001D0932B0178
:1028B000C0932A010FC0809120018860809320017D
:1028C000D0932D01C0932C0105C0C038D1050CF068
:1028D0004ECF48CFDF91CF911F91089590E0FC013A
:1028E0003197E231F10508F04CC0EF55FF4F0C94E1
:1028F000C817809180008F7703C0809180008F7D02
:1029000080938000089580918000877FF9CF84B5FF
:102910008F7702C084B58F7D84BD08958091B0000B
:102920008F7703C08091B0008F7D8093B0000895B1
:10293000809190008F7707C0809190008F7D03C0B9
:1029400080919000877F8093900008958091A000EF
:102950008F7707C08091A0008F7D03C08091A00079
:10296000877F8093A0000895809120018F7707C012
:10297000809120018F7D03C080912001877F80930B
:1029800020010895CF93DF9390E0FC01E85EFD4FB6
:102990002491FC01E25AFD4F8491882349F190E093
:1029A000880F991FFC01E852FD4FA591B491825404
:1029B0009D4FFC01C591D4919FB7611108C0F89457
:1029C0008C91209582238C93888182230AC0623067
:1029D00051F4F8948C91322F309583238C93888115
:1029E000822B888304C0F8948C91822B8C939FBF98
:1029F000DF91CF9108950F931F93CF93DF931F9291
:102A0000CDB7DEB7282F30E0F901EE52FE4F8491AA
:102A1000F901E85EFD4F1491F901E25AFD4F04916E
:102A20000023C9F0882321F069830E946E14698114
:102A3000E02FF0E0EE0FFF1FE254FD4FA591B4919F
:102A40009FB7F8948C91611103C01095812301C048
:102A5000812B8C939FBF0F90DF91CF911F910F918E
:102A60000895CF93DF93282F30E0F901EE52FE4F07
:102A70008491F901E85EFD4FD491F901E25AFD4FCE
:102A8000C491CC2391F081110E946E14EC2FF0E0E0
:102A9000EE0FFF1FEC55FD4FA591B4912C912D2306
:102AA00081E090E021F480E002C080E090E0DF91DE
:102AB000CF9108950E94D217FC01818D228D90E064
:102AC000805C9F4F821B91098F7399270895FC01A9
:102AD000918D828D981731F0828DE80FF11D858DD3
:102AE00090E008958FEF9FEF0895FC01918D828D06
:102AF000981761F0828DDF01A80FB11D5D968C9152
:102B0000928D9F5F9F73928F90E008958FEF9FEF5C
:102B1000089580E397E1892B41F08BE494E0892BC1
:102B200021F00E943017811125C080E090E0892BB0
:102B300041F080E090E0892B21F00E94000081119B
:102B40001CC080E090E0892B41F080E090E0892B70
:102B500021F00E940000811113C080E090E0892BD9
:102B6000A1F080E090E0892B81F00E9400008111AB
:102B70000AC008950E944B04D8CF0E940000E1CF04
:102B80000E940000EACF0C9400000895FC01848D9F
:102B9000DF01A80FB11DA35ABF4F2C91848D90E087
:102BA00001968F739927848FA689B7892C93A08962
:102BB000B1898C9180648C93938D848D981306C019
:102BC0000288F389E02D80818F7D80830895CF93E3
:102BD000DF93EC01888D8823C9F0EA89FB89808125
:102BE00085FD05C0A889B9898C9186FD0FC00FB6F7
:102BF00007FCF5CF808185FFF2CFA889B9898C9138
:102C000085FFEDCFCE010E94C615E7CFDF91CF91B2
:102C10000895CF92DF92FF920F931F93CF93DF938C
:102C20001F92CDB7DEB76C0181E0D60158968C9328
:102C300058975B969C915B975C968C915C979813E8
:102C400007C05096ED91FC915197808185FD2EC073
:102C5000F601038D10E00F5F1F4F0F731127F02E49
:102C6000F601848DF81211C00FB607FCF9CFD6011A
:102C70005096ED91FC915197808185FFF1CFC6016F
:102C800069830E94C6156981EBCF838DE80FF11D22
:102C9000E35AFF4F6083D6015B960C935B97529685
:102CA000ED91FC915397808180620CC0D6015696BD
:102CB000ED91FC91579760835096ED91FC9151975F
:102CC00080818064808381E090E00F90DF91CF91DC
:102CD0001F910F91FF90DF90CF900895BF92CF92F8
:102CE000DF92EF92FF92CF93DF93EC016A017B01B9
:102CF000B22EE889F98982E08083411581EE580778
:102D000061057105A1F060E079E08DE390E0A70135
:102D100096010E94A6172150310941095109569583
:102D2000479537952795211580E1380798F0E88970
:102D3000F989108260E874E88EE190E0A7019601BD
:102D40000E94A6172150310941095109569547950E
:102D500037952795EC85FD853083EE85FF852083AB
:102D6000188EEC89FD89B082EA89FB8980818061B7
:102D70008083EA89FB89808188608083EA89FB8976
:102D8000808180688083EA89FB8980818F7D808350
:102D9000DF91CF91FF90EF90DF90CF90BF9008959B
:102DA0001F920F920FB60F9211240BB60F922F9312
:102DB0008F939F93EF93FF93E0912E06F0912F0650
:102DC0008081E0913406F091350682FD12C0908139
:102DD000809137068F5F8F7320913806821751F0EC
:102DE000E0913706F0E0E25EF94F958F8093370669
:102DF00001C08081FF91EF919F918F912F910F9052
:102E00000BBE0F900FBE0F901F9018951F920F9240
:102E10000FB60F9211240BB60F922F933F934F933F
:102E20005F936F937F938F939F93AF93BF93EF9332
:102E3000FF938EE196E00E94C615FF91EF91BF913E
:102E4000AF919F918F917F916F915F914F913F9142
:102E50002F910F900BBE0F900FBE0F901F901895E3
:102E60008EE196E00E945C1521E0892B09F420E0B8
:102E7000822F0895109221061092200688EE93E08A
:102E8000A0E0B0E08093220690932306A09324064E
:102E9000B093250687E592E090931F0680931E0667
:102EA00085EC90E090932B0680932A0684EC90E0CA
:102EB00090932D0680932C0680EC90E090932F0643
:102EC00080932E0681EC90E090933106809330063B
:102ED00082EC90E0909333068093320686EC90E08B
:102EE0009093350680933406109237061092380678
:102EF0001092390610923A060895CF92DF92EF921F
:102F0000FF920F931F93CF93DF937C016A01EB0134
:102F100000E010E00C151D0571F06991D701ED91ED
:102F2000FC910190F081E02DC7011995892B19F0D2
:102F30000F5F1F4FEFCFC801DF91CF911F910F910E
:102F4000FF90EF90DF90CF9008950895A1E21A2EA0
:102F5000AA1BBB1BFD010DC0AA1FBB1FEE1FFF1F3D
:102F6000A217B307E407F50720F0A21BB30BE40B8D
:102F7000F50B661F771F881F991F1A9469F76095D4
:102F80007095809590959B01AC01BD01CF0108958E
:102F9000EE0FFF1F0590F491E02D19940790F69124
:102FA000E02D199481E090E0F8940C941918FB013D
:102FB000DC0105900D920020E1F70895FC010590D9
:102FC0000020E9F7809590958E0F9F1F0895DC01F2
:102FD000CB01FC01F999FECF06C0F2BDE1BDF89A24
:102FE000319600B40D9241505040B8F70895DC017D
:102FF000A40FB51F4150504048F0CB01840F951FDE
:103000002E910E94081841505040D0F70895262F65
:10301000F999FECF92BD81BDF89A019700B40216CE
:1030200039F01FBA20BD0FB6F894FA9AF99A0FBE7C
:063030000895F894FFCFA3
:103036000000BF06800001000000005A15000000D5
:10304600005A15000000005A1500000000DF015A62
:103056001500000000DF01890B00000000E4015E9E
:103066000400000000AF01FEFF0000CE01FCFF00DF
:1030760000D101000000003C0C0F0CB50BBD0BD0BD
:103086000BDF0B0000000009167D175C1575156730
:0430960015E7150025
:00000001FF
