:100000000C942C010C9454010C9454010C94540144
:100010000C9454010C9454010C9454010C9454010C
:100020000C9454010C9454010C9454010C945401FC
:100030000C9454010C9454010C9454010C945401EC
:100040000C94BC140C9454010C940F170C945D1771
:100050000C9454010C9454010C9454010C945401CC
:100060000C9479050C945401457874656E73696F2E
:100070006E206D6F64756C652070726F746F636F46
:100080006C00302E3100576865656C6572204D69D3
:1000900063726F666C756964696373204C6162009A
:1000A000485620537769746368696E6720426F61B0
:1000B000726400322E3100302E332E310068747499
:1000C000703A2F2F6D6963726F666C75696469632E
:1000D000732E75746F726F6E746F2E63612F6472FE
:1000E0006F70626F740073746174655F6F665F61D7
:1000F0006C6C5F6368616E6E656C73282900693291
:10010000635F616464726573733D007365726961F6
:100110006C5F6E756D6265723D004572726F722024
:10012000007365745F70726F6772616D6D696E6781
:100130005F6D6F646528007365745F7365726961D4
:100140006C5F6E756D62657228007365745F6932ED
:10015000635F616464726573732800636F6E6669C0
:100160006728290072657365745F636F6E666967DF
:1001700028290070726F6772616D6D696E675F6DBF
:100180006F64653D00737570706F7274735F49536F
:10019000503D66616C736500737570706F72747337
:1001A0005F4953503D747275650073657269616C87
:1001B0005F6E756D6265723D0070726F6772616D22
:1001C0006D696E675F6D6F64653D006932635F6185
:1001D0006464726573733D00626173655F636F6E23
:1001E0006669675F76657273696F6E3D0046697216
:1001F0006D77617265207600000000002400270002
:100200002A0000000000250028002B00000000004C
:100210002300260029000404040404040404020248
:100220000202020203030303030301020408102075
:100230004080010204081020010204081020000080
:100240000007000201000003040600000000000097
:100250000000B9047D07C91811241FBECFEFD8E0F4
:10026000DEBFCDBF11E0A0E0B1E0EEE4F9E302C0F3
:1002700005900D92A63AB107D9F714E0A6EAB1E0CD
:1002800001C01D92AE31B107E1F712E0C8E5D2E03E
:1002900004C02297FE010E94561CC235D107C9F73F
:1002A0000E942C040C94A51C0C940000CF93DF93A7
:1002B000BC018230910510F462E070E0A0911C0452
:1002C000B0911D04ED01E0E0F0E040E050E021C01D
:1002D000888199818617970769F48A819B81309775
:1002E00019F09383828304C090931D0480931C04AF
:1002F000FE0134C06817790738F44115510519F02B
:100300008417950708F4AC01FE018A819B819C014A
:10031000E9012097E9F641155105A9F1CA01861BAB
:10032000970B049708F4BA01E0E0F0E02AC08D9141
:100330009C91119784179507F9F46417750781F458
:1003400012968D919C911397309719F09383828325
:1003500004C090931D0480931C04FD0132964CC090
:10036000CA01861B970BFD01E80FF91F619371937A
:1003700002978D939C9340C0FD01828193819C01E3
:10038000D9011097A1F680911A0490911B04892B32
:1003900041F4809168019091690190931B048093CE
:1003A0001A0440916A0150916B014115510541F4C5
:1003B0004DB75EB78091660190916701481B590B5C
:1003C00020911A0430911B04CA01821B930B8617DB
:1003D000970780F0AB014E5F5F4F8417950750F091
:1003E000420F531F50931B0440931A04F901619369
:1003F000719302C0E0E0F0E0CF01DF91CF9108956A
:10040000CF93DF93009709F450C0EC0122971B8231
:100410001A82A0911C04B0911D04109709F140E0CC
:1004200050E0AC17BD0708F1BB83AA83FE01219100
:100430003191E20FF31FAE17BF0779F48D919C91B4
:100440001197280F391F2E5F3F4F3983288312964B
:100450008D919C9113979B838A834115510571F46B
:10046000D0931D04C0931C0420C012968D919C91C2
:100470001397AD01009711F0DC01D3CFFA01D383BC
:10048000C28321913191E20FF31FCE17DF0769F488
:1004900088819981280F391F2E5F3F4FFA013183E0
:1004A00020838A819B8193838283DF91CF910895FA
:1004B000A0E0B0E0EEE5F2E00C94701C6C01009757
:1004C00029F4CB010E9456016C01C1C08EEF882E29
:1004D0008FEF982E8C0C9D1C8601060F171F081598
:1004E000190508F4B2C0F401A081B181A617B707BD
:1004F000B8F0A530B10508F4AAC0CD01049786175D
:10050000970708F4A4C01297A61BB70BF801A19394
:10051000B193D4016D937C93CF010E94000297C0E8
:100520007B01EA1AFB0AEEEFFFEFEE0EFF1E36012B
:100530006A0E7B1EC0911C04D0911D0444245524D6
:10054000AA24BB244AC0C615D705E1F548815981C4
:100550004E155F05B8F1CA0104978E159F05B0F4DA
:100560001296A40FB51FF401B183A0832A813B81A9
:100570004114510431F0D20113963C932E931297FB
:1005800066C030931D0420931C0461C08A819B8146
:10059000F80193838283425050404E195F09518382
:1005A00040834114510431F0D20113961C930E93F1
:1005B000129704C010931D0400931C04F40171836E
:1005C000608345C088819981A816B90608F45C014A
:1005D0002E018A819B819C01E901209709F0B3CF0C
:1005E00080911A0490911B0486159705E9F4A616CC
:1005F000B706D0F420916A0130916B0121153105C5
:1006000041F42DB73EB78091660190916701281B98
:10061000390B02171307C8F410931B0400931A0434
:10062000D4016D937C9313C0CB010E945601EC0161
:10063000009759F0F40140815181B6010E945203A4
:10064000C6010E9400026E0102C0CC24DD24C60156
:10065000CDB7DEB7E0E10C948C1CFC01882799270C
:10066000E89421912032E9F3293010F02E30C8F3BC
:100670002B3241F02D3239F4689404C00E94CF032C
:10068000820F911D219120532A30C0F31EF49095C2
:1006900081959F4F0895FB01DC0105900D9200208C
:1006A000E1F70895FB01DC0102C001900D92415079
:1006B0005040D8F70895DC0101C06D93415050407F
:1006C000E0F70895FC018191861721F08823D9F77E
:1006D000992708953197CF010895FB01DC018D9191
:1006E000019080190110D9F3990B0895FB01DC01E9
:1006F00001900D920020E1F70895FB0151915523DF
:10070000A9F0BF01DC014D9145174111E1F759F402
:10071000CD010190002049F04D9140154111C9F3E0
:10072000FB014111EFCF81E090E001970895A0E037
:10073000B0E0EDE9F3E00C94781C7C01EB018A0158
:10074000690109C0CE012196F6010995F70181934F
:100750007F010150104001151105A1F7CDB7DEB79B
:10076000E8E00C94941CA0E0B0E0E9EBF3E00C941A
:10077000781CEC017B018A01690109C0CE01219638
:10078000F70161917F01F6010995015010400115B3
:100790001105A1F7CDB7DEB7E8E00C94941C7AE020
:1007A000979F902D879F802D910D11240895FA0118
:1007B000CF93FF93EF932230CCF02532BCF4C22FBD
:1007C0002C2F332744275527FF93EF930E94321C89
:1007D000EF91FF91605D6A330CF0695D6193B9013F
:1007E000CA01605070408040904051F710828F9154
:1007F0009F91CF910C941204FB019F01423074F041
:10080000453264F4642F77270E945A1C805D8A3336
:100810000CF0895D8193CB010097A1F71082C9018B
:100820000C941204DC01FC01672F71917723E1F72E
:10083000329704C07C916D9370836291AE17BF07AD
:10084000C8F308958AE692E00E94E71308958AE6C5
:1008500092E00E94EB080895CF93DF930E946B15FE
:100860000E942704CAE4D7E10E9422042097E1F302
:100870000E944A17F9CFF999FECF72BD61BDF89A6F
:1008800080B50895F999FECF1FBA72BD61BD40BD14
:100890000FB6F894FA9AF99A0FBE08952091C801FC
:1008A00030E08091C701281B3109C90108954091AA
:1008B000C7018091C801481718F02FEF3FEF0AC019
:1008C000E42FF0E0E955FE4F8081282F30E04F5FA4
:1008D0004093C701C9010895E091C7018091C80103
:1008E000E81718F0EFEFFFEF06C0F0E0E955FE4F14
:1008F0008081E82FF0E0CF0108950895AC012091A8
:10090000EE013091EF0121153105E1F09091C70121
:100910008091C8019817B0F090E008C0FA01EA0F82
:10092000FB1F8081A955BE4F8C939F5FA92FB0E01C
:10093000A617B7079CF31092C7016093C801CB01BB
:10094000F90109950895E091EC01F091ED013097DE
:1009500029F01092E9011092EA0109950895709327
:10096000EF016093EE0108957093ED016093EC0147
:1009700008951092F3011092F20188EE93E0A0E046
:10098000B0E08093F4019093F501A093F601B09349
:10099000F70181E791E09093F1018093F0010895D0
:1009A000CF92DF92EF92FF920F931F93CF93DF933B
:1009B0007C016B018A018091EB018823A1F0C0E0EA
:1009C000D0E00DC0D701ED91FC91D601AC0FBD1F59
:1009D0000190F081E02DC7016C9109952196C01717
:1009E000D10780F304C0CB01642F0E945405C801D5
:1009F000DF91CF911F910F91FF90EF90DF90CF90FB
:100A00000895DF93CF930F92CDB7DEB7FC016983D2
:100A10008091EB018823C9F08091EA01803238F09F
:100A200081E090E09383828320E030E015C08091E4
:100A3000E901E82FF0E0E753FE4F998190838F5F43
:100A40008093E9018093EA0105C0CE01019661E03F
:100A50000E94540521E030E0C9010F90CF91DF9151
:100A600008951092C7011092C8011092E9011092E6
:100A7000EA010E940A0708950F931F938C01862FA5
:100A80000E94500583EA94E00E9474058EE794E08A
:100A90000E946F05C8010E9431051F910F910895B2
:100AA000880F8093BA000895482F613210F081E0DA
:100AB00008958091FC01843011F082E008956093E4
:100AC0004702A6E2B2E0842F9C01F90102C08191A5
:100AD0008D938E2F841B8617D0F380E0089590931A
:100AE0000302809302020895909301028093000212
:100AF00008951F920F920FB60F9211242F933F93D8
:100B00004F935F936F937F938F939F93AF93BF9315
:100B1000EF93FF938091B90090E0887F90708036CA
:100B2000910509F4F2C081369105CCF58832910522
:100B300009F47BC089329105B4F48031910509F440
:100B40006FC0813191053CF4009709F447C10897C3
:100B500009F04FC165C08831910509F466C08097DE
:100B600009F047C182C08034910509F4A4C08134E2
:100B7000910544F48033910509F482C0C89709F0C7
:100B800038C189C08035910509F489C0883591053F
:100B900009F496C08834910509F02BC1AEC088399C
:100BA000910509F413C189399105ECF48837910551
:100BB00009F4ABC0893791054CF48836910509F4E6
:100BC000A4C08037910509F014C19FC088389105F1
:100BD00009F4FCC08039910509F49DC08038910565
:100BE00009F007C198C0803B910509F4C6C0813B5C
:100BF00091054CF4803A910509F49FC0883A91051B
:100C000009F0F7C0BAC0803C910509F4E3C0883C04
:100C1000910509F4DFC0883B910509F0EAC0C2C024
:100C20008091FD018093BB00CFC090912402809100
:100C30002502981768F490912402E92FF0E0EC5F08
:100C4000FD4F80818093BB009F5F90932402BCC0C6
:100C50008091FE01882309F44BC085ED8093BC0090
:100C60008091BC0084FDFCCFC2C080E28093690209
:100C700085ED8093BC008091BC0084FDFCCFB7C0A3
:100C800080E38093690285ED8093BC008091BC0075
:100C900084FDFCCFACC088E3809369029BC0809147
:100CA00024029091BB00E82FF0E0EC5FFD4F9083B1
:100CB0008F5F80932402909124028091250282C04C
:100CC000809124029091BB00E82FF0E0EC5FFD4F93
:100CD00090838F5F809324028091FE01882341F0EE
:100CE00085ED8093BC008091BC0084FDFCCF7FC06B
:100CF00081E08093FF0184EA6EC085ED8093BC00A3
:100D00008091BC0084FDFCCF72C083E08093FC0125
:100D10001092680259C080916802803208F056C073
:100D2000809168029091BB00E82FF0E0E85BFD4FF6
:100D300090838F5F8093680247C080916802803201
:100D400030F4E0916802F0E0E85BFD4F108285ED41
:100D50008093BC008091BC0084FDFCCF1092FC010C
:100D600060916802E0910202F091030288E492E04F
:100D700070E00995109268022DC084E08093FC0118
:100D80001092460210924702E0910002F091010297
:100D9000099580914702882329F481E080934702D6
:100DA0001092260290914602E92FF0E0EA5DFD4F95
:100DB00080818093BB009F5F909346029091460292
:100DC00080914702981710F485EC01C085E8809364
:100DD000BC000FC085EC8093BC0009C01092690272
:100DE00085ED8093BC008091BC0084FDFCCF109207
:100DF000FC01FF91EF91BF91AF919F918F917F91F6
:100E00006F915F914F913F912F910F900FBE0F9077
:100E10001F9018951092FC0181E08093FE011092C2
:100E2000FF0182E161E00E94671683E161E00E94B8
:100E30006716E9EBF0E080818E7F808380818D7F73
:100E4000808388E48093B80085E48093BC00089593
:100E500081E00895CF93DF9390E0FC01EA5EFD4FBF
:100E6000E491F0E0EE0FFF1FEE5FFD4FC591D491CE
:100E700070E0FB01EA5EFD4FE491F0E0EE0FFF1F32
:100E8000EE5FFD4FA591B491865D9D4FFC0154919D
:100E9000665D7D4FFB016491E62FE095752F70959F
:100EA0004423A9F498E030E020FF03C08881852B1B
:100EB00002C08881872388838C91862B8C938C91A8
:100EC0008E238C939150B1F035952795ECCF98E017
:100ED00027FF03C08881852B02C0888187238883F0
:100EE0008C91862B8C938C918E238C93915011F046
:100EF000220FEECFDF91CF91089510928B0281E8FF
:100F000091E090936B0280936A0208951F93CF93B0
:100F1000DF93EC0183E060E00E946716A69610E084
:100F20002881209585E064E041E00E942A071F5F48
:100F300021971530A9F783E061E00E946716DF91E1
:100F4000CF911F9108956F927F928F929F92AF924F
:100F5000BF92CF92DF92FF920F931F93DF93CF93B5
:100F6000CDB7DEB765970FB6F894DEBF0FBECDBF25
:100F70008C010E949711882309F052C083E093E00E
:100F800066EE70E00E944B03C80163E073E00E94CC
:100F90004A11882309F445C0E2E26E2E712C600EDE
:100FA000711EFF2478E0872E912C8C0E9D1E5E0111
:100FB0000894A11CB11C6FE0C62ED12CCC0EDD1EF6
:100FC000C40160E071E00E94311BC5016F2D4AE051
:100FD0000E94C71BC401B5010E94E01A64E171E0E0
:100FE0000E94C41A8C01C601F30161913F014AE0DD
:100FF0000E94C71BC801B6010E94E01ABC0188EF1D
:1010000093E00E94CB19C6010E94261CC5010E94D4
:10101000261CC4010E942C1CF394F5E0FF1681F6F7
:1010200081E065960FB6F894DEBF0FBECDBFCF91BD
:10103000DF911F910F91FF90DF90CF90BF90AF9005
:101040009F908F907F906F900895CF93DF93EC01E6
:1010500082E088A380919702682F6F73881F88278A
:10106000881F962F9851953008F052C018A2109200
:10107000960260919C0270919D026115710519F4B0
:10108000692F70E016C061307105E9F4692F70E0D6
:101090008091980290919902FC01E156FD4F2081C8
:1010A00001969093990280939802FE01E60FF71F34
:1010B00027A3695D7F4F6C0F7D1FCE0141E050E09B
:1010C0000E94310985C0882309F47CC0690F711D15
:1010D0006630710508F076C020919802309199022F
:1010E0000BC0AC0FBD1FF901E156FD4F80819796F3
:1010F0008C939F5F2F5F3F4FA92FB0E0A617B707D4
:1011000080F330939902209398026A5D7F4FD3CF8A
:10111000962F9850953008F058C018A21092960259
:1011200060919C0270919D026115710529F4692FEF
:1011300070E06E5D7F4FBFCF61307105B1F4692FF4
:1011400070E08091980290919902FC01E156FD4F68
:10115000208101969093990280939802FE01E60FF8
:10116000F71F22A36E5D7F4F22C0882359F1690FBC
:10117000711D6630710530F5209198023091990209
:101180000BC0AC0FBD1FF901E156FD4F8081929657
:101190008C939F5F2F5F3F4FA92FB0E0A617B70733
:1011A00080F330939902209398026F5D7F4F6C0F0C
:1011B0007D1FCE0141E050E00E943109CE010E9426
:1011C000860706C081E088A303C0CE010E94240DDB
:1011D000DF91CF9108950F931F938C010E943F14CC
:1011E00083E061E00E94281684E061E00E942816F6
:1011F00085E061E00E94281688E061E00E942816E0
:1012000089E061E00E94281689E061E00E9467168B
:1012100088E060E00E94671698012E5D3F4FC9018B
:101220006FEF70E045E050E00E945B03C8010E9450
:1012300086071F910F9108959C01F999FECF32BD49
:1012400021BDF89A80B508959C01F999FECF1FBA87
:1012500032BD21BD60BD0FB6F894FA9AF99A0FBE5F
:101260000895CF93DF93A0919A02B0919B02ED0174
:10127000C156DD4F20E030E007C0FB01E20FF31F55
:10128000808189932F5F3F4F24173507B0F3A40F58
:10129000B51FB0939B02A0939A02DF91CF9108955E
:1012A000CF92DF92EF92FF920F931F93DF93CF9332
:1012B000CDB7DEB72E970FB6F894DEBF0FBECDBF09
:1012C0006C01DC0118966C9380EF91E00E943C0564
:1012D00003E013E0C8016EEF70E00E944B0388E06A
:1012E000E82EF12CEC0EFD1EC701B8010E94311B47
:1012F0008E010F5F1F4FC801F60160854AE00E9412
:10130000C71BC701B8010E94E01ABC0188EF93E037
:101310000E94CB19C8010E94261CC7010E942C1CE8
:10132000D601ED91FC910288F389E02DC601099563
:101330002E960FB6F894DEBF0FBECDBFCF91DF91D2
:101340001F910F91FF90EF90DF90CF900895DF9263
:10135000EF92FF920F931F93DF93CF93CDB7DEB73A
:101360002E970FB6F894DEBF0FBECDBFD62E03E08A
:1013700013E0C8016AE171E00E944B0398E0E92E96
:10138000F12CEC0EFD1EC701B8010E94311B8E012D
:101390000F5F1F4FC8016D2D4AE00E94C71BC70198
:1013A000B8010E94E01ABC0188EF93E00E94CB19BB
:1013B000C8010E94261CC7010E942C1C2E960FB645
:1013C000F894DEBF0FBECDBFCF91DF911F910F917B
:1013D000FF90EF90DF900895CF92DF92EF92FF920F
:1013E0000F931F93DF93CF93CDB7DEB72E970FB632
:1013F000F894DEBF0FBECDBF6C01DC0119966C9373
:1014000003E013E0C80163E771E00E944B0328E0AA
:10141000E22EF12CEC0EFD1EC701B8010E94311B1B
:101420008E010F5F1F4FC801F60161854AE00E94DF
:10143000C71BC701B8010E94E01ABC0188EF93E006
:101440000E94CB19C8010E94261CC7010E942C1CB7
:10145000D601ED91FC910288F389E02DC601099532
:101460002E960FB6F894DEBF0FBECDBFCF91DF91A1
:101470001F910F91FF90EF90DF90CF900895CF9242
:10148000DF92EF92FF920F931F93DF93CF93CDB72D
:10149000DEB72E970FB6F894DEBF0FBECDBF6C013E
:1014A000DC011A964D935D936D937C931D9703E039
:1014B00013E0C8016BE071E00E944B0338E0E32EBB
:1014C000F12CEC0EFD1EC701B8010E94311BF60184
:1014D00042855385648575858E010F5F1F4FC80156
:1014E0002AE00E94641BC701B8010E94E01ABC01F7
:1014F00088EF93E00E94CB19C8010E94261CC70107
:101500000E942C1CD601ED91FC910288F389E02DFC
:10151000C60109952E960FB6F894DEBF0FBECDBF5B
:10152000CF91DF911F910F91FF90EF90DF90CF90BF
:101530000895BC016E5F7F4F80E090E04EE150E087
:1015400024E239E00E94B3030895FC0181858823D9
:1015500069F483E161E00E94281683E160E00E9463
:10156000671683E160E00E942816089587E060E036
:101570000E94671687E061E00E94671608956F92E7
:101580007F928F929F92BF92CF92DF92EF92FF92C3
:101590000F931F93CF93DF93EC01062F029660E029
:1015A00070E04EE150E02CE139E00E9497038A811F
:1015B0009B81892BD9F48C819D81892BB9F48E81F3
:1015C0009F81892B99F48FEF9FEFAFEFBFEF8A8751
:1015D0009B87AC87BD8781E090E09F838E83E88105
:1015E000F9810288F389E02DCE0109958A819B81DA
:1015F000892B09F58C819D81892BE9F48E819F814E
:101600000197C9F4CE010E9629E0DC01822F1D92CC
:101610008A95E9F7CE014796DC011D922A95E9F7F4
:1016200082E090E09F838E83E881F9810288F389CC
:10163000E02DCE0109958A819B81892B51F48C8103
:101640009D81892B31F48E819F81029711F40023B3
:1016500041F11B821A821D821C8282E090E09F83EE
:101660008E838AE0888719868FEF9FEFAFEFBFEFF9
:101670008A879B87AC87BD87CE010E9629E0DC0167
:10168000822F1D928A95E9F7CE014796DC011D92C3
:101690002A95E9F7E881F9810288F389E02DCE01E6
:1016A0000995BB242AC0B4E1EB16F104DCF4F30184
:1016B000008110E00C2C02C0159507950A94E2F702
:1016C0000170D4016C9170E00C2C02C07595679587
:1016D0000A94E2F761708E2D0E9428168E2D602FDD
:1016E0000E9467160894C11CD11C0894E11CF11CCF
:1016F000B8E0CB16D104B9F6B3948B2D90E0E3E0BB
:10170000BE16A9F07C0163E0EE0CFF1C6A95E1F7C0
:10171000CC24DD248C0F9D1F57E1652E712C680EA3
:10172000791E4EE0842E912C880E991EBCCFE88144
:10173000F9810484F585E02DCE010995882319F0FF
:10174000CE010E94A50A80EF91E068850E943C05C9
:10175000DF91CF911F910F91FF90EF90DF90CF908D
:10176000BF909F908F907F906F9008950F931F93DD
:10177000DF93CF93CDB7DEB72C970FB6F894DEBFCB
:101780000FBECDBF8E010F5F1F4FC80160E070E03C
:1017900046E050E02CE139E00E949703DE01179605
:1017A000F80186E001900D928150E1F72F81388594
:1017B00049855A856B857C8590E02C960FB6F89408
:1017C000DEBF0FBECDBFCF91DF911F910F91089566
:1017D0002F923F924F925F926F927F928F929F9241
:1017E000AF92BF92CF92DF92EF92FF920F931F932F
:1017F000DF93CF93CDB7DEB7A2970FB6F894DEBFD5
:101800000FBECDBF382E292E0D8F1E8F2F8F38A3E0
:1018100049A35AA36F8C78A049A05AA06D8D7E8DE4
:101820004E010894811C911CC4014AE00E94961B41
:10183000F8E0AF2EB12CAC0EBD1EC501B4010E9464
:101840001B1CE7E1EE2EE1E0FE2EC501B7010E9470
:10185000C41A8C017FE0C72ED12CCC0EDD1EC60130
:10186000B3014AE00E94961BC801B6010E94E01A2B
:10187000B7010E94C41A7C018E010A5E1F4FC80185
:10188000B2014AE00E94961BC701B8010E94E01A0B
:10189000BC01832D922D0E94101CC8010E94261CA1
:1018A000C6010E94261CC5010E942C1CC4010E9476
:1018B000261C832D922DA2960FB6F894DEBF0FBE84
:1018C000CDBFCF91DF911F910F91FF90EF90DF90EF
:1018D000CF90BF90AF909F908F907F906F905F90D0
:1018E0004F903F902F900895CF92DF92EF92FF920A
:1018F0000F931F93CF93DF936C01EB017A0100915B
:10190000980210919902C80181569D4F998388834E
:101910006CE270E00E946203FC01D7018D939C93FE
:10192000009771F488819981FC0101900020E9F70A
:101930003197E81B8E0F911DD7018D939C9303C0A7
:10194000EF5F8881E81BEE2341F00E0F111D10930D
:1019500099020093980281E005C0C60168E00E94E8
:10196000A70980E0DF91CF911F910F91FF90EF9039
:10197000DF90CF900895AF92BF92CF92DF92EF9217
:10198000FF920F931F93DF93CF9300D000D0CDB77A
:10199000DEB76B01ADB6BEB6BE016F5F7F4FAE0165
:1019A0004D5F5F4F0E94740C8823D1F1FDB6EEB6F7
:1019B0002B813C8149815A81241B350BC901019639
:1019C0006DB77EB7681B790B0FB6F8947EBF0FBE5C
:1019D0006DBF0DB71EB70F5F1F4FC801BA01A90138
:1019E0000E945203EB81FC8189819A81E81BF90BEB
:1019F000E00FF11F1082C8010E942D03AA2797FD56
:101A0000A095BA2FF60180839183A283B3832F2DF3
:101A10003E2DC9010FB6F8949EBF0FBE8DBF81E069
:101A20000FB6F894BEBE0FBEADBE0F900F900F90D4
:101A30000F90CF91DF911F910F91FF90EF90DF906A
:101A4000CF90BF90AF9008954F925F927F928F9208
:101A50009F92AF92BF92CF92DF92EF92FF920F933D
:101A60001F93DF93CF93CDB7DEB7CB56D0400FB6E1
:101A7000F894DEBF0FBECDBF2C0180919702803954
:101A800009F4AAC18139C8F4833809F4C0C0843884
:101A900050F4813809F45DC0823808F089C080387C
:101AA00009F0D7C327C0853809F4E0C0853808F4A9
:101AB0000CC1863809F0CDC337C1843909F4AEC2F0
:101AC000853958F4823909F4D8C120919C023091AB
:101AD0009D02833908F0F3C1ABC1863909F451C3C3
:101AE000863908F442C2873909F4F2C28C3909F008
:101AF000B0C34BC180919C0290919D02892B09F04B
:101B0000B7C10FE912E0C80168E670E00E944B031C
:101B1000C80168E670E00E944B03F80101900020C4
:101B2000E9F73197E01BF10B20919A0230919B026B
:101B3000A901400F511FBF01600F711F06C0D801DE
:101B40008D918D01DA018D93AD0106171707B9F755
:101B500019C180919C0290919D02892B09F088C146
:101B60000FE912E0C80162E870E00E944B03C8016F
:101B700062E870E00E944B03F80101900020E9F751
:101B80003197E01BF10B20919A0230919B02A90141
:101B9000400F511FBF01600F711F06C0D8018D910A
:101BA0008D01DA018D93AD0106171707B9F7EAC069
:101BB00080919C0290919D02892B09F059C10FE9F7
:101BC00012E0C80160EA70E00E944B03C80160EABD
:101BD00070E00E944B03F80101900020E9F7319773
:101BE000E01BF10B20919A0230919B02A901400F5A
:101BF000511FBF01600F711F06C0D8018D918D016B
:101C0000DA018D93AD0106171707B9F7BBC08091B4
:101C10009C0290919D02892B09F02AC10FE912E0E4
:101C2000C80166E870E00E944B03C80166E870E0F6
:101C30000E944B03F80101900020E9F73197E01B67
:101C4000F10B20919A0230919B02A901400F511F84
:101C5000BF01600F711F06C0D8018D918D01DA019F
:101C60008D93AD0106171707B9F78CC080919C02C0
:101C700090919D02892B09F0FBC00FE912E0C80189
:101C800067EB70E00E944B03C80167EB70E00E94B5
:101C90004B03F80101900020E9F73197E01BF10BAD
:101CA00020919A0230919B02A901400F511FBF0160
:101CB000600F711F06C0D8018D918D01DA018D93DF
:101CC000AD0106171707B9F75DC080919C0290918E
:101CD0009D02892B09F0CCC00FE912E0C80163EB2B
:101CE00070E00E944B03C80163EB70E00E944B035D
:101CF000F80101900020E9F73197E01BF10B2091EA
:101D00009A0230919B02A901400F511FBF01600F41
:101D1000711F06C0D8018D918D01DA018D93AD013F
:101D200006171707B9F72EC080919C0290919D026B
:101D3000892B09F09DC00FE912E0C8016DEB70E03E
:101D40000E944B03C8016DEB70E00E944B03F80149
:101D500001900020E9F73197E01BF10B20919A02E6
:101D600030919B02A901400F511FBF01600F711FED
:101D700006C0D8018D918D01DA018D93AD01061752
:101D80001707B9F72E0F3F1F4EC0D201ED91FC91FE
:101D90000484F585E02DC20109958823D9F080914E
:101DA0009C0290919D02019709F062C08091980277
:101DB00090919902FC01E156FD4F2081019690938C
:101DC00099028093980260E0211161E0C2010E94B3
:101DD000EC094BC081E03BC280919C0290919D0236
:101DE000029709F045C08091980290919902FC01F8
:101DF000E156FD4F60817181029690939902809324
:101E00009802D201ED91FC910480F581E02DC20190
:101E1000099520919A0230919B02F901E156FD4FFC
:101E200080832F5F3F4F30939B0220939A021DC007
:101E300023303105E9F48091980290919902FC01D8
:101E4000E156FD4F60817181FC01EF55FD4F4081EE
:101E500003969093990280939802D201ED91FC91A0
:101E60000680F781E02DC2010995F20110A2F1C1AF
:101E700086E0D20190968C93ECC180919C02909167
:101E80009D02019709F0E2C1F20110A2809198022F
:101E900090919902FC01E156FD4F208101969093AB
:101EA000990280939802D201ED91FC9160E021119A
:101EB00061E00088F189E02DC2010995CAC1223094
:101EC000310509F0C3C18091980290919902FC01FB
:101ED000E156FD4F80800196FC01E156FD4F908058
:101EE000019690939902809398025AE0A52EB12C06
:101EF000AC0EBD1EC50169E171E00E94311B43E0DB
:101F0000C42ED12CCC0EDD1EC601682D4AE00E94E5
:101F1000C71BC501B6010E94E01A62E271E00E948F
:101F2000C41A7C018E010F5E1F4FC801692D4AE063
:101F30000E94C71BC701B8010E94E01A65E271E068
:101F40000E94C41ABC0188EF93E00E94CB19C8011B
:101F50000E94261CC6010E94261CC5010E942C1C42
:101F6000882D692D0E9428166DC180919C02909148
:101F70009D02029709F06AC180919802909199029E
:101F8000FC01E156FD4F80800196FC01E156FD4FBA
:101F90009080019690939902809398023FE1A32E3E
:101FA000B12CAC0EBD1EC50167E271E00E94311B71
:101FB00028E1C22ED12CCC0EDD1EC601682D4AE0D0
:101FC0000E94C71BC501B6010E94E01A62E271E0DF
:101FD0000E94C41A7C018E010A5D1F4FC801692D41
:101FE0004AE00E94C71BC701B8010E94E01A65E2DF
:101FF00071E00E94C41ABC0188EF93E00E94CB19E3
:10200000C8010E94261CC6010E94261CC5010E9410
:102010002C1C882D692D0E94671614C180919C028A
:1020200090919D02019709F011C1809198029091C1
:102030009902FC01E156FD4F10810196909399029F
:1020400080939802812F0E94BB16898394E3A92E66
:10205000B12CAC0EBD1EC50165E371E00E94311BC1
:102060008DE2C82ED12CCC0EDD1EC601612F4AE0B8
:102070000E94C71BC501B6010E94E01A62E471E02C
:102080000E94C41A7C018E01055C1F4FC801698142
:102090004AE00E94C71BC701B8010E94E01ABC01B8
:1020A00088EF93E00E94CB19C8010E94261CC6014C
:1020B0000E94261CC5010E942C1C80919A029091BE
:1020C0009B02FC01E156FD4F298120830196B6C099
:1020D00080919C0290919D02029709F0B7C0809177
:1020E000980290919902FC01E156FD4F7080FC012D
:1020F000E056FD4F808091800396909399028093E3
:10210000980209E4A02EB12CAC0EBD1EC50167E4F7
:1021100071E00E94311B12E4C12ED12CCC0EDD1EC9
:10212000C601672D4AE00E94C71BC501B6010E9487
:10213000E01A62E271E00E94C41A7C018E01005B29
:102140001F4FC801B4014AE00E94961BC701B801A5
:102150000E94E01A65E271E00E94C41ABC0188EF97
:1021600093E00E94CB19C8010E94261CC6010E9460
:10217000261CC5010E942C1C872DB4010E94C81585
:1021800061C080919C0290919D02019709F05EC010
:102190008091980290919902FC01E156FD4F1081C7
:1021A00001969093990280939802812F0E94A61520
:1021B0009A838983BEE5AB2EB12CAC0EBD1EC50142
:1021C00064E571E00E94311BA7E5EA2EF12CEC0ECC
:1021D000FD1EC701612F4AE00E94C71BC501B70160
:1021E0000E94E01A62E471E00E94C41A6C018E0140
:1021F0000B591F4F69817A81C8014AE00E94961BE2
:10220000C601B8010E94E01ABC0188EF93E00E9469
:10221000CB19C8010E94261CC7010E94261CC501BB
:102220000E942C1C80919A0290919B02FC01E15625
:10223000FD4F298120832A812183029690939B025E
:1022400080939A02D20190961C9203C086E0F2011C
:1022500080A3C559DF4F0FB6F894DEBF0FBECDBFC8
:10226000CF91DF911F910F91FF90EF90DF90CF9072
:10227000BF90AF909F908F907F905F904F90089508
:1022800086EA91E00E944204089586EA91E00E9465
:102290003B0408950F931F93162F072F8FE992E0A9
:1022A00060E671E00E947D03009759F08FE992E0AB
:1022B000612F702F0E946D039C0180E0232BA1F5FC
:1022C00030C08FE992E0612F702F0E947D03FC01E6
:1022D000009749F182E0EF39F80729F5DF010D9009
:1022E0000020E9F71197AE1BBF0B3197EA0FFB1FD8
:1022F00080818932C1F4A256BD4F1C92A12FB02F0C
:10230000FD0101900020E9F73197EA1BFB0B80915A
:102310009802909199028E0F9F1F9093990280933B
:10232000980281E001C080E01F910F9108950F9302
:102330001F93DF93CF9300D000D0CDB7DEB78C01D1
:1023400083E093E064E671E00E944B03C80163E020
:1023500073E00E944A11882351F0D801ED91FC915D
:102360000088F189E02DC80161E009950DC083E086
:1023700093E06BE571E00E944B03C80163E073E0FA
:102380000E944A11882349F0D801ED91FC910684FE
:10239000F785E02DC801099568C083E093E06AE401
:1023A00071E00E944B03C80163E073E00E944A1190
:1023B000882371F0C801BE016F5F7F4F0E94BB0C84
:1023C000882309F452C0C80169810E9450094DC098
:1023D00083E093E067E371E00E944B03C80163E090
:1023E00073E00E944A11882381F0C801BE016F5F2B
:1023F0007F4F0E94BB0C8823C1F149815A816B81B8
:102400007C81C8010E943F0A30C0D801ED91FC9147
:102410000484F585E02DC8010995882321F183E026
:1024200093E061E271E00E944B03C80163E073E056
:102430000E944A118823B9F0C801BE016F5F7F4F27
:102440000E94BB0C882389F060E089819A81AB816E
:10245000BC81181619061A061B060CF461E0C801A7
:102460000E94EC0902C080E001C081E00F900F9053
:102470000F900F90CF91DF911F910F9108958F9240
:102480009F92AF92BF92CF92DF92EF92FF920F9303
:102490001F93DF93CF93CDB7DEB7C756D0400FB6AB
:1024A000F894DEBF0FBECDBF4C018FE992E060EA29
:1024B00070E00E944B0317E0C12ED12CCC0EDD1E24
:1024C000C6016FE972E00E94171BBEE0EB2EF12CF3
:1024D000EC0EFD1EC701B6010E941B1CC70163E67E
:1024E00071E00E94C41A5C018FE992E063EB70E036
:1024F0000E944B038E010B5E1F4FC8016FE972E013
:102500000E94171BC501B8010E94E01ABC0188EFA8
:1025100093E00E94CB19C8010E94261CC7010E94AB
:102520002C1CC6010E94261C83E093E06DEE71E036
:102530000E944B03A3E2EA2EF12CEC0EFD1EC70114
:1025400063E073E00E94311B8FE992E067EB70E07B
:102550000E944B038E01045E1F4FC8016FE972E0B9
:102560000E94171BC701B8010E94E01ABC0188EF46
:1025700093E00E94CB19C8010E94261CC7010E944B
:102580002C1C8FE992E06DEB70E00E944B0388EF0A
:1025900093E06FE972E00E94851983E093E068EDB3
:1025A00071E00E944B03CE01C19663E073E00E948C
:1025B000311BC4010E94B60BDE01AE59BF4F2C93F4
:1025C000FE01ED59FF4F3083FE01EC59FF4F408370
:1025D000FE01EB59FF4F5083FE01EA59FF4F608324
:1025E000FE01E959FF4F70839E012F5F3F4FFD01B0
:1025F00086E00190D9010D929D018150D1F7FAE258
:10260000EF2EF12CEC0EFD1EC701B40109811A81D9
:102610002B813C814D815E810E94E80B8E010F5C15
:102620001F4FC801B7010E94E01ABC0188EF93E078
:102630000E94CB19C7010E94261CC8010E942C1CB5
:1026400083E093E06BEC71E00E944B03EFE3EE2E2E
:10265000F12CEC0EFD1EC70163E073E00E94311BFC
:102660008E01085C1F4FC801F40160854AE00E949A
:10267000C71BC701B8010E94E01ABC0188EF93E0B4
:102680000E94CB19C8010E94261CC7010E942C1C65
:1026900083E093E069EB71E00E944B037DE4E72E59
:1026A000F12CEC0EFD1EC70163E073E00E94311BAC
:1026B0008E010A5B1F4FC801D40119966C914AE044
:1026C0000E94C71BC701B8010E94E01ABC0188EF35
:1026D00093E00E94CB19C8010E94261CC7010E94EA
:1026E0002C1C83E093E06AEA71E00E944B036BE5E7
:1026F000E62EF12CEC0EFD1EC70163E073E00E9494
:10270000311B8E010C5A1F4FF4014285538564859D
:102710007585C8012AE00E94641BC701B8010E94A8
:10272000E01ABC0188EF93E00E94CB19C8010E9417
:10273000261CC7010E942C1CD401ED91FC9104843D
:10274000F585E02DC4010995882329F083E093E005
:1027500068E971E004C083E093E065E871E00E94FD
:102760004B0388EF93E063E073E00E948519C95939
:10277000DF4F0FB6F894DEBF0FBECDBFCF91DF9114
:102780001F910F91FF90EF90DF90CF90BF90AF908F
:102790009F908F90089588EF93E00E941F18892BD7
:1027A00011F480E0089588EF93E06AE04FE952E089
:1027B00024E630E00E940B1AE82FF0E0E156FD4FCE
:1027C0001082109299021092980281E00895CF939E
:1027D000DF93EC010E94CB13882369F0E881F98133
:1027E0000284F385E02DCE010995882321F4CE01E2
:1027F00062E00E94A70980919E028823E9F110926D
:102800009B0210929A02109299021092980281E013
:102810008093960288A3E881F9810084F185E02DF8
:10282000CE01099580919602882371F080919A02D9
:1028300090919B02FC01E156FD4F28A12083019657
:1028400090939B0280939A0210929E02E881F981F4
:102850000484F585E02DCE010995882369F08091E7
:1028600097028C3949F468EE73E080E090E00E94B2
:102870001215CE010E94A50ADF91CF910895CF9342
:10288000DF93EC01E881F9810484F585E02D099559
:10289000882341F087E061E00E94671687E061E0ED
:1028A0000E94281688EF93E040E052EC61E070E06F
:1028B0000E949817E881F9810088F189E02DCE0106
:1028C00060E00995E881F9810684F785E02DCE0165
:1028D000099580EF91E068E774E10E94B40480EF0D
:1028E00091E062E974E10E94AF04DF91CF91089515
:1028F00080919602882359F080EF91E06AE972E0B6
:1029000042E050E00E94D004109296020895409157
:102910009A0250919B0280EF91E06FE972E00E9471
:10292000D00408950F931F93CF93DF938C0180EF12
:1029300091E00E94570480939702C80101979093F9
:102940009D0280939C028536910570F4CFE9D2E018
:102950008C010C0F1D1F05C080EF91E00E945704F1
:102960008993C017D107C1F781E080939E02DF9160
:10297000CF911F910F9108951F920F920FB60F9252
:1029800011242F933F938F939F93AF93BF93809185
:102990006B0390916C03A0916D03B0916E03309125
:1029A0006F030196A11DB11D232F2D5F2D3720F040
:1029B0002D570196A11DB11D20936F0380936B03CA
:1029C00090936C03A0936D03B0936E0380916703A3
:1029D00090916803A0916903B0916A030196A11DCB
:1029E000B11D8093670390936803A0936903B0932C
:1029F0006A03BF91AF919F918F913F912F910F905B
:102A00000FBE0F901F9018958FB7F89420916B030D
:102A100030916C0340916D0350916E038FBFB901EB
:102A2000CA0108959B01AC017FB7F89480916703B8
:102A300090916803A0916903B0916A0366B5A89B61
:102A400005C06F3F19F00196A11DB11D7FBFBA2FC0
:102A5000A92F982F8827860F911DA11DB11D62E017
:102A6000880F991FAA1FBB1F6A95D1F7BC012DC003
:102A7000FFB7F8948091670390916803A091690370
:102A8000B0916A03E6B5A89B05C0EF3F19F0019627
:102A9000A11DB11DFFBFBA2FA92F982F88278E0F18
:102AA000911DA11DB11DE2E0880F991FAA1FBB1F38
:102AB000EA95D1F7861B970B885E9340C8F22150A8
:102AC00030404040504068517C4F21153105410550
:102AD000510571F60895789484B5826084BD84B5FB
:102AE000816084BD85B5826085BD85B5816085BD09
:102AF000EEE6F0E0808181608083E1E8F0E0108222
:102B0000808182608083808181608083E0E8F0E062
:102B1000808181608083E1EBF0E08081846080834C
:102B2000E0EBF0E0808181608083EAE7F0E0808183
:102B300084608083808182608083808181608083E3
:102B40008081806880831092C1000895982F8E3014
:102B500008F09E50977080916C018295880F880FC5
:102B6000807C892B80937C0080917A0080648093A4
:102B70007A0080917A0086FDFCCF20917800409108
:102B80007900942F80E030E0282B392BC90108957B
:102B90001F93CF93DF93182FEB0161E00E9428165B
:102BA000209709F44AC0CF3FD10509F449C0E12F6D
:102BB000F0E0E25CFD4F84918330C1F0843028F472
:102BC000813051F08230B1F50CC0863019F1873078
:102BD00049F1843079F514C084B5806884BDC7BDDF
:102BE00033C084B5806284BDC8BD2EC08091800092
:102BF000806880938000D0938900C093880024C0AF
:102C000080918000806280938000D0938B00C0937D
:102C10008A001AC08091B00080688093B000C09391
:102C2000B30012C08091B00080628093B000C09366
:102C3000B4000AC0C038D1051CF4812F60E002C086
:102C4000812F61E00E946716DF91CF911F91089557
:102C5000CF93DF93482F50E0CA01865D9D4FFC0162
:102C600034914A5E5D4FFA018491882369F190E0C6
:102C7000880F991FFC01E850FE4FA591B491FC010B
:102C8000EE5FFD4FC591D491662351F42FB7F894B0
:102C90008C91932F909589238C93888189230BC0E5
:102CA000623061F42FB7F8948C91932F909589231B
:102CB0008C938881832B88832FBF06C09FB7F8949D
:102CC0008C91832B8C939FBFDF91CF910895482FD8
:102CD00050E0CA01825C9D4FFC012491CA01865DCF
:102CE0009D4FFC0194914A5E5D4FFA01349133236C
:102CF00009F440C0222351F1233071F0243028F42C
:102D00002130A1F0223011F514C02630B1F0273067
:102D1000C1F02430D9F404C0809180008F7703C0C3
:102D2000809180008F7D8093800010C084B58F7764
:102D300002C084B58F7D84BD09C08091B0008F77BB
:102D400003C08091B0008F7D8093B000E32FF0E04E
:102D5000EE0FFF1FEE5FFD4FA591B4912FB7F894D2
:102D6000662321F48C919095892302C08C91892B44
:102D70008C932FBF0895682F70E0CB01825C9D4F2C
:102D8000FC012491CB01865D9D4FFC0144916A5E5C
:102D90007D4FFB019491992319F420E030E03CC071
:102DA000222351F1233071F0243028F42130A1F096
:102DB000223011F514C02630B1F02730C1F0243094
:102DC000D9F404C0809180008F7703C08091800087
:102DD0008F7D8093800010C084B58F7702C084B54A
:102DE0008F7D84BD09C08091B0008F7703C0809132
:102DF000B0008F7D8093B000892F90E0880F991FDD
:102E0000845F9D4FFC01A591B4918C9120E030E04E
:102E1000842311F021E030E0C901089508951F9244
:102E20000F920FB60F9211242F933F934F938F93CE
:102E30009F93EF93FF938091C00082FD1DC040914E
:102E4000C6002091B0033091B1032F5F3F4F2F7325
:102E500030708091B2039091B3032817390771F055
:102E6000E091B003F091B103E059FC4F40833093FF
:102E7000B1032093B00302C08091C600FF91EF918F
:102E80009F918F914F913F912F910F900FBE0F9077
:102E90001F901895E0910404F0910504E05CFF4F49
:102EA0008191919120813181821B930B8F7390705E
:102EB000892B11F00E940E1708951F920F920FB6E2
:102EC0000F9211242F933F938F939F93EF93FF9330
:102ED0002091F4033091F5038091F6039091F7036C
:102EE0002817390731F48091C1008F7D8093C1008C
:102EF00014C0E091F603F091F703EC54FC4F2081ED
:102F00008091F6039091F70301968F7390709093E0
:102F1000F7038093F6032093C600FF91EF919F91F2
:102F20008F913F912F910F900FBE0F901F9018958A
:102F3000AF92BF92DF92EF92FF920F931F93CF93C6
:102F4000DF93EC017A018B01DD24403081EE5807DC
:102F500080E0680780E0780711F0DD24D39491E0E9
:102F6000A92EB12CEC89FD89DD2069F0C50108A0EE
:102F700002C0880F991F0A94E2F7808360E079E02D
:102F80008DE390E005C0108260E874E88EE190E087
:102F9000A80197010E94321C21503040404050400F
:102FA000569547953795279580E12030380720F0D2
:102FB000DD2011F0DD24D6CFE889F9893083EA8954
:102FC000FB89208319A2EE89FF89408121E030E04E
:102FD000C9010C8C02C0880F991F0A94E2F7482B94
:102FE0004083EE89FF894081C9010D8C02C0880FA2
:102FF000991F0A94E2F7482B4083EE89FF894081AC
:10300000C9010E8C02C0880F991F0A94E2F7482B61
:103010004083EE89FF8980810F8C02C0220F331F0D
:103020000A94E2F7209528232083DF91CF911F9106
:103030000F91FF90EF90DF90BF90AF900895DC016B
:103040001C96ED91FC911D97E05CFF4F2191319111
:1030500080819181281B390B2F733070C90108952D
:10306000DC011C96ED91FC911D97E05CFF4F2081E7
:103070003181E054F040DF01AE5BBF4F8D919C91F8
:1030800011972817390719F42FEF3FEF07C08D91DB
:103090009C91E80FF91F8081282F30E0C901089525
:1030A000DC011C96ED91FC911D97E05CFF4F2081A7
:1030B0003181E054F040DF01AE5BBF4F8D919C91B8
:1030C00011972817390719F42FEF3FEF10C08D9192
:1030D0009C911197E80FF91F20818D919C91119778
:1030E00001968F73907011969C938E9330E0C90176
:1030F0000895DC0191968C919197882339F054962C
:10310000ED91FC915597808186FFF9CF91961C92A5
:103110000895CF93DF93EC01EE85FF85E05CFF4FD0
:1031200020813181E054F0402F5F3F4F2F7330708A
:10313000DF01AE5BBF4F8D919C9111972817390726
:10314000D1F3E05CFF4F80819181E054F040E80FC3
:10315000F91F6083EE85FF85E05CFF4F318320839C
:10316000EE89FF89208181E090E00F8C02C0880FFA
:10317000991F0A94E2F7282B208381E089A3EC8928
:10318000FD8980818064808381E090E0DF91CF9130
:1031900008951092FB031092FA0388EE93E0A0E0EA
:1031A000B0E08093FC039093FD03A093FE03B093E3
:1031B000FF0389E991E09093F9038093F80380E796
:1031C00093E0909305048093040484EB93E0909340
:1031D00007048093060485EC90E0909309048093A3
:1031E000080484EC90E090930B0480930A0480EC34
:1031F00090E090930D0480930C0481EC90E0909308
:103200000F0480930E0482EC90E09093110480935D
:10321000100486EC90E0909313048093120484E0F1
:103220008093140483E08093150487E08093160450
:1032300085E08093170481E0809318040895CF926D
:10324000DF92EF92FF920F931F93CF93DF937C0156
:103250006B018A01C0E0D0E00FC0D6016D916D0115
:10326000D701ED91FC910190F081E02DC701099506
:10327000C80FD91F015010400115110571F7CE017B
:10328000DF91CF911F910F91FF90EF90DF90CF9042
:103290000895EF92FF920F931F938C01DC01ED9143
:1032A000FC910190F081E02D6DE009957C01D80141
:1032B000ED91FC910190F081E02DC8016AE0099543
:1032C0009C012E0D3F1DC9011F910F91FF90EF90A2
:1032D0000895CF93DF93EC016115710519F420E097
:1032E00030E00FC0DB010D900020E9F71197A61B1D
:1032F000B70BE881F9810280F381E02DAD010995DA
:103300009C01C901DF91CF910895EF92FF920F9335
:103310001F937C010E9469198C01C7010E94491901
:10332000080F191FC8011F910F91FF90EF9008958A
:10333000AF92BF92CF92DF92EF92FF920F931F93C3
:10334000CF93DF935C016B01EE24FF24C0E0D0E05B
:1033500010C0D501ED91FC9100811181C601BE0123
:103360000E943E1A682FC501F8010995E80EF91E62
:103370002196F60184819581C817D90750F3C701BA
:10338000DF91CF911F910F91FF90EF90DF90CF9041
:10339000BF90AF900895EF92FF920F931F937C011F
:1033A0000E9498198C01C7010E9449199C01200FA5
:1033B000311FC9011F910F91FF90EF900895CF9396
:1033C000DF93EC010E940415688779878A879B87C1
:1033D000E881F9810680F781E02DCE0109959C01F5
:1033E00097FF15C00E940415288539854A855B859D
:1033F000621B730B840B950B2C813D814E815F8189
:10340000621773078407950718F32FEF3FEFC90181
:10341000DF91CF910895AF92BF92CF92DF92EF925A
:10342000FF920F931F93CF93DF935C017A01890181
:103430002115310519F4C0E0D0E014C0C0E0D0E09F
:10344000C62EDD240CC0C5010E94DF1997FD0AC0FD
:103450008C159D0539F0F70181937F012196C017E6
:10346000D10788F3CE01DF91CF911F910F91FF908B
:10347000EF90DF90CF90BF90AF900895FC018481D2
:1034800095816817790748F40190F081E02D309715
:1034900021F0E60FF71F8081089580E008950F93D3
:1034A0001F93CF93DF93EC018B016F5F7F4F888178
:1034B00099810E945802009711F480E005C0998319
:1034C00088831B830A8381E0DF91CF911F910F9145
:1034D0000895CF93DF93EC0188819981892B29F09E
:1034E0008A819B818617970760F4CE010E944F1A4C
:1034F000882341F08C819D81892B19F4E881F98121
:10350000108281E0DF91CF910895EF92FF920F93A7
:103510001F93CF93DF93EC017B016C817D81E114DC
:10352000F104C1F04115510599F08A01060F171FEA
:10353000B8010E94691A882369F0888199812C81D9
:103540003D81820F931FB7010E9476031D830C8378
:1035500081E001C080E0DF91CF911F910F91FF903A
:10356000EF900895CF93DF93EC01888199810097C4
:1035700011F00E940002198218821D821C821B8297
:103580001A82DF91CF9108950F931F93182F092F5F
:103590006115710561F0DB010D900020E9F71197CD
:1035A000A61BB70BAD010E94851A882321F4812F39
:1035B000902F0E94B21A812F902F1F910F91089582
:1035C0000F931F93182F092FFB0160817181448194
:1035D00055810E94851A882321F4812F902F0E9403
:1035E000B21A812F902F1F910F910895EF92FF92A1
:1035F0000F931F93CF93DF93EC017B018A01BA01F4
:103600000E94691A882321F4CE010E94B21A07C0D1
:103610001D830C8388819981B7010E947603CE01B6
:10362000DF91CF911F910F91FF90EF900895CF936D
:10363000DF93EC01198218821B821A821D821C8280
:103640001E826115710551F0DB010D900020E9F734
:103650001197A61BB70BAD010E94F61ADF91CF910F
:103660000895CF93DF93EC01198218821B821A828E
:103670001D821C821E826115710551F0DB010D90C7
:103680000020E9F71197A61BB70BAD010E94F61AAF
:10369000DF91CF9108950F931F93182F092F611574
:1036A000710559F0DB010D900020E9F71197A61B79
:1036B000B70BAD010E94F61A02C00E94B21A812F08
:1036C000902F1F910F910895EF92FF920F931F93E8
:1036D000DF93CF93CDB7DEB7A1970FB6F894DEBFD7
:1036E0000FBECDBF8C01FC011182108213821282A9
:1036F000158214821682CB01BA017E010894E11C66
:10370000F11CA70130E00E94D703C801B7010E9455
:103710004B1BA1960FB6F894DEBF0FBECDBFCF9165
:10372000DF911F910F91FF90EF900895EF92FF921C
:103730000F931F93DF93CF93CDB7DEB761970FB68B
:10374000F894DEBF0FBECDBF8C01CB01F801118212
:103750001082138212821582148216827E010894CE
:10376000E11CF11CB70150E00E94FC03C801B70145
:103770000E944B1B61960FB6F894DEBF0FBECDBF03
:10378000CF91DF911F910F91FF90EF900895EF92ED
:10379000FF920F931F93DF93CF93CDB7DEB7299797
:1037A0000FB6F894DEBF0FBECDBF8C01862FF80197
:1037B000118210821382128215821482168290E086
:1037C0007E010894E11CF11CB70150E00E94FC034B
:1037D000C801B7010E944B1B29960FB6F894DEBFB3
:1037E0000FBECDBFCF91DF911F910F91FF90EF9052
:1037F0000895CF93DF93EC01FB018617970761F0E3
:10380000608171816115710529F0448155810E94A3
:10381000F61A02C00E94B21ACE01DF91CF9108952C
:10382000FC01118210821382128215821482168288
:103830000E94F91B0895FC011182108213821282EA
:103840001582148216820E94F91B0895FC01808162
:1038500091810E9400020895FC01808191810E9463
:1038600000020895A1E21A2EAA1BBB1BFD010DC088
:10387000AA1FBB1FEE1FFF1FA217B307E407F50720
:1038800020F0A21BB30BE40BF50B661F771F881FFC
:10389000991F1A9469F760957095809590959B0192
:1038A000AC01BD01CF010895EE0FFF1F0590F4910B
:1038B000E02D0994AA1BBB1B51E107C0AA1FBB1F27
:1038C000A617B70710F0A61BB70B881F991F5A95AC
:1038D000A9F780959095BC01CD0108952F923F9254
:1038E0004F925F926F927F928F929F92AF92BF9210
:1038F000CF92DF92EF92FF920F931F93CF93DF93BC
:10390000CDB7DEB7CA1BDB0B0FB6F894DEBF0FBE18
:10391000CDBF09942A88398848885F846E847D8465
:103920008C849B84AA84B984C884DF80EE80FD8067
:103930000C811B81AA81B981CE0FD11D0FB6F894DD
:0E394000DEBF0FBECDBFED010895F894FFCF9E
:10394E0073746174655F6F665F6368616E6E656CDC
:10395E00735F5B005D3D002E0070696E4D6F646598
:10396E0028002C200029006469676974616C577205
:10397E0069746528006469676974616C5265616475
:10398E00280029203D2000616E616C6F67577269B7
:10399E0074652800616E616C6F6752656164280002
:1039AE0028290020760020001E04000001000000DF
:1039BE00000105D0044E0457046C047D0400000081
:1039CE0000EB08E713451140112508A30728073F10
:1039DE0012BF0A990A0000000089181F191F1850FB
:0639EE00183018791800E2
:00000001FF
