:100000000C94BE000C94562C0C94832C0C94E6009B
:100010000C94E6000C94E6000C94E6000C94E600C8
:100020000C94E6000C94E6000C94E6000C94E600B8
:100030000C94E6000C94E6000C94E6000C94E600A8
:100040000C94B02C0C94E6000C941B300C944D30A6
:100050000C94E6000C94E6000C94E6000C94E60088
:100060000C94FA130C94E60059196D1983199F1911
:10007000C319F119101A471AEE18811A18193B19E9
:10008000A21ABC1A43194719611977199319B119A2
:10009000E519041A2C1B601A751A811A2F19961A61
:1000A000C71A687474703A2F2F6769746875622E66
:1000B000636F6D2F776865656C65722D6D6963720E
:1000C0006F666C7569646963732F70756C73652DE9
:1000D000636F756E7465722D7270632E676974003C
:1000E000302E312E706F7374313900576865656C2E
:1000F0006572204C61620070756C73652D636F755D
:100100006E7465722D7270630070756C73652D630B
:100110006F756E7465722D727063000000000008C8
:1001200000020100000304070000000000000000BE
:10013000010204081020408001020408102001027E
:10014000040810200404040404040404020202024B
:100150000202030303030303000000002300260040
:10016000290000000000250028002B0000000000EE
:10017000240027002A0016070A137D3011241FBE11
:10018000CFEFD8E0DEBFCDBF13E0A0E0B1E0ECE6FA
:10019000F3E602C005900D92AE3CB107D9F726E018
:1001A000AEECB3E001C01D92A83EB207E1F711E04A
:1001B000CCE7D1E004C02297FE010E940D31C63782
:1001C000D107C9F70E94B7110C94B4310C94000008
:1001D000CF93DF9300D000D000D0CDB7DEB720E4BE
:1001E00029831A821B821C828E5B9E4F9E838D8385
:1001F00030E040E050E0682F7E8180E090E026967D
:100200000FB6F894DEBF0FBECDBFDF91CF9108953A
:1002100002970C94E80004970C94E800E0910D0517
:10022000F0910E050280F381E02DBC018DE095E098
:100230000994109233040895FC018789908D892BCD
:1002400059F0818D928D892B51F0838D948D892B5E
:1002500091F482E090E005C080E090E002C081E08F
:1002600090E0DC01AA0FBB1FAE0FBF1F58967C9316
:100270006E93579708958FEF08957F928F929F9274
:10028000AF92BF92CF92DF92EF92FF920F931F93A4
:10029000CF93DF937C01EB01942E8C016C0186E0FF
:1002A000C80ED11C712C812C5701A2E0AA0EB11CE2
:1002B0009920A1F0F8018789908D009779F0DC01F1
:1002C000ED91FC91D70156964C9150E00480F58158
:1002D000E02D9E01B5010995811113C00E5F1F4FDE
:1002E0000C151D0529F7711023C0EA81FB8181815E
:1002F0008F708730E9F088248394911019C0812C85
:1003000017C0F8018789908DDC01ED91FC91AA81DD
:10031000BB8114962C9130E04C895D896885798584
:100320000280F381E02D0995882E77247394D6CF2F
:10033000882DDF91CF911F910F91FF90EF90DF906B
:10034000CF90BF90AF909F908F907F900895623034
:1003500030F4FC01E60FF11D428380E008958FEF39
:100360000895623030F4FC01E60FF11D428380E015
:1003700008958FEF089541E0FC0123813481232B00
:1003800009F440E0842F0895FC0183819481892B36
:1003900051F081E0FB014081518162817381452BE5
:1003A000462B472B09F480E00895FC01828193815C
:1003B0000C943518CF93DF93EC010E94D5011C8279
:1003C000DF91CF91089580913304882399F0809133
:1003D000350490913604A0913704B0913804019609
:1003E000A11DB11D8093350490933604A09337046A
:1003F000B093380408952430310561F4DC01ED91A7
:10040000FC91DA012D913D914D915C910680F7812F
:10041000E02D099480E00895CF93DF93FC01452BF4
:1004200039F4E901AA81BB8181E022819C912913E1
:1004300080E0DF91CF9108952430310561F4DC0133
:10044000ED91FC91DA012D913D914D915C910680E9
:10045000F781E02D099480E00895CF93DF93FC01AC
:10046000452B39F4E901AA81BB8181E022819C916D
:10047000291380E0DF91CF910895EF92FF920F93BF
:100480001F93CF93DF9300D000D000D0CDB7DEB75D
:100490008C01F62EE72EBC018F2D9E2D0E9462311D
:1004A000C8010E946931AC0160E070E049835A8361
:1004B0006B837C83FD82EE82282F3A818B815C8165
:1004C0006F2D7E2D482F80E090E026960FB6F89491
:1004D000DEBF0FBECDBFDF91CF911F910F91FF9077
:1004E000EF900895603428E372078105910509F4BF
:1004F0004CC030F5603B24E072078105910509F49A
:1005000044C060F46C3221E0720781059105E9F185
:100510006835724081059105D1F537C0603C22E114
:1005200072078105910589F1603825E2720781051E
:10053000910559F1603679408105910541F525C055
:1005400062312AE7720781059105F9F060F46115BF
:100550002BE4720781059105C1F060387047810571
:100560009105A9F412C0611521EE7207810591056C
:1005700061F0611522EC720721E08207910529F0F4
:10058000611576498105910511F481E0089580E0B7
:100590000895FC0183819481892B39F0FB016081EE
:1005A0007181828193810C94720280E008950F938F
:1005B0001F93FC0183819481892BB1F0FB01608141
:1005C0007181828193818B019C010850110921095D
:1005D0003109003711052105310530F486E795E032
:1005E0000E94C21281E001C080E01F910F91089526
:1005F00008950F931F93CF93DF93EC011A8619860A
:1006000000E010E02B813C8189859A850217130751
:1006100060F4EF81F885E00FF11F60810E941C18E3
:100620009A8789870F5F1F4FEDCF0E9434189A87F2
:100630008987DF91CF911F910F910895CF92DF921B
:10064000EF92FF92CF93DF93EC016A017B0144307C
:1006500051056105710590F4642F61708E890E94C7
:10066000752ED701C601B695A79597958795682FE2
:1006700061708B8D0E94752E81E001C080E0DF915A
:10068000CF91FF90EF90DF90CF900895FC01838190
:100690009481009739F0FB0140815181628173811F
:1006A0000C941E0380E00895CF93C62FFC01EC5AF2
:1006B000FF4F80819181A281B381B7FF0E94462CB8
:1006C00060E08C2F0E943C2EC23021F0C33021F418
:1006D00081E003C080E001C08FEF43E050E063EEB3
:1006E00071E0CF910C94262CFC01838194810097BA
:1006F00031F0FB0160810E94540381E0089580E0A5
:10070000089580ED93E00E94FF156EE071E086E7AA
:1007100095E00C940513DC01ED91FC910280F381CE
:10072000E02D41E050E009940F931F93CF93DF93A6
:10073000EC018B01E881F9816F5F7F4F0280F381CB
:10074000E02D41E050E00995E881F9810280F381D4
:10075000E02D41E050E0B801CE01DF91CF911F9133
:100760000F910994FC01E15BFF4F0190F081E02DB6
:100770002189222359F0835B9F4FDC01ED91FC918D
:100780000190F081E02D099580E008958089089519
:10079000FC01E15BFF4F0190F081E02D21892223D4
:1007A00031F0835B9F4F0E94DA0180E008958089D9
:1007B0000895CF93DF93EC011E8A188E1F8A1A8E3C
:1007C000198E1C8E1B8E8DE791E09983888389E5B5
:1007D00091E09E8F8D8F19A218A282E08F8F85E6FF
:1007E00091E09BA38AA31EA21DA283E08CA381E7B4
:1007F00091E098A78FA31BA61AA681E089A7BE0146
:10080000635E7F4FCE010E941C01E881F981BE0129
:100810006E5D7F4F0280F381E02DCE010995E88166
:10082000F981BE01695D7F4F0280F381E02DCE0129
:10083000DF91CF9109940F931F93CF93DF93EC0136
:100840008B01E881F9816F5F7F4F0280F381E02D9A
:1008500041E050E00995E881F9810280F381E02DC3
:1008600041E050E0B801CE01DF91CF911F910F918F
:100870000994CF92DF92EF92FF920F93CF93DF9381
:10088000CDB7DEB768970FB6F894DEBF0FBECDBF09
:100890006C012A8B3B8B4C8B5D8B6E8B7F8B088F17
:1008A0004A895B896C897D898FEF9FEF9B878A8757
:1008B000FA82E9820B838E899F895F834E839987B1
:1008C00088875D834C83CE0101960E94F9028CE7F4
:1008D0009CE7ACE7B0E08C879D87AE87BF87D601E9
:1008E0008D919C91DC01ED91FC910280F381E02DD2
:1008F00043E050E0BE01645F7F4F0995BE016F5F2A
:100900007F4FF601808191810E941B04D6018D9159
:100910009C91DC01ED91FC910280F381E02D41E09E
:1009200050E0BE01685E7F4F09958B81843611F0DF
:10093000833729F58C819D81998B888BBE01605FFF
:100940007F4FD6018D919C910E941B044C815D814B
:100950004115510561F0F60180819181DC01ED9135
:10096000FC91688579850280F381E02D0995BE01AF
:10097000665F7F4FF601808191810E941B0468961B
:100980000FB6F894DEBF0FBECDBFDF91CF910F91B0
:10099000FF90EF90DF90CF900895CF93DF93EC011D
:1009A0001E8A188E1F8A1A8E198E1C8E1B8E81E548
:1009B00091E0998388838DE291E09E8F8D8F19A2BB
:1009C00018A282E08F8F89E391E09BA38AA31EA2E5
:1009D0001DA283E08CA385E491E098A78FA31BA6BA
:1009E0001AA681E089A7BE01635E7F4FCE010E94F7
:1009F0001C01E881F981BE016E5D7F4F0280F381A9
:100A0000E02DCE010995E881F981BE01695D7F4F36
:100A10000280F381E02DCE01DF91CF910994EF9216
:100A2000FF920F931F93CF93DF93CDB7DEB7A797B6
:100A30000FB6F894DEBF0FBECDBF8C01FC01E55BA5
:100A4000FF4FE080F18060E070E08EA19FA10E94E6
:100A5000B81E2A8F3B8F4C8F5D8F6E8F7F8F88A340
:100A600099A3AE014F5F5F4FB701CE014A960E9436
:100A7000C82489E1FE013196D80101900D928A9532
:100A8000E1F7A7960FB6F894DEBF0FBECDBFDF919A
:100A9000CF911F910F91FF90EF900895EF92FF92E9
:100AA0000F931F93CF93DF93CDB7DEB72A970FB67F
:100AB000F894DEBF0FBECDBF8C01FC01E75BFF4F9A
:100AC000F080E1803497408151816F2D7E2DCE01E1
:100AD00001960E94A626F801E55BFF4F60817181B7
:100AE000A801CE0101960E94902A882329F08F81C7
:100AF0009885A0E0B0E005C0F12CE12C80E090E00A
:100B0000DC0189839A83AB83BC83FD82EE82282F2C
:100B10003A814B815C816F2D7E2D80E090E02A969A
:100B20000FB6F894DEBF0FBECDBFDF91CF911F91FE
:100B30000F91FF90EF900895CF92DF92EF92FF9286
:100B40000F931F93CF93DF93CDB7DEB769970FB69F
:100B5000F894DEBF0FBECDBF8C017B016901CE01D1
:100B600001960E94471B882309F4ADC0A601B70176
:100B7000CE010D960E94471B882309F4A4C0EB8187
:100B8000FC812181822F807C09F092C0207320316A
:100B900031F4EB85FC858081882339F00CC020324C
:100BA00021F4EB85FC85C08008C0CC24C3942223AB
:100BB00021F0C12C02C0CC24C394D801ED91FC914A
:100BC0000190F081E02D4C2DBE016F5F7F4FC80179
:100BD000298F09958823D9F0EB81FC81448150E06D
:100BE00069857A858D899E890E947231298D20318F
:100BF00031F4EB85FC858081EF89F88D07C02032C8
:100C000031F4EF89F88DAB85BC858C918083CC2045
:100C100009F44EC0AB81BC8111968C9111978F70F5
:100C2000873009F045C0EB85FC858081EF89F88D20
:100C30008083F8012689822F90E0FC013196EE0F27
:100C4000FF1FEE0FFF1FE00FF11FB183A083FC0118
:100C5000EE0FFF1FEE0FFF1FE00FF11F89819A813A
:100C6000938382832F5FD80156962C93E12CF12C2D
:100C7000D12CEC14FD04C4F4EB81FC8184818E9DA5
:100C8000802D112490E02D893E89280F391F498538
:100C90005A85480F591F66817781C8010E949C05BB
:100CA000BFEFEB1AFB0AE5CFF80186898150868BEE
:100CB000CE0101960E94671B882329F0CE010D9674
:100CC0000E94671B59CF69960FB6F894DEBF0FBE1E
:100CD000CDBFDF91CF911F910F91FF90EF90DF90EB
:100CE000CF9008958F929F92AF92BF92EF92FF9212
:100CF0000F931F93CF93DF93CDB7DEB7AD970FB6AA
:100D0000F894DEBF0FBECDBF8C01FC01EB5BFF4F43
:100D100086E0DE01989601900D928A95E1F788A40D
:100D200099A4AAA4BBA4ECA4FDA442E050E060E016
:100D300070E0CE0101960E94823149815A81CA0138
:100D4000A0E0B0E088169906AA06BB0640F062E073
:100D500070E0C7010E94823169817A8105C0E12C6F
:100D6000F12C60E070E0CB019801255B3F4F590109
:100D7000E114F10421F4C8010E940F0515C0C70158
:100D80000E94B81E29833A834B835C836D837E83E4
:100D90008F839887F50160817181A801CE0101964A
:100DA0000E944423882339F3F801E75BFF4FE0807A
:100DB000F180F5018080918060E070E08EA19FA1BC
:100DC0000E94B81E2A8F3B8F4C8F5D8F6E8F7F8F56
:100DD00088A399A3AE014F5F5F4FB401CE014A963D
:100DE0000E94C82489E1FE013196D70101900D923D
:100DF0008A95E1F7F50160817181F80117A69701E5
:100E0000A801C80149960E949C05AD960FB6F894BA
:100E1000DEBF0FBECDBFDF91CF911F910F91FF902D
:100E2000EF90BF90AF909F908F9008954F925F92F8
:100E30006F927F928F929F92AF92BF92CF92DF92EA
:100E4000EF92FF920F931F93CF93DF93C0EDD3E008
:100E50008BE091E09983888352EDE52E53E0F52EE7
:100E600081E191E0D7018D939C9304ED13E087E13C
:100E700091E0F801918380838FEE93E00E94CD048E
:100E80008BED91E0909322048093210489E394E018
:100E90000E94D9038BEA91E090936C0480936B04D9
:100EA000EDE8F4E01182108210928F041092910408
:100EB0001092900444244A94542C509297044092E7
:100EC000960470E2672E712C7092930460929204E3
:100ED0008DE694E09093950480939404A8E9AA2E5B
:100EE000A4E0BA2ED5011C92109299041092A50488
:100EF0001092A4041092A7041092A6041092AB04BE
:100F00001092AA041092B9041092B804F093AD04A0
:100F1000E093AC04C5010E943518BAEBCB2EB4E0C7
:100F2000DB2E8DE1882E81E0982EF6019182808261
:100F3000B092BD04A092BC04C6010E94D50185E216
:100F400091E0D6018D939C9387E496E09093BF0443
:100F50008093BE04E0EEF4E0118210821092E2046D
:100F60001092E4041092E3045092EA044092E904DF
:100F70007092E6046092E50480EC94E09093E804BB
:100F80008093E7049BEEA92E94E0B92ED5011C9224
:100F90001092EC041092F8041092F7041092FA04E4
:100FA0001092F9041092FE041092FD0410920C05A8
:100FB00010920B05F0930005E093FF04C5010E9419
:100FC00035182DE0C22E25E0D22EF60191828082C6
:100FD000B0921005A0920F05C6010E94D50185E8C8
:100FE00091E0D6018D939C9310921105C6010E9449
:100FF000DA018DE891E09983888383E991E0F70134
:101000009183808389E991E0D8018D939C9382E557
:1010100095E00E948916D093CF03C093CE03DF9151
:10102000CF911F910F91FF90EF90DF90CF90BF90E5
:10103000AF909F908F907F906F905F904F900895AA
:10104000CF93DF93E091BA04F091BB04C281D381C6
:1010500087E496E00E94D62EBC018AEB94E0FE0164
:10106000DF91CF910994BF92CF92DF92EF92FF92DE
:101070000F931F93CF93DF931F92CDB7DEB78C01F1
:101080007B0186E795E00E94FA11B82E81E0E81A0C
:10109000F108F8018481811101C0B482C12CD12CE6
:1010A000CE14DF04A4F486E795E00E94FA11898348
:1010B000F8018481B81207C0BE016F5F7F4F828143
:1010C00093810E945418FFEFCF1ADF0AE9CF0F90E7
:1010D000DF91CF911F910F91FF90EF90DF90CF9014
:1010E000BF900895EF92FF920F931F93CF93DF93DA
:1010F000CDB7DEB769970FB6F894DEBF0FBECDBF90
:101100007C012B8B3C8B4D8B5E8B6F8B788F098F8B
:101110004B895C896D897E891A8219828FEF9FEFD6
:101120009B878A870B838F89988D5F834E839987EE
:1011300088875D834C83CE0101960E94F9028CE77B
:101140009CE7ACE7B0E08C879D87AE87BF87809136
:10115000BA0086958A8BF701608186E795E00E9448
:10116000E512BE016E5E7F4F86E795E00E948B031D
:1011700043E050E0BE01645F7F4F86E795E00E9448
:101180004C12BE016F5F7F4F86E795E00E9494038B
:10119000BE01675E7F4F86E795E00E948B038C81DE
:1011A0009D81998B888BBE01605F7F4F86E795E0BC
:1011B0000E94940386E795E00E9402130C811D8132
:1011C0000115110551F10032110510F00FE110E089
:1011D000F701608186E795E00E94E512BE016E5E30
:1011E0007F4F86E795E00E948B0368857985A8018B
:1011F00086E795E00E944C1286E795E00E94021374
:1012000088859985800F911F998788878C819D811A
:10121000801B910B9D838C83D1CFF701608186E782
:1012200095E00E94E512BE016E5E7F4F86E795E075
:101230000E948B03BE01665F7F4F86E795E00E94A8
:10124000940386E795E00E94021369960FB6F8941E
:10125000DEBF0FBECDBFDF91CF911F910F91FF90E9
:10126000EF9008954F925F926F927F92AF92BF92EC
:10127000CF92DF92EF92FF920F931F93CF93DF9362
:10128000CDB7DEB7C25DD1090FB6F894DEBF0FBE91
:10129000CDBFFC01C953DF4F2883C75CD040C85382
:1012A000DF4F3883C85CD040C753DF4F4883C95CE9
:1012B000D040C653DF4F5883CA5CD040C553DF4F80
:1012C0006883CB5CD040C453DF4F7883CC5CD04084
:1012D000C353DF4FC882CD5CD040C253DF4FD882AA
:1012E000CE5CD040C153DF4FE882CF5CD040C053CA
:1012F000DF4FF882C05DD040CF52DF4F0883C15D21
:10130000D040CE52DF4F1883C25DD040C553DF4F6F
:10131000A881B981CB5CD040CF52DF4F08811981C1
:10132000C15DD0402D913C911197243043E03407AA
:1013300009F409C408F033C12E30310509F412C391
:1013400008F0AAC02630310509F4C2C208F082C0F4
:101350002230310509F424C208F042C021153105BC
:1013600009F4D4C12130310509F0ABC680819181E7
:10137000DC01ED91FC910190F081E02D0995CD57B4
:10138000DF4F6883C358D040CC57DF4F7883C458B1
:10139000D040CD57DF4F68817981C358D04089E074
:1013A00091E00E943D02EA962FAFEA97EB963FAF9D
:1013B000EB97EC964FAFEC97ED965FAFED97EE960F
:1013C0006FAFEE97EF967FAFEF97ED96CCACDDACBD
:1013D000EEACFFACED97EF960EAD1FADEF9793C659
:1013E000808191812430310509F40EC208F03EC29B
:1013F000DC01ED91FC910190F081E02D0995AC9616
:101400006FAFAC97AD967FAFAD97AD966EAD7FAD3C
:10141000AD978BEE90E00E943D02A2962FAFA2976F
:10142000A3963FAFA397A4964FAFA497A5965FAF9F
:10143000A597A6966FAFA697A7967FAFA797A596F5
:10144000CCACDDACEEACFFACA597A7960EAD1FAD56
:10145000A79759C62A30310509F468C278F42830B4
:10146000310509F44CC208F054C20E94FA2CD8018C
:101470006D937D938D939C9313973BC22C303105D4
:1014800009F463C208F066C213966C911397129622
:101490008C910E943C2E1CC62F3F41E0340709F47A
:1014A000BEC208F05AC02131310509F469C2D0F436
:1014B0002F30310509F45BC22031310509F001C636
:1014C0009D012E5F3F4F16968D919C911797820F2D
:1014D000931F17969C938E93169712968D919C91BD
:1014E000139719C32F3F310509F4FAC12E3FE1E0EC
:1014F0003E0709F47AC22231310509F0E2C5FD0147
:10150000329616968D919C9117978E0F9F1F179666
:101510009C938E93169786E0DE01A155BF4F0190F4
:101520000D928A95E1F786E0FE01E155FF4FDE015D
:10153000A755BF4F01900D928A95E1F7C755DF4F30
:10154000C880D980EA80FB80C95AD040C355DF4F9C
:1015500008811981CD5AD040D6C5211543E0340702
:1015600009F48BC280F42E3FA2E03A0709F47BC253
:1015700008F07DC22115324009F0A3C58FEF93E03A
:10158000A0E0B0E0B1C12230F3E03F0709F4CCC2E3
:1015900008F0CFC286E795E00E94F211BCC22A3F54
:1015A00085E0380709F46EC408F044C02B3F84E09E
:1015B000380709F47EC310F5273083E0380709F4B3
:1015C00016C368F4253083E0380709F4EDC22630ED
:1015D000334009F076C58091BA0081600BC32D3F7E
:1015E00043E0340709F409C32E3F83E0380709F4C8
:1015F00059C32C3F334009F064C572C12F3F44E00A
:10160000340709F4BAC350F4808191812D3FA4E0DE
:101610003A0709F47EC308F452C37FC32130E5E0E2
:101620003E0709F40CC408F4FBC32230354009F42A
:101630000FC447C52E3F86E0380709F4E1C4B0F572
:101640002A3F86E0380709F4C0C408F52C3F85E03E
:10165000380709F466C408F43FC4293F364009F04E
:1016600030C580819181DC01ED91FC910190F08188
:10167000E02D099529833A834B835C836D837E83B8
:10168000C980DA80EB80FC800D811E813CC5E08042
:10169000F1802C3FE6E03E0709F49CC408F0A0C4AA
:1016A00012966C91C7010E94271512C5223047E09F
:1016B000340709F4CCC480F4211547E0340709F459
:1016C000B3C4808191812130374008F0B1C41696AF
:1016D0006C910E945403A6C4243047E0340709F4F7
:1016E000DFC408F4BBC42530374009F0EAC4808168
:1016F0009181FC01ED59FF4F1082319721E0208349
:10170000339680819181A281B381EEC080819181E5
:10171000DC01ED91FC910190F081E02D0995C1571C
:10172000DF4F6883CF58D040C057DF4F7883C05910
:10173000D040C157DF4F68817981CF58D0408BE1CD
:1017400091E00E943D02CB57DF4F2883C558D0401F
:10175000CA57DF4F3883C658D040C957DF4F488338
:10176000C758D040C857DF4F5883C858D040C757D4
:10177000DF4F6883C958D040C657DF4F7883CA58B7
:10178000D040CB57DF4FC880D980EA80FB80C55856
:10179000D040C757DF4F08811981C958D040B3C422
:1017A00080819181DC01ED91FC910190F081E02D2F
:1017B0000995E8966FAFE897E9967FAFE997E996C4
:1017C0006EAD7FADE99787EF90E00E943D02AE9647
:1017D0002FAFAE97AF963FAFAF97E0964FAFE09782
:1017E000E1965FAFE197E2966FAFE297E3967FAF46
:1017F000E397E196CCACDDACEEACFFACE197E396C1
:101800000EAD1FADE3977FC4DC01ED91FC9101901B
:10181000F081E02D0995A0966FAFA097A1967FAFBC
:10182000A197A1966EAD7FADA19780EE90E00E944A
:101830003D0266962FAF669767963FAF67976896AB
:101840004FAF689769965FAF69976A966FAF6A976F
:101850006B967FAF6B976996CCACDDACEEACFFAC12
:1018600069976B960EAD1FAD6B974DC4DC01ED9182
:10187000FC910190F081E02D099564966FAF64971B
:1018800065967FAF659765966EAD7FAD659782EA89
:1018900090E00E943D022A962FAF2A972B963FAFE9
:1018A0002B972C964FAF2C972D965FAF2D972E969A
:1018B0006FAF2E972F967FAF2F972D96CCACDDACC8
:1018C000EEACFFAC2D972F960EAD1FAD2F971BC41E
:1018D0000E94062DF801608371838283938309C07F
:1018E00089E190E0A0E0B0E0F80180839183A283D9
:1018F000B383F4E0CF2ED12CE12CF12C04C412964A
:101900008D919C911397009709F4E2C30E94512D89
:10191000DFC312966D917C9113976115710509F4DF
:10192000D7C380E090E00E94292DD2C32091E40625
:101930003091E5068DB79EB72115310519F4885E03
:101940009640A9C3821B930BA6C312968C910E944A
:10195000AB2E6BC313966C91139712968C910E94C9
:10196000752EB6C312968C910E94972D82C0139645
:101970006C91139770E012968C910E94B42DA8C3BD
:10198000FD01329616968D919C9117978E0F9F1F91
:1019900017969C938E93169786E0DE01A554BF4F51
:1019A00001900D928A95E1F786E0FE01E554FF4F24
:1019B000DE01AB54BF4F01900D928A95E1F7C754F9
:1019C000DF4F08811981C95BD040CB54DF4FC880FD
:1019D000D980EA80FB80C55BD040E2E0CC0CDD1C06
:1019E000EE1CFF1CEA95D1F78EC39D012E5F3F4F81
:1019F00018968D919C911997820F931F19969C931D
:101A00008E93189712962D913C91139714964D91A1
:101A10005D916D917C911797F894B90176C11496F8
:101A2000CD90DC9015971296ED90FC9013978081E5
:101A30009181DC011296ED91FC9113970190F08158
:101A4000E02D0296099528966FAF289729967FAFCB
:101A5000299729960EAD1FAD2997A601B701C80198
:101A60000E94823158C28091BA008695DEC280E21F
:101A700090E0F8019183808351C080819181DC01E5
:101A80001496ED91FC9115970190F081E02D04964C
:101A900009952DAF3EAF4FAF21965FAF21972296AC
:101AA0006FAF229723967FAF239721964CAC5DAC06
:101AB0006EAC7FAC219723960EAD1FAD239778E0D7
:101AC000B72EC12CD12CC601A0E0B0E0841595053D
:101AD000A605B70508F01FC26B2D86E795E00E94AA
:101AE000E51286E795E00E94021381110FC076018E
:101AF000BFEFEB1AFB0AF801EC0DFD1DB08261E0AF
:101B000070E080E090E00E94292D6701B394E8E73F
:101B1000BE12D9CF00C2D8018D939C9362E0C62E2D
:101B2000D12CE12CF12CEFC286E795E00E94FA114E
:101B300087C213964C91139712966C9186E795E0A5
:101B40000E94E21272C21396DC9013971296FC90D8
:101B500080819181DC011496ED91FC9115970190A3
:101B6000F081E02D049609956BAF7CAF0BAD1CADF9
:101B70004D2D6F2D86E795E00E94E212B02E780180
:101B8000CE2CCB1886E795E00E94F211892B31F01C
:101B900086E795E00E94FA11CD1410F0D12CBBC15C
:101BA000F70181937F01ECCFCD0102961796AD909E
:101BB000BC901897A80EB91E1896BC92AE921797B3
:101BC0001396CD90DD90ED90FC90169712966C9147
:101BD00086E795E00E94E512A601B50186E795E04B
:101BE0000E944C1286E795E00E94021371C2809118
:101BF000BA008E7F8093BA006BC29D012E5F3F4F6B
:101C000017968D919C911897820F931F18969C930D
:101C10008E93179712961C911297E080F18086E0C0
:101C2000FD013396DE01AD55BF4F01900D928A95AF
:101C3000E1F786E0FE01ED55FF4FDE01D196019000
:101C40000D928A95E1F75701F3ECAF1AFEEFBF0A48
:101C5000C5010E94DA01C7018F5B9E4FDC011C9316
:101C600004E629A93AA94BA95CA96DA97EA90E94FD
:101C700072080E94FA2C2B013C01870100511F4F72
:101C80000E94FA2C6419750986099709683873410E
:101C90008105910508F020C2C8010E94C803811186
:101CA0001BC2EECF80819181835C9E4F0E94DA013E
:101CB0000FC28081918106960E94720609C2069623
:101CC0000E944E0529833A834B835C836D837E8318
:101CD0008D819E81892B09F4FBC186E0FE0131963E
:101CE000DE019B9601900D928A95E1F7F89442E00F
:101CF00050E060E070E0CE018B960E9492314BA5DF
:101D00005CA562E070E08FA598A90E94923178945A
:101D1000DFC106960E940F05DBC106960E944E05A4
:101D2000C356DF4F2883CD59D040C256DF4F38838A
:101D3000CE59D040C156DF4F4883CF59D040C0560E
:101D4000DF4F5883C05AD040CF55DF4F6883C15A08
:101D5000D040CE55DF4F7883C25AD040C356DF4FB4
:101D6000C880D980EA80FB80CD59D040CF55DF4F65
:101D700008811981C15AD040C6C19D012E5F3F4FD5
:101D800016968D919C911797820F931F17969C938F
:101D90008E931697E080F18046E0F901DE01A956A6
:101DA000BF4F01900D924A95E1F726E0FE01E956FA
:101DB000FF4FDE01959601900D922A95E1F7F7010C
:101DC000E15BFF4FC080D1806DA17EA10E94B81E53
:101DD00029833A834B835C836D837E838F839887CB
:101DE0005701E1E5AE0EB11CD5016D917C91A601C4
:101DF000CE0101960E94C824782E882371F0F50147
:101E000060817181D701D5961C9297012A5F3F4F5F
:101E1000A601C7014F960E949C05F801708212C16D
:101E200021E012968D919D910D90BC91A02D892B52
:101E30008A2B8B2B09F420E0D8012C9303C1129636
:101E40006D917D918D919C9115970E947202F8C0C1
:101E500012966D917D918D919C9115976B017C01EE
:101E6000F8E0CF1AD108E108F10820E7C216D10442
:101E7000E104F10428F486E795E00E94C212D4C080
:101E800080E0D3C0808191817C01B3E5EB0EF11C31
:101E9000FC01E556FF4FC080D18060E070E08BA16F
:101EA0009CA10E94B81E2F8B388F498F5A8F6B8F41
:101EB0007C8F8D8F9E8FAE014F5F5F4FB601CE013D
:101EC00047960E94C82486E1FE013196D701019011
:101ED0000D928A95E1F7FCC0E080F180F701E756AA
:101EE000FF4F00811181349740815181B801CE01AB
:101EF00001960E94A626A7014D5A5F4FF701E556AD
:101F0000FF4F60817181CE0101960E94902A882343
:101F100029F0CF80D884E12CF12CF5C000E010E04E
:101F2000D7C09D012E5F3F4F16968D919C911797BC
:101F3000820F931F17969C938E931697E080F180E3
:101F400046E0F901DE01AF56BF4F01900D924A9570
:101F5000E1F726E0FE01EF56FF4FDE0157960190B4
:101F60000D922A95E1F7F701E756FF4FC080D18027
:101F70006F89788D0E94B81E29833A834B835C83D6
:101F80006D837E838F8398875701EBE9AE0EB11C7A
:101F9000D5016D917C91A601CE0101960E94C824C5
:101FA000782E882379F0C7018D5A9F4FF501608103
:101FB0007181D701A158BF4F1C929C01A601469682
:101FC0000E949C05D8017C923DC0808191810E9435
:101FD000FF157EC0C7018E579E4F0E94521778C0D2
:101FE00061E012968C910E943C2EF701E75AFF4F58
:101FF0004081518162817381C7010E941E0312C01A
:10200000E080F18061E012968C910E943C2EF701F5
:10201000E75AFF4F4081518162817381C7010E945D
:102020001E0302C081E00CC081E0D8018C930AC07D
:1020300012964D915D916D917C9115970E941E03B2
:10204000F8018083C12CD12C7601C3945CC0129618
:102050006C91808191810E9454033AC0E080F180AC
:1020600012964D915D916D917C91159729E131E02A
:10207000C7018E579E4F0E941917F701EB59FF4F6A
:102080001082118212821382319721E020833197CE
:10209000208331972083AA2797FDA095BA2F24CCBF
:1020A00080819181FC01EB59FF4F108211821282D5
:1020B0001382319721E02083319720833197208349
:1020C00007C000E010E0CC24CA94DC2C76011BC0D1
:1020D000C12CD12C760117C0F701E05FFE4F0781BC
:1020E0001085C380D480E12CF12CF8E1CF16D10407
:1020F000E104F10428F037E1C32ED12CE12CF12CBE
:10210000C5010E94DA01CF53DF4FC882D982EA822B
:10211000FB82C15CD040CB53DF4F19830883C55C81
:10212000D0402C2DCE53DF4F3881C25CD040CD53F0
:10213000DF4F4881C35CD040CC53DF4F5881C45C33
:10214000D040602FCA53DF4F7881C65CD04080E01A
:1021500090E0CE52DF4F0FB6F894DEBF0FBECDBF7A
:10216000DF91CF911F910F91FF90EF90DF90CF9073
:10217000BF90AF907F906F905F904F9008958F9237
:102180009F92AF92BF92CF92DF92EF92FF920F9306
:102190001F93CF93DF93CDB7DEB762970FB6F89456
:1021A000DEBF0FBECDBFFC01CB0143815481228134
:1021B000243619F44115510539F460E080E02FEF21
:1021C0004FEF30E090E02CC03781A085032F3D8396
:1021D000AE8385809680A12CB12CC82C89829A82EE
:1021E000AB82BC8260E070E0242F4F835887698700
:1021F0007A87632F3B87AC87DA80EB80FC801A2FCD
:10220000388549855A857A2F0E9432092D873E8765
:102210004F87588B698B7A8B432F3F85952F872F5C
:1022200029834A833B839C836D838E83342F4B8128
:10223000592F782F80E090E062960FB6F894DEBFB9
:102240000FBECDBFDF91CF911F910F91FF90EF9007
:10225000DF90CF90BF90AF909F908F900895EF92B6
:10226000FF920F93CF93DF93CDB7DEB72C970FB6C6
:10227000F894DEBF0FBECDBF8DE694E00E94B2039E
:10228000882389F18DE694E00E94B203882359F1F6
:102290006EEC73E08DE894E00E94BF1038875A8797
:1022A0006B877C87322F6885542F4A858B859C8568
:1022B000892B21F430E060E050E040E0232F3F83A1
:1022C000688759874A87E12CF12C04E6362F452F81
:1022D0005A856B857C858EEB94E00E9439048AEBED
:1022E00094E00E94D50180EC94E00E94C80388230A
:1022F00079F180EC94E00E94C803882349F16EECE8
:1023000073E080EE94E00E94BF103A835C836D839B
:102310007E83322F6A81542F4C818D819E81892B3F
:1023200021F430E060E050E040E0232F39836A83FD
:102330005B834C8304E6362F452F5C816D817E8163
:1023400081E195E00E9472088DE095E00E94DA013B
:1023500082E595E02C960FB6F894DEBF0FBECDBF98
:10236000DF91CF910F91FF90EF900C9452170E9444
:102370005C2D0E94F8020E948103C3E0DFE20E940C
:102380002F112097E1F30E94032FF9CFCF92DF9214
:10239000EF92FF920F931F93CF93DF931F92CDB7CE
:1023A000DEB77C016B0100E010E00C151D0584F424
:1023B00087E496E00E94EF2E8983BE016F5F7F4F16
:1023C000F701828193810E9454180F5F1F4FEDCF58
:1023D0000F90DF91CF911F910F91FF90EF90DF90C1
:1023E000CF9008958091AA0590E02091AB05821BC3
:1023F000910908952091AB058091AA05281750F402
:10240000E22FF0E0E455FA4F808190E02F5F2093B7
:10241000AB0508958FEF9FEF0895E091AB05809194
:10242000AA05E81730F4F0E0E455FA4F808190E017
:1024300008958FEF9FEF08950895E0918205F09140
:1024400083053097E1F03091AB052091AA05321752
:10245000B0F040E0242F30E02617370754F4DC01B9
:10246000A20FB31F5C91D901A455BA4F5C934F5F83
:10247000F1CF1092AB056093AA05CB0109940895A2
:10248000E0918405F0918505309729F01092880538
:102490001092870509940895CF92DF92EF92FF92F0
:1024A0000F931F93CF93DF937C01CB018A0120917F
:1024B0008605222389F0EB016B01C40ED51ECC15D5
:1024C000DD0569F06991D701ED91FC910190F081F2
:1024D000E02DC7010995F3CF642F0E94C713C801EF
:1024E000DF91CF911F910F91FF90EF90DF90CF90F0
:1024F0000895CF93DF931F92CDB7DEB76983209104
:1025000086052223D1F020918705203240F021E07A
:1025100030E0FC013383228380E090E015C080919D
:102520008805E82FF0E0E757FA4F998190838F5F95
:10253000809388058093870505C061E0CE010196F0
:102540000E94C71381E090E00F90DF91CF91089532
:10255000FC011382128248EE53E060E070E0448395
:102560005583668377838FE991E091838083089513
:102570001092AB051092AA0510928805109287055B
:102580000C940E13CF93DF93EC01862F0E942C1333
:1025900080E492E10E94E5138DE192E10E94E01354
:1025A000CE01DF91CF910C94B812862F413208F002
:1025B00040E26CEA75E00E9430131092AB05809304
:1025C000AA05089521E00C94D51281E08093860538
:1025D0006093A905109288051092870508950F93BE
:1025E000062F21E04091870569E875E08091A905F3
:1025F0000E94741310928805109287051092860528
:102600000F91089561E00C94EF127093830560932D
:102610008205089586E795E00C94A8121092390679
:1026200081E0809337061092360661E082E10E94D5
:10263000752E61E083E10E94752EE9EBF0E0808168
:102640008E7F808380818D7F808388E48093B80033
:1026500085E48093BC000895880F8093BA000895A4
:10266000413208F03FC0909139069111FCCF91E0C2
:1026700090933906209337062FEF2093CC051092C4
:102680001106240F20931006909338069091380677
:10269000880F892B8093380680913606813041F46B
:1026A00010923606809138068093BB0085EC01C0FD
:1026B00085EE8093BC00809139068130E1F38091F2
:1026C0001106841710F44091110622E136E0FB0157
:1026D000D9018A2F821B841718F48D918193F9CF29
:1026E000842F089580E008950F93413208F046C08A
:1026F000909139069111FCCF92E0909339060093A6
:1027000037069FEF9093CC05109211064093100668
:10271000FB0162E176E0DB019A2F961B941718F417
:1027200091919D93F9CF1092380690913806880FB9
:10273000892B8093380680913606813041F41092BF
:102740003606809138068093BB0085EC01C085EE8B
:102750008093BC00222321F0809139068230E1F37E
:102760008091CC058F3F61F08091CC05803251F093
:102770008091CC05803341F483E007C081E005C03F
:1027800080E003C082E001C084E00F9108956132CF
:1027900098F420913906243089F46093EE05FC0109
:1027A00080EF95E0DC012A2F281B261718F42191D1
:1027B0002D93F9CF80E0089581E0089582E0089597
:1027C0009093330680933206089590933506809354
:1027D0003406089585ED8093BC008091BC0084FD93
:1027E000FCCF10923906089585EC8093BC001092BE
:1027F000390608951F920F920FB60F9211242F934E
:102800003F934F935F936F937F938F939F93AF9378
:10281000BF93EF93FF938091B900887F803609F4CE
:102820009CC068F5883209F45BC090F4803109F4EB
:1028300054C038F4882309F4F5C0883009F44DC039
:10284000F5C0883109F44CC0803209F45DC0EEC097
:10285000803409F468C048F4803309F455C08833E3
:1028600009F0E4C08093CC05A8C0803509F44FC0BE
:10287000883509F45DC0883409F0D8C0D5C08839DE
:1028800009F4C6C0A8F4883709F467C038F488365C
:1028900009F463C0803709F460C0C8C0883809F4FF
:1028A000B7C0803909F45FC0803809F0BFC05BC091
:1028B000803B09F485C038F4803A09F466C0883A50
:1028C00009F47EC0B3C0803C09F4A6C0883C09F47A
:1028D000A3C0883B09F489C0A9C08091380610C004
:1028E0009091110680911006981770F5E0911106ED
:1028F00081E08E0F80931106F0E0EE5EF94F80814B
:102900008093BB0085EC85C08093CC058DC0E091A1
:10291000110681E08E0F809311068091BB00F0E0DC
:10292000EE5EF94F808390911106809110066DC084
:10293000E091110681E08E0F809311068091BB001B
:10294000F0E0EE5EF94F80838091370681116CC014
:1029500081E08093360684EA60C083E08093390684
:102960001092CD05CFCF8091CD05803208F050C0B8
:10297000E091CD0581E08E0F8093CD058091BB0065
:10298000F0E0E253FA4F8083BDCF8091CD058032D5
:1029900030F4E091CD05F0E0E253FA4F10820E944E
:1029A000EA136091CD0570E0E0913206F0913306B4
:1029B0008EEC95E009951092CD050E94F41336C077
:1029C00084E0809339061092EF051092EE05E091B5
:1029D0003406F091350609958091EE05811105C008
:1029E00081E08093EE051092F005E091EF0581E023
:1029F0008E0F8093EF05F0E0E051FA4F80818093D5
:102A0000BB009091EF058091EE05981708F47ACFFE
:102A100085E88093BC000AC085EC8093BC001092CE
:102A2000390604C01092CC050E94EA13FF91EF9181
:102A3000BF91AF919F918F917F916F915F914F91D6
:102A40003F912F910F900FBE0F901F901895CF922E
:102A5000DF92EF92FF92CF93DF93EC01262FC62EE9
:102A6000D12CE12CF12CFC01EF5BFF4F8381948191
:102A7000892B81F0B701A6014850510961097109FC
:102A8000403751056105710528F4622F86E795E00E
:102A90000E94C212C98ADA8AEB8AFC8ADF91CF913E
:102AA000FF90EF90DF90CF9008958F929F92AF921A
:102AB000BF92CF92DF92EF92FF920F931F93CF932B
:102AC000DF93CDB7DEB7AD970FB6F894DEBF0FBE7C
:102AD000CDBF8C01C62ED12CFC01EB5BFF4F86E0F5
:102AE000DE01989601900D928A95E1F788A499A449
:102AF000AAA4BBA4ECA4FDA442E050E0B601CE0120
:102B000001960E94823149815A81CA01A0E0B0E059
:102B100088169906AA06BB0648F0B6016E5F7F4F7D
:102B2000C7010E94823169817A8105C0E12CF12CB4
:102B300060E070E0CB019801255B3F4F6901E11433
:102B4000F10421F4C8010E940F0515C0C7010E94BD
:102B5000B81E29833A834B835C836D837E838F8386
:102B60009887F60160817181A801CE0101960E94CB
:102B70004423882339F3F801E75BFF4FE080F180BD
:102B8000F601A080B18060E070E08EA19FA10E945C
:102B9000B81E2A8F3B8F4C8F5D8F6E8F7F8F88A3DF
:102BA00099A3AE014F5F5F4FB501CE014A960E94D7
:102BB000C82489E1FE013196D70101900D928A95D2
:102BC000E1F7F60160817181F80117A69701A8016C
:102BD000C80149960E949C05AD960FB6F894DEBFD9
:102BE0000FBECDBFDF91CF911F910F91FF90EF905E
:102BF000DF90CF90BF90AF909F908F900895EF920D
:102C0000FF920F931F93CF93DF93CDB7DEB76897F3
:102C10000FB6F894DEBF0FBECDBF8C01DC01ED9185
:102C2000FC910190F081E02D09952B8B3C8B4D8B15
:102C30005E8B6F8B788F86E0FE017396DE011796B0
:102C400001900D928A95E1F7D801A55BBF4F86E010
:102C5000FE01379601900D928A95E1F7F801FF96F3
:102C60001183008335961183008335961183008389
:102C70007801B6E0EB0EF11CC7010E940F0560E081
:102C8000C7010E945515D801ED91FC910190F0818A
:102C9000E02DC80109952D873E874F87588B698B9A
:102CA0007A8B86E0FE013D96DE01119601900D9231
:102CB0008A95E1F7D801AB56BF4F86E0FE01319609
:102CC00001900D928A95E1F7F801E757FF4F1183C4
:102CD0000083359611830083359611830083F801B4
:102CE000448555856685778526E087E496E00E94D1
:102CF000B92F8CE08093B80068960FB6F894DEBFC9
:102D00000FBECDBFDF91CF911F910F91FF90EF903C
:102D10000895CF93DF93EC010E94FA2C1C8E198644
:102D20001886688379838A839B83198E188E1D8EFB
:102D30001B861A866C837D838E839F831B8E1A8EDF
:102D40001BA21AA2DF91CF910895FC0182A193A149
:102D5000029774F480859185892B39F0828593855B
:102D6000892B31F481E090E0089580E090E00895AF
:102D70008FEF9FEF08958F929F92AF92BF92CF9265
:102D8000DF92EF92FF920F931F93CF93DF9300D0C8
:102D900000D0CDB7DEB74C01590149835A836B830C
:102DA0007C830E94A5167C0149815A816B817C81BC
:102DB00097FD2CC0A114B10449F16C01CC0CDD1CB1
:102DC000CC0CDD1CC80CD91CF601448755876687DE
:102DD0007787F701EE0FFF1FE80DF91DB186A0867A
:102DE000158B048BF401EE0DFF1D81E0848F0E9492
:102DF000FA2CF6016083718382839383F40182A1AC
:102E000093A1019693A382A3C70102C08FEF9FEF06
:102E10000F900F900F900F90DF91CF911F910F9116
:102E2000FF90EF90DF90CF90BF90AF909F908F90EA
:102E300008950F931F9301E010E00E94BB161F91AD
:102E40000F9108956230710564F5FC0122A133A150
:102E50002115310531F1FB01EE0FFF1FE80FF91FBE
:102E600040855185452BE9F011861086DC01A60FBF
:102E7000B71F5C961C92178E168EDB011396AA0F55
:102E8000BB1FAA0FBB1FA80FB91F1D921D921D9239
:102E90001C921397118E108E21503109FC0133A31F
:102EA00022A308952F923F924F925F926F927F924A
:102EB0008F929F92AF92BF92CF92DF92EF92FF924A
:102EC0000F931F93CF93DF9300D000D000D0CDB7E6
:102ED000DEB79E838D830E94FA2C2D813E813A833A
:102EE00029833C832B83212C312CEE24E394F12C79
:102EF000F2E0CF2ED12CAB81BC815F961C921E924A
:102F00005E9718962D913C911997232B09F445C093
:102F1000E981FA8180809180A280B3800485158543
:102F2000268537852B013C01481859086A087B081B
:102F3000401651066206730680F1080D191D2A1D00
:102F40003B1D00831183228333832D813E81220D1B
:102F5000331DF901248D222301F1AB81BC815496EC
:102F60002D913C9155972115310529F45F96FC92DE
:102F7000EE925E9712C0EB81FC81408D518D42171D
:102F800053075CF4F78EE68E4F5F5F4F518F408F93
:102F90004217530714F0D78EC68EFFEF2F1A3F0A41
:102FA0002B813C812E5F3F4F3C832B83A981BA81CB
:102FB0001496BA83A983B2E02B16310409F09BCF93
:102FC0000D811E81E12CF12CF801868D978D8130C9
:102FD000910561F0029771F40084F185E02D099567
:102FE000B7018D819E810E94221704C00084F18563
:102FF000E02D0995BFEFEB1AFB0A0E5F1F4FE2E0D1
:10300000EE16F10409F726960FB6F894DEBF0FBE50
:10301000CDBFDF91CF911F910F91FF90EF90DF9087
:10302000CF90BF90AF909F908F907F906F905F9068
:103030004F903F902F9008958627682F62956827BC
:10304000062E669566956025062E66956025677046
:10305000082E892F669507946795902D86270694EC
:1030600067959025862708950895FC01A489B58960
:1030700012961C92129714961C921E9213978FEF21
:103080009FEF1A969C938E931997138A128A108A2F
:10309000118A1786168611A210A28CE090E0938305
:1030A0008283178E168E0895AF92BF92CF92DF92D1
:1030B000EF92FF920F931F93CF93DF931F92CDB7A1
:1030C000DEB78C016115710581F4CE010196D8013E
:1030D00015969C938E93149717969C938E931697A0
:1030E00019969C938E93189707C0FC01758364838F
:1030F0006F5F7F4F77836683D80114962D913C9143
:10310000159716968D919C9117972817390709F0F6
:1031100057C071C2608180E090E00E941C18F801E5
:10312000938B828B0488F589E02D0780F085E02D54
:10313000D8011E968D919C911F979C012F5F3F4F48
:103140001F963C932E931E9714962D913C911597A4
:10315000D9012C91E80FF91F2083F80126853785C6
:10316000848595852817390709F011C2068CF78DDB
:10317000E02DCF010197D8015F969C938E935E97C7
:103180003A96EE0FFF1FE00FF11F80819181139699
:103190009C938E931297D8011296ED91FC91139700
:1031A000EF30F10508F454C2F8018481958101964D
:1031B00095838483268137818217930709F41BC284
:1031C000D8011296ED91FC9113973197EE30F105ED
:1031D00008F0EBC1EC5CFF4F0C940B31D801549616
:1031E000ED91FC915597F184E12CF286E1861496DD
:1031F0008D919C911597DC018C919701280F311DC1
:10320000C90132872187D80152962D913C9153975D
:103210008217930749F481E050968C9350971E963D
:103220008D919C911F9719C081E0F801818B17C087
:10323000D8011C968D919C911D975496ED91FC910F
:103240005597258136812817390718F421E05196C2
:103250002C9321E0D80150962C9394838383F8011A
:103260008481958101969583848326813781821795
:10327000930709F49AC1D8011496ED91FC91159722
:1032800080818C3721F0F80113821282F4C1D801B9
:1032900014968D919C911597019615969C938E93FB
:1032A000149716962D913C9117978217930709F45E
:1032B0007FC1D8011496ED91FC91159780818C37D0
:1032C00011F7F80184819581019695838483268185
:1032D00037818217930709F46EC1D8011496ED91D6
:1032E000FC91159780818C3771F650961C92F801ED
:1032F0008481958101969583848326813781821705
:10330000930709F460C1D8015496ED91FC9155974B
:103310001182108214968D919C911597DC018C91ED
:1033200090E091838083F801848195810196958353
:103330008483268137818217930709F447C1D80116
:103340005496ED91FC91559714968D919C911597FB
:10335000DC018C91B080A12C9501282BC9019183AF
:103360008083D80114968D919C911597019615969E
:103370009C938E93149716962D913C9117978217D4
:10338000930709F426C1D8011496ED91FC91159785
:1033900080818436A1F068F4813609F074CFD801B9
:1033A0005496ED91FC915597828381E050968C93D1
:1033B00056CF8E3609F493C0833709F064CFD80115
:1033C0005496ED91FC9155978283F8018481958103
:1033D000019695838483268137818217930709F4A8
:1033E000FBC0D80191961C921E9290971D961C923C
:1033F0001E921C971496ED91FC911597808190E098
:103400001D969C938E931C97F8018481958101965B
:1034100095838483268137818217930709F4DFC05F
:10342000D8011C96DC901C97C12C1D96DC92CE9284
:103430001C971496ED91FC9115978081F601E80F89
:10344000F11DCF011D96FC93EE931C975496ED91C0
:10345000FC915597258136812817390718F481E0AA
:1034600051968C93D8015E96ED91FC915F97CF01B8
:1034700001965F969C938E935E973B96EE0FFF1F8F
:10348000E00FF11F88E090E0918380834FC0D80166
:1034900052968D919C9153970E943418F801938B0A
:1034A000828B0488F589E02D12861186D801149646
:1034B0008D919C911597DC018C9190E0928781878A
:1034C000F8018481958101969583848326813781D3
:1034D0008217930709F082CE89E090E089C0D80175
:1034E0005496ED91FC9155978283F80184819581E2
:1034F000019695838483268137818217930709F487
:1035000071C0D80114968D919C91159701961596CE
:103510009C938E93149716962D913C911797821732
:10352000930709F085CE8BE090E062C0F8018481BA
:10353000958101969583848326813781821793072D
:1035400009F453C0D8011F961C921E921E975396E1
:103550001C921E9252971C968D919C911D971496C9
:10356000ED91FC911597892B09F0D4CD31971596E3
:10357000FC93EE93149765C0D8011496ED91FC91DD
:103580001597608152968D919C915397C6CDF80105
:103590008481958101969583848326813781821762
:1035A000930751F78EE090E023C08CE090E005C0D7
:1035B00081E090E01DC082E090E0D80113969C93DA
:1035C0008E93129718C083E090E012C084E090E0E0
:1035D000F4CF85E090E00CC086E090E0EECF87E08D
:1035E00090E006C08AE090E0E8CF8DE090E0E5CF83
:1035F000F80193838283D80114968D919C9115973D
:1036000018962D913C91199782179307A1F5129660
:103610002D913C9113972D30310569F51F961C9221
:103620001E921E9753961C921E9252971C962D9195
:103630003C911D97232BF9F4019715969C938E933B
:1036400014975E96ED91FC915F97CF01019794CD11
:10365000EE5BFF4F0C940B31F8018481958101964C
:1036600095838483268137818217930709F00FCFD2
:1036700088E090E0A2CF0F90DF91CF911F910F9142
:10368000FF90EF90DF90CF90BF90AF900895FC0136
:10369000DB01718360837383628315821482578395
:1036A000468312968C911297480F511D518740877F
:1036B00013968C911397480F511D87FD5A95538788
:1036C000428781E09C91911101C080E00895FC0146
:1036D000A281B3818C91882309F460C0CD01089642
:1036E0009383828318968C911897811108C0468124
:1036F000578160817181CF010E94471B4FC0149692
:103700003C911497832F90E011965C911197452F6F
:103710004073403391F419962C91199720732033FC
:1037200061F412962C91129780859185821B9109E4
:103730009187808780E090E010C0252F207C49F49D
:10374000403259F415968C911597839FC00111242E
:1037500004C0203811F482E090E011962C9111976A
:10376000207331F4248135812F5F3F4F35832483CB
:103770001A962C911A97AC01420F511D80859185A4
:10378000840F951F918780871B962C91820F911D26
:1037900027FD9A959387828781E0089580E00895B8
:1037A000EF92FF920F931F93CF93DF9300D000D03F
:1037B000CDB7DEB77C01DC0112960D911C911397F9
:1037C000D7011296ED91FC911397808190E0A0E0D3
:1037D000B0E084179507A607B70721F481818F70A1
:1037E000883099F4C70149835A836B837C830E9494
:1037F000671BF7018281938149815A816B817C81AA
:1038000080179107E9F680E001C081E00F900F90EA
:103810000F900F90DF91CF911F910F91FF90EF903C
:103820000895DC011296ED91FC9113974E0F5F1FE6
:1038300013965C934E9312976115710539F0DB0175
:10384000E417F50719F081918D93FACF81E008957F
:10385000CF93DF93EC018C819D81892B51F48E8174
:103860009F81009711F488E292E09F838E8380E02D
:1038700018C0E881F98141E050E0CE01099581113D
:103880000AC02E813F812115310511F426E332E073
:103890003F832E8306C02C813D81215031093D8319
:1038A0002C83DF91CF9108957F928F929F92AF9258
:1038B000BF92CF92DF92EF92FF920F931F93CF931D
:1038C000DF931F92CDB7DEB78C014B01BE016F5F56
:1038D0007F4F0E94281C782E8823E9F1898187FD7B
:1038E00005C0C82ED12CE12CF12C37C08F77C82E03
:1038F000D12CE12CF12C87E0A82EB12CBE016F5FFA
:103900007F4FC8010E94281C882329F18981482FF4
:103910004F7750E060E070E00A2C04C0440F551F60
:10392000661F771F0A94D2F7C42AD52AE62AF72AF7
:1039300087FF13C087E0A80EB11CE3E2AE16B10406
:10394000E9F6F80186819781009711F48FE392E000
:10395000F80197838683712C05C0F401C082D1825F
:10396000E282F382872D0F90DF91CF911F910F910B
:10397000FF90EF90DF90CF90BF90AF909F908F908F
:103980007F900895EF92FF920F931F93CF93DF9351
:10399000CDB7DEB72C970FB6F894DEBF0FBECDBF04
:1039A000FC0162817381DB0111968C91982F9F70CD
:1039B0009830A9F50084F185E02D00811181011571
:1039C000110509F468C0F80116820190F081E02D1C
:1039D000E480F580D80112964D915C911397B70160
:1039E000CE0101960E94471BF801828193819A873C
:1039F0008987C80106969C878B87D70111968C9181
:103A0000807C803821F4C80102969A878987CE018C
:103A100001960E94C21CF80104811581D0CF982F15
:103A2000907C61F4982F9073903129F4828593856E
:103A3000DC011C9210C085FF0EC008C0903859F5FB
:103A4000A085B1851D921C9285FF25C00284F38557
:103A5000E02D108220C0DB0111964C9111974F7020
:103A60008085918516962D913C911797473029F4C2
:103A7000BC01C9010E94581D0EC0FB01448150E0E9
:103A80002115310521F0B9010E94723104C060E0B6
:103A900070E00E947B312C960FB6F894DEBF0FBE0B
:103AA000CDBFDF91CF911F910F91FF90EF900895BF
:103AB000CF93DF93CDB7DEB72C970FB6F894DEBF68
:103AC0000FBECDBFAB01BC01CE0101960E94471BCA
:103AD000882349F0CE0101960E94C21CCE010196B6
:103AE0000E94671BF5CF2C960FB6F894DEBF0FBE71
:103AF000CDBFDF91CF910895EF92FF920F931F9367
:103B0000CF93DF93CDB7DEB760970FB6F894DEBFE3
:103B10000FBECDBF8C017A016115710501F5DC0185
:103B20008D919C9181519C41D1F0F1E1EF16F1040E
:103B300070F040E150E0BE016F5F7F4FC8010E940E
:103B40007C1D8823E9F1E0E1EE1AF108EECFA70130
:103B5000BE016F5F7F4FC8010E947C1D31C0D8013C
:103B600014968D919C9115978E159F0568F4169665
:103B70008D919C911797009711F488E292E0F801DB
:103B80009783868380E01CC0D801ED91FC91A7014A
:103B9000C8010995F80181110DC0268137812115D1
:103BA000310511F426E332E0D80117963C932E93A9
:103BB000169706C0248135812E193F093583248349
:103BC00060960FB6F894DEBF0FBECDBFDF91CF91E8
:103BD0001F910F91FF90EF900895CF92DF92EF9297
:103BE000FF920F931F93CF93DF9300D000D0CDB7F8
:103BF000DEB78C016B017A01BE016F5F7F4F0E94BF
:103C0000541C882309F43FC049815A816B817C810F
:103C10009A012F5F3F4FC901A0E0B0E084179507DC
:103C2000A607B70740F4F801868197810097E9F469
:103C30008FE492E01AC0F6018181807C803841F4E3
:103C4000F80186819781009781F48EE592E00DC09E
:103C5000F601848190E08217930760F4F801868171
:103C60009781009711F480E792E0F80197838683AB
:103C700080E009C0B701C8010E947C1DE981FA817A
:103C8000EE0DFF1D10820F900F900F900F90DF919F
:103C9000CF911F910F91FF90EF90DF90CF900895FB
:103CA000CF92DF92EF92FF920F931F93CF93DF9308
:103CB00000D000D0CDB7DEB78C017B01D42EC52E4D
:103CC000BE016F5F7F4F0E94541C882309F443C0DC
:103CD00049815A816B817C814F3F51056105710596
:103CE00009F030F59A012F5F3F4FC901A0E0B0E025
:103CF00084179507A607B70740F4F80186819781D6
:103D00000097E9F48FE492E01AC0F7018181807C8A
:103D1000803841F4F80186819781009781F48EE51F
:103D200092E00DC0F701848190E08217930760F460
:103D3000F80186819781009711F480E892E0F801FC
:103D40009783868380E007C0ED2DFC2D4193BF0152
:103D5000C8010E947C1D0F900F900F900F90DF9173
:103D6000CF911F910F91FF90EF90DF90CF9008952A
:103D7000CF93DF93CDB7DEB728970FB6F894DEBFA9
:103D80000FBECDBF21E13CE13A8329838B839C8325
:103D90006D837E8318861F823A81AC0180E098850E
:103DA00028960FB6F894DEBF0FBECDBFDF91CF913E
:103DB00008953F924F925F926F927F928F929F925F
:103DC000AF92BF92CF92DF92EF92FF920F931F9329
:103DD000CF93DF931F92CDB7DEB75C017B01C12C7F
:103DE000D12C312C412C512C612C712C812C912CFB
:103DF00010E0BE016F5F7F4FC5010E94281CE82FB5
:103E0000882309F442C0F9812F2F2F7730E040E05A
:103E100050E060E070E080E090E00C2D0E941131F5
:103E2000322A432A542A652A762A872A982A192B65
:103E3000F7FF15C087E0C80ED11CA6E4CA16D1044E
:103E4000C1F6F50186819781009711F48FE392E026
:103E5000D50117969C938E931697E0E016C0D70174
:103E60003C9211964C92119712965C92129713966F
:103E70006C92139714967C92149715968C921597C2
:103E800016969C92169717961C938E2F0F90DF9183
:103E9000CF911F910F91FF90EF90DF90CF90BF9047
:103EA000AF909F908F907F906F905F904F903F90DA
:103EB00008958F929F92AF92BF92CF92DF92EF922E
:103EC000FF920F931F93CF93DF93CDB7DEB7289761
:103ED0000FB6F894DEBF0FBECDBF4C017B018A0147
:103EE000BE016F5F7F4F0E94D91EF82F882309F40F
:103EF0006DC0D70114968C91823061F140F481300D
:103F000009F044C02981D8012C9330E029C08430C5
:103F100051F18830D9F529813A814B815C816D81DD
:103F20007E818F819885D8012C9311963C931197AF
:103F300012964C93129713965C93139714966C9366
:103F4000149715967C93159716968C93169717963B
:103F50009C9324C029813A81D8012C9311963C93DB
:103F600040E050E00EC029813A814B815C81D8014C
:103F70002C9311963C93119712964C93129713968B
:103F80005C9360E070E080E090E008C0F40186811E
:103F900097810097A9F48FE892E012C0A980BA80B7
:103FA000CB80DC80ED80FE800F8118850E94483137
:103FB00069F0F40186819781009711F481EA92E01B
:103FC000D40117969C938E931697F0E08F2F289626
:103FD0000FB6F894DEBF0FBECDBFDF91CF911F911A
:103FE0000F91FF90EF90DF90CF90BF90AF909F9098
:103FF0008F9008954F925F926F927F928F929F92CF
:10400000AF92BF92CF92DF92EF92FF920F931F93E6
:10401000CF93DF93CDB7DEB728970FB6F894DEBF06
:104020000FBECDBF4C018B017A01BE016F5F7F4F88
:104030000E94D91EE82F882309F474C0D801149671
:104040004C9189819A815B81DC804830D9F4D70119
:104050008C9311969C93119712965C9312971396DA
:10406000DC9213978D8114968C9314978E811596FC
:104070008C9315978F8116968C9316978885179633
:104080008C9350C08C01252F3D2D5801C52E280141
:104090003901770C4408542C3201423089F0443005
:1040A000F1F0413019F5D7018C93282F382F330FB9
:1040B000330B432F532F632F732F832F932F1EC048
:1040C000D7018C9311969C93282F392F492F440F99
:1040D000440B542F642F742F842F942F0FC0D701BB
:1040E0000D931D932D933C9313971CC0F40186816F
:1040F0009781009789F48FE892E00EC0E42CF42CAD
:10410000042D142D0E94483169F0F40186819781B5
:10411000009711F481EA92E0D40117969C938E9354
:104120001697E0E08E2F28960FB6F894DEBF0FBEEC
:10413000CDBFDF91CF911F910F91FF90EF90DF9056
:10414000CF90BF90AF909F908F907F906F905F9037
:104150004F900895AF92BF92CF92DF92EF92FF926D
:104160000F931F93CF93DF9300D000D0CDB7DEB76E
:104170008C017B016A015901F9011082FB01108257
:10418000FA011082118212821382BE016F5F7F4F8B
:104190000E94541C81110AC0F80124813581232B0F
:1041A000F9F481E0F501808380E01AC009811A8169
:1041B0002B813C81011511052105310591F3B901D0
:1041C000A801E3E07695679557954795EA95D1F76D
:1041D000F60140835183628373830770F701008384
:1041E0000F900F900F900F90DF91CF911F910F9133
:1041F000FF90EF90DF90CF90BF90AF9008950F9316
:104200001F93CF93DF9300D000D0CDB7DEB78C01E2
:104210006130B1F050F06230B1F0653019F544E032
:1042200050E01AC0998197FF28C041E050E0BE01DC
:104230006F5F7F4FC8010E947C1D8111F3CF1DC0AD
:1042400048E050E009C0BE016F5F7F4F0E94541CE0
:10425000882399F049815A8160E070E0C8010E948A
:104260007C1D0BC0FC0186819781009711F483EBC4
:1042700092E0F8019783868380E00F900F900F9073
:104280000F90DF91CF911F910F9108958F929F9280
:10429000AF92BF92EF92FF920F931F93CF93DF9352
:1042A00000D000D0CDB7DEB78C017B01BE016F5FBF
:1042B0007F4F0E94541C882359F198E0F801D701E0
:1042C00001900D929A95E1F749815A816B817C8129
:1042D000F70184809580A12CB12C84169506A60642
:1042E000B70660F4F80186819781009711F485EC98
:1042F00092E0F8019783868380E00AC0F701558336
:104300004483F80124813581241B350B35832483B4
:104310000F900F900F900F90DF91CF911F910F9101
:10432000FF90EF90BF90AF909F908F9008954F9225
:104330005F926F927F928F929F92AF92BF92CF9235
:10434000DF92EF92FF920F931F93CF93DF93CDB73E
:10435000DEB762970FB6F894DEBF0FBECDBF8C01FB
:104360007A01FA01A281B38111962C911197822FC3
:10437000807C803409F4BDC0803809F4AFC081115D
:104380005FC1822F8F7090E0FC01EE0FFF1FE15C98
:10439000FC4FC080D1802073203191F018F422238B
:1043A000A9F091C02032C9F0203309F08CC0FA0185
:1043B000228533858C91D9018C934085518580C0AD
:1043C000FA012285338581E0F9018083F701408578
:1043D0005185BD01C801F60131C1FA01A284B3843F
:1043E000623009F04EC005970CF04BC0BE016F5F04
:1043F0007F4FC8010E944621882309F42EC18D8178
:104400009E81892B11F1F5018081D70112966D9162
:104410007C911397FB0195818917B8F4DB01149601
:104420009C91F70140855185989F400D511D1124A5
:10443000CE010196F6010995882329F0D5018C91CA
:104440008F5F8C93DCCF80E001C081E02B813C81C9
:10445000D80113963C932E9312972F813885179687
:104460003C932E9316974D815E81452B09F4F5C040
:104470002115310511F42DED32E0F8013783268343
:10448000EBC0F7014085518514969C911497F50176
:10449000808115962C91821758F0D80116968D912F
:1044A0009C911797009709F0ADC08DED92E0AAC0DE
:1044B00021E0280F2083989F400D511D1124F70102
:1044C0006281738187CFD80116968D919C91179741
:1044D000009709F097C08CEE92E094C0D801169630
:1044E0008D919C911797009709F08CC08EE592E012
:1044F00089C0408451845201B2E0AB0EB11CF2017C
:1045000080819181892B21F4C8010E94FF20A5C0E0
:10451000623099F5BE016F5F7F4FC8010E9446214E
:10452000882309F49AC0D70112966D917C91139754
:10453000D201ED91FC91A501CE0101960995811161
:104540000EC0F801268137812115310511F42FEFB6
:1045500032E0D80117963C932E9316977EC02D819A
:104560003E81232B01F72B813C81F8013383228389
:104570002F8138853783268370C0613071F170F0E8
:104580006530B9F544E050E0BE016F5F7F4FC80170
:104590000E947C1DF4E0CF2ED12C38C0CE010196B4
:1045A0003C01C12CD12C43019FEFC91AD90AABE0C1
:1045B000CA16D10409F450C041E050E0B301C8016B
:1045C0000E947C1D882309F447C0BFEF6B1A7B0A49
:1045D000F401808187FDE7CF1BC048E050E0BE01B9
:1045E0006F5F7F4FC8010E947C1DA8E0CA2ED12CAE
:1045F0000DC0D80116968D919C911797009711F4D4
:1046000083EB92E0F8019783868326C0882329F103
:1046100081E19CE19C878B87CE0101969E878D87E7
:10462000D88ACF861A8A198AD70112966D917C9101
:104630001397D201ED91FC91A5010A9609950DC041
:10464000F80186819781009711F48CEE92E0D801F1
:1046500017969C938E93169780E062960FB6F89407
:10466000DEBF0FBECDBFDF91CF911F910F91FF90A5
:10467000EF90DF90CF90BF90AF909F908F907F9002
:104680006F905F904F9008952F923F924F925F925C
:104690006F927F928F929F92AF92BF92CF92DF9252
:1046A000EF92FF920F931F93CF93DF93CDB7DEB7B7
:1046B000AB970FB6F894DEBF0FBECDBF7C015E0195
:1046C00029E1A20EB11C88E0D5011D928A95E9F777
:1046D000CE010D960E94471B412C512C3201222401
:1046E0002394312CD70114968D919C911597892B89
:1046F00009F4E4C09E012B5D3F4FAE014F5D5F4F5B
:10470000BE016A5D7F4FC7010E94AA20811104C0CB
:104710008DA18111D3C0D0C049A15AA16BA17CA1A8
:10472000CE010D960E94D01B81119FC089A19AA134
:10473000ABA1BCA184159505A605B70508F490C0EA
:10474000CF84D888EF85F88981818F70883009F40B
:1047500001C1CE010D960E94671B8F8598898C152B
:104760009D0581F744244A94542C320129A13AA191
:104770004BA15CA12FA338A749A75AA7241535053B
:104780004605570508F46CC0D70114968D909C908F
:104790001597BEA1BBA7ED89FE89C080D180F70126
:1047A00084819581C114D10409F456C088169906F4
:1047B00009F052C0F601A081B181ED91FC911197F1
:1047C000309749F00BA52FA138A549A55AA5B601E8
:1047D000C701099539C014960D911C911597D80100
:1047E0008C9190E0A0E0B0E02FA138A549A55AA592
:1047F00082179307A407B50749F5D60112964D9184
:104800005C911397B801CE0101960E94471BF601F7
:10481000828193819A878987C60106969C878B87B8
:10482000D80111968C91807C803821F4C6010296C3
:104830009A87898721E0F6012683AE014F5F5F4F9B
:104840006BA5C7010E9497218823B1F1D601149668
:10485000CD90DC901597A3CF8816990609F042CF2A
:104860006EA1C7010E94FF2025C0EF85F8898181D4
:104870008073C9F489899A8980349105A0F4FC0178
:1048800053E0F695E7955A95E1F7EA0DFB1D877021
:104890009927910102C0220F331F8A95E2F7C901BF
:1048A0009081982B9083AE01435F5F4F6EA1C7014B
:1048B0000E949721811116CF80E051C0C988DA8803
:1048C000EF85F8891181CE010D960E94671B811139
:1048D000F5CF107341F4EF85F8899081992319F091
:1048E000BFEFCB1ADB0A960143E0369527954A9530
:1048F000E1F7F501A501420F531FE417F50721F079
:1049000091919F3FD1F316C0F501E20FF31F608133
:1049100070E0B7E0CB22DD2448E050E04C195D099F
:104920002FEF30E002C0359527954A95E2F76217E0
:10493000730771F0F701268137812115310511F4D4
:104940002FE033E0D70117963C932E93169707C0BC
:1049500081E005C04080512C612C712C07CFAB96B3
:104960000FB6F894DEBF0FBECDBFDF91CF911F9180
:104970000F91FF90EF90DF90CF90BF90AF909F90FE
:104980008F907F906F905F904F903F902F90089501
:10499000EF92FF920F931F93CF93DF9300D0CDB789
:1049A000DEB78C017B01BA01C70149835A830E949B
:1049B000581D49815A81B701C8010F900F90DF91AE
:1049C000CF911F910F91FF90EF900C944423CF92C1
:1049D000DF92EF92FF920F931F93CF93DF93CDB7A8
:1049E000DEB72A970FB6F894DEBF0FBECDBF8C019D
:1049F0007B01FB01C680D780BE016F5F7F4F498777
:104A00005A870E94462149855A85882349F1F70132
:104A100086819781892B61F4F801868197810097BF
:104A200011F486E293E0F8019783868380E018C052
:104A3000F70181818073B601803229F4CE0101969D
:104A40000E94C82404C0CE0101960E9444232B81F9
:104A50003C81F801338322832F8138853783268375
:104A60002A960FB6F894DEBF0FBECDBFDF91CF916F
:104A70001F910F91FF90EF90DF90CF900895AF922C
:104A8000BF92CF92DF92EF92FF920F931F93CF933B
:104A9000DF93CDB7DEB728970FB6F894DEBF0FBE11
:104AA000CDBF7B01BE016F5F7F4F0E94D91EF82FE3
:104AB000882309F45EC0E981AA80BB80CC80DD80B8
:104AC0000E811F81B8852E2F217030E040E050E02C
:104AD00060E070E080E090E0A0E00E94513141F1A0
:104AE0002E2F3A2D4B2D5C2D6D2D702F812F9B2F4E
:104AF00001E00E942C312095D7012C93309511961E
:104B00003C931197409512964C931297509513969B
:104B10005C931397609514966C9314977095159603
:104B20007C931597809516968C93169790951FC039
:104B30002E2F3A2D4B2D5C2D6D2D702F812F9B2FFD
:104B400001E00E942C31D7012C9311963C931197D0
:104B500012964C93129713965C93139714966C933A
:104B6000149715967C93159716968C93169717960F
:104B70009C938F2F28960FB6F894DEBF0FBECDBF43
:104B8000DF91CF911F910F91FF90EF90DF90CF9029
:104B9000BF90AF9008957F928F929F92AF92BF92F5
:104BA000CF92DF92EF92FF920F931F93CF93DF93F9
:104BB000CDB7DEB728970FB6F894DEBF0FBECDBFD6
:104BC0004C018B017A01BE016F5F7F4F0E943F2530
:104BD000F82F882309F484C0D80114968C91823070
:104BE000B1F188F4813009F058C08981D7018C93E4
:104BF000782EE82FEE0FEE0B4E2F5E2F6E2F7E2FAE
:104C00008E2F9E2F52C0843091F1883009F045C01C
:104C10007980EA814B815C816D817E818F8198856D
:104C2000D7017C921196EC93119712964C931297A0
:104C300013965C93139714966C93149715967C9324
:104C4000159716968C93169717969C932EC089816C
:104C5000EA81D7018C931196EC93782E4E2F440F56
:104C6000440B542F642F742F842F942F1EC009815E
:104C70001A812B813C81D7010D931D932D933C9379
:104C80001397702EE12FA901330F000B102F9801FD
:104C9000602F702F802F902F08C0F401868197819C
:104CA0000097C1F48FE892E015C0A980BA80CB804C
:104CB000DC80ED80FE80BF811885272D3E2F0B2FD5
:104CC0000E94483169F0F40186819781009711F4C0
:104CD00081EA92E0D40117969C938E931697F0E0A8
:104CE0008F2F28960FB6F894DEBF0FBECDBFDF9191
:104CF000CF911F910F91FF90EF90DF90CF90BF90D9
:104D0000AF909F908F907F90089544E050E00C9476
:104D10007C1DBA010C94852648E050E00C947C1D63
:104D2000BA010C948C26FC01A281B3819D01240F51
:104D3000351F33832283FB01460F571FE417F50706
:104D400019F081918D93FACF81E00895FC0183E9F8
:104D500096E29183808373836283558344831782B1
:104D6000168211861086CF0108950F931F93CF935B
:104D7000DF93EC018A01E881F981309709F12E81F6
:104D80003F81240F351F8C819D818217930750F43A
:104D900088859985009711F481E593E09987888744
:104DA00080E015C0CE01099581110AC0288539859A
:104DB0002115310511F426E332E03987288707C031
:104DC0008E819F81800F911F9F838E8381E0DF9171
:104DD000CF911F910F9108955F926F927F928F9262
:104DE0009F92AF92BF92CF92DF92EF92FF920F937A
:104DF0001F93CF93DF93CDB7DEB762970FB6F894CA
:104E0000DEBF0FBECDBF6C01802F0B87912F1C879B
:104E1000522E2D87632E3E87742E4F87852E588BFA
:104E2000962E698BB72F7A8B8C019801452D562DC4
:104E3000672D782D892D9B2FA0E00E94513121F004
:104E4000FE0131967F0106C041E050E0BE01655F82
:104E50007F4F34C05F01AE18BF089801452D562D15
:104E6000672D782D892D9B2FA0E00E945131A9F04C
:104E7000802F806881939801452D562D672D782DC0
:104E8000892D9B2F07E00E942C318901542E652E1D
:104E9000762E872E982EB92FDDCF1B861C861D8679
:104EA0001E861F86188A198A1A8AF5013197EE0D17
:104EB000FF1D80818F778083A501B701C6010E9405
:104EC000B52662960FB6F894DEBF0FBECDBFDF9158
:104ED000CF911F910F91FF90EF90DF90CF90BF90F7
:104EE000AF909F908F907F906F905F9008958F927A
:104EF0009F92AF92BF92CF92DF92EF92FF920F9369
:104F00001F93FA01DB0114962C91223099F028F4BA
:104F10002130E9F48080912C0FC0243081F02830BA
:104F2000B1F480809180A280B380C480D580E68077
:104F3000F7801CC080809180A12CB12C04C080809F
:104F40009180A280B380C12CD12C76010FC0FC01CE
:104F5000208531852115310511F42FE832E0DC017F
:104F600019963C932E93189780E006C08401950112
:104F7000A601B7010E94EC261F910F91FF90EF90C0
:104F8000DF90CF90BF90AF909F908F9008950F9338
:104F90001F93CF93FA01DB0114962C912230D9F0A4
:104FA00068F4213091F50081102F110F110B212F82
:104FB000312FC12FB12FA12F712F36C02430B1F066
:104FC000283019F50081118122813381C481B58196
:104FD000A681778129C011810081212F220F220B08
:104FE000322FC22FB22FA22F722F1EC040815181AB
:104FF000628173818A019B01770F440B542FBA01A0
:10500000C42FB42FA42F742F0FC0FC01208531852D
:105010002115310511F42FE832E0DC0119963C939B
:105020002E93189780E005C04C2F5B2F6A2F0E94AB
:10503000EC26CF911F910F910895DF92EF92FF928E
:105040000F931F93CF93DF93FC01D22EE32EF42E08
:10505000D52FC62FB72F98014D2D5E2D6F2D7D2F8B
:105060008C2F9B2FA0E00E94513164F401E00E943C
:1050700011312095309540955095609570958095AB
:1050800090950AC098014D2D5E2D6F2D7D2F8C2F90
:105090009B2F01E00E94113189019A01AB01BC01F3
:1050A000CF010E94EC26DF91CF911F910F91FF90CD
:1050B000EF90DF9008950F931F93CF93FA01DB01D8
:1050C00014962C912230D9F068F4213091F50081AA
:1050D000102F110F110B212F312FC12FB12FA12F05
:1050E000712F36C02430B1F0283019F500811181BC
:1050F00022813381C481B581A681778129C0118144
:105100000081212F220F220B322FC22FB22FA22F6C
:10511000722F1EC040815181628173818A019B017F
:10512000770F440B542FBA01C42FB42FA42F742F20
:105130000FC0FC01208531852115310511F42FE8C0
:1051400032E0DC0119963C932E93189780E005C05D
:105150004C2F5B2F6A2F0E941D28CF911F910F911A
:10516000089544E050E00C94B526BA010C94B1289F
:1051700048E050E00C94B526BA010C94B8288F9200
:105180009F92AF92BF92CF92DF92EF92FF920F93D6
:105190001F93FC01A62F49015A01A50160E070E0B0
:1051A00080E090E003E00E941131022F242F0A2BAF
:1051B000132F352FAB01BC01CF010E94EC261F91AC
:1051C0000F91FF90EF90DF90CF90BF90AF909F90A6
:1051D0008F900895FB0121812F702330A1F088F07A
:1051E000243021F0283020F462E00EC061E00CC0D1
:1051F000FC01208531852115310561F42CEE32E06A
:1052000009C060E001C065E0208130E040E050E08E
:105210000C94BF28FC013187208780E008952F92ED
:105220003F924F925F926F927F928F929F92AF9236
:10523000BF92CF92DF92EF92FF920F931F93CF9383
:10524000DF93CDB7DEB72B970FB6F894DEBF0FBE56
:10525000CDBF7C016B015A01DB0111963C91232FDC
:10526000207C203409F41CC1203811F0211132C1F6
:1052700081E08B87832F8F7090E0FC01EE0FFF1F82
:10528000E455FC4F40805180F6014381442331F0C6
:10529000F501E40FF11D47FDFA9502C0FE013B96B2
:1052A000203849F4D501AD90BC9041E0A114B1047F
:1052B00009F440E04B8730733031B9F018F43323F0
:1052C00039F0E1C03032B1F0303309F4CBC0DBC08B
:1052D000A114B10409F0CBC0F70180859185009736
:1052E00009F0FFC08FE093E0FCC08081882309F4BF
:1052F000DEC0BDC08080912C8114910409F4D7C018
:10530000203881F0D60115962C9130E0281539050A
:1053100048F4F70180859185009709F0E2C08DE59A
:1053200093E0DFC005970CF072C0F601208130E0F9
:1053300040E050E062E0C7010E94BF28882309F4E2
:10534000D5C0D60111968C918F70833031F4340121
:10535000660C771C660C771C29C0843039F4340144
:10536000A3E0660C771CAA95E1F720C0FE013196F8
:105370001F018AE0DF011D928A95E9F78501612C02
:10538000712CA801B601C101F2010995882309F425
:10539000ADC0D60114968C91080F111DBFEF6B1A8A
:1053A0007B0A6814790468F36F807884830120E0B5
:1053B00030E040E050E060E070E0C7010E94EC2681
:1053C000882309F493C0F70180819181892B51F4DE
:1053D000A30160E070E0C7010E94B526882309F4AC
:1053E00085C065C000E010E0A501B601C701F2016B
:1053F0000995882309F47AC0D60114968C91A80ED9
:10540000B11C0F5F1F4F0815190570F350C000E065
:1054100010E0B601C7010E94EA28882309F466C09B
:10542000F6018181982F907C9038D1F48F7090E0B4
:1054300005970297A8F4D5014D915C91B601C7017B
:10544000F2010995882309F451C0D60114968C9174
:10545000A80EB11C0F5F1F4F08151905D0F227C009
:10546000A501ECCF9081D6018C91981320C0B60194
:10547000C7010E94EA288823C9F1A501B601C70126
:10548000F201099534C0D70118968D919C91199716
:10549000009711F48CEE92E0F7019187808726C087
:1054A0004E5F5F4FD501ED91FC91309711F481E093
:1054B0001EC009958111FBCFF7012085318521158B
:1054C000310511F425E733E0D70119963C932E936B
:1054D00018970DC0FC0180859185009711F48CEE22
:1054E00092E0D70119969C938E93189780E02B96A3
:1054F0000FB6F894DEBF0FBECDBFDF91CF911F91E5
:105500000F91FF90EF90DF90CF90BF90AF909F9062
:105510008F907F906F905F904F903F902F90089565
:10552000EF92FF920F931F93CF93DF93CDB7DEB728
:105530002C970FB6F894DEBF0FBECDBF7C01CE0115
:1055400001960E94471B811102C081E041C06B811E
:105550007C81FB0181818F7049855A85883071F586
:10556000FA01008111810115110569F1F801A0818D
:10557000B1811296ED91FC911397309721F0B8010B
:10558000C701099513C014966D917C911597FB0185
:105590008181807C803821F4A8014E5F5F4F03C079
:1055A000F80142815381C7010E940F29811102C075
:1055B00080E00EC0F80104811581D5CFC7010E949B
:1055C0000F298823A9F3CE0101960E94671BBBCF48
:1055D0002C960FB6F894DEBF0FBECDBFDF91CF91F2
:1055E0001F910F91FF90EF900895CF92DF92EF926D
:1055F000FF920F931F93CF93DF93EC016B017A011E
:105600008A0120E030E040E050E060E070E00E947D
:10561000EC26882369F0A701B601CE01DF91CF9176
:105620001F910F91FF90EF90DF90CF900C94B526D3
:1056300080E0DF91CF911F910F91FF90EF90DF906D
:10564000CF900895FB01BA0144812181207C20384C
:1056500011F050E002C04FEF5FEF6115710561F08E
:10566000FB0120E030E02417350741F0A191AA2387
:1056700029F02F5F3F4FF7CF20E030E0A9010C94D5
:10568000F52AFA01309729F440E050E060E070E03C
:105690001FC0DB0111962C911197207C40812111B4
:1056A00013C0242F30E02F5F3F4F14966C9170E0B1
:1056B0006217730748F4FC012085318521153105F7
:1056C00049F424E833E006C050E0BF016F5F7F4F2C
:1056D0000C94F52ADC0119963C932E93189780E0E0
:1056E00008956F927F928F929F92AF92BF92CF92C6
:1056F000DF92EF92FF920F931F93CF93DF93CDB77B
:10570000DEB72A970FB6F894DEBF0FBECDBF7C017F
:105710004B013A01CE0101965C018AE0F50111923C
:105720008A95E9F7C5010E94902A811104C0298554
:105730003A85F70154C0CF80D884860120E030E05C
:1057400040E050E060E070E0C7010E94EC26882352
:1057500009F451C0F701208131812115310539F457
:10576000A60160E070E0C7010E94B52644C0F701C1
:10577000868197818C0D9D1D44815581481759075D
:1057800050F480859185009711F481E593E0F7014D
:10579000918780872FC03A832983F7018281938183
:1057A0009C838B83DE82CD8218861F821A8619869F
:1057B000A301B401C5010E94902A4F815885F701C9
:1057C00026813781240F351F378326832B813C8127
:1057D0003383228329853A854C155D0519F4318779
:1057E000208709C02115310511F428E933E0F701BC
:1057F0003187208780E02A960FB6F894DEBF0FBE6F
:10580000CDBFDF91CF911F910F91FF90EF90DF906F
:10581000CF90BF90AF909F908F907F906F900895A2
:10582000FB01668177816115710549F4FC012085D2
:1058300031852115310529F426E233E002C00C94AC
:10584000712BFC013187208780E008958230E8F4D5
:10585000E82FF0E0EE0FFF1FE65CF94F71836083E5
:10586000813041F0809169008C7F842B80936900A6
:10587000E89A089580916900440F551F440F551F01
:10588000837F842B80936900E99A0895823068F4BD
:10589000813011F0E89801C0E998E82FF0E0EE0FB0
:1058A000FF1FE65CF94F1182108208951F920F923C
:1058B0000FB60F9211242F933F934F935F936F93E3
:1058C0007F938F939F93AF93BF93EF93FF938091B9
:1058D0003A0690913B06892B29F0E0913A06F09127
:1058E0003B060995FF91EF91BF91AF919F918F91E9
:1058F0007F916F915F914F913F912F910F900FBECC
:105900000F901F9018951F920F920FB60F921124AF
:105910002F933F934F935F936F937F938F939F93B7
:10592000AF93BF93EF93FF9380913C0690913D0618
:10593000892B29F0E0913C06F0913D060995FF91F5
:10594000EF91BF91AF919F918F917F916F915F91F7
:105950004F913F912F910F900FBE0F901F90189570
:105960001F920F920FB60F9211242F933F938F9394
:105970009F93AF93BF9380913F0690914006A09173
:105980004106B091420630913E0623E0230F2D37A9
:1059900020F40196A11DB11D05C026E8230F029633
:1059A000A11DB11D20933E0680933F0690934006B3
:1059B000A0934106B093420680914306909144061D
:1059C000A0914506B09146060196A11DB11D809398
:1059D000430690934406A0934506B0934606BF91B4
:1059E000AF919F918F913F912F910F900FBE0F908C
:1059F0001F9018952FB7F89460913F06709140065C
:105A000080914106909142062FBF08953FB7F894C8
:105A10008091430690914406A0914506B0914606B8
:105A200026B5A89B05C02F3F19F00196A11DB11DF9
:105A30003FBF6627782F892F9A2F620F711D811D16
:105A4000911D42E0660F771F881F991F4A95D1F775
:105A50000895CF92DF92EF92FF92CF93DF936B0185
:105A60007C010E94062DEB01C114D104E104F10474
:105A700089F00E94E8300E94062D6C1B7D0B683E69
:105A8000734090F381E0C81AD108E108F108C851C9
:105A9000DC4FEACFDF91CF91FF90EF90DF90CF9076
:105AA00008958230910538F0880F991F880F991F4B
:105AB00005970197F1F70895789484B5826084BDC5
:105AC00084B5816084BD85B5826085BD85B5816002
:105AD00085BDEEE6F0E0808181608083E1E8F0E062
