:100000000C94E2010C9413020C9413020C9413024E
:100010000C9413020C9413020C9413020C9413020C
:100020000C9413020C9413020C9413020C941302FC
:100030000C9413020C9413020C9413020C941302EC
:100040000C9413020C9413020C9413020C941302DC
:100050000C940C090C9413020C9413020C94A12B15
:100060000C9413020C94C92F0C94FF2F0C941302C0
:100070000C9413020C94E1080C9413020C941302D8
:100080000C9413020C9413020C9413020C940E0B98
:100090000C9413020C9413020C9413020C943D055F
:1000A0000C9413020C9413020C9413020C9413027C
:1000B0000C9413020C9413020C9413020C9413026C
:1000C0000C9413020C9413020C9413020C9413025C
:1000D0000C9413020C9413020C9413020C9413024C
:1000E0000C94130242135313CA13DA134C147714EB
:1000F0008514A014B014CF14DF1489188918FD14C6
:10010000391521157315C115F7154D165D169B167A
:10011000B616E41726183318F01708185018631885
:1001200089188918891889188918891889188918C7
:1001300089188918891889188918891889188918B7
:1001400089188918891889188918891889188918A7
:100150008918891889188918891889188918891897
:100160008918891889188918891889188918891887
:100170008918891889188918891889188918891877
:10018000891889188918891889188918E316C417D5
:10019000B91CE11CFE1C1B1D5E1D401D7C1DA51D08
:1001A000DB1DC01D171EF31DF31ECE1E121FB11F37
:1001B0004D1F3E200420D61C9220B420CF20F020DA
:1001C0009A1DFF20142130213D216A217921C92C5B
:1001D000CE2CD32CDD2CE72C602DF12CF92C012D0D
:1001E0000B2D152D1F2D2E2D382D602D422D4C2D14
:1001F000562D822D852D742D782D7E2DBC2D892D8B
:100200008D2D932D972D9B2DA12DA52DA92DBC2D89
:10021000AF2DB32DB72D08000000BE922449123E29
:10022000ABAAAA2ABECDCCCC4C3E00000080BEAB0F
:10023000AAAAAA3E00000000BF000000803F000004
:10024000000000084178D3BB4387D1133D190E3C11
:10025000C3BD4282AD2B3E68EC8276BED98FE1A948
:100260003E4C80EFFFBE01C4FF7F3F000000000056
:1002700007634236B79BD8A71A39685618AEBAAB8F
:10028000558C1D3CB7CC5763BD6DEDFD753EF61723
:100290007231BF000000803F00000A0B02090C0D04
:1002A0000E08070304010000000000000000000029
:1002B000000000000000000000000000000000003E
:1002C00000000000121110000000000000000000FB
:1002D000000000000000000000000000000001021B
:1002E0001020200808102040102040800201020148
:1002F0000804020101020408102040808040201000
:100300000804020180040201804020100804020158
:1003100008040201010204081020408001020408C0
:100320001020408005050505070508080808020299
:1003300002020A0A0808040404040101010101017F
:1003400001010303030303030303040707070C0C62
:100350000C0C0C0C0C0C0202020206060606060629
:1003600006060B0B0B0B0B0B0B0B000020002300E6
:10037000260029002C002F0032000001000003019C
:100380000601090100002200250028002B002E0094
:100390003100340002010000050108010B010000DA
:1003A0002100240027002A002D0030003300010125
:1003B0000000040107010A0149021D041609B926BB
:1003C00033304D0211241FBECFEFD1E2DEBFCDBFCF
:1003D00000E00CBF14E0A0E0B2E0E4EFF5E700E0DD
:1003E0000BBF02C007900D92A83AB107D9F72FE0D2
:1003F000A8EAB4E001C01D92A632B207E1F713E00B
:10040000C2ECD3E000E006C022970109FE010BBF59
:100410000E947938C83BD10780E00807A9F70E94FD
:10042000E6020C94E83A0C94000080910602909148
:10043000070201969093070280930602089588EAC6
:1004400094E00E94DA21809106029091070269E10E
:1004500070E00E941F38892BD9F48091FA0C882310
:1004600089F08091FB0C81110BC0E091A804F09100
:10047000A9040688F789E02D88EA94E0199502C05E
:100480001092FB0C81E090E09093070280930602AB
:10049000089588EA94E00C94690B88EA94E00C943F
:1004A0007A0B80E1809391001092900085E0809318
:1004B0003D0E86E998E990933F0E80933E0E90930F
:1004C00097008093960085E18093910085E192E00A
:1004D00090933C0E80933B0E81E08093710088EAFC
:1004E00094E00E94110F68E072E085E89EE00E94AF
:1004F000C2306FEF71E2605072404AE050E085E830
:100500009EE00E948C316DE072E085E89EE00E94E2
:10051000C23068EA74E0605072404AE050E085E81A
:100520009EE00E948C3164E172E085E89EE00E94CA
:10053000C23066E27FE0685A74404AE050E085E8E5
:100540009EE00E948C316AE172E085E89EE00E94A4
:10055000C2306091220F7091230F6115710519F05F
:1005600066527F4002C060E070E04AE050E085E8FB
:100570009EE00E948C3160E272E085E89EE00E947D
:10058000C2308DB79EB76FEF71E2681B790B4AE0FE
:1005900050E085E89EE00E948C3167E272E085E8D9
:1005A0009EE00E94C2308091220F9091230F6DB780
:1005B0007EB7009719F466527F4002C0681B790B22
:1005C0004AE050E085E89EE00C948C310E94412C7A
:1005D0000E945102C2E8DEE20E941F022097E1F36E
:1005E0000E94822EF9CF80918B0D90E020918C0D8E
:1005F000821B9109089520918C0D80918B0D2817F5
:1006000050F4E22FF0E0E357F24F808190E02F5F4B
:1006100020938C0D08958FEF9FEF0895E0918C0D3E
:1006200080918B0DE81730F4F0E0E357F24F8081B2
:1006300090E008958FEF9FEF08950895CF92DF9295
:10064000EF92FF920F931F93CF93DF937C01CB0127
:100650008A012091670D222389F0EB016B01C40E02
:10066000D51ECC15DD0569F06991D701ED91FC919E
:100670000190F081E02DC7011995F3CF642F0E94FE
:100680001405C801DF91CF911F910F91FF90EF905A
:10069000DF90CF900895CF93DF931F92CDB7DEB751
:1006A00069832091670D2223D1F02091680D2032BB
:1006B00040F021E030E0FC013383228380E090E0D1
:1006C00015C08091690DE82FF0E0E659F24F99814D
:1006D00090838F5F8093690D8093680D05C061E002
:1006E000CE0101960E94140581E090E00F90DF9109
:1006F000CF910895FC011382128248EE53E060E02E
:1007000070E0448355836683778388E392E0918326
:100710008083089510928C0D10928B0D1092690DAC
:100720001092680D0C94570481E08093670D6093DC
:100730008A0D1092690D1092680D08950C9494031F
:100740000F93062F21E04091680D6AE67DE08091CD
:100750008A0D0E94BD041092690D1092680D1092CE
:10076000670D0F9108958F929F92AF92BF92CF9293
:10077000DF92EF92FF920F931F93CF93DF93EC01E1
:10078000F62ED42E48015901EE2019F10E9494034F
:100790001E2D143008F013E01150B8F0E881F981F3
:1007A00028E0129FB0011124A501940104C05695C0
:1007B0004795379527956A95D2F7CA01B9010190F7
:1007C000F081E02DCE011995E7CF60E0CE010E94C7
:1007D000A0034D2D413208F040E22C2D6DE87DE064
:1007E0008F2D0E94750410928C0D80938B0DDF91DC
:1007F000CF911F910F91FF90EF90DF90CF90BF901E
:10080000AF909F908F900895CF92EF920F931F9388
:10081000C22EE12C00E010E098010E94B3031F916A
:100820000F91EF90CF90089521E00C94040421E003
:100830000C94040461E00C94A0038BE59DE00C94FF
:100840007A03CF93CFB7F8948091AD0D811127C073
:10085000E9E5F3E08491E3E1F3E09491E82FF0E03F
:10086000EE0FFF1FE256FC4FA591B4918C918923A6
:1008700021F461E085E30E94F62D61E085E30E94AA
:10088000BD2D8CB580618CBD8CB580648CBD61E064
:1008900084E30E94BD2D61E083E30E94BD2D809121
:1008A000AD0D8F5F8093AD0DCFBFCF9108951092A6
:1008B0001B0E81E08093190E1092180E61E084E106
:1008C0000E94F62D61E085E10E94F62DE9EBF0E053
:1008D00080818E7F808380818D7F808388E4809378
:1008E000B80085E48093BC000895413208F043C00D
:1008F00090911B0E9111FCCF91E090931B0E2093D1
:10090000190E2FEF2093AE0D1092F30D240F2093AC
:10091000F20D90931A0E90911A0E880F892B8093E6
:100920001A0E8091180E813061F41092180E809189
:100930001A0E8093BB008091BC0083FDF8CF85EC3C
:1009400001C085EE8093BC0080911B0E8130E1F3E5
:100950008091F30D841710F44091F30D24EF3DE0E6
:10096000FB01D9018A2F821B841718F48D91819382
:10097000F9CF842F089580E008950F93413208F055
:100980004AC090911B0E9111FCCF92E090931B0EE8
:100990000093190E9FEF9093AE0D1092F30D4093BC
:1009A000F20DFB0164EF7DE0DB019A2F961B94179B
:1009B00018F491919D93F9CF10921A0E90911A0EFE
:1009C000880F892B80931A0E8091180E813061F464
:1009D0001092180E80911A0E8093BB008091BC007B
:1009E00083FDF8CF85EC01C085EE8093BC00222307
:1009F00021F080911B0E8230E1F38091AE0D8F3F8C
:100A000061F08091AE0D803251F08091AE0D803357
:100A100041F483E007C081E005C080E003C082E0CC
:100A200001C084E00F910895613298F420911B0E6B
:100A3000243089F46093D00DFC0182ED9DE0DC014F
:100A40002A2F281B261718F421912D93F9CF80E027
:100A5000089581E0089582E0089585ED8093BC00BB
:100A60008091BC0084FDFCCF10921B0E089585EC94
:100A70008093BC0010921B0E08951F920F920FB628
:100A80000F9211240BB60F922F933F934F935F93C6
:100A90006F937F938F939F93AF93BF93EF93FF9346
:100AA0008091B900887F803609F49EC078F588323D
:100AB00009F45DC090F4803109F456C038F48823FD
:100AC00009F4F5C0883009F44FC0F5C0883109F445
:100AD0004EC0803209F45FC0EEC0803409F46AC0B1
:100AE00058F4803309F457C0883309F0E4C0809388
:100AF000AE0D0E943705DFC0803509F44FC0883540
:100B000009F45DC0883409F0D6C0D3C0883909F42F
:100B1000C4C0A8F4883709F467C038F4883609F4EB
:100B200063C0803709F460C0C6C0883809F4B5C016
:100B3000803909F45FC0803809F0BDC05BC0803BDC
:100B400009F483C038F4803A09F466C0883A09F49D
:100B50007CC0B1C0803C09F4A4C0883C09F4A1C0A9
:100B6000883B09F487C0A7C080911A0E10C09091ED
:100B7000F30D8091F20D981770F5E091F30D81E07F
:100B80008E0F8093F30DF0E0EC50F24F8081809354
:100B9000BB0085EC83C08093AE0D8BC0E091F30D5C
:100BA00081E08E0F8093F30D8091BB00F0E0EC505C
:100BB000F24F80839091F30D8091F20D6BC0E09124
:100BC000F30D81E08E0F8093F30D8091BB00F0E078
:100BD000EC50F24F80838091190E81116AC081E040
:100BE0008093180E84EA5EC083E080931B0E1092FF
:100BF000AF0DCFCF8091AF0D803208F04EC0E091A5
:100C0000AF0D81E08E0F8093AF0D8091BB00F0E0BF
:100C1000E055F24F8083BDCF0E9437058091AF0D24
:100C2000803230F4E091AF0DF0E0E055F24F1082E9
:100C30006091AF0D70E0E091140EF091150E80EB15
:100C40009DE019951092AF0D36C084E080931B0E85
:100C50001092D10D1092D00DE091160EF091170E5A
:100C600019958091D00D811105C081E08093D00D40
:100C70001092D20DE091D10D81E08E0F8093D10DB5
:100C8000F0E0EE52F24F80818093BB009091D10D45
:100C90008091D00D981708F47CCF85E88093BC0034
:100CA0000AC085EC8093BC0010921B0E04C0109209
:100CB000AE0D0E942D05FF91EF91BF91AF919F91D5
:100CC0008F917F916F915F914F913F912F910F90F5
:100CD0000BBE0F900FBE0F901F901895ECE7F0E041
:100CE00090819F739083208130E4839FC001112401
:100CF000282B20830895EAE7F0E09081987F908385
:100D00009081982B9083089580917A00877090E06D
:100D10000895E1E8F0E08081887F808308950E9453
:100D200089061092850010928400E1E8F0E080814D
:100D300090911C0E892B80830895882321F0809147
:100D40007C00806203C080917C008F7D80937C005A
:100D50000895EBE7F0E09081987F90839081982B45
:100D600090830895CF92DF92EF92FF92CF936B0121
:100D70007C0180E18093810010928000A7019601A0
:100D800060E074E284E799E40E94893420E030E076
:100D900040E051E40E945D360E94F6346115710511
:100DA00021E08207910528F421E020931C0ECB015D
:100DB0004CC06115710528E08207910568F422E0B6
:100DC00020931C0EDC01CB0153E0B695A7959795B7
:100DD00087955A95D1F739C06115710520E48207CE
:100DE000910568F423E020931C0EDC01CB0146E062
:100DF000B695A795979587954A95D1F726C0611521
:100E00007105810521E0920740F424E020931C0E37
:100E1000BB27A92F982F872F18C061157105810551
:100E200024E0920768F425E020931C0EDC01CB013E
:100E30002AE0B695A795979587952A95D1F705C08D
:100E400085E080931C0E8FEF9FEF90938700809337
:100E50008600C1E0C0936F0086E00E94A906C0939F
:100E6000320E80917A00806280937A00C092250EC3
:100E7000D092260EE092270EF092280ECF91FF908E
:100E8000EF90DF90CF9008958093320E882321F069
:100E900080917A00806203C080917A008F7D809378
:100EA0007A000895EAE7F0E0808180648083089505
:100EB000CF93DF93D0917800C09179004091350EA7
:100EC0005091360E2091330E3091340E4217530755
:100ED000A8F58091320E811102C00E9452078D2F19
:100EE00090E09C2B20917C0025FF13C0E091390EEF
:100EF000F0913A0E2091350E3091360EA9014F5FD8
:100F00005F4F5093360E4093350EE20FF31F9083E0
:100F100015C0E091370EF091380E2091350E3091CA
:100F2000360EA9014F5F5F4F5093360E4093350E3A
:100F3000220F331FE20FF31F91838083DF91CF9144
:100F400008951092360E1092350E8091320E0E9446
:100F500044070E94EB2B60931D0E70931E0E80932E
:100F60001F0E9093200E80917A00886C80937A00F7
:100F700080917B008770863011F40C948F06089561
:100F80008F929F92AF92BF92CF92DF92EF92FF9299
:100F90000E94EB2B4B015C0180917A00877D80934E
:100FA0007A0080917B008770863011F40E94890658
:100FB0006091330E7091340E80E090E00E942235F3
:100FC00020E034E244E759E40E945D366B017C0185
:100FD00080911D0E90911E0EA0911F0EB091200EBB
:100FE000A5019401281B390B4A0B5B0BCA01B901FF
:100FF0000E9422359B01AC01C701B6010E948934D1
:101000006093210E7093220E8093230E9093240EF2
:10101000FF90EF90DF90CF90BF90AF909F908F9018
:10102000089580932F0E90917C00907F90937C0088
:1010300020917C00982F9770922B90937C008830A1
:1010400020F080917B00886003C080917B00877FC7
:1010500080937B00089591E090932E0E1092310EB4
:101060001092300E10922D0E28E537E030932C0EA2
:1010700020932B0E0C94110880912D0E8F5F80937E
:101080002D0E90912E0E891302C010922D0E80917C
:101090002D0EE091300EF091310EE80FF11D8081A0
:1010A0000E9411080C9458071F93CF93DF93C091AF
:1010B0002D0E90912E0E9230A0F081E08C0F8917AA
:1010C00019F080932D0E02C010922D0E80912D0EDE
:1010D000E091300EF091310EE80FF11D80810E94F9
:1010E000110810917800D09179004091350E5091FF
:1010F000360E2091330E3091340E42175307F0F420
:101100008091320E811102C00E945207612F70E05F
:101110007D2B80917C0085FF02C0672F7727E091AF
:10112000290EF0912A0E8C2F19958091350E9091F1
:10113000360E01969093360E8093350EDF91CF9147
:101140001F910895CF93DF93D0917C00C0917B00D5
:1011500080917C00807E80937C0080917C008E61F9
:1011600080937C0080917B00877F80937B0063E08D
:1011700070E080E090E00E940E2C80917A00806404
:1011800080937A0080917A0086FDFCCF6091780090
:1011900080917900D0937C00C0937B0070E0782B25
:1011A000882777FD8095982F0E9424359B01AC01FC
:1011B00060E070E889E894E40E948934DF91CF917F
:1011C00008951F920F920FB60F9211240BB60F9233
:1011D0002F933F934F935F936F937F938F939F933F
:1011E000AF93BF93EF93FF93E0912B0EF0912C0EF2
:1011F0001995FF91EF91BF91AF919F918F917F9141
:101200006F915F914F913F912F910F900BBE0F9077
:101210000FBE0F901F9018951F920F920FB60F924E
:1012200011240F900FBE0F901F90189581E00C9421
:101230006E06FF920F931F93CF93DF93FC01008103
:10124000C181D281F8948981F02EF0948F21898315
:1012500078941DE7115029F182E090E00E94362C2D
:1012600088818023B9F3F8948A818F218A838981C8
:10127000802B8983789480EE91E00E94362CF8943C
:1012800089818F21898386E490E00E94362C8881B1
:10129000802311E009F010E078948AE991E00E943F
:1012A000362C812FDF91CF911F910F91FF900895E0
:1012B0001F93CF93DF93FC011081C181D281912FC5
:1012C000909560FF12C0F8948A8189238A8389816E
:1012D000812B89838AE090E00E94362C8A81812BC1
:1012E0008A83789487E390E011C0F8948A818923F7
:1012F0008A838981812B898381E490E00E94362C46
:101300008A81812B8A83789485E090E0DF91CF9168
:101310001F910C94362C0F931F93CF93DF93FC01F6
:101320001081C181D281F8948981812B89838A813E
:10133000012F009580238A8383E090E00E94362C61
:101340008981802389838AE090E00E94362CC881BD
:10135000789485E390E00E94362C1C2381E009F408
:1013600080E0DF91CF911F910F910895CF92DF928E
:10137000EF92FF920F931F93CF93DF931F92CDB7FE
:10138000DEB76C01E62E08E010E0FF24F39461E084
:101390009F2D9E2109F460E0C60149830E945809EF
:1013A000FF0C0150110949810115110581F7411107
:1013B00015C0F894D6011196ED91FC911297918188
:1013C0008C918095892381831196ED91FC911297E0
:1013D00092818C9180958923828378940F90DF91FC
:1013E000CF911F910F91FF90EF90DF90CF900895D4
:1013F000EF92FF920F931F93CF93DF938C01C8E07E
:10140000D0E0F12CEE24E394C8010E948B098111F5
:10141000FE28EE0C2197C1F78F2DDF91CF911F9100
:101420000F91FF90EF900895CF92DF92FF920F936C
:101430001F93CF93DF931F92CDB7DEB78C01F62EAB
:1014400040E065E579830E94B609CF2C7981D72EDB
:1014500088E0F82EF60161916F0140E0C8010E941A
:10146000B609FA94B9F70F90DF91CF911F910F91C0
:10147000FF90DF90CF900895FC01138615861486A7
:1014800027E030E0DF01A20FB31F13961C92211555
:10149000310519F021503109F5CF08951F93CF93ED
:1014A000DF93EC01162F60E0812F0E94BD2D612F8C
:1014B00070E0FB01E252FD4FE491E883FB01EC5D3B
:1014C000FC4FE491F0E0EE0FFF1FE659FC4F8591D1
:1014D00094919A838983CE01DF91CF911F910C94CF
:1014E0003C0AAF92BF92CF92DF92EF92FF920F939E
:1014F0001F93CF93DF931F92CDB7DEB75C01D62E3B
:10150000E72EFC018585811164C0C50149830E94D5
:1015100019094981811105C0F501138615861486C4
:1015200071C0442319F040E060EF02C040E06CEE6F
:10153000C5010E94B60901E0F12CC12C11E0C501E2
:101540000E948B09682FC50169830E948B096981FC
:10155000613019F48130B9F433C02F2D30E06813B5
:101560001BC0F5018385181730F4E20FF31F838148
:10157000802349F402C0181731F060E0193058F4A4
:10158000F501148708C0F501EF0DF11D8381802B53
:10159000838361E009C0C12EF501E20FF31F83814F
:1015A000902F909589238383C5010E9458091F5F5E
:1015B000000F11F4F39401E0F7E0FF1508F0BFCF3E
:1015C000113438F0F501C386C11009C081E0858768
:1015D00006C0F50113861586148680E013C0F50158
:1015E00083818823B1F3ED2DFE2D80E090E0D501BD
:1015F000A80FB91F13962C9121930196883091055D
:10160000B1F781E00F90DF91CF911F910F91FF9083
:10161000EF90DF90CF90BF90AF9008951F920F9200
:101620000FB60F9211240BB60F922F933F934F9347
:101630005F936F937F938F939F93AF93BF93EF933A
:10164000FF93E0913B0EF0913C0E1995FF91EF91C5
:10165000BF91AF919F918F917F916F915F914F91CA
:101660003F912F910F900BBE0F900FBE0F901F90C8
:1016700018958FE194E008958BE194E0089584E05B
:1016800094E008958AEE93E0089584EE93E008953F
:1016900081EB93E0089584E492E00895CF93DF9383
:1016A000EC0161E088E00E94F62DCC5AD74F1882F9
:1016B000DF91CF910895DC01ED91FC910190F081D3
:1016C000E02D19948EBD00000DB407FEFDCF8EB540
:1016D0000895CF93DF93EC0161E00E94591989E9E5
:1016E00093E099838883CE5AD74F18821982DF916D
:1016F000CF91089529E933E0FC01318320830C94D4
:10170000C9191F93CF93DF931F921F92CDB7DEB7F6
:10171000162F60E0812F2A8349830E94F62D49818C
:10172000842F0E94620B2A81822F0E94620B61E04B
:10173000812F0F900F90DF91CF911F910C94F62D78
:10174000643040F4242F2095462F65E30E94810BDE
:1017500080E0089585E00895AF92BF92CF92DF9226
:10176000EF92FF920F931F93CF93DF931F921F92DD
:10177000CDB7DEB78C01D12C7C018BEBE81A87EF5B
:10178000F80A5801E5E9AE1AE7EFBE0A2D2D30E060
:10179000F801EB5AF74F8081918168E270E00E9476
:1017A0001F3826173707E0F588E0C82EC982F701F1
:1017B0002081318180E090E040E0B801620F731F2A
:1017C000E42FF0E0DB01A80FB91FA259BF4F41E0A1
:1017D00050E0AC91AA2311F040E050E0082E02C086
:1017E000440F551F0A94E2F74E0F5F1F0196883091
:1017F000910531F74A83285F3F4FF70131832083FA
:10180000F50160816D0D22E0AE014F5F5F4FC801B1
:101810000E94AC21C394FDE0CF12C8CFD394B6CFC1
:101820000F900F90DF91CF911F910F91FF90EF904C
:10183000DF90CF90BF90AF900895EF92FF920F93FB
:101840001F93CF93DF938C017C018BE9E81A87EF1C
:10185000F80AC4E6D0E0F70141917F01BE01C8015A
:101860000E9454192196C23BD105A9F760E0C80136
:10187000DF91CF911F910F91FF90EF900C94400C4E
:101880007F928F929F92AF92BF92CF92DF92EF9210
:10189000FF920F931F93CF93DF93EC01762E7C0181
:1018A0002BE9E21A27EFF20A04E610E04701E8818B
:1018B000F9810088F189E02DB801CE011995F70171
:1018C00081937F010F5F1F4F023B110581F7F401E8
:1018D000808191819E012959374F5901FE01E759B5
:1018E000F74F6F01295C3F4F7901892BE1F4F50136
:1018F00080819181892BB9F4F60180819181892BB6
:1019000091F4399780819181A281B381F90180831B
:101910009183A283B38381E090E0F6019183808379
:10192000CE010E941D0CF40180819181892BB9F4B4
:10193000F50180819181892B91F4F601808191815B
:10194000019769F480E2FE01E559F74F808382E058
:1019500090E0F60191838083CE010E941D0CF4017A
:1019600080819181892BE9F4F50180819181892B16
:10197000C1F4F60180819181029799F480E090E0B2
:10198000A0EAB0E4FE01EE55F74F80839183A28375
:10199000B38383E090E0F60191838083CE010E94BF
:1019A0001D0CF401808191818E010A55174F892BFE
:1019B000A1F4F50180819181892B79F4F601808170
:1019C0009181039751F4F801108284E090E0F601D0
:1019D00091838083CE010E941D0CF401808191814E
:1019E000892B79F5F50180819181892B51F5F601DB
:1019F00080819181049729F580E090E0A8ECB2E421
:101A0000FE01E955F74F80839183A283B38380E081
:101A100090E4ACE9B6E4349680839183A283B383E7
:101A200080E090E0A8E4B3E4349680839183A283BD
:101A3000B38385E090E0F60191838083CE010E941C
:101A40001D0CF40180819181892B69F4F50180815D
:101A50009181892B41F4F60180819181059719F4D8
:101A6000772009F4A5C0F40111821082F5011182DA
:101A7000108285E090E0F601918380838CE7FE017F
:101A8000E359F74F808380E73197808380E09CE7BC
:101A9000A2E9B8E4329680839183A283B38380E085
:101AA00092E2A1EAB8E4349680839183A283B3835F
:101AB00080E090E0AAE7B4E43C9680839183A2831F
:101AC000B38380E090E4ACE1B6E434968083918304
:101AD000A283B38380E090E5A3ECB7E434968083DF
:101AE0009183A283B38380E094E2A4E7B9E43496BF
:101AF00080839183A283B3837497108211821282B0
:101B00001382349610821182128213824FEF56EEA6
:101B10006BE57EE2749640835183628373833496CF
:101B200040835183628373833496408351836283FD
:101B3000738334964083518362837383FA978081E1
:101B40009181A281B381F70180839183A283B383C2
:101B500080E2FE01E559F74F808380E090E0A0EA43
:101B6000B0E4F79680839183A283B383F801108257
:101B700080E090E0A8ECB2E4FE01E955F74F8083E5
:101B80009183A283B38380E090E4ACE9B6E4349619
:101B900080839183A283B38380E090E0A8E4B3E4E0
:101BA000349680839183A283B383CE010E941D0C5F
:101BB000F701C080D180E280F38020E030E0A9010D
:101BC000C701B6010E948534FE01EC59F74F181683
:101BD0001CF081E0808309C0DE01A05AB74FCD928E
:101BE000DD92ED92FC9213971082F8018081882398
:101BF00011F042E001C041E060E0CE01DF91CF9101
:101C00001F910F91FF90EF90DF90CF90BF90AF901A
:101C10009F908F907F900C9445228F929F92AF92CD
:101C2000BF92CF92DF92EF92FF92CF93DF93EC01BE
:101C30006A017B01FC01E05AF74F80809180A2800D
:101C4000B38020E030E0A901C701B6010E948534CD
:101C500087FD45C0FE01E155F74F2081318142816A
:101C60005381C701B6010E9414361816C4F1A501AC
:101C70009401C701B6010E9489349B01AC010E9406
:101C80000E3423EF34E045EB5FE30E945D3620E045
:101C900030E040E85EE30E945D3620E030E04FE750
:101CA00053E40E945D364B015C0120E030E04FE7D9
:101CB00053E40E941436181694F0FE01E85AF74FC8
:101CC000C082D182E282F382C501B4010E94F6345F
:101CD000462F63E0CE010E94A00B80E001C088E0A7
:101CE000DF91CF91FF90EF90DF90CF90BF90AF90BA
:101CF0009F908F900895FC01E05AF74F40835183E5
:101D0000628373833897408151816281738120E0BF
:101D10000C940D0E5F926F927F928F929F92AF9272
:101D2000BF92CF92DF92EF92FF920F931F93CF93C8
:101D3000DF931F921F92CDB7DEB76C01CB01542EFB
:101D400068E270E00E941F387B014C015C0123E0D7
:101D5000B694A7942A95E1F73B01772486010559AB
:101D6000174FF8018081B301680F711D8BE59DE06D
:101D70000E949E03B501685F7F4F8BE59DE00E9446
:101D80005B0B8BE59DE00E941A04F8018081B30192
:101D9000680F711D41E050E08BE59DE00E94170443
:101DA0008BE59DE00E94F302892B41F1F82DF7703D
:101DB0008F2E88E08A0D89838BE59DE00E94FB02CF
:101DC00041E050E060E070E004C0440F551F661F22
:101DD000771F8A94D2F7511002C0482B02C0409559
:101DE00048234A83F80160816E0D22E0AE014F5F07
:101DF0005F4FC6010E94AC2180E001C081E00F90DE
:101E00000F90DF91CF911F910F91FF90EF90DF9096
:101E1000CF90BF90AF909F908F907F906F905F908A
:101E20000895AF92BF92CF92DF92EF92FF920F93FD
:101E30001F93CF93DF93CDB7DEB762970FB6F894B9
:101E4000DEBF0FBECDBF8C010E94C41861E088E0E8
:101E50000E94F62D61E088E00E94BD2D61E085E3DF
:101E60000E94BD2D61E089E00E94BD2D60E089E007
:101E70000E94F62DF801E05AF74F80E090E0A6E9C5
:101E8000B3E480839183A283B38360E0C8010E949E
:101E9000400C680183E9C81A87EFD80AD6014C9133
:101EA00061E0C8010E94A00B5801B4E9AB1AB7EF7A
:101EB000BB0AF501408162E0C8010E94A00B40E02E
:101EC00063E0C8010E94A00BD801ED91FC9106804F
:101ED000F781E02DC8011995BC0185E89EE00E94BC
:101EE000C2306AE472E085E89EE00E94C230D80108
:101EF000ED91FC910484F585E02DC8011995BC0194
:101F000085E89EE00E94CF306DE472E085E89EE0B7
:101F10000E94C230D801ED91FC910284F385E02D3E
:101F2000C8011995BC0185E89EE00E94CF3060E6AB
:101F300072E085E89EE00E94C2307801BBE9EB1AAE
:101F4000B7EFFB0AF701608171814AE050E085E854
:101F50009EE00E94CF3163E973E085E89EE00E9435
:101F6000C230F801E959F74F608171814AE050E0D1
:101F700085E89EE00E94CF3163E973E085E89EE04A
:101F80000E94C230F801E759F74F608171814AE041
:101F900050E085E89EE00E94D53167E772E085E871
:101FA0009EE00E94C2304AE050E0D5016C9185E885
:101FB0009EE00E94B83167E872E085E89EE00E94EA
:101FC000C2304AE050E0F601608185E89EE00E9460
:101FD000B831B12CA12CA1E0BA1202C084E001C03A
:101FE00082E0A81608F0B9C04AE06A2DCE01019639
:101FF0000E9486334AE06B2DCE010D960E948633F7
:102000006DE872E0CE0107960E945833BE01635F0F
:102010007F4FCE0107960E94DF336FE872E00E9487
:10202000F233BE016F5F7F4F0E94DF3363EA72E0DD
:102030000E94F233BC0185E89EE00E94B430CE01DC
:1020400007960E94EA32CE010D960E94EA32CE0136
:1020500001960E94EA32CA2CD12CF1E0BF1661F041
:10206000F601EE0FFF1FEE0FFF1FEE0DFF1D418566
:102070005285638574850BC0F601EE0FFF1FEE0FCE
:10208000FF1FEE0DFF1D418D528D638D748D22E07B
:1020900030E085E89EE00E94D8324AE06A2DCE0109
:1020A00001960E9486334AE06B2DCE010D960E9468
:1020B00086336DE872E0CE0107960E945833BE0168
:1020C000635F7F4FCE0107960E94DF3366EA72E0BE
:1020D0000E94F233BE016F5F7F4F0E94DF3363EADD
:1020E00072E00E94F233BC0185E89EE00E94B430A9
:1020F000CE0107960E94EA32CE010D960E94EA3286
:10210000CE0101960E94EA3281E0F601EE0FFF1F38
:10211000EE0FFF1FEE0DFF1DB81629F061897289C1
:102120008389948904C061A572A583A594A525EA35
:1021300034ED48E653E50E945D36AB01BC0122E078
:1021400030E085E89EE00E94D6326BEB72E085E8D5
:102150009EE00E94CF30A3943ECFB394B2E0BB1276
:1021600039CF6FEB72E085E89EE00E94C230F80143
:10217000E559F74F4AE050E0608185E89EE00E9413
:10218000B83164E173E085E89EE00E94C230F80156
:10219000E256F74F408151816281738122E030E045
:1021A00085E89EE00E94D8326CED72E085E89EE002
:1021B0000E94C230F801EE55F74F40815181628193
:1021C000738122E030E085E89EE00E94D8326FEE15
:1021D00072E085E89EE00E94C230F801EA55F74FB0
:1021E000608170E04AE050E085E89EE00E948C311A
:1021F00068E073E085E89EE00E94C230F801EC5987
:10220000F74F608170E04AE050E085E89EE00E9470
:102210008C3164E273E085E89EE00E94C230F801F0
:10222000E955F74F408151816281738122E030E0AE
:1022300085E89EE00E94D8326CE373E085E89EE07A
:102240000E94C230F801E555F74F4081518162810B
:10225000738122E030E085E89EE00E94D83264E598
:1022600073E085E89EE00E94C230F801E155F74F27
:10227000408151816281738122E030E085E89EE0F7
:102280000E94D83262960FB6F894DEBF0FBECDBF63
:10229000DF91CF911F910F91FF90EF90DF90CF9042
:1022A000BF90AF9008958F929F92AF92BF92CF92BE
:1022B000DF92EF92FF921F93CF93DF93EC016A01BD
:1022C0007B01FC01E955F74F24EA30E74DE75FE376
:1022D00060817181828193810E945D369B01AC0196
:1022E000C701B6010E94143687FDAFC02EEA37E45D
:1022F00041E85FE3FE01E555F74F6081718182811E
:1023000093810E945D369B01AC01C701B6010E941A
:10231000853418160CF499C020E030E048E452E40B
:10232000C701B6010E945D364B015C0120E030E040
:102330004AE754E40E94853487FD87C020E233EBEE
:1023400041E85CE4C501B4010E94143618160CF48F
:102350007CC020E030EE41E854E4C501B4010E94A5
:1023600089340E941D3626EA3BE944E550E40E9488
:102370005D362EE83DE543E150E40E9489340E9439
:10238000F634162F70E0665F7F4F882777FD8095C3
:10239000982F0E9424359B01AC0160E070E080E042
:1023A00090E40E94C03620E030EE41E055E40E9407
:1023B0005D36A50194010E9489349B01AC0160E067
:1023C00070E080E095E40E940D344B015C0120E058
:1023D00030E0A9010E94143620E030E040E05FE3E5
:1023E00087FD05C0C501B4010E940E3404C0C501BB
:1023F000B4010E940D340E94F1345B01CB0166E010
:10240000969587956A95E1F71295107F182B67E1ED
:102410008BE59DE00E949403612F8BE59DE00E9477
:102420004B036A2D660F660F62608BE59DE00E948C
:102430004B038BE59DE00E941A04C45AD74FC88213
:10244000D982EA82FB8280E001C088E0DF91CF91EF
:102450001F91FF90EF90DF90CF90BF90AF909F9033
:102460008F9008954F925F926F927F928F929F927A
:10247000AF92BF92CF92DF92EF92FF920F931F9392
:10248000CF93DF931F921F92CDB7DEB78C01FC0173
:10249000EC5AF74F81E0808360E088E00E94F62DDF
:1024A00064EF71E080E090E00E940E2C48018BEA1E
:1024B000881A87EF980AF40111821082E8E2AE2EA2
:1024C000B12CE12CF12CF8E16F2E77247A9468017D
:1024D000F5E9CF1AF7EFDF0A4E2C69827A82F6010E
:1024E00060816E0D22E0AE014F5F5F4FC8010E9418
:1024F000AC21F60160816E0D21E0AE014F5F5F4FB0
:10250000C8010E94681C89818F3F09F04BC078E1A7
:10251000572E59821A82F6016081640D22E0AE01C5
:102520004F5F5F4FC8010E94AC21F6016081640DCE
:1025300021E0AE014F5F5F4FC8010E94681C898196
:10254000811130C080EF850D89837A82F601608128
:10255000640D22E0AE014F5F5F4FC8010E94AC21C5
:102560005394FDE15F12D5CF6FE773E085E89EE0FD
:102570000E94C2304AE050E0B70185E89EE00E9428
:10258000843169E873E085E89EE00E94CF30F40171
:1025900020813181C50188972817390719F4F40182
:1025A000B182A082FFEFEF1AFF0A88E2A80EB11CE9
:1025B000E8E0EE16F10409F08FCFF401608171813B
:1025C0004AE050E085E89EE00E94CF316AE673E081
:1025D00085E89EE00E94CF3040E050E46CE176E474
:1025E000C8010E9453110F900F90DF91CF911F915E
:1025F0000F91FF90EF90DF90CF90BF90AF909F90A2
:102600008F907F906F905F904F9008952F923F92A0
:102610004F925F926F927F928F929F92AF92BF92F2
:10262000CF92DF92EF92FF920F931F93CF93DF939E
:10263000CDB7DEB764970FB6F894DEBF0FBECDBF3F
:102640001C01B62E8C010D5A174F81E0D8018C93D6
:10265000F101EC5AF74F8081811103C0C1010E9442
:1026600032128B2D90E0FC01E05AF10991012459BE
:102670003F4F2901E635F10508F04BC5EE58FF4FF5
:102680000C945538F101E05CF74F80819181892BE2
:1026900009F05EC542E050E0B1016B5A774FC101CD
:1026A0000E94CF19D0C4F101E05CF74F8081918185
:1026B000892B09F04DC5D9011C92A12C91012B5AEF
:1026C000374F3A872987610135E9C31A37EFD30AB3
:1026D0008A2C912CA985BA858D919C9168E270E035
:1026E0000E941F388616970608F013C508E010E010
:1026F000D6018C91B401680F711D8BE59DE00E949D
:102700009E03B8018BE59DE00E945B0B8BE59DE08D
:102710000E941A04F6018081B401680F711D41E026
:1027200050E08BE59DE00E9417048BE59DE00E9440
:10273000F302892B51F18BE59DE00E94FB027C01A5
:10274000612C712CFF24C701062C02C0959587953A
:102750000A94E2F781709927F1E08F27898341E09D
:1027600050E0BE016F5F7F4FC1010E94CF192FEF74
:10277000621A720A38E06316710429F70F5F1F4F5F
:102780000D30110509F0B4CF03C0E1E0D201EC93A4
:10279000A3949ECFF101E05CF74F208131817596C3
:1027A000808191812817390709F0D2C4C1010E94A4
:1027B000AC0BADC4F101E05CF74F808191810297D1
:1027C00009F0C6C4D101AB5BB74F2D913C91119775
:1027D000F901E259FF4FE20DF31D808191812E5FD7
:1027E0003F4F2D933C93F101EB5AF74F20813181FC
:1027F0008217930708F04FC268E270E00E941F380A
:102800008C016B01DD247101B5E9EB1AB7EFFB0A0E
:10281000F7018081B601680F711D8BE59DE00E9474
:102820009E03B80113E0769567951A95E1F7685F06
:102830007F4F8BE59DE00E945B0B8BE59DE00E9446
:102840001A04D7018C91B601680F711D41E050E068
:102850008BE59DE00E9417048BE59DE00E94F3024A
:10286000892B09F48DC38BE59DE00E94FB0299271B
:10287000077002C0959587950A95E2F781709927B0
:10288000B1E08B27898341E050E0BE016F5F7F4F4D
:10289000C1010E94CF193BC4F101E05CF74F808178
:1028A0009181039709F054C4D101AB5BB74F8D916F
:1028B0009C911197FC01E259FF4FE20DF31D6081DD
:1028C0007181F101E80FF91FE059FF4F4081039634
:1028D0008D939C93F101EB5AF74F8081918168179A
:1028E000790708F0D8C1C1010E948A0E32C4F101F3
:1028F000E05CF74F80819181892B09F029C4F901AF
:10290000108289E00E942C2E79C3F101E05CF74F20
:1029100080819181019709F01BC435968081918156
:10292000D101A80FB91FA259BF4F6C910196918395
:102930008083623008F0FDC189E00E94F62D83C3D8
:10294000F101E05CF74F80819181892B09F000C48F
:10295000D9011C9244E050E0B101685A774F54C34A
:10296000F101E05CF74F80819181049709F0F0C399
:10297000D101AB5BB74F8D919C911197FC01E2594E
:10298000FF4FE20DF31D40815181628173810496F6
:102990008D939C9321E0C1010E940D0EDAC3F101D9
:1029A000E05CF74F80819181892B09F0D1C3D90177
:1029B0001C9244E050E0B101645A774F25C3F10105
:1029C000E05CF74F80819181049709F0C1C3D10188
:1029D000AB5BB74F8D919C911197FC01E259FF4F72
:1029E000E20DF31D408151816281738104968D93C4
:1029F0009C93C1010E945311ACC3F101E05CF74FFD
:102A000080819181019709F0A3C3D101AB5BB74FDE
:102A10008D919C911197F101E80FF91FE259FF4F39
:102A2000E08101968D939C93E23008F52BE1E29FC3
:102A3000F0011124E05CF14F81818983D2011C9265
:102A4000DEC2F101E05CF74F80819181019709F0CE
:102A50007FC3359680819181D101A80FB91FA259FA
:102A6000BF4F2C910196918380832230E8F085E05E
:102A700070C3F101E05CF74F80819181029709F00A
:102A800067C3359620813181A101420F531FDA01BE
:102A9000A259BF4F8C9111966C912E5F3F4F31839D
:102AA00020830E9401226DC2F20110823BE1239F2C
:102AB000F0011124E05CF14FE181C1018B59974F86
:102AC000F0E0EE0FFF1FEE0FFF1FE80FF91F2130A0
:102AD00029F081859285A385B4854BC2818D928D25
:102AE000A38DB48D46C2F101E05CF74F80819181E6
:102AF000059709F02DC3359620813181D101A20FB0
:102B0000B31FA259BF4F4C91C90101969183808395
:102B1000D2011C924423E1F0413009F0BCC0409145
:102B20005C0ED901A159BF4FA20DB31D8D919D918E
:102B30000D90BC91A02D2B5F3F4F31832083F1017D
:102B400034E0439FE00DF11D1124E258F74F9BC084
:102B50004091410ED901A159BF4FA20DB31D8D91D6
:102B60009D910D90BC91A02D2B5F3F4F3183208311
:102B7000F10124E0429FE00DF11D1124E259F74FCD
:102B800082C0F101E05CF74F80819181019709F0EB
:102B9000DFC2359680819181D101A80FB91FA2595A
:102BA000BF4F2C91019691838083223008F05FCF34
:102BB000F20110823BE1239FF0011124E05CF14F10
:102BC000E181C1018B59974FF0E0EE0FFF1FEE0F2F
:102BD000FF1FE80FF91F213029F081899289A3890D
:102BE000B489C7C181A592A5A3A5B4A5C2C1F101AD
:102BF000E05CF74F80819181059709F0A9C2359675
:102C000020813181D101A20FB31FA259BF4F4C9136
:102C1000C901019691838083D2011C924423D9F08B
:102C20004130C9F540915C0ED901A159BF4FA20DA9
:102C3000B31D8D919D910D90BC91A02D2B5F3F4FA9
:102C400031832083F10134E0439FE00DF11D112415
:102C5000E257F74F18C04091410ED901A159BF4F1B
:102C6000A20DB31D8D919D910D90BC91A02D2B5F58
:102C70003F4F31832083F10124E0429FE00DF11D9D
:102C80001124EA58F74F80839183A283B383C10153
:102C90000E941D0C3EC285E074C1F101E05CF74F5B
:102CA00080819181892B09F053C2F901108244E09F
:102CB00050E0B101605A774FA7C1F101E05CF74FD6
:102CC00080819181049709F043C2D101AB5BB74F7A
:102CD0008D919C911197FC01E259FF4FE20DF31D7C
:102CE000C080D180E280F38004968D939C9320E095
:102CF00030E0A901C701B6010E9414361816CCF4C1
:102D0000F101EC59F74F8081882331F03497C0826C
:102D1000D182E282F38297C1D101A256B74FCD9200
:102D2000DD92ED92FC9213971082C1010E941D0C5E
:102D30008AC188E00EC2F101E05CF74F8081918189
:102D4000892B09F005C2D9011C9211E020E030E086
:102D5000A901E25AFF4F60817181828193810E94B3
:102D6000853418160CF410E0198349C1F101E05CB8
:102D7000F74F80819181019709F0EAC135968081F2
:102D80009181D101A80FB91FA259BF4F2C91019673
:102D900091838083E75AFF4F222329F0108211820A
:102DA000128213820CC0D101A05AB74F8D919D9110
:102DB0000D90BC91A02D80839183A283B383C10128
:102DC0000E941D0CA4C1F101E05CF74F008111814C
:102DD0000A30110508F4BCC1359680819181DC016F
:102DE000A259BF4FA20DB31D2D913D914D915C9104
:102DF00029873A874B875C879C012C5F3F4F318343
:102E00002083DC01AE58BF4FA20DB31D6D907C90A6
:102E1000DC01AC58BF4FA20DB31D2D913D914D91DA
:102E20005C91298B3A8B4B8B5C8BD101A80FB91F1E
:102E3000A858BF4FFC900B96918380830B301105EF
:102E400041F07096808191810B960817190709F05F
:102E50007FC1FBE46F16F1E07F0608F091C020E02F
:102E600030E04AE754E469857A858B859C850E9429
:102E7000893420E030E44CE157E40E945D3620E0E4
:102E800030E040E855E40E94853487FF79C0D201E4
:102E90001C92F101EB5AF74F808191810B96081734
:102EA000190719F4C1010E94AC0B0E94EB2B6D872E
:102EB0007E878F87988B88248394F1FE812CAA24A7
:102EC000A394F0FEA12CF101E45AF74FC080D18009
:102ED000E280F38009891A892B893C89A3016985DD
:102EE0007A858B859C850E94BE26F20180838111A4
:102EF00010C10E94EB2B2D853E854F855889621BA2
:102F0000730B840B950B0E9422356B017C01B3017E
:102F100080E090E00E94223520E030E04AE754E46F
:102F20000E945D369B01AC01C701B6010E94893445
:102F30006D837E838F83988744E050E0BE016B5F92
:102F40007F4FC1010E94CF1944E050E067E57EE069
:102F5000C1010E94CF1944E050E062E77EE0C10168
:102F60000E94CF19F101E05AF74F80819181A2812F
:102F7000B38189839A83AB83BC8344E050E041C032
:102F800081E0D2018C93C5C0F101E05CF74F8081F4
:102F90009181019709F0DCC0F9011082F101EB5B2E
:102FA000F74F80819181D101A80FB91FA259BF4F5E
:102FB0002C9101969183808361E0211101C060E032
:102FC000C1010E94400CA5C0F101E05CF74F808177
:102FD0009181892B09F0BCC0D9011C9288E00EC0F8
:102FE000F101E05CF74F80819181892B09F0B0C03D
:102FF000F9011082F101EE5AF74F8081898341E097
:1030000050E0BE016F5F7F4FC1010E94CF1981C0A8
:10301000F101E05CF74F80819181019709F098C040
:10302000359680819181D101A80FB91FA259BF4F58
:103030002C910196918380833D96222319F081E0A3
:10304000808301C01082D2011C9263C0F101E05C58
:10305000F74F80819181892B09F07AC0F9011082A4
:10306000D8018C91CBCFF101E05CF74F8081918149
:10307000019709F06DC0359680819181D101A80F2B
:10308000B91FA259BF4F2C910196918380832223AF
:1030900021F081E0F80180833AC0D8011C9237C04A
:1030A000F101E05CF74F80819181892B09F050C0DC
:1030B000D9011C9288E00E942C2E21E0892B09F076
:1030C00020E029839CCFF101E05CF74F8081918162
:1030D0000197F1F5359680819181D101A80FB91F33
:1030E000A259BF4F2C91019691838083222359F0DE
:1030F00060E088E00E94F62D64EF71E080E090E0EF
:103100000E940E2C04C061E088E00E94F62DF201BE
:1031100010826B2DC1010E948F1CD2018C9164968C
:103120000FB6F894DEBF0FBECDBFDF91CF911F91D8
:103130000F91FF90EF90DF90CF90BF90AF909F9056
:103140008F907F906F905F904F903F902F90089559
:1031500086E0F2018083DDCF8627682F629568279D
:10316000062E669566956025062E66956025677025
:10317000082E892F669507946795902D86270694CB
:103180006795902586270895CF92DF92EF92FF9260
:103190000F931F93CF93DF9300D01F92CDB7DEB76D
:1031A0008C01CE0101966C019FE0E92EF12CD80133
:1031B000ED91FC910088F189E02DB701C8011995C6
:1031C000F60181936F01FFEFEF1AFF0A23E1E21688
:1031D000F10469F789819A81AB81BC818F3F9F4F50
:1031E000AF4FBF4FE1F149815A816B817C8126E06D
:1031F00085E89EE00E94672F8BE59DE00E948A0390
:103200000E9421040E94A20808591F4FD8016D9303
:103210007D938D939C93139764E374E085E89EE01F
:103220000E94C230F801408151816281738122E0A5
:1032300030E085E89EE00E94D63266E474E085E8DE
:103240009EE00F900F900F900F90DF91CF911F9104
:103250000F91FF90EF90DF90CF900C94CF3080E0F3
:1032600092ECA1E0B0E089839A83AB83BC83CE016A
:1032700001966C018FE0E82EF12CD6014D916D0185
:10328000D801ED91FC910288F389E02DB701C801C6
:103290001995BFEFEB1AFB0AE3E1EE16F10469F7AB
:1032A000A2CFCB010C94C23ACB01642F0C94CA3A42
:1032B00008958F929F92AF92BF92CF92DF92EF923A
:1032C000FF920F931F93CF93DF9328E634E0FC0126
:1032D00031832083E45BF74F60833997118210823A
:1032E000369610823997118210823596118210829B
:1032F0003296118210823A961082E12CF12C00E075
:1033000010E0C8010E94C23AA82EC80107960E9488
:10331000C23A8E2CC0E0D0E0B12CA094B094C82E5C
:10332000D12CC094D094CE018E0D9F1DC697C4F4AD
:10333000B5010C2E02C0759567950A94E2F761708D
:103340009C2E980C892D0E94BD2DB6010C2E02C01A
:10335000759567950A94E2F76170892D0E94F62DA4
:103360002196C830D105F9F60F5F1F4FE8E0EE0E49
:10337000F11C0730110529F6DF91CF911F910F91B4
:10338000FF90EF90DF90CF90BF90AF909F908F9085
:10339000089528E634E0FC013183208308951F93CB
:1033A000CF93DF93FB0120E030E0DC01A95BB74F56
:1033B0002417350781F01191BC01620F731FCD9165
:1033C000DC9111976C0F7D1FEB01C259DF4F188301
:1033D0002F5F3F4FEDCF8D919C911197820F931FDF
:1033E0008D939C93DF91CF911F910895CF93DF939D
:1033F000FC01E359FF4F6081DC01A459BF4F67FF17
:103400000EC020E8260F208322E02C93DC01ED91F2
:10341000FC910488F589E02DDF91CF911994FC018E
:10342000E05CF74F2081318121503109820F931FD9
:10343000EC01C259DF4F88818C9331832083DF9167
:10344000CF9108956F927F928F929F92AF92BF9289
:10345000CF92DF92EF92FF920F931F93CF93DF9360
:10346000EC019C01275B374F59016D3721F481E056
:10347000F9018083AEC0F90180819E012D5B374F39
:103480007901882309F49EC080E26827F7018081D2
:1034900091819E01245B374F4901FE01EE5BF74F9E
:1034A0006F018E01005C174F009759F4E55DF740FE
:1034B0006083F90180818823A9F18FEF9FEF339614
:1034C0001EC08130910581F467FF08C083E08083CE
:1034D000862F8F77F8011082818324C082E0808359
:1034E000862F90E0F8010BC08230910559F42081BD
:1034F000233041F4F80180819181860F911D9183E1
:10350000808310C0F6012081821B9109F80120817F
:1035100031818217930730F48C0F9D1FFC01E25913
:10352000FF4F6083F4018081882369F03E01F1EB55
:103530006F1AF7EF7F0AF301808191810E94AC1826
:10354000F30191838083F701208131812F5F3F4F09
:1035500031832083F4014081F6015081F80180819C
:103560009181850F911D840F911D840F911D281746
:10357000390711F5F70111821082FE01EB5BF74F5D
:1035800011821082329611821082442329F03896DB
:1035900080819181892B19F4CE010E94F619FE01D8
:1035A000E55BF74F8081882339F0C359DF4F80589E
:1035B0009881981301C01082F5018081882349F019
:1035C000108207C06E3709F061CFF70111821082B7
:1035D000F3CFDF91CF911F910F91FF90EF90DF908C
:1035E000CF90BF90AF909F908F907F906F900895F5
:1035F000FF920F931F93CF93DF931F92CDB7DEB748
:103600008C01F62E88E0898369816837E8F58BE5BF
:103610009DE00E9494038BE59DE00E941A048111B5
:1036200030C0FF2041F041E050E0BE016F5F7F4FAE
:10363000C8010E94CF1969E474E085E89EE00E9409
:10364000C2304AE050E0698185E89EE00E94B131D5
:103650006DE574E085E89EE00E94C23040E150E0F4
:10366000698185E89EE00E94B13162E674E085E8F8
:103670009EE00E94CF3061E070E080E090E00E9428
:103680000E2C89818F5FBFCF0F90DF91CF911F915B
:103690000F91FF900895CF93C62F83E8860F823055
:1036A00090F46DE785E89EE00E94022FE091850E80
:1036B000F091860E60E26C270190F081E02D85E8A4
:1036C0009EE0CF91199485E89EE0CF910C94022F53
:1036D0008F929F92AF92BF92CF92DF92EF92FF9222
:1036E0000F931F93CF93DF93EC018C017C0120ECAF
:1036F000E21A27EFF20A845B974F6C015E0193EBAD
:10370000A91A97EFB90AF7018081918198012C1BC2
:103710003D0BF60128173907C8F48081980122591A
:103720003F4F4901882351F0F9016081F501808103
:1037300091810E94AC18F50191838083F40160812E
:10374000CE010E944B1B0F5F1F4FDDCF808188236E
:1037500069F08E01035B174FF8016081CE010E9472
:103760004B1BF8016181CE010E944B1BF7011182B6
:103770001082C95BD74F19821882DF91CF911F91B8
:103780000F91FF90EF90DF90CF90BF90AF909F9000
:103790008F900895BF92CF92DF92EF92FF920F9396
:1037A0001F93CF93DF93EC01B62E8C01005C174F73
:1037B000FC01E95BF74F80819181F801918380835F
:1037C0006EE785E89EE00E94022F7E01F4EBEF1A7F
:1037D000F7EFFF0AF7018081882381F08FEF9FEFD9
:1037E0006E01F3EBCF1AF7EFDF0AF60191838083C6
:1037F0006B2D0E94AC18F601918380836B2DCE0156
:103800000E944B1BF80160817181F7018081603853
:10381000710580F4882371F17E01F3EBEF1AF7EF65
:10382000FF0AF701808191810E94AC18F701918312
:10383000808320C08823B1F07068672F7E01F3EB8E
:10384000EF1AF7EFFF0AF701808191810E94AC180F
:10385000F70191838083F80160810E94AC18F70121
:1038600091838083F801808191819068692FCE01D6
:103870000E944B1BF8016081CE01DF91CF911F9117
:103880000F91FF90EF90DF90CF90BF900C944B1B67
:103890000F931F93CF93DF931F92CDB7DEB78C01A9
:1038A000698341E050E0BE016F5F7F4F0E94CF19F6
:1038B000F801E359FF4F6081C8010E94CA1BC8018B
:1038C0000E94681B0F90DF91CF911F910F91089577
:1038D000FF920F931F93CF93DF938A01422F8BE5C3
:1038E0009DE00E941404C0E08BE59DE00E94F3027D
:1038F000892B71F0FF24F394FC0EC8018C0F911DED
:10390000EC018BE59DE00E94FB028883CF2DECCF7C
:103910008C2FDF91CF911F910F91FF9008956F929F
:103920007F928F929F92AF92BF92CF92DF92EF924F
:10393000FF920F931F93CF93DF93CDB7DEB76997B5
:103940000FB6F894DEBF0FBECDBF8C018DB69EB60C
:10395000862F90E0FC01E058F109EF31F10508F005
:10396000D6C4E853FF4F9801205C374F79010C947F
:103970005538D9018D919C91892BF1F4D801ED91A5
:10398000FC910280F381E02DC8011995FC010190A2
:103990000020E9F7AF0141505109481B590BD801EC
:1039A000ED91FC910280F381E02D62C0D9018D91EF
:1039B0009C91019709F4A0C386E0F801E459FF4FF8
:1039C00087C4F90180819181892BB1F7D801ED91EC
:1039D000FC910480F581E02DC8011995FC0101904E
:1039E0000020E9F7AF0141505109481B590BD8019C
:1039F000ED91FC910480F581E02D3AC0F9018081C0
:103A00009181892BC9F6D801ED91FC910680F7814F
:103A1000E02DC8011995FC0101900020E9F7AF01E4
:103A200041505109481B590BD801ED91FC9106807A
:103A3000F781E02D1DC0F90180819181892B09F06A
:103A4000BBCFD801ED91FC910084F185E02DC80138
:103A50001995FC0101900020E9F7AF01415051098F
:103A6000481B590BD801ED91FC910084F185E02DA4
:103A7000C801498F588F1995498D588DBC0135C49F
:103A8000F90180819181892B09F096CFD801ED91C0
:103A9000FC910284F385E02DC8011995FC01019089
:103AA0000020E9F7AF0141505109481B590BD801DB
:103AB000ED91FC910284F385E02DDACFF90180814C
:103AC0009181892B09F078CFD801ED91FC91048484
:103AD000F585E02DC8011995FC0101900020E9F75A
:103AE000AF0141505109481B590BD801ED91FC9190
:103AF0000484F585E02DBCCFF90180819181892B6B
:103B000009F05ACFD801ED91FC910684F785E02D9C
:103B1000C8011995FC0101900020E9F7AF0141505F
:103B20005109481B590BD801ED91FC910684F7858A
:103B3000E02D9ECFF90180819181892B09F03CCF46
:103B40004AE050E06EE774E0D0C3D9018D919C91BA
:103B5000029709F031CFF801EB5BF74F20813181FB
:103B6000A801420F531FDA01A259BF4F8C91119641
:103B70006C912E5F3F4F318320830E94BD2DC3C3C4
:103B8000F90180819181029709F016CFF801EB5B72
:103B9000F74F20813181A801420F531FDA01A2594A
:103BA000BF4F8C9111966C912E5F3F4F31832083D4
:103BB0000E94F62DA8C3D9018D919C91019709F01F
:103BC000FBCEF801EB5BF74F20813181D801A20FCA
:103BD000B31FA259BF4F8C912F5F3F4F318320837A
:103BE0000E942C2EF6C2F90180819181029709F082
:103BF000E3CEF801EB5BF74F20813181D801A20FB2
:103C0000B31FA259BF4F8C91A9014F5F5F4F5183E2
:103C10004083D901A159BF4FA00FB11F6D917C9175
:103C20002D5F3F4F318320830E94A32C6CC3C801BA
:103C300084599F4F26E0DC012C93F70120813181CC
:103C40002230310508F463C3ADB6BEB6F801EB5BB4
:103C5000F74F40815181D801A40FB51FA259BF4F22
:103C60006C914F5F5F4F51834083462F50E0ADB75B
:103C7000BEB7A41BB50B0FB6F894BEBF0FBEADBF49
:103C800011966D012230310511F4613031F04D5F34
:103C90005F4F2417350709F07BC07C2D3601262D98
:103CA000271B261788F420813181A801420F531F5A
:103CB00042595F4FDA014C912F5F3F4F3183208390
:103CC000D3014D933D01EBCFD7012D913C91223093
:103CD0003105B1F020813181D901A259BF4FA00F28
:103CE000B11FED90FC902E5F3F4F31832083B9EEE2
:103CF000EB16B3E0FB0638F029E0FC01208348C056
:103D0000EE24E394F12CDC011C92F092340EE0924C
:103D1000330EC80182599F4F9093380E8093370E0F
:103D200080E0688F0E949D06688D613029F4F6015D
:103D300080810E942B0812C0D092310EC092300EAA
:103D400060932E0E10922D0E8CE398E090932C0E23
:103D500080932B0ED6018C910E9411080E94A1071E
:103D60008091330E9091340E2091350E3091360EA5
:103D700028173907C9F70E94C007EE0CFF1CF8018D
:103D8000E95BF74F80819181E80EF91EF182E082B4
:103D90000FB6F894BEBE0FBEADBEB9C2F9018081A8
:103DA0009181039709F008CED801AB5BB74F8D9195
:103DB0009C911197FC01E259FF4FE00FF11F6081C8
:103DC0007181F801E80FF91FE059FF4F4081039618
:103DD0008D939C93D801ED91FC910288F389E02D9D
:103DE000C801199590C2F90180819181029709F06B
:103DF000E3CDD801AB5BB74F8D919C911197FC013E
:103E0000E259FF4FE00FF11F6081718102968D939F
:103E10009C93D801ED91FC910088F189E02DC801B7
:103E20001995D7C1F90180819181029709F0C4CD1C
:103E3000F801EB5BF74F808191819801280F391FC2
:103E4000D901A259BF4F6C911196EC9002969183C3
:103E50008083CE0101960E944E0ACE0101960E94F7
:103E60003C0AF12C41E0BE01615F7F4FCE0101961B
:103E70000E94710AF394EF14A8F7980124593F4F58
:103E80007901882309F422C248E050E0BE01615F55
:103E90007F4FC8010E94CF1916C2D9018D919C9104
:103EA0000B9709F089CDD801AB5BB74F2D913C91B1
:103EB0001197A801420F531FFA01E259FF4F608189
:103EC0006901EFEFCE1ADE0A1196DC92CE923E0126
:103ED000FFE06F0E711C80E090E0B62CA72CC00EA6
:103EE000D11E7601E80EF91E7EE6E70EF11CF70101
:103EF000F080F301F1923F0101968830910589F736
:103F0000FA01E958FF4FF0803196E080255F3F4F7E
:103F10002D933C93CE0101960E944E0ACE0101964C
:103F20000E9419096B2D7A2DCE0101960E94140A68
:103F300040E06F2DCE0101960E94B609F12CFE14CF
:103F400009F4E1C1CE0101960E94F8098F8B41E08E
:103F500050E0BE01695E7F4FC8010E94CF19F39403
:103F6000EECFD9018D919C910B9709F025CDD80109
:103F7000AB5BB74F2D913C911197A801420F531F96
:103F8000FA01E259FF4F60816901EFEFCE1ADE0AB4
:103F90001196DC92CE923E01FFE06F0E711C80E024
:103FA00090E0B62CA72CC00ED11E7601E80EF91EAB
:103FB0007EE6E70EF11CF701F080F301F1923F017C
:103FC00001968830910589F7FA01E958FF4FF08092
:103FD00031964081255F3F4F2D933C93CE01019652
:103FE000498F0E944E0ACE0101960E9419096B2D3D
:103FF0007A2DCE0101960E94140A498D6F2DCE01B3
:1040000001960E94B6097FC1D9018D919C910297BA
:1040100009F0D2CCF801EB5BF74F808191819801D8
:10402000280F391FD901A259BF4F6C911196EC90FE
:104030000296918380834E2D8BE59DE00E941404AF
:10404000F12C8BE59DE00E94F302892B79F08BE542
:104050009DE00E94FB02898341E050E0BE016F5F5A
:104060007F4FC8010E94CF19F394EBCFF801E459B8
:10407000FF4FFE1409F44AC181E02AC1F901808191
:104080009181029708F498CC6801FBEBCF1AF7EF07
:10409000DF0AD6018D919C911197F801E80FF91F65
:1040A000E259FF4F608101968D939C938BE59DE0D3
:1040B0000E949403B12C2B2D30E0F7018081918177
:1040C00001972817390798F4F60180819181F8014A
:1040D000E80FF91FE259FF4F60810196D6018D93D9
:1040E0009C938BE59DE00E944B03B394E4CF8BE55A
:1040F0009DE00E941A0407C1F801EB5BF74F808135
:104100009181D801A80FB91FA259BF4F2C910196D8
:10411000918380838CB5211102C0806201C08F7DA4
:104120008CBDF1C0F90180819181019709F044CCE7
:10413000F801EB5BF74F80819181D801A80FB91F7F
:10414000A259BF4F2C910196918380839CB5822FF9
:1041500083709C7F892B8CBD8DB522FB222720F993
:104160008E7F822B8DBD18C0D9018D919C910197B6
:1041700009F022CCF801EB5BF74F80819181D801E7
:10418000A80FB91FA259BF4F2C910196918380832C
:104190008CB5837F282B2CBDE95DF740B7C0F901B2
:1041A00080819181019709F007CCF801EB5BF74F13
:1041B00080819181D801A80FB91FA259BF4F2C91BE
:1041C0000196918380832EBD00000DB407FEFDCFC4
:1041D0008EB5898341E050E0BE016F5F7F4F85C09F
:1041E000D9018D919C91892B09F0E6CBF801EA5910
:1041F000FF4F40815181B8016E5F7F4F76C0F9015A
:1042000080819181892B09F0D7CB8091250E9091E7
:10421000260EA091270EB091280E89839A83AB8336
:10422000BC8344E050E0D8CFD9018D919C91049794
:1042300009F0C2CBD801AB5BB74F2D913C911197E0
:10424000F901E259FF4FE00FF11F60817181828116
:1042500093812C5F3F4F2D933C930E94B20653C035
:10426000F90180819181892B09F0A6CB0E948406F7
:104270009A83898342E050E0AFCFD9018D919C9120
:10428000029709F099CBD801AB5BB74F2D913C91C8
:104290001197F901E259FF4FE00FF11F80819181E1
:1042A0002E5F3F4F2D933C939C0122503109F80122
:1042B000E459FF4F7F012630310540F40E947B0610
:1042C00080E00E944407D7011C9221C085E0F701DD
:1042D00080831DC0D9018D919C91892B09F06CCBF5
:1042E00044E050E0B80168597F4FC8010E94CF19DF
:1042F0000AC0F90180819181892B09F05DCB61E0D1
:10430000C8010E94F81AF801E459FF4F10827801A1
:10431000FCE6EF0EF11CD7016C91C8010E94481C0D
:10432000F70180810FB6F8949EBE0FBE8DBE6996D0
:104330000FB6F894DEBF0FBECDBFDF91CF911F91B6
:104340000F91FF90EF90DF90CF90BF90AF909F9034
:104350008F907F906F900895EF92FF920F931F932D
:10436000CF93DF931F921F92CDB7DEB7122F8BE54D
:104370009DE049835A830E9494034981042FE42ECF
:104380005A81F52E8E2D801B811740F4F701619123
:104390007F018BE59DE00E944B03F4CF8BE59DE010
:1043A0000F900F90DF91CF911F910F91FF90EF90A1
:1043B0000C941A04CF93DF93EC0185E89EE00E94F1
:1043C000552E181619064CF485E89EE00E946E2EB4
:1043D000682FCE010E94221AF0CFDF91CF9108956D
:1043E0002091350E3091360E8091330E9091340E1F
:1043F0002817390721F40E94C00781E0089580E062
:104400000895CF93DF93D82FC62F811109C066235B
:1044100021F06130B1F560E001C061E08DE01DC0C8
:10442000813079F5613049F030F0623061F063300D
:1044300041F560E01DC061E01BC060E08CE00E94BF
:10444000F62D61E019C060E08CE00E94F62D60E07E
:104450008BE00E94F62D61E08AE00E94F62D8BE150
:10446000D89FF0011124E05CF14FC18380E00AC0C5
:104470008CE00E94F62D60E08BE00E94F62D60E05B
:10448000EBCF85E0DF91CF9108959093790E8093E3
:10449000780E6093400E40935B0E60E078EB88E00E
:1044A00097E40E94B20661E08DE00E94BD2D61E0BC
:1044B0008CE00E94BD2D61E08BE00E94BD2D61E08B
:1044C0008AE00E94BD2D83E00E947B066091410E30
:1044D00080E00E94012260915C0E81E00E94012236
:1044E00020E032E03093560E2093550E80E090E0AD
:1044F000A0E0B4E48093570E9093580EA093590E09
:10450000B0935A0E41E04093500E3093710E2093B9
:10451000700E8093720E9093730EA093740EB093EE
:10452000750E40936B0E08950F931F93CF93DF93F7
:10453000AB019BE1899FE0011124C05CD14F9B013D
:10454000235331092A393340B0F09B81911110C0B7
:104550009A819F5F9A836981662321F061500E944E
:10456000012203C081E08093760E83E08B8337C005
:1045700091509B8334C08091770E882309F18D89F7
:104580009E89DB01A81BB90B9D010E945B3809893C
:104590001A892B893C89060F171F281F391F098B81
:1045A0001A8B2B8B3C8B88859985AA85BB85840FBC
:1045B000951FA11DB11D88879987AA87BB870FC04A
:1045C0008C819D818617970718F47D836C8307C0C3
:1045D0008E819F816817790710F47F836E83DF9146
:1045E000CF911F910F91089580E00C94942281E067
:1045F0000C9494222F923F924F925F926F927F92EF
:104600008F929F92AF92BF92CF92DF92EF92FF92E2
:104610000F931F93CF93DF93CDB7DEB764970FB699
:10462000F894DEBF0FBECDBF29013A01E986FA86B4
:104630000B871C871601BA8AA98A0E945D3620E082
:1046400030E04AE754E40E9489349B01AC010E94A7
:104650000E346B017C0120E030E0A9010E94143689
:1046600020E030E040E05FE387FD05C0C701B60110
:104670000E940E3404C0C701B6010E940D340E948E
:10468000F1340E94243520E030E040E05FE30E94F6
:104690005D366D837E838F839887A30192016D8140
:1046A0007E818F8198850E94893429853A854B8542
:1046B0005C850E945D360E9472340E94F6348B0144
:1046C0000230110508F42DC3B80180E090E00E948B
:1046D00022352D813E814F8158850E948934A30166
:1046E00092010E945D3669837A838B839C83D1011A
:1046F0006D937D938D939C93139729853A854B8574
:104700005C850E94143618160CF408C3A3019201AC
:1047100069817A818B819C810E9489346B017C0143
:104720009B01AC0160E070E080E090E40E9489347D
:104730004B015C0120E030E0A9010E94143620E02A
:1047400030E040E05FE387FD05C0C501B4010E9491
:104750000E3404C0C501B4010E940D340E94F1342E
:104760000E942435A70196010E945D369B01AC0191
:1047700060E070E080E090E40E940D3420E030E0E2
:10478000A9010E94143620E030E0A901181664F552
:10479000C501B4010E94143620E030E040E05FE340
:1047A00087FD05C0C501B4010E940E3404C0C501D7
:1047B000B4010E940D340E94F1340E942435A701F7
:1047C00096010E945D369B01AC0160E070E080E0E4
:1047D00090E40E940D342DEC3CEC4CEC5DE30E9427
:1047E000853487FD9BC22CC0C501B4010E941436DC
:1047F00020E030E040E05FE387FD05C0C501B40183
:104800000E940E3404C0C501B4010E940D340E9400
:10481000F1340E942435A70196010E945D369B0168
:10482000AC0160E070E080E090E40E940D342DEC7B
:104830003CEC4CEC5DEB0E94143618160CF46EC286
:10484000A3019201C301B2010E940E349B01AC018D
:1048500069817A818B819C810E94853487FF61C147
:1048600029813A814B815C81C301B2010E94893464
:104870006D877E878F87988B1C8A1B8AEB89FC89C2
:10488000BF0180E090E00E9422354B015C019B015A
:10489000AC016D857E858F8598890E940D3420E05E
:1048A00030E040E05FE30E94853418163CF42B8929
:1048B0003C892F5F3F4F3C8B2B8BE0CF29813A8186
:1048C0004B815C81C501B4010E945D369B01AC0146
:1048D000C301B2010E940D344B015C0120E030E0C5
:1048E000A9010E941436181624F0B7FAB094B7F84C
:1048F000B094A501940169817A818B819C810E9489
:10490000893469837A838B839C839B01AC0160E04B
:1049100070E080E090E40E9489344B015C0120E06B
:1049200030E0A9010E94143620E030E040E05FE36F
:1049300087FD05C0C501B4010E940E3404C0C50145
:10494000B4010E940D340E94F1340E942435298163
:104950003A814B815C810E945D369B01AC0160E035
:1049600070E080E090E40E940D3420E030E0A90186
:104970000E94143620E030E0A901181674F5C50134
:10498000B4010E94143620E030E040E05FE387FD90
:1049900005C0C501B4010E940E3404C0C501B401B4
:1049A0000E940D340E94F1340E94243529813A81FD
:1049B0004B815C810E945D369B01AC0160E070E040
:1049C00080E090E40E940D342DEC3CEC4CEC5DE377
:1049D0000E94853487FF2FC0A1C1C501B4010E9488
:1049E000143620E030E040E05FE387FD05C0C501FC
:1049F000B4010E940E3404C0C501B4010E940D34FC
:104A00000E94F1340E94243529813A814B815C81D6
:104A10000E945D369B01AC0160E070E080E090E4B4
:104A20000E940D342DEC3CEC4CEC5DEB0E941436F6
:104A300018160CF473C120E030E0A901C701B601DB
:104A40000E94143620E030E040E05FE387FD05C0BF
:104A5000C701B6010E940E3404C0C701B6010E940E
:104A60000D340E94F1340E9424359B01AC01C70132
:104A7000B6010E940D3420E030E0A9010E941436F6
:104A800020E030E0A901181634F5C701B6010E94F4
:104A9000143620E030E040E05FE387FD05C0C70149
:104AA000B6010E940E3404C0C701B6010E940D3445
:104AB0000E94F1340E9424359B01AC01C701B6016C
:104AC0000E940D3427E137EB41ED58E30E94853415
:104AD00087FF27C023C1C701B6010E94143620E01A
:104AE00030E040E05FE387FD05C0C701B6010E94EA
:104AF0000E3404C0C701B6010E940D340E94F13487
:104B00000E9424359B01AC01C701B6010E940D34FF
:104B100027E137EB41ED58EB0E94143618160CF4E0
:104B2000FDC020E030E040E251E4C701B6010E9440
:104B3000853487FF76C020E030E0A901C701B601C7
:104B40000E94143620E030E040E05FE387FD05C0BE
:104B5000C701B6010E940E3404C0C701B6010E940D
:104B60000D340E94F1340E9424359B01AC01C70131
:104B7000B6010E940D3420E030E0A9010E941436F5
:104B800020E030E0A901181634F5C701B6010E94F3
:104B9000143620E030E040E05FE387FD05C0C70148
:104BA000B6010E940E3404C0C701B6010E940D3444
:104BB0000E94F1340E9424359B01AC01C701B6016B
:104BC0000E940D3427E137EB41ED58E30E94853414
:104BD00087FF27C0A3C0C701B6010E94143620E09A
:104BE00030E040E05FE387FD05C0C701B6010E94E9
:104BF0000E3404C0C701B6010E940D340E94F13486
:104C00000E9424359B01AC01C701B6010E940D34FE
:104C100027E137EB41ED58EB0E94143618160CF4DF
:104C20007DC02D813E814F815885C701B6010E940C
:104C30005D366B017C0120E030E0A9010E94143652
:104C400020E030E040E05FE387FD05C0C701B6012A
:104C50000E940E3404C0C701B6010E940D340E94A8
:104C6000F1340E9424359B01AC01C701B6010E94BA
:104C70000D3420E030E0A9010E94143620E030E03D
:104C8000A901181634F5C701B6010E94143620E0B8
:104C900030E040E05FE387FD05C0C701B6010E9438
:104CA0000E3404C0C701B6010E940D340E94F134D5
:104CB0000E9424359B01AC01C701B6010E940D344E
:104CC00027E137EB41ED58E30E94853487FF26C08A
:104CD00033C0C701B6010E94143620E030E040E046
:104CE0005FE387FD05C0C701B6010E940E3404C012
:104CF000C701B6010E940D340E94F1340E94243590
:104D00009B01AC01C701B6010E940D3427E137EBCE
:104D100041ED58EB0E941436181674F00150110939
:104D2000CFCC20E030E040E05FE36D817E818F8179
:104D300098850E940E34ADCCA989BA890D931C9335
:104D400064960FB6F894DEBF0FBECDBFDF91CF9152
:104D50001F910F91FF90EF90DF90CF90BF90AF9099
:104D60009F908F907F906F905F904F903F902F908B
:104D700008951092410E10925C0E08952F923F926A
:104D80004F925F926F927F928F929F92AF92BF925B
:104D9000CF92DF92EF92FF920F931F93CF93DF9307
:104DA000CDB7DEB7C65CD1090FB6F894DEBF0FBE33
:104DB000CDBFC354DF4F59834883CD5BD040C1542E
:104DC000DF4F088319832A833B83CF5BD0402601C2
:104DD0003701CF54DF4FA882C15BD0408092770E5D
:104DE000AA2031F1AAE7AA2EAEE0BA2EAE014B55A9
:104DF0005F4F6A01E12C10E4F12E0CE916E4A301E7
:104E000092010E94FA22CB55DF4F688179818A8115
:104E10009B81C55AD0409B01AC010E940E34CB55FA
:104E2000DF4F688379838A839B83C55AD04017C03C
:104E300020E030E040E05FE30E945D36EAE7AE2E1E
:104E4000EEE0BE2EDE01AB55BF4F6D01E12C10E44C
:104E5000F12E0CE117E4A30192010E94FA22809145
:104E60007A0E90917B0E880F991F90937B0E809302
:104E70007A0ECB55DF4F688179818A819B81C55A33
:104E8000D0400E94B206B091410EC554DF4FB883A6
:104E9000CB5BD04081E0C555DF4F8883CB5AD040F3
:104EA00061E080E00E940122E0915C0EC454DF4F7B
:104EB000E883CC5BD04083E0C455DF4F8883CC5A75
:104EC000D04063E081E00E9401228091400EFE010B
:104ED000E755FF4F808390915B0E918320917A0E6E
:104EE00030917B0ECF54DF4F4881C15BD0404423CB
:104EF00011F13093340E2093330EF093310EE09382
:104F0000300E92E090932E0E10922D0E2CE338E08E
:104F100030932C0E20932B0E0E94110884E598E00C
:104F200090932C0E80932B0E84E992E290932A0E9C
:104F30008093290E06C0369527953093340E209322
:104F4000330EE090780EF090790EF701E859FF4F9C
:104F500020E030EC4FE754E46081718182819381DD
:104F60000E948934C954DF4F688379838A839B8385
:104F7000C75BD0401E015DE9250E311C3E0182E178
:104F8000680E711CCE01815B9F4F2C01A9E04A0E77
:104F9000511CF1013896C355DF4FF983E883CD5A90
:104FA000D040CE54DF4F8883C25BD040CA54DF4F1D
:104FB0009883C65BD04087010B59174F9701245A3D
:104FC000374FC155DF4F39832883CF5AD040809166
:104FD000400EF801CE54DF4FA881C25BD040CA54C6
:104FE000DF4FB881C65BD0409EE401900D929A9548
:104FF000E1F7882341F0813061F4F20120893189A1
:105000004289538909C0D2012D913D914D915C9106
:1050100003C020E030E0A901F801DE0111969EE412
:1050200001900D929A95E1F7882341F0813061F467
:10503000F301C08CD18CE28CF38C09C0D301CD90EC
:10504000DD90ED90FC9003C0C12CD12C760160E87E
:1050500076E988E19BE40E94893420E030E040E872
:105060005FE30E940E344B015C0120E836E948E121
:105070005BE4C701B6010E945D369B01AC010E9452
:105080000E342BED3FE049E450E40E945D36C155FB
:10509000DF4FA881B981CF5AD0402D913D914D91DC
:1050A0005C910E945D366B017C01A5019401C501F4
:1050B000B4010E945D364B015C01A7019601C70156
:1050C000B6010E945D369B01AC01C501B4010E948E
:1050D0000E340E9410379B01AC01C954DF4F688128
:1050E00079818A819B81C75BD0400E945D36F10146
:1050F00061937193819391931F01F4E06F0E711C82
:1051000024E0420E511CC355DF4F48815981CD5ACE
:10511000D0402416350609F05ACF1092760EC155AC
:10512000DF4F19821882CF5AD040C155DF4F888196
:105130009981CF5AD040C354DF4FA881B981CD5B4C
:10514000D0408A179B0709F4D1C28091770E109244
:10515000420E1092430E81110BC0EFEFF3E0F0937B
:10516000470EE093460E1092450E1092440E10C06A
:105170001092480E1092490E10924A0E10924B0E49
:105180001092510E1092520E1092530E1092540E15
:1051900010925D0E10925E0E882389F01092630EBD
:1051A0001092640E1092650E1092660E10926C0EA4
:1051B00010926D0E10926E0E10926F0E0AC08FEF4D
:1051C00093E09093620E8093610E1092600E1092A5
:1051D0005F0ECF54DF4F9881C15BD0409923E1F13E
:1051E0000E94A1070E94F0218823E1F30E94EB2B8B
:1051F000CE54DF4F688379838A839B83C25BD04020
:10520000A091770ECA54DF4FA883C65BD04080912F
:105210007A0E90917B0EFE01E555FF4FC355DF4F8F
:10522000F983E883CD5AD04000E41EE09E012F5F51
:105230003F4F2901AE01415B5F4F1A01612C712C78
:105240009C0140E050E0CD53DF4F288339834A83EF
:105250005B83C35CD0409AC08091400E0E942B08B3
:1052600044E558E050932C0E40932B0E84EF92E2CD
:1052700090932A0E8093290E0E94A1070E94F0218C
:105280008823E1F380915B0E0E942B08A4E5B8E02F
:10529000B0932C0EA0932B0EE7EFF2E2F0932A0EC0
:1052A000E093290E0E94A1070E94F0218823E1F3D8
:1052B0009DCFCD53DF4F688179818A819B81C35C0B
:1052C000D0400E9422356B017C01D80151966D912E
:1052D0007D918D919C9154970E9422359B01AC0148
:1052E0000E940E34A70196010E9489340E94103753
:1052F000F201608371838283938320E030E040E891
:1053000052E40E945D369B01AC010E940E3423EFF3
:1053100034E045EB5FE30E945D360E94F634D10134
:105320006D937C93F301E05CF14F82818823B9F1A6
:10533000F301E05CF14F8281882309F4B3C08195C9
:10534000C355DF4FA881B981CD5AD0408C93B1E0CD
:10535000B08BC355DF4FE881F981CD5AD0403196EB
:10536000C355DF4FF983E883CD5AD040FBE16F0E80
:10537000711C055E1F4F22E0220E311C34E0430EEB
:10538000511C46E36416710409F496C0CA54DF4FF9
:10539000F881C65BD040FF2309F45AC08ACF8089C8
:1053A0008111C6CFF80180849184A284B38464857E
:1053B000758586859785680D791D8A1D9B1D0E94C0
:1053C00022352AE037ED43E25CE30E945D36A70117
:1053D00096010E9489346B017C0124EA30E74DE795
:1053E0005FE3D80157966D917D918D919C915A976D
:1053F0000E945D369B01AC01C701B6010E940E34CC
:105400006B017C01F801678B708F818F928F20E098
:1054100030E0A9010E94143620E030E040E05FE374
:1054200087FD05C0C701B6010E940E3404C0C70144
:10543000B6010E940D340E94F134D80156967C9337
:105440006E935597F80184869586A686B78670CFA9
:10545000D80114966D917C91159716968D919C911B
:105460001797681B790B96E0660F771F9A95E1F7FF
:10547000F1017183608380E090E00E94223523EF88
:1054800034E045EB5FE30E94893420E030E040E007
:105490005CE30E945D36D2016D937D938D939C9366
:1054A000139746CF8181C355DF4FA881B981CD5A6B
:1054B000D0408C93108A4DCF0091780E1091790EC8
:1054C000F801EC59F74F8081882309F470C080916E
:1054D000420E81116CC03C97C080D180E280F38085
:1054E00020E030E0A901C701B6010E941436181669
:1054F0000CF05DC0C555DF4F8881CB5AD040EDE937
:10550000F0E0EC0FFD1F24E08202E00DF11D1124FC
:10551000208131814281538169817A818B819C8193
:105520000E945D364B015C0180915D0E8111B5C01A
:105530002D813E814F815885C954DF4F6881798123
:105540008A819B81C75BD0400E945D369B01AC0184
:10555000C701B6010E940E342B013C019B01AC0136
:10556000C501B4010E940D346B017C0120E030E0E4
:10557000A9010E941436181624F0F7FAF094F7F8EF
:10558000F09420E030E040E05FE3F801EE55F74FA3
:1055900060817181828193810E945D369B01AC01A3
:1055A000C701B6010E94143618160CF47AC001E443
:1055B0001EE0CE01815B9F4F6C01E12CF12CD601E6
:1055C0008D919C91893C9C4030F4F80160816F5F23
:1055D0008E2D0E94012242E050E0B6018091780EAB
:1055E0009091790E0E94CF196BEA70E06C0F7D1FCD
:1055F0006E0D7F1D41E050E08091780E9091790E04
:105600000E94CF19FFEFEF1AFF0A22E0C20ED11C51
:10561000055E1F4F32E0E316F10489F685E89EE04F
:105620000E94552E181619060CF460C00E94EB2B30
:10563000CE54DF4F288139814A815B81C25BD040E3
:10564000621B730B840B950B0E9422356B017C014E
:1056500020E030E04AE754E4C154DF4F68817981AB
:105660008A819B81CF5BD0400E945D369B01AC015B
:10567000C701B6010E94853487FDD8CFC155DF4FE1
:1056800048815981CF5AD0404F5F5F4FC155DF4F9E
:1056900059834883CF5AD04048CD20E030E0A9015B
:1056A00057CFF801E05AF74F208131814281538171
:1056B000C501B4010E945D36A30192010E948934A4
:1056C0006B017C0120E030E040E85FE30E9485341C
:1056D00087FF06C0C12CD12C80E8E82E8FE3F82E7E
:1056E000B701A601C8010E947B0E61CFC554DF4FF0
:1056F0006881CB5BD04080E00E940122C454DF4F20
:105700006881CC5BD04081E00E94012280E0CA53D6
:10571000DF4F0FB6F894DEBF0FBECDBFDF91CF9144
:105720001F910F91FF90EF90DF90CF90BF90AF90BF
:105730009F908F907F906F905F904F903F902F90B1
:1057400008951F920F920FB60F9211242F933F933B
:105750008F939F93AF93BF9380917D0E90917E0E18
:10576000A0917F0EB091800E30917C0E23E0230F2C
:105770002D3720F40196A11DB11D05C026E8230F89
:105780000296A11DB11D20937C0E80937D0E9093F7
:105790007E0EA0937F0EB093800E8091810E90912B
:1057A000820EA091830EB091840E0196A11DB11DB1
:1057B0008093810E9093820EA093830EB093840EFB
:1057C000BF91AF919F918F913F912F910F900FBEFD
:1057D0000F901F9018953FB7F8948091810E90918B
:1057E000820EA091830EB091840E26B5A89B05C0B1
:1057F0002F3F19F00196A11DB11D3FBF6627782FDD
:10580000892F9A2F620F711D811D911D42E0660F35
:10581000771F881F991F4A95D1F70895CF92DF927D
:10582000EF92FF92CF93DF936B017C010E94EB2BF1
:10583000EB01C114D104E104F10489F00E940C349D
:105840000E94EB2B6C1B7D0B683E734090F381E054
:10585000C81AD108E108F108C851DC4FEACFDF913E
:10586000CF91FF90EF90DF90CF9008958230910517
:1058700038F0880F991F880F991F05970197F1F746
:105880000895789484B5826084BD84B5816084BDB8
:1058900085B5826085BD85B5816085BDEEE6F0E0A9
:1058A000808181608083E1E8F0E010828081826005
:1058B0008083808181608083E0E8F0E08081816086
:1058C0008083E1EBF0E0808184608083E0EBF0E0B6
:1058D000808181608083E1E9F0E080818260808363
:1058E000808181608083E0E9F0E080818160808355
:1058F000E1EAF0E080818260808380818160808342
:10590000E0EAF0E0808181608083E1E2F1E0808183
:1059100082608083808181608083E0E2F1E0808129
:1059200081608083EAE7F0E0808184608083808109
:1059300082608083808181608083808180688083B1
:105940001092C10008951F93CF93DF93182FEB019E
:1059500061E00E94BD2D209711F460E004C0CF3FAC
:10596000D10539F461E0812FDF91CF911F910C9423
:10597000F62DE12FF0E0E856FD4F449150E0FA019A
:105980003197E231F10508F09BC0E951FF4F0C94CB
:10599000553884B5806884BDC7BD97C084B5806222
:1059A00084BDC8BD92C080918000806880938000D3
:1059B000D0938900C093880088C080918000806265
:1059C00080938000D0938B00C0938A007EC080912A
:1059D0008000886080938000D0938D00C0938C00FD
:1059E00074C08091B00080688093B000C093B30011
:1059F0006CC08091B00080628093B000C093B4000E
:105A000064C080919000806880939000D09399004A
:105A1000C09398005AC0809190008062809390005B
:105A2000D0939B00C0939A0050C0809190008860F2
:105A300080939000D0939D00C0939C0046C08091BD
:105A4000A00080688093A0008091A0008F7B80934D
:105A5000A000D093A900C093A80037C08091A000F7
:105A600080628093A000D093AB00C093AA002DC0A9
:105A70008091A00088608093A000D093AD00C09377
:105A8000AC0023C080912001806880932001D093D6
:105A90002901C093280119C0809120018062809360
:105AA0002001D0932B01C0932A010FC080912001C7
:105AB000886080932001D0932D01C0932C0105C0F4
:105AC000C038D1050CF04ECF48CFDF91CF911F9158
:105AD000089590E0FC013197E231F10508F04CC0E7
