:100000000C9468010C9495010C9495010C94950145
:100010000C9495010C9495010C9495010C94950108
:100020000C9495010C9495010C9495010C949501F8
:100030000C9495010C9495010C9495010C949501E8
:100040000C9495010C9495010C9495010C949501D8
:100050000C94F8060C9495010C9495010C941434AE
:100060000C9495010C9441370C9489380C949501AB
:100070000C9495010C94CD060C9495010C9495016B
:100080000C9495010C9495010C9495010C94280AFC
:100090000C9481370C94C8380C9495010C94FF0B88
:1000A0000C9495010C9495010C9495010C94950178
:1000B0000C9495010C9495010C9495010C94950168
:1000C0000C9495010C9495010C9495010C94C137F6
:1000D0000C9407390C9495010C9401380C94463912
:1000E0000C9495017E22B822F2222C23A0236623B1
:1000F000DA233A2480245D24D324AC24D625AF25EA
:100100000726E726692686273F27C727E227FC27F9
:100110001C28462819247E28A128BF28DC280E295F
:10012000362908000000BE922449123EABAAAA2A32
:10013000BECDCCCC4C3E00000080BEABAAAAAA3EED
:1001400000000000BF000000803F00000000000829
:100150004178D3BB4387D1133D190E3CC3BD4282C6
:10016000AD2B3E68EC8276BED98FE1A93E4C80EF84
:10017000FFBE01C4FF7F3F0000000000076342365E
:10018000B79BD8A71A39685618AEBAAB558C1D3C28
:10019000B7CC5763BD6DEDFD753EF6177231BF00EC
:1001A0000000803F00002100240027002A002D00CD
:1001B0003000330001010000040107010A010000C2
:1001C0002200250028002B002E00310034000201FF
:1001D0000000050108010B0100002000230026009B
:1001E00029002C002F00320000010000030106014D
:1001F00009010505050507050808080802020202AD
:100200000A0A0808040404040101010101010101B2
:100210000303030303030303040707070C0C0C0C7D
:100220000C0C0C0C02020202060606060606060666
:100230000B0B0B0B0B0B0B0B0102102020080810F3
:100240002040102040800201020108040201010246
:10025000040810204080804020100804020180041F
:10026000020180402010080402010804020101027A
:100270000408102040800102040810204080000083
:10028000090A02080B0C0D07060304010000000018
:10029000000000000000000000000000000000005E
:1002A0000000000000000000000011100F0000001E
:1002B000000000000000000000000000000000003E
:1002C00000000000CA030207970A6A29B63AC3036E
:1002D00011241FBECFEFD1E2DEBFCDBF00E00CBFC7
:1002E00014E0A0E0B2E0E2ECF9E800E00BBF02C0ED
:1002F00007900D92A23CB107D9F71BBE11E1A2EC09
:10030000B4E001C01D92AC34B107E1F712E0CEECCD
:10031000D2E004C02297FE010E949944C43CD10758
:10032000C9F70E948D040C94D4440C940000CF9320
:10033000DF93BC018230910510F462E070E0A0917F
:100340004A11B0914B11ED01E0E0F0E040E050E0E7
:1003500021C0888199818617970769F48A819B81DA
:10036000309719F09383828304C090934B1180934C
:100370004A11FE0134C06817790738F44115510558
:1003800019F08417950708F4AC01FE018A819B815E
:100390009C01E9012097E9F641155105A9F1CA012F
:1003A000861B970B049708F4BA01E0E0F0E02AC03E
:1003B0008D919C91119784179507F9F4641775072F
:1003C00081F412968D919C911397309719F0938335
:1003D000828304C090934B1180934A11FD013296A1
:1003E0004CC0CA01861B970BFD01E80FF91F6193F2
:1003F000719302978D939C9340C0FD0182819381FC
:100400009C01D9011097A1F6809148119091491152
:10041000892B41F48091D5039091D6039093491193
:10042000809348114091D7035091D803411551054D
:1004300041F44DB75EB78091D3039091D403481B2C
:10044000590B2091481130914911CA01821B930B1D
:100450008617970780F0AB014E5F5F4F84179507B3
:1004600050F0420F531F5093491140934811F90126
:100470006193719302C0E0E0F0E0CF01DF91CF9192
:100480000895CF93DF93009709F450C0EC012297B1
:100490001B821A82A0914A11B0914B11109709F159
:1004A00040E050E0AC17BD0708F1BB83AA83FE0112
:1004B00021913191E20FF31FAE17BF0779F48D91AF
:1004C0009C911197280F391F2E5F3F4F3983288346
:1004D00012968D919C9113979B838A8341155105A8
:1004E00071F4D0934B11C0934A1120C012968D9194
:1004F0009C911397AD01009711F0DC01D3CFFA0165
:10050000D383C28321913191E20FF31FCE17DF070E
:1005100069F488819981280F391F2E5F3F4FFA01B6
:10052000318320838A819B8193838283DF91CF9162
:100530000895A0E0B0E0EFE9F2E00C949F446C0174
:10054000009729F4CB010E9497016C01C1C08EEF86
:10055000882E8FEF982E8C0C9D1C8601060F171F7E
:100560000815190508F4B2C0F401A081B181A617DD
:10057000B707B8F0A530B10508F4AAC0CD010497BB
:100580008617970708F4A4C01297A61BB70BF801AB
:10059000A193B193D4016D937C93CF010E9441024A
:1005A00097C07B01EA1AFB0AEEEFFFEFEE0EFF1E8B
:1005B00036016A0E7B1EC0914A11D0914B11442422
:1005C0005524AA24BB244AC0C615D705E1F54881A5
:1005D00059814E155F05B8F1CA0104978E159F0524
:1005E000B0F41296A40FB51FF401B183A0832A8141
:1005F0003B814114510431F0D20113963C932E9368
:10060000129766C030934B1120934A1161C08A81C2
:100610009B81F80193838283425050404E195F09B9
:10062000518340834114510431F0D20113961C933D
:100630000E93129704C010934B1100934A11F401CA
:100640007183608345C088819981A816B90608F432
:100650005C012E018A819B819C01E901209709F0B0
:10066000B3CF809148119091491186159705E9F40F
:10067000A616B706D0F42091D7033091D8032115E0
:10068000310541F42DB73EB78091D3039091D40347
:10069000281B390B02171307C8F410934911009354
:1006A0004811D4016D937C9313C0CB010E94970134
:1006B000EC01009759F0F40140815181B6010E948C
:1006C0006E03C6010E9441026E0102C0CC24DD24EB
:1006D000C601CDB7DEB7E0E10C94BB44FB01DC0101
:1006E00002C001900D9241505040D8F70895FB018F
:1006F000DC0101900D920020E1F70895FB019F01BC
:10070000423074F0453264F4642F77270E946144CC
:10071000805D8A330CF0895D8193CB010097A1F74E
:100720001082C9010C949403DC01FC01672F7191C4
:100730007723E1F7329704C07C916D9370836291C7
:10074000AE17BF07C8F308958091D9039091DA03DB
:1007500001969093DA038093D9030895813091052F
:1007600041F46F5F7F4F71F482EC94E00E94B91DF9
:100770000895892B39F46F5F7F4F21F482EC94E068
:100780000E94B01D089580E090E06FEF7FEF0E941F
:10079000AE03089581E090E06FEF7FEF0E94AE031B
:1007A000089580E1809391001092900085E08093FD
:1007B000980D86E998E99093970D8093960D909304
:1007C00097008093960085E18093910084EA93E0FE
:1007D00090939A0D8093990D81E08093710082EC43
:1007E00094E00E94791380EC90E160E072E00E9456
:1007F000953D6FEF71E26050724080EC90E14AE00D
:1008000050E00E94763D80EC90E165E072E00E944D
:10081000953D62EC74E06050724080EC90E14AE0FB
:1008200050E00E94763D80EC90E16CE072E00E9426
:10083000953D6CE471E1625C744080EC90E14AE0CB
:1008400050E00E94763D80EC90E162E172E00E940F
:10085000953D60914811709149116115710519F428
:1008600060E070E002C06C54714180EC90E14AE0BD
:1008700050E00E94763D80EC90E168E172E00E94D9
:10088000953D8DB79EB76FEF71E2681B790B80ECD9
:1008900090E14AE050E00E94763D80EC90E16FE10B
:1008A00072E00E94953D8091481190914911009706
:1008B00029F46DB77EB76C54714104C06DB77EB733
:1008C000681B790B80EC90E14AE050E00E94763D95
:1008D000089582EC94E00E9447208091D903909182
:1008E000DA0369E170E00E946144892BA9F48091E8
:1008F000140D882359F08091150D882329F482EC7A
:1009000094E00E94C40D02C01092150D81E090E0A9
:100910009093DA038093D9030895CF93DF930E94D5
:10092000E5340E94D103C0E4D8E30E946904209713
:10093000E1F30E944038F9CFEAE7F0E09081987F38
:1009400090839081982B9083089520917A0030E0D5
:1009500027703070C9010895EF92FF920F931F9393
:100960007B018C0180E1809381001092800060E027
:1009700074E284E799E4A80197010E949E4020E078
:1009800030E040E051E40E9474420E940B419B0120
:10099000AC01203080E0380781E0480780E058074C
:1009A00028F481E08093940DB90155C0203080E097
:1009B000380788E0480780E0580768F482E08093B1
:1009C000940DDA01C901E3E0B695A795979587954F
:1009D000EA95D1F714C0203080E0380780E448075A
:1009E00080E0580770F483E08093940DDA01C90128
:1009F00076E0B695A795979587957A95D1F7BC013E
:100A00002AC0203080E0380780E0480781E058079E
:100A100040F484E08093940DBB27A52F942F832F5F
:100A2000EECF203080E0380780E0480784E05807A8
:100A300068F485E08093940DDA01C9012AE0B69547
:100A4000A795979587952A95D1F7D9CF85E080937B
:100A5000940D6FEF7FEF709387006093860091E0B5
:100A600090936F0080917B00887F80937B008091C2
:100A70007B00866080937B0090937E0D80917A004E
:100A8000806280937A00E092880DF092890D009345
:100A90008A0D10938B0D1F910F91FF90EF90089589
:100AA000882321F080917C00806203C080917C00CB
:100AB0008F7D80937C00089580937E0D882321F0A4
:100AC00080917A00806203C080917A008F7D80934C
:100AD0007A00089591E09093820D1092800D10920B
:100AE0007F0D1092830D22E236E03093850D209326
:100AF000840D8093810D90917C00907F90937C0079
:100B000020917C00982F9770922B90937C008830D6
:100B100020F080917B00886003C080917B00877FFC
:100B200080937B0008958093810D90917C00907F4D
:100B300090937C0020917C00982F9770922B90933B
:100B40007C00883020F080917B00886003C0809119
:100B50007B00877F80937B0008958091830D8F5F5A
:100B60008093830D9091820D891711F41092830D5B
:100B70008091830DE0917F0DF091800DE80FF11DC4
:100B800020812093810D80917C00807F80937C0068
:100B900090917C00822F8770892B80937C00283075
:100BA00020F080917B00886003C080917B00877F6C
:100BB00080937B00509178004091790020917A0DCC
:100BC00030917B0D80917C0D90917D0D2817390718
:100BD000C0F580917E0D882329F480917A0080648D
:100BE00080937A00942F80E0452F50E0482B592BBA
:100BF00080917C0085FF11C080917A0D90917B0DD2
:100C0000E091760DF091770DE80FF91F5083019672
:100C100090937B0D80937A0D089580917A0D909139
:100C20007B0D9C01220F331FE091780DF091790D1F
:100C3000E20FF31F51834083019690937B0D8093C5
:100C40007A0D0895509178004091790020917A0DA5
:100C500030917B0D80917C0D90917D0D2817390787
:100C6000C0F580917E0D882329F480917A008064FC
:100C700080937A00942F80E0452F50E0482B592B29
:100C800080917C0085FF11C080917A0D90917B0D41
:100C9000E091760DF091770DE80FF91F50830196E2
:100CA00090937B0D80937A0D089580917A0D9091A9
:100CB0007B0D9C01220F331FE091780DF091790D8F
:100CC000E20FF31F51834083019690937B0D809335
:100CD0007A0D08955091830D9091820D923050F1CC
:100CE000852F8F5F8093830D891711F41092830DE8
:100CF0008091830DE0917F0DF091800DE80FF11D43
:100D000020812093810D80917C00807F80937C00E6
:100D100090917C00822F8770892B80937C002830F3
:100D200020F080917B00886003C080917B00877FEA
:100D300080937B00609178004091790020917A0D3A
:100D400030917B0D80917C0D90917D0D2817390796
:100D500018F580917E0D882329F480917A008064B3
:100D600080937A00942F80E070E0682B792B80913B
:100D70007C0085FF02C0672F7727E091860DF091F8
:100D8000870D852F199580917A0D90917B0D019695
:100D900090937B0D80937A0D08951F920F920FB65A
:100DA0000F920BB60F9211242F933F934F935F93A3
:100DB0006F937F938F939F93AF93BF93EF93FF9323
:100DC000E091840DF091850D1995FF91EF91BF9100
:100DD000AF919F918F917F916F915F914F913F91D3
:100DE0002F910F900BBE0F900FBE0F901F90189574
:100DF0001F920F920FB60F9211240F900FBE0F90FB
:100E00001F901895ECE7F0E080818F7380838081DC
:100E10008064808308950F931F9300917C0010914C
:100E20007B0080917C00807E80937C0080917C00A0
:100E30008E6180937C0080917B00877F80937B0014
:100E400063E070E080E090E00E94823480917A005C
:100E5000806480937A0080917A0086FDFCCF209197
:100E600078004091790000937C0010937B00742FF0
:100E700060E030E0622B732B882777FD8095982FF8
:100E80000E9439419B01AC0160E070E889E894E47C
:100E90000E949E401F910F910895AF92BF92CF92F2
:100EA000DF92EF92FF920F931F930E945C345B01DD
:100EB0006C0180917A00877D80937A0080917B001D
:100EC0008770863029F480918100887F809381002B
:100ED00060917C0D70917D0D80E090E00E94374123
:100EE00020E034E244E759E40E9474427B018C0123
:100EF0008091900D9091910DA091920DB091930DD4
:100F0000A81AB90ACA0ADB0AC601B5010E9437410C
:100F10009B01AC01C801B7010E949E4060938C0DFB
:100F200070938D0D80938E0D90938F0D1F910F9167
:100F3000FF90EF90DF90CF90BF90AF900895109208
:100F40007B0D10927A0D80917E0D882321F0809187
:100F50007A00806203C080917A008F7D80937A004E
:100F60000E945C346093900D7093910D8093920D6C
:100F70009093930D80917A00886C80937A00809191
:100F80007B008770863081F480918100887F809318
:100F900081001092850010928400809181009091D0
:100FA000940D892B809381000895F999FECF72BD2D
:100FB00061BDF89A80B50895F999FECF1FBA72BD48
:100FC00061BD40BD0FB6F894FA9AF99A0FBE089524
:100FD000FC0113861586148687E090E0128631970F
:100FE000009711F00197FACF0895DF92EF92FF92E8
:100FF0000F931F93FC01E08001811281F894F801A6
:1010000081818E2981838281DE2CD0948D218283FF
:1010100083E090E00E94DB34F80181818D2181839F
:101020008AE090E00E94DB34F8010081789485E347
:1010300090E00E94DB3480E010E0FF240E211F21AD
:10104000012B09F081E01F910F91FF90EF90DF904D
:101050000895EF92FF920F931F93CF93DF937C013C
:1010600001E010E0C0E0D0E0C7010E94F507811167
:10107000102B000F2196C830D105B1F7812FDF91D9
:10108000CF911F910F91FF90EF9008951F93CF93F1
:10109000DF93FC011081C181D281912F909560FF77
:1010A00012C0F8948A8189238A838981812B89835C
:1010B0008AE090E00E94DB348A81812B8A837894D5
:1010C00087E390E011C0F8948A8189238A8389811B
:1010D000812B898381E490E00E94DB348A81812B1B
:1010E0008A83789485E090E00E94DB34DF91CF9191
:1010F0001F910895CF92DF92EF92FF920F931F936B
:10110000CF93DF938C01E42EFF24F394C0E0D0E072
:10111000C62EDD2460E08F2D90E08C219D21892B4F
:1011200009F061E0C8010E944608FF0C2196C83012
:10113000D10581F7EE20A9F4F894D8011196ED912C
:10114000FC91129791818C918095982391831196AF
:10115000ED91FC91129792818C91809598239283C6
:101160007894DF91CF911F910F91FF90EF90DF90D6
:10117000CF900895EF92FF920F931F93CF93DF9339
:101180008C017B0165E540E00E947A08C0E0D0E078
:10119000F701EC0FFD1FC801608140E00E947A0852
:1011A0002196C830D105A1F7DF91CF911F910F9102
:1011B000FF90EF900895DF92EF92FF920F931F93AD
:1011C000CF93DF93FC010081C181D281F8948981A2
:1011D000D02ED0948D21898378941DE7E02EFF24B2
:1011E000115059F182E090E00E94DB34888190E058
:1011F0008E219F21892BA1F3F8948A818D218A83E6
:101200008981802B8983789480EE91E00E94DB3481
:10121000F89489818D21898386E490E00E94DB34F3
:10122000888110E090E0E822F922EF2809F411E02B
:1012300078948AE991E00E94DB34812FDF91CF918D
:101240001F910F91FF90EF90DF900895AF92BF92A2
:10125000DF92EF92FF920F931F93CF93DF93EC01F6
:101260005B018D85882309F061C0CE010E94DB08F7
:10127000882329F41B861D861C8690E06BC0CE0156
:1012800060EF40E00E947A0801E0DD24EE24FF24B4
:10129000F394CE010E94F507182FCE010E94F507A6
:1012A000113019F48130E1F439C0181709F58B8534
:1012B000081770F460E0FE01EE0DF11D838190E0EF
:1012C0002F2D30E082239323181619064CF003C00B
:1012D00060E0081729F0093008F04CC00C874AC0BC
:1012E000FE01EE0DF11D83818F29838361E009C02A
:1012F000612FFE01EE0DF11D9F2D909583818923B5
:101300008383CE010E9446080F5FFF0C19F4E3941B
:10131000FF24F39487E08E1508F0BBCF013430F042
:10132000DB86DD2011F581E08D871FC01B861D86C1
:101330001C8690E0DE0120E030E0F501E20FF31FB3
:1013400013968C91139780832F5F3F4F119628300F
:10135000310599F7892FDF91CF911F910F91FF9060
:10136000EF90DF90BF90AF9008958B818823F1F2CA
:1013700091E0E0CFD02EBDCFFF920F931F938C0151
:10138000F62E862F60E00E942A368F2D90E0FC0119
:10139000E85CFD4FE491D801EC938E509E4FFC0128
:1013A0006491E62FF0E0EE0FFF1FE852FE4F8591AB
:1013B000949112969C938E9311971B961C921B9757
:1013C0001D961C921D971C961C92F80187E090E0D8
:1013D00012863197009711F00197FACF1F910F9164
:1013E000FF900895882319F48CB5806202C08CB5F3
:1013F0008F7D8CBD08959CB5937F982B9CBD0895DF
:101400002CB5382F33702C7F322B3CBD2DB590E09E
:10141000959587959595879581702E7F822B8DBDAB
:10142000089585E361E00E94DD3685E361E00E9476
:101430002A368CB580618CBD8CB580648CBD84E30C
:1014400061E00E942A3683E361E00E942A36089513
:101450001F920F920FB60F920BB60F9211242F937B
:101460003F934F935F936F937F938F939F93AF932C
:10147000BF93EF93FF93E091990DF0919A0D199519
:10148000FF91EF91BF91AF919F918F917F916F915C
:101490005F914F913F912F910F900BBE0F900FBE18
:1014A0000F901F90189581E08093E00D6093BD0D23
:1014B0001092DE0D1092DF0D089581E08093E00D13
:1014C0006093BD0D1092DE0D1092DF0D08952091F6
:1014D000BC0D30E08091BB0D281B3109C901089576
:1014E0004091BB0D8091BC0D481718F02FEF3FEFD6
:1014F0000AC0E42FF0E0E556F24F8081282F30E05B
:101500004F5F4093BB0DC9010895E091BB0D8091E1
:10151000BC0DE81718F0EFEFFFEF06C0F0E0E5565E
:10152000F24F8081E82FF0E0CF01089508951092E6
:10153000E40D1092E30D88EE93E0A0E0B0E080931C
:10154000E50D9093E60DA093E70DB093E80D80EEC6
:1015500093E09093E20D8093E10D0895CF92DF9296
:10156000EF92FF920F931F93CF93DF937C016B0158
:101570008A018091E00D8823A1F0C0E0D0E00DC089
:10158000D701ED91FC91D601AC0FBD1F0190F08108
:10159000E02DC7016C9119952196C017D10780F3F2
:1015A00004C0CB01642F0E94E40BC801DF91CF91EE
:1015B0001F910F91FF90EF90DF90CF900895DF93F0
:1015C000CF930F92CDB7DEB7FC0169838091E00D18
:1015D0008823C9F08091DF0D803238F081E090E0FF
:1015E0009383828320E030E015C08091DE0DE82FE8
:1015F000F0E0E254F24F998190838F5F8093DE0D8B
:101600008093DF0D05C0CE01019661E00E94E40BDE
:1016100021E030E0C9010F90CF91DF9108950F9341
:10162000062F8091BD0D6EEB7DE04091DF0D21E036
:101630000E948F0B1092DE0D1092DF0D1092E00DC4
:101640000F91089561E00E940F0B0895413208F058
:1016500040E2862F6BE97DE00E94460B1092BB0DA5
:101660008093BC0D089521E00E94260B089521E08F
:101670000E94260B08951092BB0D1092BC0D109283
:10168000DE0D1092DF0D0E94940D0895382F413227
:1016900010F040E042C08091ED0D8823E1F791E029
:1016A0009093ED0D2093EF0D8FEF80935A0E1092D3
:1016B000150E41504093160E4F5F9093EE0D8091A2
:1016C000EE0D330F832B8093EE0D8091F00D813062
:1016D00041F41092F00D8091EE0D8093BB0085ECEB
:1016E00001C085EE8093BC008091ED0D8130E1F367
:1016F0008091150E841710F44091150E20E030E013
:101700000AC0FB01E20FF31FD901AB50B24F8C911D
:1017100080832F5F3F4F2417A0F3842F08950F93EA
:101720001F93582F122F413210F081E04AC0809150
:10173000ED0D8823E1F782E08093ED0D0093EF0D2E
:101740008FEF80935A0E1092150E4093160EA5EF50
:10175000BDE0FB0102C081918D938E2F861B841703
:10176000D0F31092EE0D8091EE0D550F852B8093E6
:10177000EE0D8091F00D813041F41092F00D8091CA
:10178000EE0D8093BB0085EC01C085EE8093BC001C
:10179000112321F08091ED0D8230E1F380915A0EFA
:1017A0008F3F11F480E00DC080915A0E803211F409
:1017B00082E007C080915A0E803311F084E001C0AE
:1017C00083E01F910F910895482F613210F081E05E
:1017D00008958091ED0D843011F082E008956093BA
:1017E000380EA7E1BEE0842F9C01F90102C081916F
:1017F0008D938E2F841B8617D0F380E008951F925F
:101800000F920FB60F920BB60F9211242F933F93A6
:101810004F935F936F937F938F939F93AF93BF93F8
:10182000EF93FF938091B90090E0887F90708036AD
:10183000910509F4F2C081369105CCF58832910505
:1018400009F47BC089329105B4F48031910509F423
:101850006FC0813191053CF4009709F447C10897A6
:1018600009F04FC165C08831910509F466C08097C1
:1018700009F047C182C08034910509F4A4C08134C5
:10188000910544F48033910509F482C0C89709F0AA
:1018900038C189C08035910509F489C08835910522
:1018A00009F496C08834910509F02BC1AEC088397F
:1018B000910509F413C189399105ECF48837910534
:1018C00009F4ABC0893791054CF48836910509F4C9
:1018D000A4C08037910509F014C19FC088389105D4
:1018E00009F4FCC08039910509F49DC08038910548
:1018F00009F007C198C0803B910509F4C6C0813B3F
:1019000091054CF4803A910509F49FC0883A9105FD
:1019100009F0F7C0BAC0803C910509F4E3C0883CE7
:10192000910509F4DFC0883B910509F0EAC0C2C007
:101930008091EE0D8093BB00CFC09091150E8091E9
:10194000160E981768F49091150EE92FF0E0EB5001
:10195000F24F80818093BB009F5F9093150EBCC0B7
:101960008091EF0D882309F44BC085ED8093BC0076
:101970008091BC0084FDFCCFC2C080E280935A0EEF
:1019800085ED8093BC008091BC0084FDFCCFB7C086
:1019900080E380935A0E85ED8093BC008091BC005B
:1019A00084FDFCCFACC088E380935A0E9BC080912D
:1019B000150E9091BB00E82FF0E0EB50F24F9083B2
:1019C0008F5F8093150E9091150E8091160E82C038
:1019D0008091150E9091BB00E82FF0E0EB50F24F94
:1019E00090838F5F8093150E8091EF0D882341F0D7
:1019F00085ED8093BC008091BC0084FDFCCF7FC04E
:101A000081E08093F00D84EA6EC085ED8093BC0088
:101A10008091BC0084FDFCCF72C083E08093ED0D0B
:101A20001092590E59C08091590E803208F056C05C
:101A30008091590E9091BB00E82FF0E0E75CF14FE8
:101A400090838F5F8093590E47C08091590E8032EA
:101A500030F4E091590EF0E0E75CF14F108285ED33
:101A60008093BC008091BC0084FDFCCF1092ED0DF2
:101A70006091590EE091F30DF091F40D89E39EE031
:101A800070E019951092590E2DC084E08093ED0DF1
:101A90001092370E1092380EE091F10DF091F20D88
:101AA00019958091380E882329F481E08093380EAF
:101AB0001092170E9091370EE92FF0E0E95EF14F8A
:101AC00080818093BB009F5F9093370E9091370E7B
:101AD0008091380E981710F485EC01C085E880934A
:101AE000BC000FC085EC8093BC0009C010925A0E58
:101AF00085ED8093BC008091BC0084FDFCCF1092EA
:101B0000ED0DFF91EF91BF91AF919F918F917F91DB
:101B10006F915F914F913F912F910F900BBE0F905E
:101B20000FBE0F901F9018951092ED0D81E08093DD
:101B3000EF0D1092F00D84E161E00E94DD3685E149
:101B400061E00E94DD36E9EBF0E080818E7F8083EA
:101B500080818D7F808388E48093B80085E48093C2
:101B6000BC0008958CEE93E0089581E094E0089520
:101B700085E094E008958CE194E0089586E394E094
:101B800008958DE394E00895FC01EC5AF74F10821C
:101B900008958CE292E008959F92AF92BF92CF9207
:101BA000DF92EF92FF920F931F93CF93DF93EC019D
:101BB0005A016B01FC01E855F74F60817181828108
:101BC000938124EA30E74DE75FE30E9474429B0172
:101BD000AC01C601B5010E942B4288230CF4B7C0AA
:101BE000FE01E455F74F60817181828193812EEA75
:101BF00037E441E85FE30E9474429B01AC01C601F7
:101C0000B5010E949A4018160CF4A1C0C601B50196
:101C100020E030E048E452E40E9474427B018C01F1
:101C200020E030E04AE754E40E949A4087FD8FC0EC
:101C3000C801B70120E233EB41E85CE40E942B428B
:101C400018160CF484C0C801B70120E030EE41E85A
:101C500054E40E949E400E94344226EA3BE944E557
:101C600050E40E9474422EE83DE543E150E40E94B6
:101C70009E400E940B41962E70E0665F7F4F882742
:101C800077FD8095982F0E9439419B01AC0160E05F
:101C900070E080E090E40E94D7429B01AC01CA0151
:101CA000B90120E030EE41E055EC0E947442A801F9
:101CB00097010E949E4020E030E040E055E40E9401
:101CC00023407B018C0120E030E040E050E00E94A6
:101CD0002B4288234CF0C801B70120E030E040E0FF
:101CE0005FE30E94234008C0C801B70120E030E054
:101CF00040E05FE30E9422400E9406418B0181EE9A
:101D00009DE067E10E94530AC80126E096958795F9
:101D10002A95E1F7929490EF9922982A81EE9DE01E
:101D2000692D0E94DF0A602F660F660F626081EEE8
:101D30009DE00E94DF0A81EE9DE00E94220BC45AC2
:101D4000D74FA882B982CA82DB8280E001C088E0D6
:101D5000DF91CF911F910F91FF90EF90DF90CF9087
:101D6000BF90AF909F900895BF92CF92DF92EF9275
:101D7000FF920F931F93CF93DF93EC01B62E35E6BE
:101D8000E32E38E0F32EE80EF91E6C0100E010E0BF
:101D9000E881F981B8016C597F4F0088F189E02D05
:101DA000C6011995F701E00FF11F80830F5F1F4FE8
:101DB0000F34110569F7CB59D74F88819981C556E2
:101DC000D840892B39F5C959D74F88819981C75691
:101DD000D840892BF9F49E012759374FF9018081AA
:101DE0009181892BB9F4FE01E156F74FC05AD74FC4
:101DF00088819981AA81BB81C056D8408083918314
:101E0000A283B38381E090E0F90191838083CE01C6
:101E10000E94A910CB59D74F88819981C556D840C7
:101E2000892BE1F4C959D74F88819981C756D84089
:101E3000892BA1F4FE01E759F74F80819181019729
:101E400069F4C459D74F80E28883CC56D84082E0E9
:101E500090E091838083CE010E94A910CB59D74F87
:101E600088819981C556D840892B11F5C959D74F1A
:101E700088819981C756D840892BD1F4FE01E75952
:101E8000F74F80819181029799F4CD55D74F80E02B
:101E900090E0A0EAB0E488839983AA83BB83C35A05
:101EA000D84083E090E091838083CE010E94A91006
:101EB000CB59D74F88819981C556D840892BD9F401
:101EC000C959D74F88819981C756D840892B99F431
:101ED000FE01E759F74F80819181039761F4C9555D
:101EE000D74F1882C75AD84084E090E0918380830E
:101EF000CE010E94A910CB59D74F88819981C55630
:101F0000D840892B91F5C959D74F88819981C756F7
:101F1000D840892B51F5FE01E759F74F8081918117
:101F2000049719F5C855D74F80E090E0A8ECB2E4CB
:101F300089939993A993B99380E090E4ACE9B6E4CE
:101F400089939993A993B99380E090E0A8E4B3E4CE
:101F500088839983AA83BB83C05BD84085E090E0E7
:101F600091838083CE010E94A910CB59D74F8881DD
:101F70009981C556D840892B99F4C959D74F888182
:101F80009981C756D840892B59F4C759D74F8881B2
:101F90009981C956D840059719F4BB2009F49EC011
:101FA000CB59D74F199219921992199285E090E066
:101FB000899399938FEF888323968CE7888380E7B2
:101FC0008A93229680E09CE7A2E9B8E489939993EA
:101FD000A993B99380E092E2A1EAB8E48883998357
:101FE000AA83BB832C9680E090E0AAE7B4E48993AF
:101FF0009993A993B99380E090E4ACE1B6E4899316
:102000009993A993B99380E090E5A3ECB7E4899301
:102010009993A993B99380E094E2A4E7B9E4888303
:102020009983AA83BB83649780E090E0A0E0B0E04E
:1020300089939993A993B99388839983AA83BB833E
:1020400064968FEF96EEABE5BEE289939993A993E0
:10205000B99389939993A993B99389939993A993E0
:10206000B99388839983AA83BB83CB59D840FE0157
:10207000E156F74FC05AD74F88819981AA81BB8119
:1020800080839183A283B3832C9680E28883E79632
:1020900080E090E0A0EAB0E489939993A993B99382
:1020A000199280E090E0A8ECB2E489939993A99307
:1020B000B99380E090E4ACE9B6E489939993A9934D
:1020C000B99380E090E0A8E4B3E488839983AA837D
:1020D000BB83C05BD840CE010E94A910C156D74F28
:1020E000E880F9800A811B81CF59D840C801B70127
:1020F00020E030E040E050E00E949A40FE01EC59C0
:10210000F74F18161CF081E0808309C0C05AD74FE2
:10211000E882F9820A831B83C056D8401082C955D1
:10212000D74F8881C75AD840882321F0CE0160E07C
:1021300042E003C0CE0160E041E00E94C233DF9183
:10214000CF911F910F91FF90EF90DF90CF90BF90B4
:102150000895CF92DF92EF92FF920F931F93CF9348
:10216000DF938C0145E6E42E48E0F42EE80EF91EDC
:102170006C01C0E0D0E0F701EC0FFD1FC601CC59A7
:10218000DF4FBE0140810E940F1FC356D040CF34A5
:10219000D10589F7C80160E00E94B40EDF91CF91AC
:1021A0001F910F91FF90EF90DF90CF9008957F9255
:1021B0008F929F92AF92BF92CF92DF92EF92FF9257
:1021C0000F931F93DF93CF930F920F92CDB7DEB78C
:1021D0005C019B01742ECB0168E270E00E946144B7
:1021E000862EC90168E270E00E9461446C0163E0E0
:1021F000969587956A95E1F7982E082D10E05CE694
:10220000E52E58E0F52EEA0CFB1CF7018081B801A1
:10221000680F711D81EE9DE00E945D0A692D70E0DE
:10222000685F7F4F81EE9DE00E94DF0A81EE9DE0B6
:102230000E94220BF7018081080F111D81EE9DE0A5
:10224000B80141E050E00E94330B81EE9DE00E9416
:10225000670A892B11F481E03BC00C2D0770F8E070
:102260009F0E998281EE9DE00E94700A282F7720B0
:1022700071F481E090E0A0E0B0E004C0880F991F05
:10228000AA1FBB1F0A95D2F7282B2A830EC081E014
:1022900090E0A0E0B0E004C0880F991FAA1FBB1F08
:1022A0000A95D2F7809582238A838CE698E0A80E5F
:1022B000B91EF501608184E997EFA80EB91E680D7B
:1022C000C501AE014F5F5F4F22E00E94381F80E0E2
:1022D0000F900F90CF91DF911F910F91FF90EF9092
:1022E000DF90CF90BF90AF909F908F907F90089598
:1022F0004F925F926F927F928F929F92AF92BF9216
:10230000CF92DF92EF92FF920F931F93DF93CF93C1
:102310000F920F92CDB7DEB78C012C01EE2485E52C
:10232000882E88E0982E800E911EB5E4CB2EB8E062
:10233000DB2EC00ED11EACE6AA2EA8E0BA2EA00E4F
:10234000B11E3E010894611C711C33C0F8E0FF2EE1
:1023500030E040E050E0F60180819181F801E80F23
:10236000F91FE259FF4F20810196F6019183808386
:1023700080E090E0222311F481E090E0042E02C07E
:10238000880F991F0A94E2F7380F4F5F5F4F48306C
:10239000510509F73A83F50160816E0DF982C2019A
:1023A000A30122E00E94381FF394FDE0FF1681F69E
:1023B000E3942E2D30E0F4018081918168E270E099
:1023C0000E9461442617370708F20F900F90CF91B3
:1023D000DF911F910F91FF90EF90DF90CF90BF9012
:1023E000AF909F908F907F906F905F904F900895E7
:1023F000FF920F931F93F62E142F022F862F60E06B
:102400000E94DD361EBD0DB407FEFDCF8EB50EBD9C
:102410000DB407FEFDCF8EB58F2D61E00E94DD3635
:102420001F910F91FF900895362F242F643010F0E4
:1024300085E00895209565E3432F0E94F81180E020
:102440000895AF92BF92CF92DF92EF92FF920F93D7
:102450001F93CF93DF93EC015A016B01C05AD74F02
:10246000E880F9800A811B81C056D840CB01BA01AF
:1024700020E030E040E050E00E949A4087FD48C0F4
:10248000FE01E055F74FC601B5012081318142813F
:1024900053810E942B421816DCF1C601B501A80138
:1024A00097010E949E409B01AC010E94234023EFB4
:1024B00034E045EB5FE30E94744220E030E040E806
:1024C0005EE30E94744220E030E04FE753E40E9454
:1024D00074427B018C0120E030E04FE753E40E941E
:1024E0002B421816ACF0C85AD74FA882B982CA82BC
:1024F000DB82C855D840C801B7010E940B419B013F
:10250000AC01CE0163E0422F0E94141280E001C0B2
:1025100088E0DF91CF911F910F91FF90EF90DF90B6
:10252000CF90BF90AF900895FC01E05AF74F4083E1
:1025300051836283738338974081518162817381B3
:10254000E855F840CF0120E00E94211208952F9213
:102550003F924F925F926F927F928F929F92AF9233
:10256000BF92CF92DF92EF92FF920F931F93DF9370
:10257000CF930F920F92CDB7DEB78C010C5A174F45
:1025800081E0F801808304551840F801EB5AF74FB9
:10259000118210822801AA24BB2428E2822E912CC9
:1025A0009CE6C92E98E0D92EC00ED11E3E0108949B
:1025B000611C711C1F01EA2CF8E1F9838FEF8A83FB
:1025C000F60160816A0DC201A30122E00E94381F5A
:1025D000F60160816A0DC201A30121E00E94191F6A
:1025E00089818F3F09F04AC0FF24F8E1FF0EF9828C
:1025F00088EEF80E1A82F60160816E0DC201A30109
:1026000022E00E94381FF60160816E0DC201A30115
:1026100021E00E94191F8981882381F5F8E0FF0ECF
:10262000F9828FEF8A83F60160816E0DC201A301EA
:1026300022E00E94381FF9EFFF0E85E0F816A9F698
:1026400080EC90E160E372E00E94953D80EC90E1C7
:10265000B5014AE050E00E94633D80EC90E16AE3FE
:1026600072E00E94923E940128523040F101808134
:1026700091818217930711F4918280820894A11CA2
:10268000B11C88E290E0880E991E98E0A916B1046A
:1026900009F091CF0B5A174FF801608171810555F0
:1026A000184080EC90E14AE050E00E94C53C80EC8C
:1026B00090E166E472E00E94923EC80140E050E47E
:1026C0006CE176E40E94CC0D0F900F90CF91DF91DA
:1026D0001F910F91FF90EF90DF90CF90BF90AF9040
:1026E0009F908F907F906F905F904F903F902F9032
:1026F00008952F923F924F925F926F927F928F92A6
:102700009F92AF92BF92CF92DF92EF92FF920F9380
:102710001F93DF93CF93CDB7DEB7AE970FB6F89484
:10272000DEBF0FBECDBF5C010E94BE1F85E361E02E
:102730000E942A3689E061E00E942A3689E060E042
:102740000E94DD3680E698E0A80EB91E80E090E099
:10275000A6E9B3E4F50180839183A283B38380EA81
:1027600097EFA80EB91EC50160E00E94B40E8BE67B
:10277000E82E88E0F82EEA0CFB1CC50160E0D701CA
:102780004C910E9414120EE6C02E08E0D02ECA0C06
:10279000DB1CC50161E0F60140810E9414121DE6B8
:1027A000812E18E0912E8A0C9B1CC50162E0D40199
:1027B0004C910E941412C50163E040E00E94141283
:1027C000D501ED91FC910680F781E02DC5011995A9
:1027D000BC0180EC90E10E94953D80EC90E16BE5BE
:1027E00072E00E94953DD501ED91FC910484F58540
:1027F000E02DC5011995BC0180EC90E10E94923E4C
:1028000080EC90E16EE572E00E94953DD501ED917E
:10281000FC910284F385E02DC5011995BC0180EC83
:1028200090E10E94923E80EC90E161E772E00E94AC
:10283000953DE5E6F8E0AE0EBF1ED5016D917D91A8
:102840005D0180EC90E14AE050E00E94C53C80ECE4
:1028500090E168E872E00E94953DF5016191719107
:102860005F0180EC90E14AE050E00E94C53C80ECC2
:1028700090E168E872E00E94953DD5016D917C91F0
:10288000E7E9F7EFAE0EBF1E80EC90E14AE050E0C2
:102890000E94D63C80EC90E16AE872E00E94953D8F
:1028A00080EC90E1D7016C914AE050E00E94053D38
:1028B00080EC90E160E972E00E94953D80EC90E14F
:1028C000F40160814AE050E00E94053D80EC90E117
:1028D00060EA72E00E94953D80EC90E1D6016C9137
:1028E0004AE050E00E94053D00E0B8E02B2E312C7C
:1028F0002C0E3D1E2E010894411C511CAFE06A2E87
:10290000712C6C0E7D1EFDE1CF2ED12CCC0EDD1E68
:10291000E6E1EE2EF12CEC0EFD1E74E2872E912CDA
:102920008C0E9D1ECCC0C10166EA72E00E94B13FD0
:10293000C201602F4AE00E94E43FC101B2010E943F
:102940007A3F68EA72E00E945E3F9EA78DA7C301AE
:10295000612F4AE00E94E43F8DA59EA5B3010E942D
:102960007A3F6CEB72E00E945E3FBC0180EC90E12C
:102970000E94A53EC3010E941640C2010E9416405B
:10298000C1010E941C40002339F0013081F040E079
:1029900050E060E070E019C0E12FF0E0EE0FFF1FA3
:1029A000EE0FFF1FEA0DFB1DE159F74F0AC0E12FA3
:1029B000F0E0EE0FFF1FEE0FFF1FEA0DFB1DE158C9
:1029C000F74F408151816281738180EC90E122E078
:1029D00030E00E947F3EC60166EA72E00E94B13F8D
:1029E000C701602F4AE00E94E43FC601B7010E9480
:1029F0007A3F6FEB72E00E945E3F9CA78BA7C401F9
:102A0000612F4AE00E94E43F8BA59CA5B4010E947F
:102A10007A3F6CEB72E00E945E3FBC0180EC90E17B
:102A20000E94A53EC4010E941640C7010E941640A4
:102A3000C6010E941C40002339F0013081F060E0A3
:102A400070E080E090E019C0E12FF0E0EE0FFF1F92
:102A5000EE0FFF1FEA0DFB1DE958F74F0AC0E12FEB
:102A6000F0E0EE0FFF1FEE0FFF1FEA0DFB1DE15719
:102A7000F74F608171818281938125EA34ED48E6C8
:102A800053E50E947442AB01BC0180EC90E122E06E
:102A900030E00E947C3E80EC90E164ED72E00E94A8
:102AA000923E1F5F002321F0013031F484E001C029
:102AB00082E0181708F437CF0F5F023011F010E0F2
:102AC000F1CF80EC90E168ED72E00E94953DECE67C
:102AD000F8E0AE0EBF1E80EC90E1D5016C914AE0AB
:102AE00050E00E94053D80EC90E165EF72E00E94AD
:102AF000953DE3E3F0E0AE0EBF1ED5014D915D9133
:102B00006D917D915D0180EC90E122E030E00E94CA
:102B10007F3E80EC90E165E073E00E94953DF50119
:102B200041915191619171915F0180EC90E122E0BE
:102B300030E00E947F3E80EC90E168E173E00E940B
:102B4000953DD5016C9180EC90E170E04AE050E059
:102B50000E94763D80EC90E161E373E00E94953D38
:102B6000EDEBFFEFAE0EBF1ED5016C9180EC90E156
:102B700070E04AE050E00E94763D80EC90E16DE428
:102B800073E00E94953DE4E4F0E0AE0EBF1ED50177
:102B90004D915D916D917D915D0180EC90E122E020
:102BA00030E00E947F3E80EC90E165E673E00E9499
:102BB000953DF50141915191619171915F0180ECD9
:102BC00090E122E030E00E947F3E80EC90E16DE7F2
:102BD00073E00E94953DF5014081518162817381CE
:102BE00080EC90E122E030E00E947F3EAE960FB68E
:102BF000F894DEBF0FBECDBFCF91DF911F910F9133
:102C0000FF90EF90DF90CF90BF90AF909F908F900C
:102C10007F906F905F904F903F902F9008952F92EC
:102C20003F924F925F926F927F928F929F92AF925C
:102C3000BF92CF92DF92EF92FF920F931F93DF9399
:102C4000CF93CDB7DEB765970FB6F894DEBF0FBE52
:102C5000CDBF3C01B62E23E538E0620E731E81E045
:102C6000D3018D933D018C91ECEAF7EF6E0E7F1E40
:102C7000882319F4C3010E94A712FFEABF1609F4C2
:102C800018C3FB15D8F126EAB21609F4FEC12B15BC
:102C9000D0F032EAB31609F40BC13B1548F040EA14
:102CA000B41609F467C051EAB51609F031C77AC005
:102CB00064EAB61609F49EC1F301E05CF74F6B15A8
:102CC00008F4D5C112C179EAB71609F44BC27B15D5
:102CD00048F087EAB81609F400C298EAB91609F074
:102CE00017C717C2ADEABA1609F47DC2AB1508F4CE
:102CF000B4C2BAEABB1609F00BC74BC2E6EBBE166C
:102D000009F4E5C4EB15D0F0F2EBBF1609F4EAC301
:102D1000FB1548F020EBB21609F418C331EBB316DB
:102D200009F0F6C683C344EBB41609F450C4F301AA
:102D3000E05CF74F4B1508F4ADC43BC45AEBB51635
:102D400009F452C65B1548F068EBB61609F48CC658
:102D500079EBB71609F0DCC6A4C684EFB81609F4FF
:102D6000FAC495EFB91609F415C6ABEBBA1609F01B
:102D7000CFC659C6E0E4F8E06E0E7F1ED3018D91F8
:102D80009C91E0ECF7EF6E0E7F1E830104591F4FFC
:102D9000892B09F027C6B3016B5A774FC30142E074
:102DA00050E023C120E438E0620E731ED3018D9100
:102DB0009C91E0ECF7EF6E0E7F1E830104591F4FCC
:102DC000892B09F00FC6D8011C926B8AA72CCC2442
:102DD000F301EB5AF74FFD8BEC8B5CE6252E58E0A8
:102DE000352E260C371C480154C048E0D42E29014A
:102DF000D1018C91B201680F711D81EE9DE00E949E
:102E00005D0A81EE9DE06D2D0E94DF0A81EE9DE05E
:102E10000E94220BF1018081B201680F711D81EEC9
:102E20009DE041E050E00E94330B81EE9DE00E9466
:102E3000670A892B21F181EE9DE00E94700A00E073
:102E400010E0E82EFF24C701002E02C0959587955B
:102E50000A94E2F721E030E082279327817089838A
:102E60008B899A2DBE016F5F7F4F41E050E00E9439
:102E7000D31D0F5F1F4F0830110529F704C0E1E093
:102E8000D401EC9305C0D394FDE0DF1609F0B0CF78
:102E9000C3942C2D30E0AC89BD898D919C9168E262
:102EA00070E00E9461442617370708F49ECF30C6B1
:102EB000F301E05CF74F25E538E0620E731E2081D8
:102EC0003181D3018D919C91EBEAF7EF6E0E7F1E5D
:102ED000830104591F4F2817390709F083C5C3011F
:102EE0000E947811D8011C9213C6808191810297AB
:102EF00009F003C6D301AB5BB74F8D919C9111973D
:102F000082599F4FF301E80FF91F0190F081E02DE6
:102F10008C5690408D939C9325E538E0620E731E8D
:102F2000D3018D919C912BEA37EF620E731EE81747
:102F3000F90728F04CE650E0640E751E75C2CF010B
:102F400068E270E00E9461446C01CF0168E270E0C9
:102F50000E946144062F10E09CE6E92E98E0F92ECD
:102F6000E60CF71CD7018C91B801680F711D81EE3A
:102F70009DE00E945D0AB60183E0769567958A958B
:102F8000E1F770E0685F7F4F81EE9DE00E94DF0A0D
:102F900081EE9DE00E94220BF7018081080F111D38
:102FA00081EE9DE0B80141E050E00E94330B81EEDC
:102FB0009DE00E94670A830104591F4F892BC1F0CD
:102FC00081EE9DE00E94700A90E02C2D277002C0D7
:102FD000959587952A95E2F7809581708983C3013D
:102FE000BE016F5F7F4F41E050E00E94D31D7ACF5A
:102FF00081E03AC020E438E0620E731ED3018D9167
:103000009C91E0ECF7EF6E0E7F1E039709F075C5FB
:10301000D301AB5BB74F8D919C911197FC01E259A5
:10302000FF4FE60DF71D60817181F301E80FF91F75
:10303000E059FF4F408103968D939C9325E538E03E
:10304000620E731ED3018D919C91EBEAF7EF6E0E29
:103050007F1E830104591F4F6817790720F4C301AD
:103060000E94D710BDC085E0F801808351C58081E2
:103070009181830104591F4F892B09F0B3C4D801F2
:103080001C9289E00E941037CCC420E438E0620E24
:10309000731ED3018D919C91E0ECF7EF6E0E7F1EB5
:1030A000019709F02AC5D301AB5BB74F8D919C9175
:1030B0001197F301E80FF91FE259FF4F6081019664
:1030C0008D939C93830104591F4F623020F489E053
:1030D0000E94DD3607CF88E0C7CF20E438E0620EDB
:1030E000731ED3018D919C91E0ECF7EF6E0E7F1E65
:1030F000830104591F4F892B09F074C4D8011C9215
:10310000B301685A774FC30144E050E00E94D31DD9
:10311000FFC420E438E0620E731ED3018D919C91B0
:10312000E0ECF7EF6E0E7F1E830104591F4F0497EA
:1031300009F058C4D301AB5BB74F8D919C911197A7
:1031400082599F4FF301E80FF91F4081518162813D
:1031500073818A5690408D939C93C30121E00E9415
:1031600021123EC020E438E0620E731ED3018D911F
:103170009C91E0ECF7EF6E0E7F1E830104591F4F08
:10318000892B09F02FC4D8011C92B301645A774FE0
:10319000BACF20E438E0620E731ED3018D919C916A
:1031A000E0ECF7EF6E0E7F1E830104591F4F04976A
:1031B00009F018C4D301AB5BB74F8D919C91119767
:1031C00082599F4FF301E80FF91F408151816281BD
:1031D00073818A5690408D939C93C3010E94CC0DBD
:1031E000D8018C9395C420E438E0620E731ED3019D
:1031F0008D919C91E0ECF7EF6E0E7F1E019709F028
:103200007CC4D301AB5BB74F8D919C911197F301B7
:10321000E80FF91FE259FF4F208101968D939C938F
:10322000830104591F4F223008F01DCF30E08BE19D
:1032300090E0289FF001299FF00D389FF00D112498
:10324000EF59F14F81818983D8011C92C301BE01DE
:103250006F5F7F4F41E050E059CF20E438E0620ECD
:10326000731ED3018D919C91E0ECF7EF6E0E7F1EE3
:10327000830104591F4F029709F0B4C3D301AB5B1C
:10328000B74F2D913C911197F301E20FF31FE259D3
:10329000FF4F80812F5F3F4FF301E20FF31FE25991
:1032A000FF4F60812F5F3F4F2D933C930E94952DE0
:1032B00097CF20E438E0620E731ED3018D919C916C
:1032C000E0ECF7EF6E0E7F1E019709F016C4D301F4
:1032D000AB5BB74F8D919C911197F301E80FF91FEC
:1032E000E259FF4F408101968D939C9383010459CD
:1032F0001F4F423008F0B7CED8011C92242F30E087
:103300008BE190E0289FF001299FF00D389FF00D90
:103310001124EF59F14FE181442321F0413009F0AC
:10332000BCC00AC0F0E0EE0FFF1FEE0FFF1FE60D5E
:10333000F71DE159F74FC9C0F0E0EE0FFF1FEE0F88
:10334000FF1FE60DF71DE158F74FBFC020E438E03E
:10335000620E731ED3018D919C91E0ECF7EF6E0E1F
:103360007F1E830104591F4F059709F098C3A301DD
:103370004B5B574FDA012D913C911197F301E20F0E
:10338000F31FE259FF4FE0812F5F3F4F2D933C9396
:1033900021503040D8011C92EE2321F0E13009F099
:1033A0003FC01AC0E091620EF0E021593F4FD301B7
:1033B000A20FB31FED90FD900D911C912A56304045
:1033C000DA012D933C93EE0FFF1FEE0FFF1FE60D6A
:1033D000F71DE159F74FE5C0E0917D0EF0E0B30134
:1033E0006B5B774FDB018D919C9182599F4FD3018D
:1033F000A80FB91F2D913D914D915C918A56904037
:10340000DB018D939C93EE0FFF1FEE0FFF1FE60D68
:10341000F71DE158F74F2083318342835383C5C0A2
:10342000ECE6F0E06E0E7F1E85E06CC3E0E4F8E0B1
:103430006E0E7F1ED3018D919C91E0ECF7EF6E0E26
:103440007F1E019709F059C3D301AB5BB74F8D9134
:103450009C911197F301E80FF91FE259FF4F40814A
:1034600001968D939C93830104591F4F423008F0BD
:10347000FACDD8011C92242F30E08BE190E0289FF8
:10348000F001299FF00D389FF00D1124EF59F14FF5
:10349000E181442339F0413079F080E090E0A0E010
:1034A000B0E017C0F0E0EE0FFF1FEE0FFF1FE60DBC
:1034B000F71DE958F74F09C0F0E0EE0FFF1FEE0FC0
:1034C000FF1FE60DF71DE157F74F80819181A28123
:1034D000B38189839A83AB83BC83C301BE016F5FD1
:1034E0007F4F12CE20E438E0620E731ED3018D911F
:1034F0009C91E0ECF7EF6E0E7F1E830104591F4F85
:10350000059709F0CCC2A3014B5B574FDA012D910F
:103510003C911197F301E20FF31FE259FF4FE08155
:103520002F5F3F4F2D933C9321503040D8011C9288
:10353000EE2321F0E13009F096CD1AC0E091620E41
:10354000F0E021593F4FD301A20FB31FED90FD9042
:103550000D911C912A563040DA012D933C93EE0FC9
:10356000FF1FEE0FFF1FE60DF71DE958F74F19C0BB
:10357000E0917D0EF0E021593F4FD301A20FB31F20
:10358000ED90FD900D911C912A563040DA012D935B
:103590003C93EE0FFF1FEE0FFF1FE60DF71DE157E7
:1035A000F74FE082F18202831383C3010E94A910C6
:1035B000AFC280819181830104591F4F892B09F08B
:1035C0006EC2F8011082B301605A774F9CCDE0E4DF
:1035D000F8E06E0E7F1ED3018D919C91E0ECF7EF29
:1035E0006E0E7F1E049709F088C2F301EB5BF74F64
:1035F0008081918182599F4FD301A80FB91FED900F
:10360000FD900D911C918A56904091838083C80152
:10361000B70120E030E040E050E00E942B42181655
:103620009CF524E638E0620E731ED3018C91ECE920
:10363000F7EF6E0E7F1E882379F020E638E0620EE9
:10364000731ED301ED92FD920D931C931397E0EA44
:10365000F7EF6E0E7F1E4AC22FE938E0620E731E2E
:10366000D301ED92FD920D931C931397E5ECFFEFC0
:103670006E0E7F1ED3011C92ECE9F7EF6E0E7F1EDB
:10368000C3010E94A91032C22CE630E0620E731E04
:1036900088E038C280819181830104591F4F892BB2
:1036A00009F0A0C1D8011C9210E0F301E156F74FD8
:1036B000608171818281938120E030E040E050E0C0
:1036C0000E949A4018160CF011E01983BFCD20E437
:1036D00038E0620E731ED3018D919C91E0ECF7EF00
:1036E0006E0E7F1E019709F008C2D301AB5BB74F86
:1036F0008D919C911197F301E80FF91FE259FF4F4B
:10370000208101968D939C93F301E156F74F22237C
:1037100049F080E090E0A0E0B0E080839183A28354
:10372000B38311C020E638E0620E731ED3012D91E1
:103730003D914D915C9160EA77EF660E771E208394
:10374000318342835383C3010E94A9108CE690E029
:10375000680E791ECFC120E438E0620E731ED301DB
:103760002D913C91E0ECF7EF6E0E7F1E2A30310573
:1037700008F4C3C1D301AB5BB74F8D919C911197F6
:10378000FC01E259FF4FE60DF71D40815181628136
:1037900073814F87588B698B7A8B049611969C9313
:1037A0008E930497FC01EE58FF4FE60DF71D6081E4
:1037B00071817E876D87FC01EC58FF4FE60DF71D88
:1037C000408151816281738149875A876B877C87E9
:1037D000F301E80FF91FE858FF4F10810B968D9306
:1037E0009C932B30310581F065E578E0660E771EFD
:1037F000D3018D919C91EBEAF7EF6E0E7F1E0B9635
:103800002817390709F0A7C12D853E852B54314073
:1038100008F0BAC06F85788989899A8920E030E0FC
:103820004AE754E40E949E4020E030E44CE157E433
:103830000E94744220E030E040E855E40E949A4043
:1038400088230CF0A1C06CE670E0660E771ED301F1
:103850001C92E4E9FFEF6E0E7F1EF301E05CF74F70
:1038600025E538E0620E731ED3018D919C912BEA01
:1038700037EF620E731E0B962081318128173907AE
:1038800019F4C3010E947811A12E0E945C341B011F
:103890002C014CE558E0640E751ED301CD90DD90EF
:1038A000ED90FC90E4EAF7EF6E0E7F1EF0E010FD65
:1038B000F1E0E0E0A1FCE1E06F85788989899A89EF
:1038C0004D855E8509851A852B853C85AF2E8E2E0C
:1038D0000E94E52D2CE630E0620E731ED3018C931E
:1038E000E4E9FFEF6E0E7F1E882309F011C10E94EC
:1038F0005C3462197309840995090E9437417B0180
:103900008C012D853E85B90180E090E00E94374111
:1039100020E030E04AE754E40E9474429B01AC018D
:10392000C801B7010E949E4069837A838B839C8380
:10393000C301BE016F5F7F4F44E050E00E94D31D82
:10394000C30168E77EE044E050E00E94D31DC3015C
:1039500063E97EE044E050E00E94D31D40E658E079
:10396000640E751EF30180819181A281B38120EAEA
:1039700037EF620E731E8D839E83AF83B887C301BA
:10398000BE016B5F7F4FC0CB4CE650E0640E751EEE
:1039900081E0B8C020E438E0620E731ED3018D913F
:1039A0009C91E0ECF7EF6E0E7F1E830104591F4FD0
:1039B0000197C1F4D8011C92D301AB5BB74F8D9135
:1039C0009C911197F301E80FF91FE259FF4F2081F5
:1039D00001968D939C9360E0211161E0C3010E94E8
:1039E000B40E96C086E040CB20E438E0620E731E31
:1039F000D3018D919C91E0ECF7EF6E0E7F1E830159
:103A000004591F4F892B09F04AC0D8011C92E2E5E6
:103A1000F8E06E0E7F1ED3018C91EEEAF7EF6E0E8A
:103A20007F1E898313CCE0E4F8E06E0E7F1ED30185
:103A30008D919C91E0ECF7EF6E0E7F1E019709F0DF
:103A40005CC0D301AB5BB74F8D919C911197F30193
:103A5000E80FF91FE259FF4F208101968D939C9347
:103A6000F301EE5AF74F3CC020E438E0620E731EBB
:103A7000D3018D919C91E0ECF7EF6E0E7F1E8301D8
:103A800004591F4F892B59F4D8011C92E3E5F8E043
:103A90006E0E7F1ED3018C91EDEAF7EFC0CF86E06A
:103AA0009FCBE0E4F8E06E0E7F1ED3018D919C91D8
:103AB000E0ECF7EF6E0E7F1E0197F9F4D301AB5BDC
:103AC000B74F8D919C911197F301E80FF91FE259BF
:103AD000FF4F208101968D939C93F301ED5AF74F90
:103AE000222319F081E0808301C010822CE630E0AF
:103AF000620E731ED3011C9207C02CE630E0620EEA
:103B0000731E86E0D3018C93E4E9FFEF6E0E7F1EF7
:103B1000C3016B2D0E9452222CE630E0620E731E10
:103B2000D3018C9165960FB6F894DEBF0FBECDBF62
:103B3000CF91DF911F910F91FF90EF90DF90CF9089
:103B4000BF90AF909F908F907F906F905F904F90BD
:103B50003F902F900895ECE6F0E06E0E7F1ED1CFDF
:103B6000FC0184E794E091838083CF010E94CD1D06
:103B700008950F931F938C0161E00E945D2084E7FC
:103B800094E0F801918380830E5A174FF801119247
:103B900010821F910F9108950895FC018BE994E024
:103BA0009183808308950F931F93CF93DF938C01AC
:103BB00020E030E0EC01C95BD74F10C0F801E20F04
:103BC000F31F88819981E80FF91FE259FF4FDB014C
:103BD000A20FB31F8C9180832F5F3F4F24173507AF
:103BE00068F388819981840F951F99838883DF9179
:103BF000CF911F910F910895CF93DF93DC01FC01CA
:103C0000E359FF4F6081EC01C459DF4F67FF0EC0DD
:103C10006058608382E08883ED91FC911197605831
:103C20000488F589E02DCD0119950EC0FC01E05CFA
:103C3000F74F80819181A80FB91FA359BF4F2C91D5
:103C40002883019791838083DF91CF910895CF934B
:103C5000DF93EC01FC01E75BF74F6D3719F481E06E
:103C60008083DAC09081992311F080E268276E3753
:103C700049F4992339F4CD5BD74F19821882C35484
:103C8000D840C4C0CD5BD74F28813981C354D840B8
:103C900021153105A1F4C359DF4F6883C152D84FB4
:103CA0008881CC54D840882309F448C0C15BD74FE1
:103CB0008FEF9FEF99838883CF54D8403FC0213046
:103CC0003105B1F4DE01AE5BB74FFE01E05CF74FAA
:103CD00067FF09C083E08C93862F90E08F77907008
:103CE000108281832BC082E08C936083118226C076
:103CF0002230310589F4CE5BD74F8881C254D84039
:103D0000833051F4FE01E05CF74F80819181860F92
:103D1000911D9183808312C0CE5BD74F8881F901BA
:103D2000E81BF1099A918A91C054D840E817F90725
:103D300028F4EC0FFD1FE259FF4F6083C45BD74F9F
:103D40008881CC54D8408823F1F0FE01E15BF74F25
:103D5000808191818627282F22952827022E26955B
:103D600026952025022E269520252770082E892F9E
:103D7000269507942795902D8227069427959025C0
:103D8000822791838083FE01ED5BF74F4081518153
:103D90004F5F5F4F51834083CE5BD74F88813A910D
:103DA0002A91280F311D2C966881CC54D840862F3B
:103DB00090E0880F991F280F391F4217530731F5DC
:103DC00011821082CB5BD74F1992199219821882F7
:103DD000C754D840662341F0C15BD74F8881998191
:103DE000CF54D840892B19F4CE010E94FC1DFE014E
:103DF000E55BF74F9081992349F0C359DF4F905805
:103E00008881CD56D040891709F41082FE01E75B06
:103E1000F74F808181111082DF91CF91089585E95C
:103E20009DE00E94DC07089585E99DE00E94D5078A
:103E300008951F93CF93DF93EA0181EE9DE0422F17
:103E40000E94370B10E009C081EE9DE00E94700ACD
:103E5000FE01E10FF11D80831F5F81EE9DE00E9456
:103E6000670A892B89F7812FDF91CF911F910895E0
:103E7000FF920F931F93CF93DF93142F052FF22EF2
:103E800081EE9DE00E94530A212F302FC901EC01E1
:103E900010E006C081EE9DE069910E94DF0A1F5F7D
:103EA0001F15C0F381EE9DE00E94220BDF91CF91A0
:103EB0001F910F91FF900895DF92EF92FF920F9361
:103EC0001F93DF93CF930F92CDB7DEB77C01D62E31
:103ED00088E089838701095B174F43C081EE9DE02D
:103EE0000E94530A81EE9DE00E94220B8823B1F5C7
:103EF000DD2071F0F80180819181F701E80FF91F51
:103F0000E259FF4F298120830196F8019183808334
:103F100080EC90E165E973E00E94953D80EC90E1D2
:103F200069814AE050E00E94F33C80EC90E169EA4C
:103F300073E00E94953D80EC90E1698140E150E0A2
:103F40000E94F33C80EC90E16EEA73E00E94923EA6
:103F500061E070E080E090E00E94823489818F5FB0
:103F600089836981683708F4B9CF0F90CF91DF91C9
:103F70001F910F91FF90EF90DF900895AF92BF9245
:103F8000CF92DF92EF92FF920F931F93DF93CF9325
:103F900000D00F92CDB7DEB77C016E010894C11C32
:103FA000D11C56010FE010E0D701ED91FC91008883
:103FB000F189E02DC701B8011995F50181935F01E1
:103FC0000F5F1F4F0331110579F789819A81AB810A
:103FD000BC818F5F9F4FAF4FBF4FD9F480E092EC11
:103FE000A1E0B0E089839A83AB83BC830FE010E04B
:103FF000D701ED91FC910288F389E02DC701B8014A
:10400000D6014D916D0119950F5F1F4F03311105B9
:1040100079F749815A816B817C8180EC90E10E9423
:10402000853981EE9DE00E943B0B0E94110A0E949F
:104030000B07870108591F4FF80160837183828342
:10404000938380EC90E160EB73E00E94953DD80192
:104050004D915D916D917C9180EC90E122E030E09A
:104060000E947C3E80EC90E162EC73E00E94923E04
:104070000F900F900F900F90CF91DF911F910F91A4
:10408000FF90EF90DF90CF90BF90AF900895CF93C7
:10409000DF93EC0108C080EC90E10E943D3A682F6C
:1040A000CE010E94271E80EC90E10E940C3A181667
:1040B00019068CF3DF91CF9108957F928F929F9292
:1040C000AF92BF92CF92DF92EF92FF920F931F9326
:1040D000CF93DF93FC018BE994E091838083E45BD1
:1040E000F74F608339971182108236961082399784
:1040F00011821082359611921192118210823A9695
:104100001082AA24BB248824992485E99DE0B50166
:104110000E94D507182FB501695F7F4F85E99DE0A3
:104120000E94D507E401EE24FF24C12EDD24C094B3
:10413000D094082F10E000951095C633D105B4F443
:10414000B6010E2C02C0759567950A94E2F761706E
:104150008C2F0E942A36B8010E2C02C075956795E7
:104160000A94E2F761708C2F0E94DD360894E11CFE
:10417000F11C219688E0E816F104F9F60894A11CD8
:10418000B11C88E090E0880E991E97E0A916B10452
:1041900009F0BBCFDF91CF911F910F91FF90EF906E
:1041A000DF90CF90BF90AF909F908F907F900895B9
:1041B0001F93162F862F8D57823050F480EC90E19C
:1041C0006DE70E94763A60E2612780EC90E102C0E0
:1041D00080EC90E10E94763A1F9108958F929F9211
:1041E000AF92BF92CF92DF92EF92FF920F931F9305
:1041F000CF93DF93EC01BEE6EB2EF12CE80EF91E17
:1042000000E010E0A0E48A2EA8E09A2E880E991E05
:10421000FCE4AF2EF8E0BF2EA80EB91EEDE4CE2EC2
:10422000E8E0DE2EC80ED91E2AC0F5018081882361
:10423000F1F0F7012081F601808191818227282FFA
:1042400022952827022E269526952025022E269592
:1042500020252770082E892F269507942795902DC5
:104260008227069427959025822791838083CE010B
:10427000F70161917F010E94D8200F5F1F4FF40169
:10428000808191810817190708F4CFCFF50180814B
:10429000882369F08E01035B174FCE01F80160811E
:1042A0000E94D820F8016181CE010E94D820C05C14
:1042B000D74F19821882279619821882DF91CF91E1
:1042C0001F910F91FF90EF90DF90CF90BF90AF9034
:1042D0009F908F9008950F931F93CF93DF93EC01DE
:1042E000062FFC01E05CF74FC95BD74F88819981AD
:1042F0009183808380EC90E16EE70E94763A259668
:104300008881CC54D8408823F9F0C35BD74F8FEF16
:104310009FEF8027282F22952827022E2695269565
:104320002025022E269520252770082E892F2695D8
:1043300007942795902D822706942795902582270C
:1043400099838883CD54D840CE01602F0E94D82015
:10435000DE01A05CB74F2D913C911197FE01E45B0B
:10436000F74F2038310530F580818823F1F0FE01C8
:10437000E35BF74F808191818227282F22952827A0
:10438000022E269526952025022E2695202527707B
:10439000082E892F269507942795902D822706941D
:1043A00027959025822791838083CE01C05CD74FCB
:1043B000688149C08081882309F437C03068FE01D4
:1043C000E35BF74F808191818327282F229528274F
:1043D000022E269526952025022E2695202527702B
:1043E000082E892F269507942795902D82270694CD
:1043F0002795902582272C918227282F22952827E0
:10440000022E269526952025022E269520252770FA
:10441000082E892F269507942795902D822706949C
:10442000279590258227918380838E01005C174F0A
:10443000F801208131813068CE01632F0E94D8209D
:10444000CE01F80160810E94D820DF91CF911F91A9
:104450000F9108950F931F93DF93CF930F92CDB7D2
:10446000DEB78C016983DC01A95BB74F8D919C910C
:104470001197F801E80FF91FE259FF4F6083019689
:104480008D939C93F801E359FF4FC80160810E940E
:104490006B21C8010E94EE200F90CF91DF911F91F8
:1044A0000F9108956F927F929F92AF92BF92CF9299
:1044B000DF92EF92FF920F931F93DF93CF93CDB7CD
:1044C000DEB76C970FB6F894DEBF0FBECDBF7C0190
:1044D0006DB67EB670E0CB01805890408F3191056B
:1044E00008F0D5C68E589F4FD701A05CB74FFC018E
:1044F000EE0FFF1F0590F491E02D19948D919C9182
:10450000892B09F0F6C5D701ED91FC910280F3816A
:10451000E02DC70119958C01D701ED91FC91028026
:10452000F381E02DC7011995DC010D900020E9F71A
:10453000AD0141505040481B590B20E030E0B7011D
:10454000695B774F11C0F701E20FF31FDB018D911B
:104550009C91E80FF91FE259FF4FD801A20FB31F3A
:104560008C9180832F5F3F4F2417350760F35BC129
:104570008D919C91892B09F0BCC5D701ED91FC91DF
:104580000480F581E02DC70119958C01D701ED91CB
:10459000FC910480F581E02DC7011995DC010D9097
:1045A0000020E9F7AD0141505040481B590B20E075
:1045B00030E0B701695B774F11C0F701E20FF31FDD
:1045C000DB018D919C91E80FF91FE259FF4FD80153
:1045D000A20FB31F8C9180832F5F3F4F24173507A5
:1045E00060F321C18D919C91892B09F082C5D7017F
:1045F000ED91FC910680F781E02DC70119958C01A2
:10460000D701ED91FC910680F781E02DC701199546
:10461000DC010D900020E9F7AD0141505040481BEE
:10462000590B20E030E0B701695B774F11C0F7010B
:10463000E20FF31FDB018D919C91E80FF91FE25906
:10464000FF4FD801A20FB31F8C9180832F5F3F4F84
:104650002417350760F3E7C08D919C91892B09F0F1
:1046600048C5D701ED91FC910084F185E02DC7018B
:1046700019958C01D701ED91FC910084F185E02D15
:10468000C7011995DC010D900020E9F7AD014150FB
:104690005040481B590B20E030E0B701695B774F71
:1046A00011C0F701E20FF31FDB018D919C91E80F20
:1046B000F91FE259FF4FD801A20FB31F8C918083DD
:1046C0002F5F3F4F2417350760F3ADC08D919C914C
:1046D000892B09F00EC5D701ED91FC910284F38579
:1046E000E02DC70119958C01D701ED91FC91028451
:1046F000F385E02DC7011995DC010D900020E9F745
:10470000AD0141505040481B590B20E030E0B7014B
:10471000695B774F11C0F701E20FF31FDB018D9149
:104720009C91E80FF91FE259FF4FD801A20FB31F68
:104730008C9180832F5F3F4F2417350760F373C040
:104740008D919C91892B09F0D4C4D701ED91FC91F6
:104750000484F585E02DC70119958C01D701ED91F1
:10476000FC910484F585E02DC7011995DC010D90BD
:104770000020E9F7AD0141505040481B590B20E0A3
:1047800030E0B701695B774F11C0F701E20FF31F0B
:10479000DB018D919C91E80FF91FE259FF4FD80181
:1047A000A20FB31F8C9180832F5F3F4F24173507D3
:1047B00060F339C08D919C91892B09F09AC4D7017F
:1047C000ED91FC910684F785E02DC70119958C01C8
:1047D000D701ED91FC910684F785E02DC70119956D
:1047E000DC010D900020E9F7AD0141505040481B1D
:1047F000590B20E030E0B701695B774F11C0F7013A
:10480000E20FF31FDB018D919C91E80FF91FE25934
:10481000FF4FD801A20FB31F8C9180832F5F3F4FB2
:104820002417350760F3FB0180819181840F951F68
:104830005DC48D919C91892B09F05BC420E030E030
:10484000B701695B774FF701E20FF31FDB014D9171
:104850005C91E40FF51FE259FF4FD901A457BB4FFC
:104860008C9180832F5F3F4F2A30310561F7465F7F
:104870005F4F1FC28D919C91870104591F4F029772
:1048800009F0D6C3D701AB5BB74F2D913C9111977F
:10489000F701E20FF31FE259FF4F80812F5F3F4F77
:1048A000F701E20FF31FE259FF4F60812F5F3F4F87
:1048B0002D933C930E942A36B8C38D919C91870119
:1048C00004591F4F029709F0B3C3D701AB5BB74F31
:1048D0002D913C911197F701E20FF31FE259FF4F21
:1048E00080812F5F3F4FF701E20FF31FE259FF4F27
:1048F00060812F5F3F4F2D933C930E94DD3695C31F
:104900008D919C91870104591F4F019709F090C325
:10491000D701AB5BB74F2D913C911197F701E20F97
:10492000F31FE259FF4F80812F5F3F4F2D933C9340
:104930000E9410378983D701A95BB74F2D913C9115
:104940001197F701E20FF31FE259FF4F80832F5FAA
:104950003F4F2D933C9369C38D919C9187010459DE
:104960001F4F029709F064C3D701AB5BB74F2D917E
:104970003C911197F701E20FF31FE259FF4F80813D
:104980002F5F3F4F11963C932E9322593F4FF701D3
:10499000E20FF31F608171812C5630402D933C93C0
:1049A0000E944A3542C32CE630E0E20EF31E86E058
:1049B000F701808324E93FEFE20EF31E2D913C9135
:1049C0002230310508F463C4ADB69EB6D701AB5BA7
:1049D000B74F8D919C911197F701E80FF91FE2599C
:1049E000FF4FB08001968D939C938DB79EB78B1926
:1049F00091090FB6F8949EBF0FBE8DBFCDB6DEB63F
:104A00000894C11CD11C2230310519F491E0B9166B
:104A1000D9F08B2D90E003962817390709F096C03E
:104A200013C08D919C911197F701E80FF91FE2597E
:104A3000FF4F2081019611969C938E93F601E30F10
:104A4000F11D20833F5F04C030E0D701AB5BB74F5F
:104A50003B1538F3A0E4B8E0EA0EFB1EF7018081B5
:104A6000918120EC37EFE20EF31E029701F1F7017E
:104A7000EB5BF74F8081918182599F4FD701A80F3F
:104A8000B91F0D911C918C5690409183808333E027
:104A9000093E130770F08CE690E0E80EF91E89E0FD
:104AA000D7018C93E4E9FFEFEE0EFF1E4FC001E04B
:104AB00010E02CE630E0E20EF31ED7011C921093BA
:104AC0007D0D00937C0DE2E0F0E0EE0EFF1EF09213
:104AD000790DE092780D22E93FEFE20EF31E80E0BF
:104AE0000E94500531E0B31629F4D6018C910E9442
:104AF0006A0512C0D092800DC0927F0DB092820DD7
:104B00001092830D8DEA95E09093850D8093840D2E
:104B1000F60180810E9493050E949F0720917C0DE1
:104B200030917D0D80917A0D90917B0D82179307C6
:104B3000C9F70E944D07F701E95BF74F000F111FFE
:104B400080819181080F191F118300838A2D992D6F
:104B50009C010FB6F8943EBF0FBE2DBF98C38D9138
:104B60009C91870104591F4F039709F08DC3D7010A
:104B7000AB5BB74F8D919C911197FC01E259FF4FB0
:104B8000EE0DFF1D60817181F701E80FF91FE059FB
:104B9000FF4F408103968D939C93D701ED91FC913B
:104BA0000288F389E02DC70119956BC38D919C9103
:104BB000870104591F4F029709F066C3D701AB5B09
:104BC000B74F8D919C91119782599F4FF701E80F34
:104BD000F91F608171818C5690408D939C93D70111
:104BE000ED91FC910088F189E02DC7011995898329
:104BF000D701A95BB74F2D913C911197F701E20FB7
:104C0000F31FE259FF4F80832F5F3F4F2CC38D91DD
:104C10009C91029709F06DC2D701AB5BB74F8D91A4
:104C20009C911197F701E80FF91FE259FF4F60813E
:104C30000196F701E80FF91FE259FF4FA080019696
:104C40008D939C938E01015F1F4FC8010E94BC0988
:104C5000C8010E94E807DD24B02EC12E8E01095F35
:104C60001F4F8B2D9C2DB8010E942609D394AD14A3
:104C7000C0F7882341F120E030E0B701695B774F4E
:104C80008E01095F1F4FF701E20FF31FDB014D910A
:104C90005C91E40FF51FE259FF4FD801A20FB31F3B
:104CA0008C9180832F5F3F4F2830310561F7485F3B
:104CB0005F4FFB01518340832CE630E0E20EF31E90
:104CC000D7011C92A6C22CE630E0E20EF31E85E06E
:104CD0009EC28D919C910B9709F00BC2D701AB5BE3
:104CE000B74F8D919C911197F701E80FF91FE25989
:104CF000FF4F6081019611969C938E9347E0C42EDE
:104D0000D12CCC0EDD1EAD01C601BC2CA92E8E010E
:104D1000015F1F4FFA0180819181F701E80FF91FB0
:104D2000E259FF4F20810196FA0191838083F601B9
:104D300021936F01E017F10769F78D919C9111970D
:104D4000F701E80FF91FE259FF4F10810196F701B3
:104D5000E80FF91FE259FF4F008101968D939C9354
:104D6000C6010E94BC09C6010E94DB08C6016B2D6A
:104D70007A2D0E94BA08C601612F40E00E947A088D
:104D800010E03FE0A32EB12CAC0EBD1E27E4C22ED6
:104D900028E0D22ECE0CDF1C13C0C5010E942908CA
:104DA0008983D6012D913C911197F701E20FF31FF2
:104DB000E259FF4F80832F5F3F4F2D933C931F5F3E
:104DC000101758F3ECE6F0E0EE0EFF1E79CF8D9150
:104DD0009C910B9709F08DC1D701AB5BB74F8D91BB
:104DE0009C911197F701E80FF91FE259FF4F60817D
:104DF000019611969C938E9397E0C92ED12CCC0EE0
:104E0000DD1EAD01C601BC2CA92E8E01015F1F4F16
:104E1000FA0180819181F701E80FF91FE259FF4FF4
:104E200020810196FA0191838083F60121936F011D
:104E3000E017F10769F78D919C911197F701E80F41
:104E4000F91FE259FF4F00810196F701E80FF91FA2
:104E5000E259FF4F108101968D939C93C6010E94E9
:104E6000BC09C6010E94DB08C6016B2D7A2D0E9489
:104E7000BA08C601602F412F0E947A081DCF8D917C
:104E80009C91029709F0BEC1D701AB5BB74F8D91E2
:104E90009C911197F701E80FF91FE259FF4F6081CC
:104EA0000196F701E80FF91FE259FF4FC080019604
:104EB0008D939C9381EE9DE04C2D0E94370BDD2459
:104EC0008701095B174F14C081EE9DE00E94700AB4
:104ED0008983D8012D913C911197F701E20FF31FBF
:104EE000E259FF4F80832F5F3F4F2D933C93D39424
:104EF00081EE9DE00E94670A892B31F787010459F2
:104F00001F4FDC1409F4BDC181E0BFC18D919C919C
:104F1000029708F4EEC087010B5B174FD8018D9103
:104F20009C911197F701E80FF91FE259FF4F60813B
:104F300001968D939C9381EE9DE00E94530ADD249F
:104F400080E4A82E88E0B82EAE0CBF1C12C0F80179
:104F500080819181F701E80FF91FE259FF4F6081CD
:104F60000196D8018D939C9381EE9DE00E94DF0A0B
:104F7000D3942D2D30E0F501808191810197281780
:104F8000390728F381EE9DE00E94220B95CE8D918A
:104F90009C91870104591F4F019709F049C0D7011F
:104FA000AB5BB74F2D913C911197F701E20FF31FC7
:104FB000E259FF4F80812F5F3F4F2D933C930E941A
:104FC000F20933C08D919C91870104591F4F0197BD
:104FD00079F5D701AB5BB74F2D913C911197F70154
:104FE000E20FF31FE259FF4F80812F5F3F4F2D9358
:104FF0003C930E94000A19C08D919C91870104592D
:105000001F4F0197A9F4D701AB5BB74F2D913C918E
:105010001197F701E20FF31FE259FF4F80812F5FD5
:105020003F4F2D933C930E94FB09D8011C922FC146
:1050300086E0F80180832BC18D919C91019709F046
:1050400058C0D701AB5BB74F8D919C911197F70179
:10505000E80FF91FE259FF4F208101968D939C9331
:105060002EBD0DB407FEFDCF2EB52983D701A95B58
:10507000B74F8D919C911197F701E80FF91FE259F5
:10508000FF4F208301968D939C9316CE8D919C911A
:10509000892B79F526E630E0E20EF31ED7016D91FB
:1050A0007C91EAE9FFEFEE0EFF1E870120E030E081
:1050B000A701495B574F10C0F701E20FF31FDA0158
:1050C0008D919C91E80FF91FE259FF4FD80111967D
:1050D0008C9180832F5F3F4F0F5F1F4F261737073D
:1050E00058F3FA0180819181860F971F9183808305
:1050F000E3CD2CE630E0E20EF31E88C08D919C914A
:10510000870104591F4F892B09F0BEC08091880D7B
:105110009091890DA0918A0DB0918B0D8B839C830A
:10512000AD83BE83DE011396A701495B574FFA0199
:1051300020813181F701E20FF31FE259FF4F8B818C
:1051400083C08D919C91870104591F4F049709F0EA
:105150009BC0D701AB5BB74F2D913C911197225962
:105160003F4FF701E20FF31F6081718182819381CC
:105170002A5630402D933C930E94AC0482C08D91FE
:105180009C91870104591F4F892B09F07DC00E9413
:10519000A50489839A83D701A95BB74F2D913C91D0
:1051A0001197F701E20FF31FE259FF4F81938A81B4
:1051B00080832E5F3F4F57C08D919C91029711F5D0
:1051C000D701AB5BB74F8D919C91119782599F4F3F
:1051D000F701E80FF91F0190F081E02D8C56904007
:1051E0008D939C93CF010297870104591F4F069717
:1051F00038F48E2F0E949C0480E00E945C0541C020
:1052000085E043C0ECE6F0E0EE0EFF1E86E0D7013D
:105210008C93E4E9FFEFEE0EFF1E39C08D919C9157
:10522000870104591F4F892B79F5D701A859BF4F22
:10523000A701495B574FFA0120813181F701E20F45
:10524000F31FE259FF4F8C91819311968C91119726
:10525000819312968C911297819313968C918083EF
:105260002C5F3F4FDA012D933C930BC08D919C91A5
:10527000870104591F4F892B39F4C70161E00E944F
:105280005C1FF801108203C086E0D8018C9387016F
:1052900004591F4FC701F80160810E942A22D801DA
:1052A0008C910FB6F8947EBE0FBE6DBE6C960FB695
:1052B000F894DEBF0FBECDBFCF91DF911F910F914C
:1052C000FF90EF90DF90CF90BF90AF909F907F9036
:1052D0006F9008951092620E10927D0E08952F9295
:1052E0003F924F925F926F927F928F929F92AF9276
:1052F000BF92CF92DF92EF92FF920F931F93DF93B3
:10530000CF93CDB7DEB764970FB6F894DEBF0FBE6C
:10531000CDBF2F83388749875A87EB86FC860D8758
:105320001E87D88ACF86BA8AA98A0E94744220E052
:1053300030E04AE754E40E949E409B01AC010E9489
:1053400023405B016C0120E030E040E050E00E942F
:105350002B4288234CF0C601B50120E030E040E04C
:105360005FE30E94234008C0C601B50120E030E0A1
:1053700040E05FE30E9422400E9406410E943941C2
:1053800020E030E040E05FE30E9474426B837C8366
:105390008D839E836B817C818D819E812F81388559
:1053A00049855A850E949E402B853C854D855E85AA
:1053B0000E9474420E9487400E940B417A83698355
:1053C00084C329813A81B90180E090E00E9437418D
:1053D0002B813C814D815E810E949E402F813885CA
:1053E00049855A850E9474423B014C01EF85F8893A
:1053F00060837183828393832B853C854D855E8595
:105400000E942B4218160CF45BC3C401B3012F8118
:10541000388549855A850E949E407B018C0160E059
:1054200070E080E090E4A80197010E949E405B013B
:105430006C0120E030E040E050E00E942B428823E5
:105440004CF0C601B50120E030E040E05FE30E948F
:10545000234008C0C601B50120E030E040E05FE332
:105460000E9422400E9406410E943941A8019701F2
:105470000E9474429B01AC0160E070E080E090E427
:105480000E94224020E030E040E050E00E942B42A9
:105490001816A4F5C601B50120E030E040E050E068
:1054A0000E942B4288234CF0C601B50120E030E079
:1054B00040E05FE30E94234008C0C601B50120E040
:1054C00030E040E05FE30E9422400E9406410E94DB
:1054D0003941A80197010E9474429B01AC0160E030
:1054E00070E080E090E40E9422402DEC3CEC4CEC1B
:1054F0005DE30E949A4087FDE3C234C0C601B50156
:1055000020E030E040E050E00E942B4288234CF045
:10551000C601B50120E030E040E05FE30E94234097
:1055200008C0C601B50120E030E040E05FE30E9422
:1055300022400E9406410E943941A80197010E9421
:1055400074429B01AC0160E070E080E090E40E9456
:1055500022402DEC3CEC4CEC5DEB0E942B421816EB
:105560000CF4AEC26F81788589859A859B01AC0168
:105570000E9423409B01AC01C401B3010E949A40E8
:1055800088230CF079C16F81788589859A85A4017B
:1055900093010E949E401B012C011C8A1B8A2B89AF
:1055A0003C89B90180E090E00E9437415B016C01C9
:1055B000C201B101A60195010E94224020E030E025
:1055C00040E05FE30E949A40181634F48B899C896E
:1055D00001969C8B8B8BE3CFC601B501A40193018F
:1055E0000E9474429B01AC016F81788589859A8500
:1055F0000E9422405B016C0120E030E040E050E07E
:105600000E942B42181624F0D7FAD094D7F8D094E1
:10561000C401B301A60195010E949E403B014C01CB
:1056200060E070E080E090E4A40193010E949E405D
:105630005B016C0120E030E040E050E00E942B4232
:1056400088234CF0C601B50120E030E040E05FE384
:105650000E94234008C0C601B50120E030E040E0D0
:105660005FE30E9422400E9406410E943941A4014A
:1056700093010E9474429B01AC0160E070E080E005
:1056800090E40E94224020E030E040E050E00E94A0
:105690002B421816A4F5C601B50120E030E040E029
:1056A00050E00E942B4288234CF0C601B50120E057
:1056B00030E040E05FE30E94234008C0C601B5012E
:1056C00020E030E040E05FE30E9422400E9406417B
:1056D0000E943941A40193010E9474429B01AC01D4
:1056E00060E070E080E090E40E9422402DEC3CEC11
:1056F0004CEC5DE30E949A408823ACF5E1C1C60101
:10570000B50120E030E040E050E00E942B428823C9
:105710004CF0C601B50120E030E040E05FE30E94BC
:10572000234008C0C601B50120E030E040E05FE35F
:105730000E9422400E9406410E943941A401930127
:105740000E9474429B01AC0160E070E080E090E454
:105750000E9422402DEC3CEC4CEC5DEB0E942B4275
:1057600018160CF4ADC1C801B70120E030E040E0EC
:1057700050E00E942B4288234CF0C801B70120E082
:1057800030E040E05FE30E94234008C0C801B70159
:1057900020E030E040E05FE30E9422400E940641AA
:1057A0000E9439419B01AC01C801B7010E9422400F
:1057B00020E030E040E050E00E942B42181674F5E3
:1057C000C801B70120E030E040E050E00E942B42E9
:1057D00088234CF0C801B70120E030E040E05FE3EF
:1057E0000E94234008C0C801B70120E030E040E03B
:1057F0005FE30E9422400E9406410E9439419B01C2
:10580000AC01C801B7010E94224027E137EB41ED0E
:1058100058E30E949A4088237CF552C1C801B70121
:1058200020E030E040E050E00E942B4288234CF022
:10583000C801B70120E030E040E05FE30E94234070
:1058400008C0C801B70120E030E040E05FE30E94FB
:1058500022400E9406410E9439419B01AC01C801CF
:10586000B7010E94224027E137EB41ED58EB0E943F
:105870002B4218160CF424C1C801B70120E030E017
:1058800040E251E40E949A4088230CF089C0C8018C
:10589000B70120E030E040E050E00E942B42882336
:1058A0004CF0C801B70120E030E040E05FE30E9427
:1058B000234008C0C801B70120E030E040E05FE3CA
:1058C0000E9422400E9406410E9439419B01AC0186
:1058D000C801B7010E94224020E030E040E050E0E3
:1058E0000E942B42181674F5C801B70120E030E081
:1058F00040E050E00E942B4288234CF0C801B701E1
:1059000020E030E040E05FE30E94234008C0C8018F
:10591000B70120E030E040E05FE30E9422400E94B7
:1059200006410E9439419B01AC01C801B7010E94A8
:10593000224027E137EB41ED58E30E949A4088234B
:105940007CF5BEC0C801B70120E030E040E050E087
:105950000E942B4288234CF0C801B70120E030E0C0
:1059600040E05FE30E94234008C0C801B70120E087
:1059700030E040E05FE30E9422400E9406410E9426
:1059800039419B01AC01C801B7010E94224027E1C7
:1059900037EB41ED58EB0E942B4218160CF490C0E7
:1059A000C801B7012B813C814D815E810E94744208
:1059B0005B016C0120E030E040E050E00E942B42AF
:1059C00088234CF0C601B50120E030E040E05FE301
:1059D0000E94234008C0C601B50120E030E040E04D
:1059E0005FE30E9422400E9406410E9439419B01D0
:1059F000AC01C601B5010E94224020E030E040E049
:105A000050E00E942B42181674F5C601B50120E043
:105A100030E040E050E00E942B4288234CF0C60169
:105A2000B50120E030E040E05FE30E94234008C081
:105A3000C601B50120E030E040E05FE30E94224073
:105A40000E9406410E9439419B01AC01C601B5018B
:105A50000E94224027E137EB41ED58E30E949A4033
:105A6000882374F543C0C601B50120E030E040E072
:105A700050E00E942B4288234CF0C601B50120E083
:105A800030E040E05FE30E94234008C0C601B5015A
:105A900020E030E040E05FE30E9422400E940641A7
:105AA0000E9439419B01AC01C601B5010E94224010
:105AB00027E137EB41ED58EB0E942B421816B4F06A
:105AC000E981FA813197FA83E98329813A81223089
:105AD000310508F076CC6B817C818D819E8120E040
