:100000000C944B010C947C010C947C010C947C01AD
:100010000C947C010C947C010C947C010C947C016C
:100020000C947C010C947C010C947C010C947C015C
:100030000C947C010C947C010C947C010C947C014C
:100040000C947C010C947C010C947C010C947C013C
:100050000C9453080C947C010C947C010C946D2B33
:100060000C947C010C94952F0C94CB2F0C947C0158
:100070000C947C010C9428080C947C010C947C0159
:100080000C947C010C947C010C947C010C94600811
:100090000C947C010C947C010C947C010C947109EF
:1000A0000C947C010C947C010C947C010C947C01DC
:1000B0000C947C010C947C010C947C010C947C01CC
:1000C0000C947C010C947C010C947C010C947C01BC
:1000D0000C947C010C947C010C947C010C947C01AC
:1000E0000C947C01361C5E1C7B1C981CDB1CBD1C0C
:1000F000F91C221D581D3D1D941D701D701E4B1EA8
:100100008F1E2E1FCA1EBB1F811F531C0F203120A4
:100110004C206D20171D7C209120AD20BA20E720B7
:10012000F620952C9A2C9F2CA92CB32C2C2DBD2C71
:10013000C52CCD2CD72CE12CEB2CFA2C042D2C2DFE
:100140000E2D182D222D4E2D512D402D442D4A2D92
:10015000882D552D592D5F2D632D672D6D2D712DFA
:10016000752D882D7B2D7F2D832D00000A0B020914
:100170000C0D0E0807030401000000000000000041
:10018000000000000000000000000000000000006F
:10019000000000000000121110000000000000002C
:1001A000000000000000000000000000000000004F
:1001B0000102102020080810204010204080020179
:1001C000020108040201010204081020408080405E
:1001D000201008040201800402018040201008045D
:1001E00002010804020101020408102040800102FB
:1001F00004081020408005050505070508080808C3
:10020000020202020A0A08080404040401010101AE
:1002100001010101030303030303030304070707A9
:100220000C0C0C0C0C0C0C0C02020202060606064E
:10023000060606060B0B0B0B0B0B0B0B000020002E
:100240002300260029002C002F00320000010000AE
:1002500003010601090100002200250028002B00EF
:100260002E003100340002010000050108010B01DD
:1002700000002100240027002A002D003000330058
:1002800001010000040107010A01B201B1055D0886
:100290007926FF2FB60111241FBECFEFD1E2DEBFBA
:1002A000CDBF00E00CBF14E0A0E0B2E0EEEDF2E75D
:1002B00000E00BBF02C007900D92A63BB107D9F733
:1002C0002FE0A6EBB4E001C01D92A334B207E1F722
:1002D00012E0C4E9D2E000E006C022970109FE0165
:1002E0000BBF0E94EE36CA38D10780E00807A9F795
:1002F0000E944F020C945D390C940000809106021C
:100300009091070201969093070280930602089548
:1003100086EB94E00E946E21809106029091070284
:1003200069E170E00E949436892BD9F48091080D20
:10033000882389F08091090D81110BC0E091B604EA
:10034000F091B7040688F789E02D86EB94E01995C3
:1003500002C01092090D81E090E090930702809313
:100360000602089586EB94E00C94CB0A86EB94E0A9
:100370000C94DC0A80E1809391001092900085E05B
:100380008093EC0D86E998E99093EE0D8093ED0D46
:10039000909397008093960085E1809391008EE77B
:1003A00091E09093EB0D8093EA0D81E080937100D2
:1003B00086EB94E00E94241668E072E082EA9EE0F8
:1003C0000E948E306FEF71E2605072404AE050E060
:1003D00082EA9EE00E9458316DE072E082EA9EE07F
:1003E0000E948E3066EB74E0605072404AE050E04C
:1003F00082EA9EE00E94583164E172E082EA9EE067
:100400000E948E3063E47FE0665B74404AE050E017
:1004100082EA9EE00E9458316AE172E082EA9EE040
:100420000E948E3060913F0F7091400F61157105F1
:1004300019F063547F4002C060E070E04AE050E091
:1004400082EA9EE00E94583160E272E082EA9EE019
:100450000E948E308DB79EB76FEF71E2681B790BEB
:100460004AE050E082EA9EE00E94583167E272E082
:1004700082EA9EE00E948E3080913F0F9091400F63
:100480006DB77EB7009719F463547F4002C0681BB4
:10049000790B4AE050E082EA9EE00C9458310E94C9
:1004A0000D2C0E94BA01CEE4DEE20E948801209762
:1004B000E1F30E944E2EF9CFCF93CFB7F8948091FD
:1004C000780D811127C0EBE2F2E08491E5EEF1E0D6
:1004D0009491E82FF0E0EE0FFF1FE059FD4FA5913A
:1004E000B4918C91892321F461E085E30E94C22DAF
:1004F00061E085E30E94892D8CB580618CBD8CB54F
:1005000080648CBD61E084E30E94892D61E083E317
:100510000E94892D8091780D8F5F8093780DCFBFD9
:10052000CF910895FF920F931F93CF93DF93FC0118
:100530000081C181D281F8948981F02EF0948F21BD
:10054000898378941DE7115029F182E090E00E94A0
:10055000022C88818023B9F3F8948A818F218A83C1
:100560008981802B8983789480EE91E00E94022C0F
:10057000F89489818F21898386E490E00E94022C7F
:100580008881802311E009F010E078948AE991E0F5
:100590000E94022C812FDF91CF911F910F91FF902C
:1005A00008951F93CF93DF93FC011081C181D28105
:1005B000912F909560FF12C0F8948A8189238A83D5
:1005C0008981812B89838AE090E00E94022C8A81B4
:1005D000812B8A83789487E390E011C0F8948A8114
:1005E00089238A838981812B898381E490E00E9419
:1005F000022C8A81812B8A83789485E090E0DF91B8
:10060000CF911F910C94022C0F931F93CF93DF93E4
:10061000FC011081C181D281F8948981812B898369
:100620008A81012F009580238A8383E090E00E94D5
:10063000022C8981802389838AE090E00E94022C29
:10064000C881789485E390E00E94022C1C2381E00D
:1006500009F480E0DF91CF911F910F910895CF921F
:10066000DF92EF92FF920F931F93CF93DF931F922E
:10067000CDB7DEB76C01E62E08E010E0FF24F3945E
:1006800061E09F2D9E2109F460E0C60149830E942C
:10069000D102FF0C0150110949810115110581F7A3
:1006A000411115C0F894D6011196ED91FC91129765
:1006B00091818C918095892381831196ED91FC9194
:1006C000129792818C9180958923828378940F90E0
:1006D000DF91CF911F910F91FF90EF90DF90CF901E
:1006E0000895EF92FF920F931F93CF93DF938C01A6
:1006F000C8E0D0E0F12CEE24E394C8010E9404038A
:100700008111FE28EE0C2197C1F78F2DDF91CF913B
:100710001F910F91FF90EF900895CF92DF92FF927B
:100720000F931F93CF93DF931F92CDB7DEB78C014A
:10073000F62E40E065E579830E942F03CF2C798166
:10074000D72E88E0F82EF60161916F0140E0C801D4
:100750000E942F03FA94B9F70F90DF91CF911F9168
:100760000F91FF90DF90CF900895FC0113861586BE
:10077000148627E030E0DF01A20FB31F13961C920E
:100780002115310519F021503109F5CF08951F9336
:10079000CF93DF93EC01162F60E0812F0E94892D0B
:1007A000612F70E0FB01E055FE4FE491E883FB010F
:1007B000EA50FE4FE491F0E0EE0FFF1FE45CFD4FC6
:1007C000859194919A838983CE01DF91CF911F9176
:1007D0000C94B503AF92BF92CF92DF92EF92FF924B
:1007E0000F931F93CF93DF931F92CDB7DEB75C01BA
:1007F000D62EE72EFC018585811164C0C501498391
:100800000E9492024981811105C0F5011386158667
:10081000148671C0442319F040E060EF02C040E04C
:100820006CEEC5010E942F0301E0F12CC12C11E0F8
:10083000C5010E940403682FC50169830E94040357
:100840006981613019F48130B9F433C02F2D30E063
:1008500068131BC0F5018385181730F4E20FF31FEE
:100860008381802349F402C0181731F060E0193009
:1008700058F4F501148708C0F501EF0DF11D8381CF
:10088000802B838361E009C0C12EF501E20FF31FC5
:100890008381902F909589238383C5010E94D10283
:1008A0001F5F000F11F4F39401E0F7E0FF1508F06B
:1008B000BFCF113438F0F501C386C11009C081E003
:1008C000858706C0F50113861586148680E013C05F
:1008D000F50183818823B1F3ED2DFE2D80E090E0BA
:1008E000D501A80FB91F13962C912193019688303A
:1008F0009105B1F781E00F90DF91CF911F910F919A
:10090000FF90EF90DF90CF90BF90AF9008958091CF
:10091000A90D90E02091AA0D821B910908952091C4
:10092000AA0D8091A90D281750F4E22FF0E0E555AB
:10093000F24F808190E02F5F2093AA0D08958FEFF2
:100940009FEF0895E091AA0D8091A90DE81730F46A
:10095000F0E0E555F24F808190E008958FEF9FEF32
:1009600008950895CF92DF92EF92FF920F931F9315
:10097000CF93DF937C01CB018A012091850D222347
:1009800089F0EB016B01C40ED51ECC15DD0569F0B5
:100990006991D701ED91FC910190F081E02DC701A3
:1009A0001995F3CF642F0E944809C801DF91CF91B8
:1009B0001F910F91FF90EF90DF90CF900895CF930C
:1009C000DF931F92CDB7DEB769832091850D222377
:1009D000D1F02091860D203240F021E030E0FC0182
:1009E0003383228380E090E015C08091870DE82F4B
:1009F000F0E0E857F24F998190838F5F8093870DE5
:100A00008093860D05C061E0CE0101960E944809E1
:100A100081E090E00F90DF91CF910895FC01138267
:100A2000128248EE53E060E070E0448355836683B1
:100A3000778388E392E09183808308951092AA0DD2
:100A40001092A90D1092870D1092860D0C948B08B0
:100A500081E08093850D6093A80D1092870D109210
:100A6000860D08950C9428050F93062F21E04091E0
:100A7000860D68E87DE08091A80D0E94F108109233
:100A8000870D1092860D1092850D0F9108958F920B
:100A90009F92AF92BF92CF92DF92EF92FF920F930D
:100AA0001F93CF93DF93EC01F62ED42E480159010A
:100AB000EE2019F10E9428051E2D143008F013E0D5
:100AC0001150B8F0E881F98128E0129FB00111249B
:100AD000A501940104C056954795379527956A95C9
:100AE000D2F7CA01B9010190F081E02DCE0119952C
:100AF000E7CF60E0CE010E9434054D2D413208F071
:100B000040E22C2D6BEA7DE08F2D0E94A908109207
:100B1000AA0D8093A90DDF91CF911F910F91FF90A6
:100B2000EF90DF90CF90BF90AF909F908F900895FF
:100B3000CF92EF920F931F93C22EE12C00E010E0B2
:100B400098010E9447051F910F91EF90CF90089553
:100B500021E00C94980521E00C94980561E00C9438
:100B6000340589E79DE00C940E05ECE7F0E09081F8
:100B70009F739083208130E4839FC0011124282B30
:100B800020830895EAE7F0E09081987F9083908138
:100B9000982B9083089580917A00877090E0089553
:100BA000E1E8F0E08081887F808308950E94D0058D
:100BB0001092850010928400E1E8F0E0808190912D
:100BC000CB0D892B80830895882321F080917C00B0
:100BD000806203C080917C008F7D80937C000895AB
:100BE000EBE7F0E09081987F90839081982B908341
:100BF0000895CF92DF92EF92FF92CF936B017C0129
:100C000080E18093810010928000A701960160E04E
:100C100074E284E799E40E94553420E030E040E03B
:100C200051E40E94E4350E94C2346115710521E04F
:100C30008207910528F421E02093CB0DCB014CC015
:100C40006115710528E08207910568F422E0209380
:100C5000CB0DDC01CB0153E0B695A7959795879511
:100C60005A95D1F739C06115710520E482079105C5
:100C700068F423E02093CB0DDC01CB0146E0B69570
:100C8000A795979587954A95D1F726C06115710567
:100C9000810521E0920740F424E02093CB0DBB278F
:100CA000A92F982F872F18C061157105810524E0A1
:100CB000920768F425E02093CB0DDC01CB012AE0FC
:100CC000B695A795979587952A95D1F705C085E0A4
:100CD0008093CB0D8FEF9FEF9093870080938600DA
:100CE000C1E0C0936F0086E00E94F005C093E10D63
:100CF00080917A00806280937A00C092D40DD09265
:100D0000D50DE092D60DF092D70DCF91FF90EF90D8
:100D1000DF90CF9008958093E10D882321F080919A
:100D20007A00806203C080917A008F7D80937A0080
:100D30000895EAE7F0E08081806480830895CF938E
:100D4000DF93D0917800C09179004091E40D5091EB
:100D5000E50D2091E20D3091E30D42175307A8F500
:100D60008091E10D811102C00E9499068D2F90E0C3
:100D70009C2B20917C0025FF13C0E091E80DF091A1
:100D8000E90D2091E40D3091E50DA9014F5F5F4F12
:100D90005093E50D4093E40DE20FF31F908315C0CF
:100DA000E091E60DF091E70D2091E40D3091E50D15
:100DB000A9014F5F5F4F5093E50D4093E40D220F63
:100DC000331FE20FF31F91838083DF91CF9108954A
:100DD0001092E50D1092E40D8091E10D0E948B06BA
:100DE0000E94B72B6093CC0D7093CD0D8093CE0DE8
:100DF0009093CF0D80917A00886C80937A008091D7
:100E00007B008770863011F40C94D60508958F927C
:100E10009F92AF92BF92CF92DF92EF92FF920E9489
:100E2000B72B4B015C0180917A00877D80937A001B
:100E300080917B008770863011F40E94D00560910C
:100E4000E20D7091E30D80E090E00E94EE3420E02E
:100E500034E244E759E40E94E4356B017C0180915F
:100E6000CC0D9091CD0DA091CE0DB091CF0DA501DF
:100E70009401281B390B4A0B5B0BCA01B9010E9474
:100E8000EE349B01AC01C701B6010E94553460935A
:100E9000D00D7093D10D8093D20D9093D30DFF9010
:100EA000EF90DF90CF90BF90AF909F908F9008957C
:100EB0008093DE0D90917C00907F90937C00209138
:100EC0007C00982F9770922B90937C00883020F0B4
:100ED00080917B00886003C080917B00877F809336
:100EE0007B00089591E09093DD0D1092E00D10923B
:100EF000DF0D1092DC0D2FE936E03093DB0D2093EF
:100F0000DA0D0C9458078091DC0D8F5F8093DC0D17
:100F10009091DD0D891302C01092DC0D8091DC0DE3
:100F2000E091DF0DF091E00DE80FF11D80810E944E
:100F300058070C949F061F93CF93DF93C091DC0D4D
:100F40009091DD0D9230A0F081E08C0F891719F09F
:100F50008093DC0D02C01092DC0D8091DC0DE091DD
:100F6000DF0DF091E00DE80FF11D80810E94580720
:100F700010917800D09179004091E40D5091E50DE9
:100F80002091E20D3091E30D42175307F0F4809168
:100F9000E10D811102C00E949906612F70E07D2B46
:100FA00080917C0085FF02C0672F7727E091D80DE4
:100FB000F091D90D8C2F19958091E40D9091E50D4C
:100FC00001969093E50D8093E40DDF91CF911F91F1
:100FD0000895CF93DF93D0917C00C0917B008091E6
:100FE0007C00807E80937C0080917C008E61809369
:100FF0007C0080917B00877F80937B0063E070E0C2
:1010000080E090E00E94DA2B80917A0080648093E7
:101010007A0080917A0086FDFCCF60917800809103
:101020007900D0937C00C0937B0070E0782B8827F8
:1010300077FD8095982F0E94F0349B01AC0160E011
:1010400070E889E894E40E945534DF91CF910895C7
:101050001F920F920FB60F9211240BB60F922F937F
:101060003F934F935F936F937F938F939F93AF9330
:10107000BF93EF93FF93E091DA0DF091DB0D19959B
:10108000FF91EF91BF91AF919F918F917F916F9160
:101090005F914F913F912F910F900BBE0F900FBE1C
:1010A0000F901F9018951F920F920FB60F92112458
:1010B0000F900FBE0F901F90189581E00C94B5050E
:1010C0001F920F920FB60F9211240BB60F922F930F
:1010D0003F934F935F936F937F938F939F93AF93C0
:1010E000BF93EF93FF93E091EA0DF091EB0D19950B
:1010F000FF91EF91BF91AF919F918F917F916F91F0
:101100005F914F913F912F910F900BBE0F900FBEAB
:101110000F901F90189510925C0E81E080935A0EEC
:101120001092590E61E084E10E94C22D61E085E1D8
:101130000E94C22DE9EBF0E080818E7F8083808168
:101140008D7F808388E48093B80085E48093BC0021
:101150000895413208F043C090915C0E9111FCCF8C
:1011600091E090935C0E20935A0E2FEF2093EF0D99
:101170001092340E240F2093330E90935B0E9091B7
:101180005B0E880F892B80935B0E8091590E813006
:1011900061F41092590E80915B0E8093BB00809198
:1011A000BC0083FDF8CF85EC01C085EE8093BC00C8
:1011B00080915C0E8130E1F38091340E841710F43D
:1011C0004091340E25E33EE0FB01D9018A2F821BBA
:1011D000841718F48D918193F9CF842F089580E0BE
:1011E00008950F93413208F04AC090915C0E91111E
:1011F000FCCF92E090935C0E00935A0E9FEF909379
:10120000EF0D1092340E4093330EFB0165E37EE048
:10121000DB019A2F961B941718F491919D93F9CFA7
:1012200010925B0E90915B0E880F892B80935B0E62
:101230008091590E813061F41092590E80915B0EAD
:101240008093BB008091BC0083FDF8CF85EC01C08A
:1012500085EE8093BC00222321F080915C0E8230C9
:10126000E1F38091EF0D8F3F61F08091EF0D8032BF
:1012700051F08091EF0D803341F483E007C081E0AD
:1012800005C080E003C082E001C084E00F910895B2
:10129000613298F420915C0E243089F46093110E31
:1012A000FC0183E19EE0DC012A2F281B261718F49D
:1012B00021912D93F9CF80E0089581E0089582E097
:1012C000089585ED8093BC008091BC0084FDFCCF27
:1012D00010925C0E089585EC8093BC0010925C0E19
:1012E00008951F920F920FB60F9211240BB60F9212
:1012F0002F933F934F935F936F937F938F939F931E
:10130000AF93BF93EF93FF938091B900887F8036AE
:1013100009F49EC078F5883209F45DC090F48031FC
:1013200009F456C038F4882309F4F5C0883009F46C
:101330004FC0F5C0883109F44EC0803209F45FC057
:10134000EEC0803409F46AC058F4803309F457C001
:10135000883309F0E4C08093EF0D0E946B09DFC071
:10136000803509F44FC0883509F45DC0883409F030
:10137000D6C0D3C0883909F4C4C0A8F4883709F4AA
:1013800067C038F4883609F463C0803709F460C058
:10139000C6C0883809F4B5C0803909F45FC0803808
:1013A00009F0BDC05BC0803B09F483C038F4803ACB
:1013B00009F466C0883A09F47CC0B1C0803C09F4E5
:1013C000A4C0883C09F4A1C0883B09F487C0A7C029
:1013D00080915B0E10C09091340E8091330E98175F
:1013E00070F5E091340E81E08E0F8093340EF0E0C2
:1013F000EB5CF14F80818093BB0085EC83C08093D0
:10140000EF0D8BC0E091340E81E08E0F8093340E8F
:101410008091BB00F0E0EB5CF14F80839091340E43
:101420008091330E6BC0E091340E81E08E0F80937B
:10143000340E8091BB00F0E0EB5CF14F8083809133
:101440005A0E81116AC081E08093590E84EA5EC011
:1014500083E080935C0E1092F00DCFCF8091F00D61
:10146000803208F04EC0E091F00D81E08E0F809345
:10147000F00D8091BB00F0E0EF50F24F8083BDCFC4
:101480000E946B098091F00D803230F4E091F00DF4
:10149000F0E0EF50F24F10826091F00D70E0E091BB
:1014A000550EF091560E81EF9DE019951092F00DBA
:1014B00036C084E080935C0E1092120E1092110ED2
:1014C000E091570EF091580E19958091110E8111EF
:1014D00005C081E08093110E1092130EE091120E60
:1014E00081E08E0F8093120EF0E0ED5EF14F80816F
:1014F0008093BB009091120E8091110E981708F402
:101500007CCF85E88093BC000AC085EC8093BC004A
:1015100010925C0E04C01092EF0D0E946109FF91C1
:10152000EF91BF91AF919F918F917F916F915F915B
:101530004F913F912F910F900BBE0F900FBE0F90C8
:101540001F9018958DE294E0089589E294E0089543
:1015500082E194E0089588EF93E0089582EF93E0AC
:1015600008958FEB93E0089584E492E00895CF937B
:10157000DF93EC0161E082E00E94C22DCC5AD74F8C
:101580001882DF91CF910895DC01ED91FC910190DB
:10159000F081E02D1994CF93DF93EC0161E00E947C
:1015A000D61887EA93E099838883CE5AD74F18825A
:1015B0001982DF91CF91089527EA33E0FC0131834E
:1015C00020830C944619AF92BF92CF92DF92EF9294
:1015D000FF920F931F93CF93DF931F921F92CDB76C
:1015E000DEB78C01D12C7C018BEBE81A87EFF80A6F
:1015F0005801E5E9AE1AE7EFBE0A2D2D30E0F801FB
:10160000EB5AF74F8081918168E270E00E94943636
:1016100026173707E0F588E0C82EC982F701208138
:10162000318180E090E040E0B801620F731FE42F49
:10163000F0E0DB01A80FB91FA259BF4F41E050E015
:10164000AC91AA2311F040E050E0082E02C0440FF4
:10165000551F0A94E2F74E0F5F1F019688309105DF
:1016600031F74A83285F3F4FF70131832083F5012B
:1016700060816D0D22E0AE014F5F5F4FC8010E9497
:101680004021C394FDE0CF12C8CFD394B6CF0F90C2
:101690000F90DF91CF911F910F91FF90EF90DF900E
:1016A000CF90BF90AF9008958F929F92AF92BF92CC
:1016B000CF92DF92EF92FF920F931F93CF93DF931E
:1016C00000D0CDB7DEB78C01912C7C018BEAE81AF3
:1016D00087EFF80A98E2C92ED12C5801E5E9AE1A35
:1016E000E7EFBE0A88248A94292D30E0F701808133
:1016F0009181B6010E94943626173707A0F438E08E
:1017000039838A82F5016081690D22E0AE014F5F65
:101710005F4FC8013B830E9440213B813F5F3D30CA
:1017200079F79394E1CF0F900F900F90DF91CF91C5
:101730001F910F91FF90EF90DF90CF90BF90AF90EF
:101740009F908F900895EF92FF920F931F93CF93E6
:10175000DF938C017C018BE9E81A87EFF80AC4E675
:10176000D0E0F70141917F01BE01C8010E94D1186C
:101770002196C13CD105A9F760E0C801DF91CF9166
:101780001F910F91FF90EF900C94C60B8F929F9238
:10179000AF92BF92CF92DF92EF92FF920F931F937F
:1017A000CF93DF93EC01B62E7C012BE9E21A27EFF1
:1017B000F20A04E610E06701E881F9810088F18906
:1017C000E02DB801CE011995F70181937F010F5FDC
:1017D0001F4F013C110581F7F601808191819E0127
:1017E0002959374F79018E010759174F892BE9F491
:1017F000F90180819181892BC1F4F8018081918167
:10180000892B99F4399780819181A281B381E35B1F
:10181000FF4F80839183A283B38381E090E0F8013E
:1018200091838083CE010E94A30BF6018081918178
:10183000892BB9F4F70180819181892B91F4F8010A
:1018400080819181019769F480E2FE01E559F74FAB
:10185000808382E090E0F80191838083CE010E9432
:10186000A30BF60180819181892BE9F4F701808136
:101870009181892BC1F4F80180819181029799F4BB
:1018800080E090E0A0EAB0E4FE01EF54F74F8083DF
:101890009183A283B38383E090E0F80191838083F6
:1018A000CE010E94A30BF60180819181892BB1F4B6
:1018B000F70180819181892B89F4F80180819181E0
:1018C000039761F4FE01EB54F74F108284E090E03F
:1018D000F80191838083CE010E94A30BF6018081E1
:1018E0009181892B79F5F70180819181892B51F5BF
:1018F000F80180819181049729F580E090E0A8ECBF
:10190000B2E4FE01EA54F74F80839183A283B3834C
:1019100080E090E4ACE9B6E4349680839183A283BE
:10192000B38380E090E0A8E4B3E4349680839183AD
:10193000A283B38385E090E0F80191838083CE0198
:101940000E94A30BF60180819181892B69F4F70134
:1019500080819181892B41F4F801808191810597E3
:1019600019F4BB2009F4B2C0F60111821082F7010C
:101970001182108285E090E0F8019183808300E07D
:1019800010E42CE936E4FE01E359F74F008311839C
:101990002283338380E090E5A3E4B8E43496808327
:1019A0009183A283B38340E054E264EF79E43496F8
:1019B00040835183628373830F2EC12CD12CF8E4B2
:1019C000EF2EF3E4FF2EF02D7096C082D182E282DA
:1019D000F3820F2E812C912CFAEFAF2EF4E4BF2E60
:1019E000F02D349680829182A282B3823496008355
:1019F000118322833383349680839183A283B383BC
:101A0000349640835183628373834FEF56EE6BE5C8
:101A10007EE274974083518362837383B8964083D8
:101A20005183628373838AE0FD9780833D961082A1
:101A300011821282138234961082118212821382D2
:101A40007C964083518362837383349640835183B1
:101A500062837383349640835183628373833496A5
:101A60004083518362837383E554F10980819181BE
:101A7000A281B381E35BFF4F80839183A283B38311
:101A800080E2E254F109808380E090E0A0EAB0E4D3
:101A9000EA5BFF4F80839183A283B38334961082E5
:101AA00080E090E0A8ECB2E4319680839183A28339
:101AB000B383349600831183228333833496C082A8
:101AC000D182E282F382CE010E94A30BFE01E35594
:101AD000F74FC080D180E280F38020E030E0A901A0
:101AE000C701B6010E945134FE01EC59F74F181698
:101AF0001CF081E0808309C0DE01A05AB74FCD926F
:101B0000DD92ED92FC9213971082FE01EB54F74F99
:101B10008081882311F042E001C041E060E0CE0105
:101B2000DF91CF911F910F91FF90EF90DF90CF90B9
:101B3000BF90AF909F908F900C94FD215F926F9219
:101B40007F928F929F92AF92BF92CF92DF92EF924D
:101B5000FF920F931F93CF93DF931F921F92CDB7E6
:101B6000DEB76C01CB01542E68E270E00E9494361F
:101B70007B014C015C0183E0B694A7948A95E1F760
:101B80003B01772486010559174FF8018081B30185
:101B9000680F711D89E79DE00E943205B501685FFD
:101BA0007F4F89E79DE00E94C40A89E79DE00E947B
:101BB000AE05F8018081B301680F711D41E050E06E
:101BC00089E79DE00E94AB0589E79DE00E948704BC
:101BD000892B41F1F82DF7708F2E88E08A0D8983CB
:101BE00089E79DE00E948F0441E050E060E070E0F2
:101BF00004C0440F551F661F771F8A94D2F75110F7
:101C000002C0482B02C0409548234A83F8016081F6
:101C10006E0D22E0AE014F5F5F4FC6010E94402172
:101C200080E001C081E00F900F90DF91CF911F9174
:101C30000F91FF90EF90DF90CF90BF90AF909F906B
:101C40008F907F906F905F9008959F92AF92BF9218
:101C5000CF92DF92EF92FF920F931F93CF93DF9378
:101C600000D000D0CDB7DEB78C016A017B01922E87
:101C70001E82FC01E254F74F208131814281538161
:101C8000C701B6010E94513418160CF444C0F80183
:101C9000E05AF74F2081318142815381C701B6015B
:101CA0000E94553428EA29836A837B838C839D8331
:101CB000580184E9A81A87EFB80A25E0AE014F5F02
:101CC0005F4FF5016081C8010E944021992029F1F0
:101CD00064E670E080E090E00E94DA2B41E0F501DC
:101CE000608189E79DE00E94A80589E79DE00E9448
:101CF0008704892B91F089E79DE00E948F04813051
:101D000061F421E0AE014A5F5F4FF5016081C801D7
:101D10000E94E51B02C088E08E838E81811107C07E
:101D2000F801E85AF74FC082D182E282F382269608
:101D30000FB6F894DEBF0FBECDBFDF91CF911F91DC
:101D40000F91FF90EF90DF90CF90BF90AF909F905A
:101D50000895FC01E05AF74F4083518362837383F7
:101D60003897408151816281738120E00C94250E67
:101D7000AF92BF92CF92DF92EF92FF920F931F9399
:101D8000CF93DF9300D000D0CDB7DEB78C016A01CE
:101D90007B01FC01EA54F74F24EA30E74DE75FE3AB
:101DA00060817181828193810E94E4359B01AC0145
:101DB000C701B6010E94E03587FD4CC02EEA37E42A
:101DC00041E85FE3F801E654F74F60817181828159
:101DD00093810E94E4359B01AC01C701B6010E94CA
:101DE00051341816BCF18AEA8983CA82DB82EC82FC
:101DF000FD82580184E9A81A87EFB80A25E0AE01F0
:101E00004F5F5F4FF5016081C8010E94402164E689
:101E100070E080E090E00E94DA2B41E0F501608103
:101E200089E79DE00E94A80589E79DE00E9487045C
:101E3000892B91F089E79DE00E948F04813061F445
:101E400021E0AE014A5F5F4FF5016081C8010E9449
:101E5000E51B02C088E08E838E81811107C0F801E6
:101E6000E45AF74FC082D182E282F38226960FB6FF
:101E7000F894DEBF0FBECDBFDF91CF911F910F91C0
:101E8000FF90EF90DF90CF90BF90AF9008954F926A
:101E90005F926F927F928F929F92AF92BF92CF92FA
:101EA000DF92EF92FF920F931F93CF93DF931F92D6
:101EB0001F92CDB7DEB78C01FC01EC5AF74F81E0E1
:101EC000808360E082E00E94C22D64EF71E080E0D8
:101ED00090E00E94DA2B48018BEA881A87EF980A73
:101EE000F4011182108228E2A22EB12CE12CF12CF7
:101EF00038E1632E77247A946801F5E9CF1AF7EF79
:101F0000DF0A4E2C69827A82F60160816E0D22E032
:101F1000AE014F5F5F4FC8010E944021F601608112
:101F20006E0D21E0AE014F5F5F4FC8010E94E51BBF
:101F300089818F3F09F04BC098E1592E59821A824E
:101F4000F6016081640D22E0AE014F5F5F4FC80172
:101F50000E944021F6016081640D21E0AE014F5FD7
:101F60005F4FC8010E94E51B8981811130C080EF5D
:101F7000850D89837A82F6016081640D22E0AE01CD
:101F80004F5F5F4FC8010E9440215394FDE15F12F3
:101F9000D5CF6FE572E082EA9EE00E948E304AE083
:101FA00050E0B70182EA9EE00E94503169E672E09B
:101FB00082EA9EE00E949B30F40120813181C501BC
:101FC00088972817390719F4F401B182A082FFEF2E
:101FD000EF1AFF0A88E2A80EB11CE8E0EE16F10441
:101FE00009F08FCFF401608171814AE050E082EA0C
:101FF0009EE00E949B316AE472E082EA9EE00E94C9
:102000009B3040E050E46CE176E4C8010E94B80ED9
:102010000F900F90DF91CF911F910F91FF90EF9054
:10202000DF90CF90BF90AF909F908F907F906F90F8
:102030005F904F9008952F923F924F925F926F92D0
:102040007F928F929F92AF92BF92CF92DF92EF9248
:10205000FF920F931F93CF93DF93CDB7DEB76597B2
:102060000FB6F894DEBF0FBECDBF1C01B62E8C019B
:102070000D5A174F81E0D8018C93F101EC5AF74FBC
:102080008081811103C0C1010E94470FF101E45911
:10209000FF4F2F01F1EBBF1609F4FBC2FB15D8F17E
:1020A00028EAB21609F4B9C12B15D8F032EAB316F2
:1020B00009F4F6C03B1548F040EAB41609F468C0CC
:1020C00051EAB51609F475C02DC584EAB81609F4AD
:1020D00069C1B81608F4F4C097EAB91609F48DC1BD
:1020E00021C5ADEABA1609F41EC2AB1548F0B9EA2B
:1020F000BB1609F4B1C1EAEABE1609F4F6C112C56D
:10210000F101E05CF74F2FEAB21609F44BC22B1530
:1021100008F02EC270C238EBB31609F497C43B1511
:10212000D0F044EBB41609F455C34B1548F052EB0C
:10213000B51609F4E8C283EBB81609F43BC3F2C440
:10214000F101E05CF74F96EBB91609F49AC39B15C1
:1021500008F07EC349C4ACEBBA1609F4A1C4AB15B0
:1021600058F0F101E05CF74FBAEBBB1609F445C437
:10217000BB1508F079C44DC4E4EFBE1609F4ADC335
:10218000F5EFBF1609F410C42DEBB212CBC4A3C4F3
:10219000F101E05CF74F80819181892B09F050C5F6
:1021A00042E050E0B1016B5A774FC1010E944C19D7
:1021B0004AC4F101E05CF74F80819181892B09F0DD
:1021C0003FC5D2011C92A12C91012B5A374F3B875E
:1021D0002A87610135E9C31A37EFD30AEA2CF12CBB
:1021E000AA85BB858D919C9168E270E00E9494362F
:1021F000E616F70608F096C408E010E0D6018C91C8
:10220000B701680F711D89E79DE00E943205B80192
:1022100089E79DE00E94C40A89E79DE00E94AE051F
:10222000F6018081B701680F711D41E050E089E738
:102230009DE00E94AB0589E79DE00E948704892B01
:1022400051F189E79DE00E948F044C01612C712CB3
:102250009924C401062C02C0959587950A94E2F74B
:1022600081709927F1E08F27898341E050E0BE011A
:102270006F5F7F4FC1010E944C192FEF621A720AE3
:1022800038E06316710429F70F5F1F4F0D301105F9
:1022900009F0B4CF03C0E1E0D201EC93A3949ECF48
:1022A000F101E05CF74F2081318175968081918149
:1022B0002817390709F0C4C4C1010E94E30A30C4D9
:1022C000F101E05CF74F80819181029709F0B8C479
:1022D000D101AB5BB74F2D913C911197F901E259B8
:1022E000FF4FE20DF31D808191812E5F3F4F2D93B3
:1022F0003C93F101EB5AF74F20813181821793070C
:1023000008F056C268E270E00E9494368C016B01BE
:10231000DD247101B5E9EB1AB7EFFB0AF701808103
:10232000B601680F711D89E79DE00E943205B80172
:1023300053E0769567955A95E1F7685F7F4F89E797
:102340009DE00E94C40A89E79DE00E94AE05D70186
:102350008C91B601680F711D41E050E089E79DE066
:102360000E94AB0589E79DE00E948704892B09F450
:1023700017C389E79DE00E948F049927077002C068
:10238000959587950A95E2F781709927B1E08B279B
:10239000898341E050E0BE016F5F7F4FC1010E9421
:1023A0004C19BEC3F101E05CF74F80819181039726
:1023B00009F046C4D101AB5BB74F8D919C91119749
:1023C000FC01E259FF4FE20DF31D60817181F101C3
:1023D000E80FF91FE059FF4F408103968D939C93BE
:1023E000F101EB5AF74F808191816817790708F066
:1023F000DFC1C1010E949E0D24C4F101E05CF74FD2
:1024000080819181892B09F01BC4F201108244E084
:1024100050E0B101685A774F5AC3F101E05CF74FC1
:1024200080819181049709F00BC4D101AB5BB74F58
:102430008D919C911197FC01E259FF4FE20DF31D24
:10244000408151816281738104968D939C9321E038
:10245000C1010E94250EA5C2F101E05CF74F808109
:102460009181892B09F0ECC381010459174F49EA86
:10247000F8016081C1010E94292164E670E080E0DA
:1024800090E00E94DA2B41E0D8016C9189E79DE051
:102490000E94A80589E79DE00E948704892B09F422
:1024A00041C389E79DE00E948F04853009F03AC35B
:1024B00025E0AE014F5F5F4FF8016081C1010E94CE
:1024C000E51B8D81D2018C9381112CC389819A8166
:1024D000AB81BC81B101645A774FFB01808391834A
:1024E000A283B38344E050E0F2C2F101E05CF74F15
:1024F00080819181049709F0A3C3D101AB5BB74FF1
:102500008D919C911197FC01E259FF4FE20DF31D53
:10251000408151816281738104968D939C93C101A6
:102520000E94B80E3EC2F101E05CF74F80819181BC
:10253000019709F085C3D101AB5BB74F8D919C9199
:102540001197F101E80FF91FE259FF4FE081019661
:102550008D939C93E23008F02BC1BBE1EB9FF0011F
:102560001124E35AF14F81818983F2011082AAC2BA
:1025700080819181029709F063C3F101EB5BF74F12
:1025800020813181A101420F531FDA01A259BF4FAF
:102590008C9111966C912E5F3F4F318320830E9466
:1025A00095214FC380819181019709F049C3F101C1
:1025B000EB5BF74F80819181D101A80FB91FA25920
:1025C000BF4F2C91019691838083223008F0F0C098
:1025D000D2011C92BBE12B9FF0011124E35AF14F71
:1025E000E181C1018B59974FF0E0213011F0329613
:1025F00079C0389677C080819181059709F020C312
:10260000F101EB5BF74F20813181D101A20FB31FA4
:10261000A259BF4F8C91B9016F5F7F4F7183608367
:10262000D2011C928823E1F0813009F0C1C04091B1
:10263000790EDB01A259BF4FA20DB31D8D919D9163
:102640000D90BC91A02D2B5F3F4F31832083F10172
:1026500034E0439FE00DF11D1124EB57F74FA0C06C
:1026600040915E0EDB01A259BF4FA20DB31D8D91AB
:102670009D910D90BC91A02D2B5F3F4F3183208306
:10268000F10124E0429FE00DF11D1124E359F74FC1
:1026900087C0F101E05CF74F80819181019709F0DB
:1026A000CFC2359680819181D101A80FB91FA2595F
:1026B000BF4F2C91019691838083223008F078C01F
:1026C000F20110823BE1239FF0011124E35AF14F04
:1026D000E181C1018B59974FF0E0213011F035961F
:1026E00001C03D96EE0FFF1FEE0FFF1FE80FF91F11
:1026F00080819181A281B38189839A83AB83BC83DA
:1027000044E050E0E1C1F101E05CF74F808191814C
:10271000059709F095C2359620813181D101A20F2C
:10272000B31FA259BF4F8C91B9016F5F7F4F718367
:102730006083D2011C928823D9F08130C9F5409181
:10274000790EDB01A259BF4FA20DB31D8D919D9152
:102750000D90BC91A02D2B5F3F4F31832083F10161
:1027600034E0439FE00DF11D1124E756F74F18C0E8
:1027700040915E0ED901A159BF4FA20DB31D8D919D
:102780009D910D90BC91A02D2B5F3F4F31832083F5
:10279000F10124E0429FE00DF11D1124E758F74FAD
:1027A00080839183A283B383C1010E94A30BBAC12A
:1027B00085E0F7C0F101E05CF74F80819181892BC2
:1027C00009F03EC2F201108244E050E0B101605ACB
:1027D000774F7DC1F101E05CF74F808191810497D3
:1027E00009F02EC2D101AB5BB74F8D919C9111972F
:1027F000FC01E259FF4FE20DF31DC080D180E28061
:10280000F38004968D939C9320E030E0A901C701EA
:10281000B6010E94E0351816CCF4F101EC59F74FDF
:102820008081882331F03497C082D182E282F382A2
:102830000AC1D101A355B74FCD92DD92ED92FC9222
:1028400013971082C1010E94A30BFDC088E0F9C15B
:1028500080819181892B09F0F3C1D2011C9211E092
:1028600020E030E0A901F101E355F74F608171816B
:10287000828193810E94513418160CF410E0198360
:1028800021C180819181019709F0DAC1F101EB5BEF
:10289000F74F80819181D101A80FB91FA259BF4F75
:1028A0002C91019691838083E859FF4F222329F0D0
:1028B00010821182128213820CC0D101A05AB74F2C
:1028C0008D919D910D90BC91A02D80839183A283C9
:1028D000B383C1010E94A30B23C1F101E05CF74F58
:1028E000008111810A30110508F4AAC13596808152
:1028F0009181DC01A259BF4FA20DB31D2D913D91D5
:102900004D915C912A873B874C875D879C012C5FAA
:102910003F4F31832083DC01AE58BF4FA20DB31D62
:102920006D907C90DC01AC58BF4FA20DB31D2D9172
:102930003D914D915C912A8B3B8B4C8B5D8BD101F2
:10294000A80FB91FA858BF4FFC900B9691838083A6
:102950000B30110541F07096808191810B9608171C
:10296000190709F06DC1BBE46B16B1E07B06C0F43A
:1029700020E030E04AE754E46A857B858C859D85BC
:102980000E94553420E030E44CE157E40E94E435E5
:1029900020E030E040E855E40E94513487FDE1C07A
:1029A00081E0D2018C93BEC0F101E05CF74F8081E1
:1029B0009181019709F044C1F2011082F101EB5BB2
:1029C000F74F80819181D101A80FB91FA259BF4F44
:1029D0002C9101969183808361E0211101C060E018
:1029E000C1010E94C60B9EC080819181892B09F094
:1029F00027C1D2011C9282E035C080819181892B50
:102A000009F01EC1F2011082F101EE5AF74F8081E8
:102A100029C080819181019709F012C1F101EB5B1E
:102A2000F74F80819181D101A80FB91FA259BF4FE3
:102A30002C910196918380833D96222319F081E0A9
:102A4000808301C01082D2011C926CC0F101E05C55
:102A5000F74F80819181892B09F0F2C0F201108239
:102A6000D8018C9189832EC080819181019709F0D2
:102A7000E7C0F101EB5BF74F80819181D101A80F95
:102A8000B91FA259BF4F2C910196918380832223B5
:102A900021F081E0F801808343C0D8011C9240C03E
:102AA000F101E05CF74F80819181892B09F0C8C06A
:102AB000D2011C9282E00E94F82D21E0892B09F0BE
:102AC00020E0298341E050E0BE016F5F7F4FC101EC
:102AD0000E944C1927C0F101E05CF74F8081918181
:102AE000019709F0ADC0359680819181D101A80F81
:102AF000B91FA259BF4F2C91019691838083222345
:102B000059F060E082E00E94C22D64EF71E080E045
:102B100090E00E94DA2B04C061E082E00E94C22DA6
:102B2000F20110826B2DC1010E940C1CD2018C910C
:102B300065960FB6F894DEBF0FBECDBFDF91CF9183
:102B40001F910F91FF90EF90DF90CF90BF90AF90CB
:102B50009F908F907F906F905F904F903F902F90BD
:102B60000895D2011C92F101EB5AF74F80819181B7
:102B70000B960817190719F4C1010E94E30A0E9475
:102B8000B72B6E877F87888B998B88248394F1FE7F
:102B9000812CAA24A394F0FEA12CF101E45AF74F52
:102BA000C080D180E280F3800A891B892C893D890D
:102BB000A3016A857B858C859D850E947E26F20116
:102BC00080838111AFCF0E94B72B2E853F85488926
:102BD0005989621B730B840B950B0E94EE346B01B9
:102BE0007C01B30180E090E00E94EE3420E030E010
:102BF0004AE754E40E94E4359B01AC01C701B601E9
:102C00000E9455346E837F838887998744E050E023
:102C1000BE016A5F7F4FC1010E944C1944E050E041
:102C200064E77EE0C1010E944C1944E050E06FE887
:102C30007EE0C1010E944C19F101E05AF74F58CDD6
:102C400086E0F20180836ECFAF92BF92CF92DF9287
:102C5000EF92FF920F931F93CF93DF93CDB7DEB721
:102C600062970FB6F894DEBF0FBECDBF8C010E94F5
:102C7000411861E082E00E94C22D61E082E00E9482
:102C8000892DF801E05AF74F80E090E0A6E9B3E41F
:102C900080839183A283B38360E0C8010E94C60B46
:102CA000D801ED91FC910680F781E02DC8011995BE
:102CB000BC0182EA9EE00E948E3065E772E082EA03
:102CC0009EE00E948E30D801ED91FC910484F58540
:102CD000E02DC8011995BC0182EA9EE00E949B305C
:102CE00068E772E082EA9EE00E948E30D801ED91A2
:102CF000FC910284F385E02DC8011995BC0182EA9C
:102D00009EE00E949B306BE872E082EA9EE00E94A7
:102D10008E307801BBE9EB1AB7EFFB0AF70160814F
:102D200071814AE050E082EA9EE00E949B3163E7B5
:102D300072E082EA9EE00E948E30F801E959F74F76
:102D4000608171814AE050E082EA9EE00E949B31FE
:102D500063E772E082EA9EE00E948E30F801E75954
:102D6000F74F608171814AE050E082EA9EE00E9464
:102D7000A13162EA72E082EA9EE00E948E30F801A0
:102D8000E459F74F4AE050E0608182EA9EE00E94F9
:102D90008431B12CA12CA1E0BA1202C085E001C09F
:102DA00083E0A81608F0AFC04AE06A2DCE01019674
:102DB0000E9452334AE06B2DCE010D960E94523391
:102DC00066EC72E0CE0107960E942433BE01635F79
:102DD0007F4FCE0107960E94AB3368EC72E00E94F1
:102DE000BE33BE016F5F7F4F0E94AB336CED72E06C
:102DF0000E94BE33BC0182EA9EE00E948030CE0178
:102E000007960E94B632CE010D960E94B632CE01D0
:102E100001960E94B632CA2CD12CF1E0BF1619F0EF
:102E2000F601329602C0F6013896EE0FFF1FEE0F44
:102E3000FF1FEE0DFF1D408151816281738122E0F1
:102E400030E082EA9EE00E94A4324AE06A2DCE0180
:102E500001960E9452334AE06B2DCE010D960E94DE
:102E6000523366EC72E0CE0107960E942433BE0115
:102E7000635F7F4FCE0107960E94AB336FED72E028
:102E80000E94BE33BE016F5F7F4F0E94AB336CED7B
:102E900072E00E94BE33BC0182EA9EE00E94803054
:102EA000CE0107960E94B632CE010D960E94B63230
:102EB000CE0101960E94B63281E0F601B81611F0FB
:102EC000359601C03D96EE0FFF1FEE0FFF1FEE0D72
:102ED000FF1D608171818281938125EA34ED48E68E
:102EE00053E50E94E435AB01BC0122E030E082EA08
:102EF0009EE00E94A23264EF72E082EA9EE00E94AD
:102F00009B30A39448CFB394B2E0BB1243CF68EF99
:102F100072E082EA9EE00E948E30F801E559F74F98
:102F20004AE050E0608182EA9EE00E9484316DE4D4
:102F300073E082EA9EE00E948E30F801E355F74F7D
:102F4000408151816281738122E030E082EA9EE01B
:102F50000E94A43265E173E082EA9EE00E948E3016
:102F6000F801EF54F74F408151816281738122E073
:102F700030E082EA9EE00E94A43268E273E082EAD6
:102F80009EE00E948E30F801EB54F74F608170E0B4
:102F90004AE050E082EA9EE00E94583161E473E02A
:102FA00082EA9EE00E948E30F801EC59F74F608172
:102FB00070E04AE050E082EA9EE00E9458316DE500
:102FC00073E082EA9EE00E948E30F801EA54F74FE7
:102FD000408151816281738122E030E082EA9EE08B
:102FE0000E94A43265E773E082EA9EE00E948E3080
:102FF000F801E654F74F408151816281738122E0EC
:1030000030E082EA9EE00E94A4326DE873E082EA3A
:103010009EE00E948E30F801E254F74F40815181CA
:103020006281738122E030E082EA9EE00E94A43255
:1030300062960FB6F894DEBF0FBECDBFDF91CF9181
:103040001F910F91FF90EF90DF90CF90BF90AF90C6
:1030500008958627682F62956827062E66956695DF
:103060006025062E669560256770082E892F669567
:1030700007946795902D8627069467959025862757
:103080000895CF92DF92EF92FF920F931F93CF9309
:10309000DF9300D01F92CDB7DEB78C01CE01019631
:1030A0006C019FE0E92EF12CD801ED91FC91008894
:1030B000F189E02DB701C8011995F60181936F01DF
:1030C000FFEFEF1AFF0A23E1E216F10469F78981A5
:1030D0009A81AB81BC818F3F9F4FAF4FBF4FE1F1D2
:1030E00049815A816B817C8126E082EA9EE00E94C0
:1030F000332F89E79DE00E941E050E945C020E941A
:10310000E90708591F4FD8016D937D938D939C93C8
:10311000139762E474E082EA9EE00E948E30F80128
:10312000408151816281738122E030E082EA9EE039
:103130000E94A23264E574E082EA9EE00F900F9054
:103140000F900F90DF91CF911F910F91FF90EF9013
:10315000DF90CF900C949B3080E092ECA1E0B0E047
:1031600089839A83AB83BC83CE0101966C018FE087
:10317000E82EF12CD6014D916D01D801ED91FC9115
:103180000288F389E02DB701C8011995BFEFEB1A4A
:10319000FB0AE3E1EE16F10469F7A2CFCB010C9430
:1031A0003739CB01642F0C943F3908958F929F9249
:1031B000AF92BF92CF92DF92EF92FF920F931F9345
:1031C000CF93DF9326E734E0FC0131832083E45B77
:1031D000F74F6083399711821082369610823997A3
:1031E00011821082359611821082329611821082DD
:1031F0003A961082E12CF12C00E010E0C8010E9408
:103200003739A82EC80107960E9437398E2CC0E0A6
:10321000D0E0B12CA094B094C82ED12CC094D094FE
:10322000CE018E0D9F1DC697C4F4B5010C2E02C0B1
:10323000759567950A94E2F761709C2E980C892D1C
:103240000E94892DB6010C2E02C0759567950A94CF
:10325000E2F76170892D0E94C22D2196C830D105F8
:10326000F9F60F5F1F4FE8E0EE0EF11C0730110575
:1032700029F6DF91CF911F910F91FF90EF90DF9092
:10328000CF90BF90AF909F908F90089526E734E045
:10329000FC013183208308951F93CF93DF93FB01BB
:1032A00020E030E0DC01A95BB74F2417350781F03F
:1032B0001191BC01620F731FCD91DC9111976C0FBE
:1032C0007D1FEB01C259DF4F18832F5F3F4FEDCFBA
:1032D0008D919C911197820F931F8D939C93DF91F9
:1032E000CF911F910895CF93DF93FC01E359FF4FD6
:1032F0006081DC01A459BF4F67FF0EC020E8260F94
:10330000208322E02C93DC01ED91FC910488F58967
:10331000E02DDF91CF911994FC01E05CF74F208103
:10332000318121503109820F931FEC01C259DF4FC7
:1033300088818C9331832083DF91CF9108956F92A0
:103340007F928F929F92AF92BF92CF92DF92EF9235
:10335000FF920F931F93CF93DF93EC019C01275BA8
:10336000374F59016D3721F481E0F9018083AEC0F8
:10337000F90180819E012D5B374F7901882309F483
:103380009EC080E26827F701808191819E01245BC5
:10339000374F4901FE01EE5BF74F6F018E01005C74
:1033A000174F009759F4E55DF7406083F90180817C
:1033B0008823A9F18FEF9FEF33961EC081309105CE
:1033C00081F467FF08C083E08083862F8F77F80140
:1033D0001082818324C082E08083862F90E0F801F0
:1033E0000BC08230910559F42081233041F4F8015B
:1033F00080819181860F911D9183808310C0F60199
:103400002081821B9109F801208131818217930765
:1034100030F48C0F9D1FFC01E259FF4F6083F401D3
:103420008081882369F03E01F1EB6F1AF7EF7F0A84
:10343000F301808191810E942918F3019183808397
:10344000F701208131812F5F3F4F31832083F401C9
:103450004081F6015081F80180819181850F911D95
:10346000840F911D840F911D2817390711F5F7015D
:1034700011821082FE01EB5BF74F118210823296AF
:1034800011821082442329F0389680819181892B02
:1034900019F4CE010E947319FE01E55BF74F80819C
:1034A000882339F0C359DF4F80589881981301C0A1
:1034B0001082F5018081882349F0108207C06E37A1
:1034C00009F061CFF70111821082F3CFDF91CF9124
:1034D0001F910F91FF90EF90DF90CF90BF90AF9032
:1034E0009F908F907F906F900895FF920F931F93FE
:1034F000CF93DF931F92CDB7DEB78C01F62E88E015
:10350000898369816837E8F589E79DE00E9428058D
:1035100089E79DE00E94AE05811130C0FF2041F097
:1035200041E050E0BE016F5F7F4FC8010E944C191F
:1035300067E574E082EA9EE00E948E304AE050E047
:10354000698182EA9EE00E947D316BE674E082EA46
:103550009EE00E948E3040E150E0698182EA9EE068
:103560000E947D3160E774E082EA9EE00E949B3019
:1035700061E070E080E090E00E94DA2B89818F5F4B
:10358000BFCF0F90DF91CF911F910F91FF900895C2
:10359000CF93C62F83E8860F823090F46DE782EADE
:1035A0009EE00E94CE2EE091A20EF091A30E60E26A
:1035B0006C270190F081E02D82EA9EE0CF91199472
:1035C00082EA9EE0CF910C94CE2E8F929F92AF9282
:1035D000BF92CF92DF92EF92FF920F931F93CF9300
:1035E000DF93EC018C017C0120ECE21A27EFF20A58
:1035F000845B974F6C015E0193EBA91A97EFB90AB0
:10360000F7018081918198012C1B3D0BF601281751
:103610003907C8F48081980122593F4F4901882316
:1036200051F0F9016081F501808191810E94291892
:10363000F50191838083F4016081CE010E94C81A54
:103640000F5F1F4FDDCF8081882369F08E01035B00
:10365000174FF8016081CE010E94C81AF8016181FC
:10366000CE010E94C81AF70111821082C95BD74FA0
:1036700019821882DF91CF911F910F91FF90EF90E7
:10368000DF90CF90BF90AF909F908F900895BF92A2
:10369000CF92DF92EF92FF920F931F93CF93DF931E
:1036A000EC01B62E8C01005C174FFC01E95BF74F73
:1036B00080819181F801918380836EE782EA9EE0A8
:1036C0000E94CE2E7E01F4EBEF1AF7EFFF0AF7010E
:1036D0008081882381F08FEF9FEF6E01F3EBCF1A8B
:1036E000F7EFDF0AF601918380836B2D0E94291882
:1036F000F601918380836B2DCE010E94C81AF801D8
:1037000060817181F70180816038710580F48823C0
:1037100071F17E01F3EBEF1AF7EFFF0AF7018081F9
:1037200091810E942918F7019183808320C088230A
:10373000B1F07068672F7E01F3EBEF1AF7EFFF0A25
:10374000F701808191810E942918F701918380837C
:10375000F80160810E942918F70191838083F801A4
:10376000808191819068692FCE010E94C81AF8016A
:103770006081CE01DF91CF911F910F91FF90EF906B
:10378000DF90CF90BF900C94C81A0F931F93CF93E4
:10379000DF931F92CDB7DEB78C01698341E050E023
:1037A000BE016F5F7F4F0E944C19F801E359FF4F34
:1037B0006081C8010E94471BC8010E94E51A0F9052
:1037C000DF91CF911F910F910895FF920F931F9357
:1037D000CF93DF938A01422F89E79DE00E94A805DD
:1037E000C0E089E79DE00E948704892B71F0FF24E7
:1037F000F394FC0EC8018C0F911DEC0189E79DE04C
:103800000E948F048883CF2DECCF8C2FDF91CF9136
:103810001F910F91FF9008956F927F928F929F92C8
:10382000AF92BF92CF92DF92EF92FF920F931F93CE
:10383000CF93DF93CDB7DEB769970FB6F894DEBFAD
:103840000FBECDBF8C018DB69EB6862F90E0FC01D9
:10385000E058F109EF31F10508F0D6C4EE58FF4FFA
:103860009801205C374F79010C94CA36D9018D91AB
:103870009C91892BF1F4D801ED91FC910280F381A8
:10388000E02DC8011995FC0101900020E9F7AF0176
:1038900041505109481B590BD801ED91FC91028010
:1038A000F381E02D62C0D9018D919C91019709F4BB
:1038B000A0C386E0F801E459FF4F87C4F901808175
:1038C0009181892BB1F7D801ED91FC910480F581AC
:1038D000E02DC8011995FC0101900020E9F7AF0126
:1038E00041505109481B590BD801ED91FC910480BE
:1038F000F581E02D3AC0F90180819181892BC9F6CB
:10390000D801ED91FC910680F781E02DC801199551
:10391000FC0101900020E9F7AF0141505109481B1B
:10392000590BD801ED91FC910680F781E02D1DC067
:10393000F90180819181892B09F0BBCFD801ED91EC
:10394000FC910084F185E02DC8011995FC010190DE
:103950000020E9F7AF0141505109481B590BD8012C
:10396000ED91FC910084F185E02DC801498F588FBD
:103970001995498D588DBC0135C4F901808191811B
:10398000892B09F096CFD801ED91FC910284F38543
:10399000E02DC8011995FC0101900020E9F7AF0165
:1039A00041505109481B590BD801ED91FC910284FB
:1039B000F385E02DDACFF90180819181892B09F01F
:1039C00078CFD801ED91FC910484F585E02DC801F4
:1039D0001995FC0101900020E9F7AF014150510910
:1039E000481B590BD801ED91FC910484F585E02D1D
:1039F000BCCFF90180819181892B09F05ACFD80180
:103A0000ED91FC910684F785E02DC8011995FC0124
:103A100001900020E9F7AF0141505109481B590BB3
:103A2000D801ED91FC910684F785E02D9ECFF90138
:103A300080819181892B09F03CCF4AE050E06CE80D
:103A400074E0D0C3D9018D919C91029709F031CFD8
:103A5000F801EB5BF74F20813181A801420F531F22
:103A6000DA01A259BF4F8C9111966C912E5F3F4F96
:103A7000318320830E94892DC3C3F9018081918104
:103A8000029709F016CFF801EB5BF74F20813181E7
:103A9000A801420F531FDA01A259BF4F8C91119612
:103AA0006C912E5F3F4F318320830E94C22DA8C3AB
:103AB000D9018D919C91019709F0FBCEF801EB5B48
:103AC000F74F20813181D801A20FB31FA259BF4FF8
:103AD0008C912F5F3F4F318320830E94F82DF6C2D7
:103AE000F90180819181029709F0E3CEF801EB5B47
:103AF000F74F20813181D801A20FB31FA259BF4FC8
:103B00008C91A9014F5F5F4F51834083D901A15927
:103B1000BF4FA00FB11F6D917C912D5F3F4F31833F
:103B200020830E946F2C6CC3C80184599F4F26E0EC
:103B3000DC012C93F701208131812230310508F41A
:103B400063C3ADB6BEB6F801EB5BF74F4081518160
:103B5000D801A40FB51FA259BF4F6C914F5F5F4FA3
:103B600051834083462F50E0ADB7BEB7A41BB50BC1
:103B70000FB6F894BEBF0FBEADBF11966D012230D7
:103B8000310511F4613031F04D5F5F4F2417350777
:103B900009F07BC07C2D3601262D271B261788F4C3
:103BA00020813181A801420F531F42595F4FDA0132
:103BB0004C912F5F3F4F31832083D3014D933D01C3
:103BC000EBCFD7012D913C9122303105B1F020810E
:103BD0003181D901A259BF4FA00FB11FED90FC90C8
:103BE0002E5F3F4F31832083B9EEEB16B3E0FB0627
:103BF00038F029E0FC01208348C0EE24E394F12C46
:103C0000DC011C92F092E30DE092E20DC8018259B2
:103C10009F4F9093E70D8093E60D80E0688F0E94A0
:103C2000E405688D613029F4F60180810E947207F5
:103C300012C0D092E00DC092DF0D6093DD0D1092A6
:103C4000DC0D83E897E09093DB0D8093DA0DD601CD
:103C50008C910E9458070E94E8068091E20D909195
:103C6000E30D2091E40D3091E50D28173907C9F7D0
:103C70000E940707EE0CFF1CF801E95BF74F8081FB
:103C80009181E80EF91EF182E0820FB6F894BEBE73
:103C90000FBEADBEB9C2F90180819181039709F0D1
:103CA00008CED801AB5BB74F8D919C911197FC0169
:103CB000E259FF4FE00FF11F60817181F801E80FB9
:103CC000F91FE059FF4F408103968D939C93D801D3
:103CD000ED91FC910288F389E02DC801199590C2FD
:103CE000F90180819181029709F0E3CDD801AB5BA6
:103CF000B74F8D919C911197FC01E259FF4FE00F56
:103D0000F11F6081718102968D939C93D801ED9192
:103D1000FC910088F189E02DC8011995D7C1F901FE
:103D200080819181029709F0C4CDF801EB5BF74FD8
:103D3000808191819801280F391FD901A259BF4F65
:103D40006C911196EC90029691838083CE0101963E
:103D50000E94C703CE0101960E94B503F12C41E0F9
:103D6000BE01615F7F4FCE0101960E94EA03F3948A
:103D7000EF14A8F7980124593F4F7901882309F4DB
:103D800022C248E050E0BE01615F7F4FC8010E943F
:103D90004C1916C2D9018D919C910B9709F089CDD0
:103DA000D801AB5BB74F2D913C911197A801420F01
:103DB000531FFA01E259FF4F60816901EFEFCE1AFC
:103DC000DE0A1196DC92CE923E01FFE06F0E711C6E
:103DD00080E090E0B62CA72CC00ED11E7601E80E34
:103DE000F91E7EE6E70EF11CF701F080F301F19277
:103DF0003F0101968830910589F7FA01E958FF4F94
:103E0000F0803196E080255F3F4F2D933C93CE01AB
:103E100001960E94C703CE0101960E9492026B2D6B
:103E20007A2DCE0101960E948D0340E06F2DCE01C8
:103E300001960E942F03F12CFE1409F4E1C1CE017A
:103E400001960E9471038F8B41E050E0BE01695ED4
:103E50007F4FC8010E944C19F394EECFD9018D9188
:103E60009C910B9709F025CDD801AB5BB74F2D91F5
:103E70003C911197A801420F531FFA01E259FF4FDD
:103E800060816901EFEFCE1ADE0A1196DC92CE92C4
:103E90003E01FFE06F0E711C80E090E0B62CA72C75
:103EA000C00ED11E7601E80EF91E7EE6E70EF11C6B
:103EB000F701F080F301F1923F01019688309105FE
:103EC00089F7FA01E958FF4FF08031964081255F6C
:103ED0003F4F2D933C93CE010196498F0E94C7031B
:103EE000CE0101960E9492026B2D7A2DCE01019691
:103EF0000E948D03498D6F2DCE0101960E942F03E4
:103F00007FC1D9018D919C91029709F0D2CCF80123
:103F1000EB5BF74F808191819801280F391FD90100
:103F2000A259BF4F6C911196EC90029691838083B9
:103F30004E2D89E79DE00E94A805F12C89E79DE0C0
:103F40000E948704892B79F089E79DE00E948F0405
:103F5000898341E050E0BE016F5F7F4FC8010E943E
:103F60004C19F394EBCFF801E459FF4FFE1409F418
:103F70004AC181E02AC1F90180819181029708F448
:103F800098CC6801FBEBCF1AF7EFDF0AD6018D91D1
:103F90009C911197F801E80FF91FE259FF4F6081DA
:103FA00001968D939C9389E79DE00E942805B12C92
:103FB0002B2D30E0F7018081918101972817390777
:103FC00098F4F60180819181F801E80FF91FE25918
:103FD000FF4F60810196D6018D939C9389E79DE008
:103FE0000E94DF04B394E4CF89E79DE00E94AE0510
:103FF00007C1F801EB5BF74F80819181D801A80FD1
:10400000B91FA259BF4F2C910196918380838CB523
:10401000211102C0806201C08F7D8CBDF1C0F90109
:1040200080819181019709F044CCF801EB5BF74F57
:1040300080819181D801A80FB91FA259BF4F2C913F
:104040000196918380839CB5822F83709C7F892BFE
:104050008CBD8DB522FB222720F98E7F822B8DBD52
:1040600018C0D9018D919C91019709F022CCF801DB
:10407000EB5BF74F80819181D801A80FB91FA2593E
:10408000BF4F2C910196918380838CB5837F282B21
:104090002CBDE95DF740B7C0F9018081918101979E
:1040A00009F007CCF801EB5BF74F80819181D801D3
:1040B000A80FB91FA259BF4F2C91019691838083FD
:1040C0002EBD00000DB407FEFDCF8EB5898341E003
:1040D00050E0BE016F5F7F4F85C0D9018D919C91EB
:1040E000892B09F0E6CBF801EA59FF4F4081518155
:1040F000B8016E5F7F4F76C0F90180819181892B75
:1041000009F0D7CB8091D40D9091D50DA091D60D0B
:10411000B091D70D89839A83AB83BC8344E050E090
:10412000D8CFD9018D919C91049709F0C2CBD801C9
:10413000AB5BB74F2D913C911197F901E259FF4FBD
:10414000E00FF11F60817181828193812C5F3F4F6D
:104150002D933C930E94F90553C0F9018081918110
:10416000892B09F0A6CB0E94CB059A83898342E074
:1041700050E0AFCFD9018D919C91029709F099CB76
:10418000D801AB5BB74F2D913C911197F901E259E2
:10419000FF4FE00FF11F808191812E5F3F4F2D93E4
:1041A0003C939C0122503109F801E459FF4F7F01F3
:1041B0002630310540F40E94C20580E00E948B0643
:1041C000D7011C9221C085E0F70180831DC0D90171
:1041D0008D919C91892B09F06CCB44E050E0B801A3
:1041E00068597F4FC8010E944C190AC0F9018081AB
:1041F0009181892B09F05DCB61E0C8010E94751A9D
:10420000F801E459FF4F10827801FCE6EF0EF11C33
:10421000D7016C91C8010E94C51BF70180810FB6C0
:10422000F8949EBE0FBE8DBE69960FB6F894DEBFA1
:104230000FBECDBFDF91CF911F910F91FF90EF90F7
:10424000DF90CF90BF90AF909F908F907F906F90B6
:104250000895CF93DF931F92CDB7DEB789E79DE036
:1042600049830E9428054981642F89E79DE00E94C7
:10427000DF0489E79DE00F90DF91CF910C94AE05AC
:10428000EF92FF920F931F93CF93DF931F921F9292
:10429000CDB7DEB7122F89E79DE049835A830E948C
:1042A00028054981042FE42E5A81F52E8E2D801B7E
:1042B000811740F4F70161917F0189E79DE00E9439
:1042C000DF04F4CF89E79DE00F900F90DF91CF914D
:1042D0001F910F91FF90EF900C94AE05CF93DF9359
:1042E000EC0182EA9EE00E94212E181619064CF479
:1042F00082EA9EE00E943A2E682FCE010E949F190A
:10430000F0CFDF91CF9108952091E40D3091E50D2C
:104310008091E20D9091E30D2817390721F40E9456
:10432000070781E0089580E00895CF93DF93D82FA9
:10433000C62F811116C0613041F028F0623009F0BB
:1043400058C060E009C061E007C060E088E00E94FA
:10435000C22D61E089E02BC088E00E94C22D60E0A0
:10436000F9CF813009F045C0623099F050F46623EE
:1043700071F06130F1F560E08AE00E94C22D61E0E9
:1043800033C06330F9F06430A1F560E029C061E02A
:1043900027C060E08AE00E94C22D60E08BE00E94AE
:1043A000C22D61E08CE00E94C22D60E08DE00E9491
:1043B000C22D8BE1D89FF0011124E35AF14FC18344
:1043C00080E018C060E08AE00E94C22D60E08BE0CF
:1043D0000E94C22D60E08CE00E94C22D61E0E6CF19
:1043E0008AE00E94C22D60E08BE00E94C22D60E056
:1043F000D9CF85E0DF91CF9108959093960E809369
:10440000950E60935D0E4093780E60E078EB88E047
:1044100097E40E94F90561E088E00E94892D61E03F
:1044200089E00E94892D61E08AE00E94892D61E087
:104430008BE00E94892D61E08CE00E94892D61E073
:104440008DE00E94892D83E00E94C20560915E0E7E
:1044500080E00E9495216091790E81E00E94952173
:1044600020E032E03093730E2093720E80E090E0F3
:10447000A0E0B4E48093740E9093750EA093760E32
:10448000B093770E41E040936D0E30938E0E2093E3
:104490008D0E80938F0E9093900EA093910EB093FB
:1044A000920E4093880E08950F931F93CF93DF933E
:1044B000AB019BE1899FE0011124C35AD14F9B01BD
:1044C000235331092A393340B0F09B81911110C038
:1044D0009A819F5F9A836981662321F061500E94CF
:1044E000952103C081E08093930E83E08B8337C0D6
:1044F00091509B8334C08091940E882309F18D895B
:104500009E89DB01A81BB90B9D010E94D036098949
:104510001A892B893C89060F171F281F391F098B01
:104520001A8B2B8B3C8B88859985AA85BB85840F3C
:10453000951FA11DB11D88879987AA87BB870FC0CA
:104540008C819D818617970718F47D836C8307C043
:104550008E819F816817790710F47F836E83DF91C6
:10456000CF911F910F91089580E00C94542281E027
:104570000C9454222F923F924F925F926F927F92AF
:104580008F929F92AF92BF92CF92DF92EF92FF9263
:104590000F931F93CF93DF93CDB7DEB764970FB61A
:1045A000F894DEBF0FBECDBF29013A01E986FA8635
:1045B0000B871C871601BA8AA98A0E94E43520E07D
:1045C00030E04AE754E40E9455349B01AC010E945C
:1045D000DA336B017C0120E030E0A9010E94E03574
:1045E00020E030E040E05FE387FD05C0C701B60191
:1045F0000E94DA3304C0C701B6010E94D9330E9479
:10460000BD340E94F03420E030E040E05FE30E94DF
:10461000E4356D837E838F839887A30192016D813A
:104620007E818F8198850E94553429853A854B85F6
:104630005C850E94E4350E943E340E94C2348B01A6
:104640000230110508F42DC3B80180E090E00E940B
:10465000EE342D813E814F8158850E945534A3014F
:1046600092010E94E43569837A838B839C83D10114
:104670006D937D938D939C93139729853A854B85F4
:104680005C850E94E03518160CF408C3A301920162
:1046900069817A818B819C810E9455346B017C01F8
:1046A0009B01AC0160E070E080E090E40E94553432
:1046B0004B015C0120E030E0A9010E94E03520E0E0
:1046C00030E040E05FE387FD05C0C501B4010E9412
:1046D000DA3304C0C501B4010E94D9330E94BD344D
:1046E0000E94F034A70196010E94E4359B01AC01C1
:1046F00060E070E080E090E40E94D93320E030E098
:10470000A9010E94E03520E030E0A901181664F507
:10471000C501B4010E94E03520E030E040E05FE3F5
:1047200087FD05C0C501B4010E94DA3304C0C5018C
:10473000B4010E94D9330E94BD340E94F034A70115
:1047400096010E94E4359B01AC0160E070E080E0DE
:1047500090E40E94D9332DEC3CEC4CEC5DE30E94DC
:10476000513487FD9BC22CC0C501B4010E94E035C5
:1047700020E030E040E05FE387FD05C0C501B40103
:104780000E94DA3304C0C501B4010E94D9330E94EB
:10479000BD340E94F034A70196010E94E4359B01CC
:1047A000AC0160E070E080E090E40E94D9332DEC31
:1047B0003CEC4CEC5DEB0E94E03518160CF46EC23C
:1047C000A3019201C301B2010E94DA339B01AC0143
:1047D00069817A818B819C810E94513487FF61C1FC
:1047E00029813A814B815C81C301B2010E94553419
:1047F0006D877E878F87988B1C8A1B8AEB89FC8943
:10480000BF0180E090E00E94EE344B015C019B010F
:10481000AC016D857E858F8598890E94D93320E013
:1048200030E040E05FE30E94513418163CF42B89DD
:104830003C892F5F3F4F3C8B2B8BE0CF29813A8106
:104840004B815C81C501B4010E94E4359B01AC0140
:10485000C301B2010E94D9334B015C0120E030E07A
:10486000A9010E94E035181624F0B7FAB094B7F801
:10487000B094A501940169817A818B819C810E9409
:10488000553469837A838B839C839B01AC0160E000
:1048900070E080E090E40E9455344B015C0120E020
:1048A00030E0A9010E94E03520E030E040E05FE325
:1048B00087FD05C0C501B4010E94DA3304C0C501FB
:1048C000B4010E94D9330E94BD340E94F034298182
:1048D0003A814B815C810E94E4359B01AC0160E030
:1048E00070E080E090E40E94D93320E030E0A9013C
:1048F0000E94E03520E030E0A901181674F5C501EA
:10490000B4010E94E03520E030E040E05FE387FD45
:1049100005C0C501B4010E94DA3304C0C501B40169
:104920000E94D9330E94BD340E94F03429813A811B
:104930004B815C810E94E4359B01AC0160E070E03A
:1049400080E090E40E94D9332DEC3CEC4CEC5DE32C
:104950000E94513487FF2FC0A1C1C501B4010E943C
:10496000E03520E030E040E05FE387FD05C0C501B1
:10497000B4010E94DA3304C0C501B4010E94D933E6
:104980000E94BD340E94F03429813A814B815C81C0
:104990000E94E4359B01AC0160E070E080E090E4AF
:1049A0000E94D9332DEC3CEC4CEC5DEB0E94E035E1
:1049B00018160CF473C120E030E0A901C701B6015C
:1049C0000E94E03520E030E040E05FE387FD05C075
:1049D000C701B6010E94DA3304C0C701B6010E94C4
:1049E000D9330E94BD340E94F0349B01AC01C70151
:1049F000B6010E94D93320E030E0A9010E94E035E1
:104A000020E030E0A901181634F5C701B6010E9474
:104A1000E03520E030E040E05FE387FD05C0C701FE
:104A2000B6010E94DA3304C0C701B6010E94D9332F
:104A30000E94BD340E94F0349B01AC01C701B60155
:104A40000E94D93327E137EB41ED58E30E945134FE
:104A500087FF27C023C1C701B6010E94E03520E0CF
:104A600030E040E05FE387FD05C0C701B6010E946A
:104A7000DA3304C0C701B6010E94D9330E94BD34A5
:104A80000E94F0349B01AC01C701B6010E94D933EA
:104A900027E137EB41ED58EB0E94E03518160CF496
:104AA000FDC020E030E040E251E4C701B6010E94C1
:104AB000513487FF76C020E030E0A901C701B6017C
:104AC0000E94E03520E030E040E05FE387FD05C074
:104AD000C701B6010E94DA3304C0C701B6010E94C3
:104AE000D9330E94BD340E94F0349B01AC01C70150
:104AF000B6010E94D93320E030E0A9010E94E035E0
:104B000020E030E0A901181634F5C701B6010E9473
:104B1000E03520E030E040E05FE387FD05C0C701FD
:104B2000B6010E94DA3304C0C701B6010E94D9332E
:104B30000E94BD340E94F0349B01AC01C701B60154
:104B40000E94D93327E137EB41ED58E30E945134FD
:104B500087FF27C0A3C0C701B6010E94E03520E04F
:104B600030E040E05FE387FD05C0C701B6010E9469
:104B7000DA3304C0C701B6010E94D9330E94BD34A4
:104B80000E94F0349B01AC01C701B6010E94D933E9
:104B900027E137EB41ED58EB0E94E03518160CF495
:104BA0007DC02D813E814F815885C701B6010E948D
:104BB000E4356B017C0120E030E0A9010E94E03582
:104BC00020E030E040E05FE387FD05C0C701B601AB
:104BD0000E94DA3304C0C701B6010E94D9330E9493
:104BE000BD340E94F0349B01AC01C701B6010E94A4
:104BF000D93320E030E0A9010E94E03520E030E028
:104C0000A901181634F5C701B6010E94E03520E06D
:104C100030E040E05FE387FD05C0C701B6010E94B8
:104C2000DA3304C0C701B6010E94D9330E94BD34F3
:104C30000E94F0349B01AC01C701B6010E94D93338
:104C400027E137EB41ED58E30E94513487FF26C03E
:104C500033C0C701B6010E94E03520E030E040E0FB
:104C60005FE387FD05C0C701B6010E94DA3304C0C7
:104C7000C701B6010E94D9330E94BD340E94F034AE
:104C80009B01AC01C701B6010E94D93327E137EB84
:104C900041ED58EB0E94E035181674F001501109EF
:104CA000CFCC20E030E040E05FE36D817E818F81FA
:104CB00098850E94DA33ADCCA989BA890D931C93EB
:104CC00064960FB6F894DEBF0FBECDBFDF91CF91D3
:104CD0001F910F91FF90EF90DF90CF90BF90AF901A
:104CE0009F908F907F906F905F904F903F902F900C
:104CF000089510925E0E1092790E08952F923F92B1
:104D00004F925F926F927F928F929F92AF92BF92DB
:104D1000CF92DF92EF92FF920F931F93CF93DF9387
:104D2000CDB7DEB7C65ED1090FB6F894DEBF0FBEB1
:104D3000CDBFC052DF4F59834883C05ED040CE51B3
:104D4000DF4F088319832A833B83C25ED04026014C
:104D50003701CD52DF4FA882C35DD0408092940EC0
:104D6000AA2031F1A7E9AA2EAEE0BA2EAE0149532E
:104D70005F4F6A01E12C10E4F12E0CE916E4A30167
:104D800092010E94BA22C953DF4F688179818A81DA
:104D90009B81C75CD0409B01AC010E94DA33C953B0
:104DA000DF4F688379838A839B83C75CD04017C0B9
:104DB00020E030E040E05FE30E94E435E7E9AE2E1A
:104DC000EEE0BE2EDE01A953BF4F6D01E12C10E4D1
:104DD000F12E0CE117E4A30192010E94BA22809106
:104DE000970E9091980E880F991F9093980E80932C
:104DF000970EC953DF4F688179818A819B81C75C97
:104E0000D0400E94F905B0915E0EC252DF4FB883C8
:104E1000CE5DD04012E0C353DF4F1883CD5CD0404D
:104E200062E080E00E949521E091790EC152DF4F4F
:104E3000E883CF5DD04084E0C253DF4F8883CE5CEF
:104E4000D04064E081E00E94952180915D0EFE01DA
:104E5000E553FF4F80839091780E91832091970EB8
:104E60003091980ECD52DF4F4881C35DD04044232E
:104E700009F13093E30D2093E20DF093E00DE09300
:104E8000DF0D1093DD0D1092DC0D23E837E0309339
:104E9000DB0D2093DA0D0E9458078BE997E0909381
:104EA000DB0D8093DA0D84E592E29093D90D809327
:104EB000D80D06C0369527953093E30D2093E20D6B
:104EC000E090950EF090960EF701E859FF4F20E024
:104ED00030EC4FE754E460817181828193810E94BC
:104EE00055342B013C018E0105541F4F1E0155E125
:104EF000250E311CCE01825A9F4FDC011896C153FA
:104F0000DF4FB983A883CF5CD040F8013C96CC52E8
:104F1000DF4FF983E883C45DD040C652DF4F8883FA
:104F2000CA5DD040CA51DF4F9883C65ED04097011A
:104F30002B59374FCF52DF4F39832883C15DD04083
:104F4000A701445A574FC852DF4F59834883C85D61
:104F5000D04080915D0ECF52DF4FE881F981C15D75
:104F6000D040C652DF4FA881CA5DD040CA51DF4F42
:104F7000B881C65ED0409DE501900D929A95E1F70B
:104F8000882369F08130B1F4C153DF4FE881F981A2
:104F9000CF5CD040208D318D428D538D0EC0C153DA
:104FA000DF4FA881B981CF5CD0402D913D914D91CB
:104FB0005C9103C020E030E0A901CF52DF4FE881CF
:104FC000F981C15DD040DE0111969DE501900D9201
:104FD0009A95E1F7882341F0813061F4F101C0A096
:104FE000D1A0E2A0F3A009C0D101CD90DD90ED9059
:104FF000FC9003C0C12CD12C760160E876E988E1F1
:105000009BE40E9455344B015C0120E836E948E1FD
:105010005BE4C701B6010E94E4359B01AC010E942C
:10502000DA332BED3FE049E450E40E94E435C85206
:10503000DF4FA881B981C85DD0402D913D914D9140
:105040005C910E94E4356B017C01A5019401C501CE
:10505000B4010E94E4354B015C01A7019601C70130
:10506000B6010E94E4359B01AC01C501B4010E9468
:10507000DA330E944B369B01AC01C301B2010E949E
:10508000E435F80161937193819391938F01F4E07A
:105090002F0E311CC153DF4F28813981CF5CD040A6
:1050A0002C5F3F4FC153DF4F39832883CF5CD04003
:1050B000CC52DF4F48815981C45DD0400417150799
:1050C00009F047CF1092930ECF52DF4F198218820A
:1050D000C15DD040CF52DF4F88819981C15DD04002
:1050E000C052DF4FA881B981C05ED0408A179B07AC
:1050F00091F4C252DF4F6881CE5DD04080E00E94C3
:105100009521C152DF4F6881CF5DD04081E00E9480
:10511000952180E0C8C28091940E10925F0E10928B
:10512000600E81110BC0EFEFF3E0F093640EE0939B
:10513000630E1092620E1092610E10C01092650EF6
:105140001092660E1092670E1092680E10926E0EFC
:1051500010926F0E1092700E1092710E10927A0EC5
:1051600010927B0E882389F01092800E1092810E8F
:105170001092820E1092830E1092890E10928A0E57
:1051800010928B0E10928C0E0AC08FEF93E09093CA
:105190007F0E80937E0E10927D0E10927C0ECD526B
:1051A000DF4F9881C35DD040992309F440C00E942D
:1051B000E8060E9484218823E1F30E94B72BCC5299
:1051C000DF4F688379838A839B83C45DD040A0913D
:1051D000940EC852DF4FA883C85DD0402091970E2F
:1051E0003091980EFE01E353FF4FC153DF4FF98317
:1051F000E883CF5CD0400DE51EE0AE014F5F5F4F0E
:105200002A018091930E81113FC0CE01825A9F4F97
:105210001C01612C712CC901A0E0B0E0C652DF4F27
:1052200088839983AA83BB83CA5DD040ACC0809138
:105230005D0E0E947207ABE9B7E0B093DB0DA0935F
:10524000DA0DE4EBF2E2F093D90DE093D80D0E9471
:10525000E8060E9484218823E1F38091780E0E9461
:1052600072072BE937E03093DB0D2093DA0D47EB23
:1052700052E25093D90D4093D80D0E94E8060E9447
:1052800084218823E1F399CF8091950E9091960E19
:105290000E94540B20E040E050E0BA018091950E4E
:1052A0009091960E0E94250E80E2FDC1C652DF4FFE
:1052B000688179818A819B81CA5DD0400E94EE34E9
:1052C0006B017C01D80151966D917D918D919C91DE
:1052D00054970E94EE349B01AC010E94DA33A7017F
:1052E00096010E9455340E944B36F201608371830F
:1052F0008283938320E030E040E852E40E94E4356A
:105300009B01AC010E94DA3323EF34E045EB5FE30D
:105310000E94E4350E94C234D1016D937C93F30165
:10532000E35AF14F82818823B9F1F301E35AF14F37
:105330008281882309F4B3C08195C153DF4FA881CE
:10534000B981CF5CD0408C93B1E0B08BC153DF4FBB
:10535000E881F981CF5CD0403196C153DF4FF983AA
:10536000E883CF5CD040FBE16F0E711C055E1F4FE0
:1053700022E0220E311C34E0430E511C46E3641639
:10538000710409F496C0C852DF4F5881C85DD040FF
:10539000552309F45AC08ACF80898111C6CFF801FC
:1053A00080849184A284B38464857585868597857D
:1053B000680D791D8A1D9B1D0E94EE342AE037ED91
:1053C00043E25CE30E94E435A70196010E94553454
:1053D0006B017C0124EA30E74DE75FE3D801579683
:1053E0006D917D918D919C915A970E94E4359B011E
:1053F000AC01C701B6010E94DA336B017C01F801F0
:10540000678B708F818F928F20E030E0A9010E941E
:10541000E03520E030E040E05FE387FD05C0C701F4
:10542000B6010E94DA3304C0C701B6010E94D93325
:105430000E94BD34D80156967C936E935597F8011F
:1054400084869586A686B78670CFD80114966D910E
:105450007C91159716968D919C911797681B790BE7
:1054600096E0660F771F9A95E1F7F10171836083EB
:1054700080E090E00E94EE3423EF34E045EB5FE300
:105480000E94553420E030E040E05CE30E94E435C7
:10549000D2016D937D938D939C93139746CF818119
:1054A000C153DF4FA881B981CF5CD0408C93108A63
:1054B0004DCF0091950E1091960EF801EC59F74FD3
:1054C0008081882309F454C080915F0E811150C0FF
:1054D0003C97C080D180E280F38020E030E0A901D9
:1054E000C701B6010E94E03518160CF041C0C35345
:1054F000DF4F8881CD5CD040EBEBF0E0EC0FFD1F7F
:1055000024E08202E00DF11D1124208131814281CD
:10551000538169817A818B819C810E94E4352B01C2
:105520003C01A70196010E94D9334B015C0120E0A8
:1055300030E0A9010E94E035181624F0B7FAB094C3
:10554000B7F8B09420E030E040E05FE3F801EF54BA
:10555000F74F60817181828193810E94E4359B01C4
:10556000AC01C501B4010E94E03518160CF476C0F8
:105570000EE51EE0CE01825A9F4F6C01E12CF12C0A
:10558000D6018D919C91893C9C4030F4F80160815A
:105590006F5F8E2D0E94952142E050E0B601809110
:1055A000950E9091960E0E944C196DEC70E06C0F68
:1055B0007D1F6E0D7F1D41E050E08091950E909112
:1055C000960E0E944C19FFEFEF1AFF0A22E0C20E5E
:1055D000D11C055E1F4F32E0E316F10489F682EA22
:1055E0009EE00E94212E181619060CF482CD0E940E
:1055F000B72BCC52DF4F288139814A815B81C45D52
:10560000D040621B730B840B950B0E94EE346B0130
:105610007C0120E030E04AE754E4CE51DF4F68815E
:1056200079818A819B81C25ED0400E94E4359B01D2
:10563000AC01C701B6010E94513487FDD8CFCF52CB
:10564000DF4F48815981C15DD0404F5F5F4FCF52DE
:10565000DF4F59834883C15DD0403CCDF801E05A0B
:10566000F74F2081318142815381C301B2010E94F1
:10567000E435A70196010E9455346B017C0120E0BE
:1056800030E040E85FE30E94513487FF06C0C12C40
:10569000D12C80E8E82E8FE3F82EB701A601C801CF
:1056A0000E94A90E65CFCA51DF4F0FB6F894DEBF36
:1056B0000FBECDBFDF91CF911F910F91FF90EF9063
:1056C000DF90CF90BF90AF909F908F907F906F9022
:1056D0005F904F903F902F9008951F920F920FB6BA
:1056E0000F9211242F933F938F939F93AF93BF9368
:1056F00080919A0E90919B0EA0919C0EB0919D0E60
:105700003091990E23E0230F2D3720F40196A11D2F
:10571000B11D05C026E8230F0296A11DB11D2093DF
:10572000990E80939A0E90939B0EA0939C0EB0932B
:105730009D0E80919E0E90919F0EA091A00EB09113
:10574000A10E0196A11DB11D80939E0E90939F0EF8
:10575000A093A00EB093A10EBF91AF919F918F9196
:105760003F912F910F900FBE0F901F9018953FB74C
:10577000F89480919E0E90919F0EA091A00EB091F2
:10578000A10E26B5A89B05C02F3F19F00196A11DBB
:10579000B11D3FBF6627782F892F9A2F620F711D89
:1057A000811D911D42E0660F771F881F991F4A9542
:1057B000D1F70895CF92DF92EF92FF92CF93DF93CC
:1057C0006B017C010E94B72BEB01C114D104E104F1
:1057D000F10489F00E94D8330E94B72B6C1B7D0B1B
:1057E000683E734090F381E0C81AD108E108F108DF
:1057F000C851DC4FEACFDF91CF91FF90EF90DF905F
:10580000CF9008958230910538F0880F991F880F46
:10581000991F05970197F1F70895789484B58260F0
:1058200084BD84B5816084BD85B5826085BD85B544
:10583000816085BDEEE6F0E0808181608083E1E8F3
:10584000F0E010828081826080838081816080832B
:10585000E0E8F0E0808181608083E1EBF0E080812E
:1058600084608083E0EBF0E0808181608083E1E907
:10587000F0E0808182608083808181608083E0E9C4
:10588000F0E0808181608083E1EAF0E080818260E5
:105890008083808181608083E0EAF0E080818160A4
:1058A0008083E1E2F1E08081826080838081816099
:1058B0008083E0E2F1E0808181608083EAE7F0E0CC
:1058C0008081846080838081826080838081816028
:1058D00080838081806880831092C10008951F9327
:1058E000CF93DF93182FEB0161E00E94892D209761
:1058F00011F460E004C0CF3FD10539F461E0812F9D
:10590000DF91CF911F910C94C22DE12FF0E0E65969
:10591000FE4F449150E0FA013197E231F10508F071
:105920009BC0EF56FF4F0C94CA3684B5806884BD87
:10593000C7BD97C084B5806284BDC8BD92C0809148
:105940008000806880938000D0938900C093880095
:1059500088C080918000806280938000D0938B000B
:10596000C0938A007EC08091800088608093800010
:10597000D0938D00C0938C0074C08091B00080687B
:105980008093B000C093B3006CC08091B00080627F
:105990008093B000C093B40064C080919000806890
:1059A00080939000D0939900C09398005AC0809142
:1059B0009000806280939000D0939B00C0939A00E7
:1059C00050C080919000886080939000D0939D009B
:1059D000C0939C0046C08091A00080688093A00086
:1059E0008091A0008F7B8093A000D093A900C093EA
:1059F000A80037C08091A00080628093A000D0935F
:105A0000AB00C093AA002DC08091A0008860809355
:105A1000A000D093AD00C093AC0023C080912001C2
:105A2000806880932001D0932901C093280119C078
:105A300080912001806280932001D0932B01C0933C
:105A40002A010FC080912001886080932001D093AB
:105A50002D01C0932C0105C0C038D1050CF04ECFEC
:105A600048CFDF91CF911F91089590E0FC013197CD
:105A7000E231F10508F04CC0ED55FF4F0C94CA36E9
:105A8000809180008F7703C0809180008F7D80930C
:105A90008000089580918000877FF9CF84B58F774B
:105AA00002C084B58F7D84BD08958091B0008F774A
:105AB00003C08091B0008F7D8093B00008958091E5
:105AC00090008F7707C0809190008F7D03C08091F8
:105AD0009000877F8093900008958091A0008F7739
