:100000000C948C010C94BD010C94BD010C94BD01A9
:100010000C94BD010C94BD010C94BD010C94BD0168
:100020000C94BD010C94BD010C94BD010C94BD0158
:100030000C94BD010C94BD010C94BD010C94BD0148
:100040000C94BD010C94BD010C94BD010C94BD0138
:100050000C943B050C94BD010C94BD010C946C2BCD
:100060000C94BD010C94972F0C94CD2F0C94BD01D2
:100070000C94BD010C9410050C94BD010C94BD01B1
:100080000C94BD010C94BD010C94BD010C94820A2A
:100090000C94BD010C94BD010C94BD010C9423087B
:1000A0000C94BD010C94BD010C94BD010C94BD01D8
:1000B0000C94BD010C94BD010C94BD010C94BD01C8
:1000C0000C94BD010C94BD010C94BD010C94BD01B8
:1000D0000C94BD010C94BD010C94BD010C94BD01A8
:1000E0000C94BD01811CA91CC61CE31C261D081D07
:1000F000441D6D1DA31D881DDF1DBB1DBB1E961E4F
:10010000DA1E791F151F0620CC1F9E1C5A207C204A
:100110009720B820621DC720DC20F820052132215D
:100120004121972C9C2CA12CAB2CB52C2E2DBF2C17
:10013000C72CCF2CD92CE32CED2CFC2C062D2E2DEE
:10014000102D1A2D242D502D532D422D462D4C2D82
:100150008A2D572D5B2D612D652D692D6F2D732DEA
:10016000772D8A2D7D2D812D852D08000000BE92D2
:100170002449123EABAAAA2ABECDCCCC4C3E0000EC
:100180000080BEABAAAAAA3E00000000BF0000008B
:10019000803F0000000000084178D3BB4387D113A3
:1001A0003D190E3CC3BD4282AD2B3E68EC8276BE4B
:1001B000D98FE1A93E4C80EFFFBE01C4FF7F3F0015
:1001C0000000000007634236B79BD8A71A3968566B
:1001D00018AEBAAB558C1D3CB7CC5763BD6DEDFD69
:1001E000753EF6177231BF000000803F00000A0B19
:1001F00002090C0D0E0807030401000000000000B6
:1002000000000000000000000000000000000000EE
:1002100000000000000000001211100000000000AB
:1002200000000000000000000000000000000000CE
:1002300000000102102020080810204010204080FB
:10024000020102010804020101020408102040809A
:100250008040201008040201800402018040201028
:100260000804020108040201010204081020408071
:10027000010204081020408005050505070508084F
:100280000808020202020A0A080804040404010120
:100290000101010101010303030303030303040735
:1002A00007070C0C0C0C0C0C0C0C020202020606CC
:1002B0000606060606060B0B0B0B0B0B0B0B0000C2
:1002C00020002300260029002C002F00320000010E
:1002D000000003010601090100002200250028009A
:1002E0002B002E003100340002010000050108013E
:1002F0000B0100002100240027002A002D003000FF
:10030000330001010000040107010A01F301450562
:100310007E0A84260130F70111241FBECFEFD1E2FF
:10032000DEBFCDBF00E00CBF14E0A0E0B2E0E0E92A
:10033000F5E700E00BBF02C007900D92A03BB107AC
:10034000D9F72FE0A0EBB4E001C01D92AF32B207A5
:10035000E1F713E0C6E1D3E000E006C0229701090F
:10036000FE010BBF0E944738CC30D10780E0080760
:10037000A9F70E9490020C94B63A0C940000809168
:10038000060290910702019690930702809306025D
:10039000089580EB94E00E94A22180910602909142
:1003A000070269E170E00E94ED37892BD9F4809152
:1003B000020D882389F08091030D81110BC0E0911B
:1003C000B004F091B1040688F789E02D80EB94E049
:1003D000199502C01092030D81E090E090930702FE
:1003E00080930602089580EB94E00C940B0B80EB55
:1003F00094E00C941C0B80E180939100109290008B
:1004000085E08093450E86E998E99093470E8093A6
:10041000460E909397008093960085E1809391001B
:100420008FEB91E09093440E8093430E81E0809394
:10043000710080EB94E00E94B60E69E072E08EE8F5
:100440009EE00E9490306FEF71E2605072404AE08F
:1004500050E08EE89EE00E945A316EE072E08EE835
:100460009EE00E94903060EB74E0605072404AE081
:1004700050E08EE89EE00E945A3165E172E08EE81D
:100480009EE00E9490306FE27FE0605B74404AE043
:1004900050E08EE89EE00E945A316BE172E08EE8F7
:1004A0009EE00E94903060912B0F70912C0F61158F
:1004B000710519F06F527F4002C060E070E04AE0C1
:1004C00050E08EE89EE00E945A3161E272E08EE8D0
:1004D0009EE00E9490308DB79EB76FEF71E2681B6F
:1004E000790B4AE050E08EE89EE00E945A3168E2C3
:1004F00072E08EE89EE00E94903080912B0F9091E8
:100500002C0F6DB77EB7009719F46F527F4002C071
:10051000681B790B4AE050E08EE89EE00C945A315B
:100520000E940C2C0E94FB01C0E5DEE20E94C90182
:100530002097E1F30E94502EF9CFECE7F0E0908194
:100540009F739083208130E4839FC0011124282B66
:1005500020830895EAE7F0E09081987F908390816E
:10056000982B9083089580917A00877090E0089589
:10057000E1E8F0E08081887F808308950E94B802DE
:100580001092850010928400E1E8F0E08081909163
:10059000640D892B80830895882321F080917C004D
:1005A000806203C080917C008F7D80937C000895E1
:1005B000EBE7F0E09081987F90839081982B908377
:1005C0000895CF92DF92EF92FF92CF936B017C015F
:1005D00080E18093810010928000A701960160E085
:1005E00074E284E799E40E94573420E030E040E070
:1005F00051E40E942B360E94C4346115710521E03C
:100600008207910528F421E02093640DCB014CC0B2
:100610006115710528E08207910568F422E02093B6
:10062000640DDC01CB0153E0B695A79597958795AE
:100630005A95D1F739C06115710520E482079105FB
:1006400068F423E02093640DDC01CB0146E0B6950D
:10065000A795979587954A95D1F726C0611571059D
:10066000810521E0920740F424E02093640DBB272C
:10067000A92F982F872F18C061157105810524E0D7
:10068000920768F425E02093640DDC01CB012AE099
:10069000B695A795979587952A95D1F705C085E0DA
:1006A0008093640D8FEF9FEF909387008093860077
:1006B000C1E0C0936F0086E00E94D802C0937A0D1B
:1006C00080917A00806280937A00C0926D0DD09202
:1006D0006E0DE0926F0DF092700DCF91FF90EF9044
:1006E000DF90CF90089580937A0D882321F0809138
:1006F0007A00806203C080917A008F7D80937A00B7
:100700000895EAE7F0E08081806480830895CF93C4
:10071000DF93D0917800C091790040917D0D509188
:100720007E0D20917B0D30917C0D42175307A8F56B
:1007300080917A0D811102C00E9481038D2F90E07B
:100740009C2B20917C0025FF13C0E091810DF0913E
:10075000820D20917D0D30917E0DA9014F5F5F4F7D
:1007600050937E0D40937D0DE20FF31F908315C0D3
:10077000E0917F0DF091800D20917D0D30917E0DE7
:10078000A9014F5F5F4F50937E0D40937D0D220F67
:10079000331FE20FF31F91838083DF91CF91089580
:1007A00010927E0D10927D0D80917A0D0E94730340
:1007B0000E94B62B6093650D7093660D8093670D54
:1007C0009093680D80917A00886C80937A00809174
:1007D0007B008770863011F40C94BE0208958F92CE
:1007E0009F92AF92BF92CF92DF92EF92FF920E94C0
:1007F000B62B4B015C0180917A00877D80937A0053
:1008000080917B008770863011F40E94B80260915D
:100810007B0D70917C0D80E090E00E94F03420E030
:1008200034E244E759E40E942B366B017C0180914D
:10083000650D9091660DA091670DB091680DA501B1
:100840009401281B390B4A0B5B0BCA01B9010E94AA
:10085000F0349B01AC01C701B6010E94573460938C
:10086000690D70936A0D80936B0D90936C0DFF90E2
:10087000EF90DF90CF90BF90AF909F908F900895B2
:100880008093770D90917C00907F90937C002091D5
:100890007C00982F9770922B90937C00883020F0EA
:1008A00080917B00886003C080917B00877F80936C
:1008B0007B00089591E09093760D1092790D10923F
:1008C000780D1092750D27E833E03093740D209366
:1008D000730D0C9440048091750D8F5F8093750D9E
:1008E0009091760D891302C01092750D8091750D4F
:1008F000E091780DF091790DE80FF11D80810E9453
:1009000040040C9487031F93CF93DF93C091750D20
:100910009091760D9230A0F081E08C0F891719F03C
:100920008093750D02C01092750D8091750DE09148
:10093000780DF091790DE80FF11D80810E9440043F
:1009400010917800D091790040917D0D50917E0DED
:1009500020917B0D30917C0D42175307F0F480916C
:100960007A0D811102C00E948103612F70E07D2BFE
:1009700080917C0085FF02C0672F7727E091710D81
:10098000F091720D8C2F199580917D0D90917E0DB7
:10099000019690937E0D80937D0DDF91CF911F91F5
:1009A0000895CF93DF93D0917C00C0917B0080911C
:1009B0007C00807E80937C0080917C008E6180939F
:1009C0007C0080917B00877F80937B0063E070E0F8
:1009D00080E090E00E94D92B80917A00806480931F
:1009E0007A0080917A0086FDFCCF6091780080913A
:1009F0007900D0937C00C0937B0070E0782B88272F
:100A000077FD8095982F0E94F2349B01AC0160E045
:100A100070E889E894E40E945734DF91CF910895FB
:100A20001F920F920FB60F9211240BB60F922F93B5
:100A30003F934F935F936F937F938F939F93AF9366
:100A4000BF93EF93FF93E091730DF091740D19959F
:100A5000FF91EF91BF91AF919F918F917F916F9196
:100A60005F914F913F912F910F900BBE0F900FBE52
:100A70000F901F9018951F920F920FB60F9211248E
:100A80000F900FBE0F901F90189581E00C949D025F
:100A9000FF920F931F93CF93DF93FC010081C181DD
:100AA000D281F8948981F02EF0948F2189837894F3
:100AB0001DE7115029F182E090E00E94012C88810D
:100AC0008023B9F3F8948A818F218A838981802BCE
:100AD0008983789480EE91E00E94012CF8948981BA
:100AE0008F21898386E490E00E94012C88818023F5
:100AF00011E009F010E078948AE991E00E94012C5D
:100B0000812FDF91CF911F910F91FF9008951F9337
:100B1000CF93DF93FC011081C181D281912F9095F9
:100B200060FF12C0F8948A8189238A838981812B8E
:100B300089838AE090E00E94012C8A81812B8A833C
:100B4000789487E390E011C0F8948A8189238A839E
:100B50008981812B898381E490E00E94012C8A8124
:100B6000812B8A83789485E090E0DF91CF911F916B
:100B70000C94012C0F931F93CF93DF93FC011081F2
:100B8000C181D281F8948981812B89838A81012F47
:100B9000009580238A8383E090E00E94012C898164
:100BA000802389838AE090E00E94012CC881789498
:100BB00085E390E00E94012C1C2381E009F480E091
:100BC000DF91CF911F910F910895CF92DF92EF9215
:100BD000FF920F931F93CF93DF931F92CDB7DEB792
:100BE0006C01E62E08E010E0FF24F39461E09F2DF5
:100BF0009E2109F460E0C60149830E948705FF0C2D
:100C00000150110949810115110581F7411115C0E4
:100C1000F894D6011196ED91FC91129791818C91E7
:100C20008095892381831196ED91FC911297928191
:100C30008C9180958923828378940F90DF91CF9156
:100C40001F910F91FF90EF90DF90CF900895EF925A
:100C5000FF920F931F93CF93DF938C01C8E0D0E0F6
:100C6000F12CEE24E394C8010E94BA058111FE28FC
:100C7000EE0C2197C1F78F2DDF91CF911F910F912E
:100C8000FF90EF900895CF92DF92FF920F931F9302
:100C9000CF93DF931F92CDB7DEB78C01F62E40E0E5
:100CA00065E579830E94E505CF2C7981D72E88E010
:100CB000F82EF60161916F0140E0C8010E94E50540
:100CC000FA94B9F70F90DF91CF911F910F91FF9098
:100CD000DF90CF900895FC0113861586148627E0D7
:100CE00030E0DF01A20FB31F13961C9221153105CE
:100CF00019F021503109F5CF08951F93CF93DF9359
:100D0000EC01162F60E0812F0E948B2D612F70E087
:100D1000FB01EE5CFD4FE491E883FB01E858FD4FD9
:100D2000E491F0E0EE0FFF1FE254FD4F85919491A6
:100D30009A838983CE01DF91CF911F910C946B062A
:100D4000AF92BF92CF92DF92EF92FF920F931F93D9
:100D5000CF93DF931F92CDB7DEB75C01D62EE72E7F
:100D6000FC018585811164C0C50149830E94480545
:100D70004981811105C0F50113861586148671C05D
:100D8000442319F040E060EF02C040E06CEEC50182
:100D90000E94E50501E0F12CC12C11E0C5010E9483
:100DA000BA05682FC50169830E94BA05698161305F
:100DB00019F48130B9F433C02F2D30E068131BC013
:100DC000F5018385181730F4E20FF31F8381802328
:100DD00049F402C0181731F060E0193058F4F501F9
:100DE000148708C0F501EF0DF11D8381802B8383EB
:100DF00061E009C0C12EF501E20FF31F8381902F3E
:100E0000909589238383C5010E9487051F5F000F8A
:100E100011F4F39401E0F7E0FF1508F0BFCF1134AF
:100E200038F0F501C386C11009C081E0858706C08E
:100E3000F50113861586148680E013C0F5018381C1
:100E40008823B1F3ED2DFE2D80E090E0D501A80FB1
:100E5000B91F13962C912193019688309105B1F713
:100E600081E00F90DF91CF911F910F91FF90EF9054
:100E7000DF90CF90BF90AF9008951092F00D81E079
:100E80008093EE0D1092ED0D61E084E10E94C42D7F
:100E900061E085E10E94C42DE9EBF0E080818E7F66
:100EA000808380818D7F808388E48093B80085E48F
:100EB0008093BC000895413208F043C09091F00D3A
:100EC0009111FCCF91E09093F00D2093EE0D2FEF58
:100ED0002093830D1092C80D240F2093C70D90937B
:100EE000EF0D9091EF0D880F892B8093EF0D80917E
:100EF000ED0D813061F41092ED0D8091EF0D809336
:100F0000BB008091BC0083FDF8CF85EC01C085EE6D
:100F10008093BC008091F00D8130E1F38091C80D89
:100F2000841710F44091C80D29EC3DE0FB01D90174
:100F30008A2F821B841718F48D918193F9CF842F07
:100F4000089580E008950F93413208F04AC09091CF
:100F5000F00D9111FCCF92E09093F00D0093EE0D07
:100F60009FEF9093830D1092C80D4093C70DFB0126
:100F700069EC7DE0DB019A2F961B941718F4919190
:100F80009D93F9CF1092EF0D9091EF0D880F892B63
:100F90008093EF0D8091ED0D813061F41092ED0D95
:100FA0008091EF0D8093BB008091BC0083FDF8CF52
:100FB00085EC01C085EE8093BC00222321F0809156
:100FC000F00D8230E1F38091830D8F3F61F08091CD
:100FD000830D803251F08091830D803341F483E0A2
:100FE00007C081E005C080E003C082E001C084E06A
:100FF0000F910895613298F42091F00D243089F416
:101000006093A50DFC0187EA9DE0DC012A2F281BD7
:10101000261718F421912D93F9CF80E0089581E0EF
:10102000089582E0089585ED8093BC008091BC0016
:1010300084FDFCCF1092F00D089585EC8093BC00E8
:101040001092F00D08951F920F920FB60F92112477
:101050000BB60F922F933F934F935F936F937F93B2
:101060008F939F93AF93BF93EF93FF938091B900BA
:10107000887F803609F49EC078F5883209F45DC017
:1010800090F4803109F456C038F4882309F4F5C08F
:10109000883009F44FC0F5C0883109F44EC0803261
:1010A00009F45FC0EEC0803409F46AC058F480339C
:1010B00009F457C0883309F0E4C08093830D0E947F
:1010C0001D08DFC0803509F44FC0883509F45DC0C4
:1010D000883409F0D6C0D3C0883909F4C4C0A8F454
:1010E000883709F467C038F4883609F463C080375C
:1010F00009F460C0C6C0883809F4B5C0803909F465
:101100005FC0803809F0BDC05BC0803B09F483C07C
:1011100038F4803A09F466C0883A09F47CC0B1C05A
:10112000803C09F4A4C0883C09F4A1C0883B09F4C0
:1011300087C0A7C08091EF0D10C09091C80D80911D
:10114000C70D981770F5E091C80D81E08E0F809360
:10115000C80DF0E0E753F24F80818093BB0085EC2F
:1011600083C08093830D8BC0E091C80D81E08E0F0A
:101170008093C80D8091BB00F0E0E753F24F80836D
:101180009091C80D8091C70D6BC0E091C80D81E0B2
:101190008E0F8093C80D8091BB00F0E0E753F24FB3
:1011A00080838091EE0D81116AC081E08093ED0D06
:1011B00084EA5EC083E08093F00D1092840DCFCF5F
:1011C0008091840D803208F04EC0E091840D81E062
:1011D0008E0F8093840D8091BB00F0E0EB57F24FAF
:1011E0008083BDCF0E941D088091840D803230F431
:1011F000E091840DF0E0EB57F24F10826091840D86
:1012000070E0E091E90DF091EA0D85E89DE0199517
:101210001092840D36C084E08093F00D1092A60DDC
:101220001092A50DE091EB0DF091EC0D19958091C8
:10123000A50D811105C081E08093A50D1092A70D29
:10124000E091A60D81E08E0F8093A60DF0E0E955A8
:10125000F24F80818093BB009091A60D8091A50DE7
:10126000981708F47CCF85E88093BC000AC085EC11
:101270008093BC001092F00D04C01092830D0E9468
:101280001308FF91EF91BF91AF919F918F917F9143
:101290006F915F914F913F912F910F900BBE0F90E7
:1012A0000FBE0F901F9018958091210E90E0209115
:1012B000220E821B910908952091220E8091210E09
:1012C000281750F4E22FF0E0ED5DF14F808190E0BF
:1012D0002F5F2093220E08958FEF9FEF0895E091E6
:1012E000220E8091210EE81730F4F0E0ED5DF14F11
:1012F000808190E008958FEF9FEF08950895CF9239
:10130000DF92EF92FF920F931F93CF93DF937C01B5
:10131000CB018A012091FD0D222389F0EB016B01A5
:10132000C40ED51ECC15DD0569F06991D701ED918C
:10133000FC910190F081E02DC7011995F3CF642F46
:101340000E94FA07C801DF91CF911F910F91FF9082
:10135000EF90DF90CF900895CF93DF931F92CDB79A
:10136000DEB769832091FD0D2223D1F02091FE0D7F
:10137000203240F021E030E0FC013383228380E022
:1013800090E015C08091FF0DE82FF0E0E050F24FA3
:10139000998190838F5F8093FF0D8093FE0D05C030
:1013A00061E0CE0101960E94FA0781E090E00F9083
:1013B000DF91CF910895FC011382128248EE53E031
:1013C00060E070E0448355836683778389E392E02D
:1013D0009183808308951092220E1092210E109214
:1013E000FF0D1092FE0D0C943D0781E08093FD0DE2
:1013F0006093200E1092FF0D1092FE0D08950C9434
:10140000F5090F93062F21E04091FE0D60E07EE08C
:101410008091200E0E94A3071092FF0D1092FE0DE6
:101420001092FD0D0F9108958F929F92AF92BF92EF
:10143000CF92DF92EF92FF920F931F93CF93DF93A0
:10144000EC01F62ED42E48015901EE2019F10E942C
:10145000F5091E2D143008F013E01150B8F0E881A2
:10146000F98128E0129FB0011124A501940104C064
:1014700056954795379527956A95D2F7CA01B901D0
:101480000190F081E02DCE011995E7CF60E0CE010B
:101490000E94010A4D2D413208F040E22C2D63E2FA
:1014A0007EE08F2D0E945B071092220E8093210E0A
:1014B000DF91CF911F910F91FF90EF90DF90CF9030
:1014C000BF90AF909F908F900895CF92EF920F931F
:1014D0001F93C22EE12C00E010E098010E94140A34
:1014E0001F910F91EF90CF90089521E00C94650A21
:1014F00021E00C94650A61E00C94010A81EF9DE003
:101500000C94DB091F920F920FB60F9211240BB6A9
:101510000F922F933F934F935F936F937F938F938C
:101520009F93AF93BF93EF93FF93E091430EF0919E
:10153000440E1995FF91EF91BF91AF919F918F91BB
:101540007F916F915F914F913F912F910F900BBEC3
:101550000F900FBE0F901F901895CF93CFB7F894B0
:101560008091480E811127C0EDEAF2E08491E7E610
:10157000F2E09491E82FF0E0EE0FFF1FEE50FD4FE8
:10158000A591B4918C91892321F461E085E30E94B7
:10159000C42D61E085E30E948B2D8CB580618CBDEC
:1015A0008CB580648CBD61E084E30E948B2D61E08A
:1015B00083E30E948B2D8091480E8F5F8093480EAD
:1015C000CFBFCF91089586E294E0089582E294E03F
:1015D00008958BE094E0089581EF93E008958BEEF9
:1015E00093E0089588EB93E008958C5A974FFC019F
:1015F0001082089585E492E00895DC01ED91FC915C
:101600000190F081E02D19948EBD00000DB407FE0D
:10161000FDCF8EB50895CF93DF93EC0161E00E947A
:10162000211980EA93E099838883CE5AD74F188294
:101630001982DF91CF91089520EA33E0FC013183D4
:1016400020830C9491191F93CF93DF931F921F92C5
:10165000CDB7DEB7162F60E0812F2A8349830E9421
:10166000C42D4981842F0E94040B2A81822F0E945D
:10167000040B61E0812F0F900F90DF91CF911F91AC
:101680000C94C42D643040F4242F2095462F65E33C
:101690000E94230B80E0089585E00895AF92BF92E9
:1016A000CF92DF92EF92FF920F931F93CF93DF932E
:1016B0001F921F92CDB7DEB78C01D12C7C018BEB32
:1016C000E81A87EFF80A5801E4E9AE1AE7EFBE0A14
:1016D0002D2D30E0F801EB5AF74F8081918168E2BF
:1016E00070E00E94ED3726173707E0F588E0C82E36
:1016F000C982F7012081318180E090E040E0B801AB
:10170000620F731FE42FF0E0DB01A80FB91FA2598D
:10171000BF4F41E050E0AC91AA2311F040E050E00F
:10172000082E02C0440F551F0A94E2F74E0F5F1FA8
:1017300001968830910531F74A83285F3F4FF701C2
:1017400031832083F50160816D0D22E0AE014F5F92
:101750005F4FC8010E947421C394FDE0CF12C8CF2F
:10176000D394B6CF0F900F90DF91CF911F910F912F
:10177000FF90EF90DF90CF90BF90AF900895EF92E1
:10178000FF920F931F93CF93DF938C017C018BE922
:10179000E81A87EFF80AC4E6D0E0F70141917F012B
:1017A000BE01C8010E941C192196C33BD105A9F7AF
:1017B00060E0C801DF91CF911F910F91FF90EF90F2
:1017C0000C94E20B7F928F929F92AF92BF92CF9236
:1017D000DF92EF92FF920F931F93CF93DF93EC0171
:1017E000762E7C012BE9E21A27EFF20A04E610E0DC
:1017F0004701E881F9810088F189E02DB801CE0127
:101800001995F70181937F010F5F1F4F033B11056E
:1018100081F7F401808191819E012959374F590147
:10182000FE01E759F74F6F01285C3F4F7901892B83
:10183000E1F4F50180819181892BB9F4F601808171
:101840009181892B91F4399780819181A281B38113
:10185000F90180839183A283B38381E090E0F60154
:1018600091838083CE010E94BF0BF401808191811E
:10187000892BB9F4F50180819181892B91F4F601CE
:1018800080819181019769F480E2FE01E459F74F6C
:10189000808382E090E0F60191838083CE010E94F4
:1018A000BF0BF40180819181892BE9F4F5018081DE
:1018B0009181892BC1F4F60180819181029799F47D
:1018C00080E090E0A0EAB0E4FE01ED55F74F8083A0
:1018D0009183A283B38383E090E0F60191838083B8
:1018E000CE010E94BF0BF401808191818E010955C8
:1018F000174F892BA1F4F50180819181892B79F40F
:10190000F60180819181039751F4F801108284E0FF
:1019100090E0F60191838083CE010E94BF0BF40119
:1019200080819181892B79F5F50180819181892BC5
:1019300051F5F60180819181049729F580E090E0CE
:10194000A8ECB2E4FE01E855F74F80839183A283AF
:10195000B38380E090E4ACE9B6E43496808391836D
:10196000A283B38380E090E0A8E4B3E4349680835C
:101970009183A283B38385E090E0F6019183808315
:10198000CE010E94BF0BF40180819181892B69F403
:10199000F50180819181892B41F4F601808191814B
:1019A000059719F4772009F4A8C0F4011182108278
:1019B000F5011182108285E090E0F6019183808329
:1019C0008FEFFE01E559F74F80838CE733968083D4
:1019D00080E73197808380E09CE7A2E9B8E4329603
:1019E00080839183A283B38380E092E2A1EAB8E48A
:1019F000349680839183A283B38380E090E0AAE74A
:101A0000B4E43C9680839183A283B38380E090E426
:101A1000ACE1B6E4349680839183A283B38380E003
:101A200090E5A3ECB7E4349680839183A283B383DB
:101A300080E094E2A4E7B9E4349680839183A283A2
:101A4000B3837497108211821282138234961082AB
:101A50001182128213824FEF56EE6BE57EE274968E
:101A600040835183628373833496408351836283BE
:101A700073833496408351836283738334964083A7
:101A8000518362837383FB9780819181A281B381AB
:101A9000F70180839183A283B38380E2FE01E4593E
:101AA000F74F808380E090E0A0EAB0E4F79680836F
:101AB0009183A283B383F801108280E090E0A8ECC8
:101AC000B2E4FE01E855F74F80839183A283B3838C
:101AD00080E090E4ACE9B6E4349680839183A283FD
:101AE000B38380E090E0A8E4B3E4349680839183EC
:101AF000A283B383CE010E94BF0BF701C080D180C7
:101B0000E280F38020E030E0A901C701B6010E9425
:101B10005334FE01EC59F74F18161CF081E0808316
:101B200009C0DE01A05AB74FCD92DD92ED92FC9232
:101B300013971082F8018081882311F042E001C0E0
:101B400041E060E0CE01DF91CF911F910F91FF90B6
:101B5000EF90DF90CF90BF90AF909F908F907F904D
:101B60000C940D228F929F92AF92BF92CF92DF92F0
:101B7000EF92FF92CF93DF93EC016A017B01FC01AE
:101B8000E05AF74F80809180A280B38020E030E05F
:101B9000A901C701B6010E94533487FD45C0FE016B
:101BA000E055F74F2081318142815381C701B60151
:101BB0000E94E2351816C4F1A5019401C701B601CF
:101BC0000E9457349B01AC010E94DC3323EF34E0C8
:101BD00045EB5FE30E942B3620E030E040E85EE317
:101BE0000E942B3620E030E04FE753E40E942B3672
:101BF0004B015C0120E030E04FE753E40E94E23506
:101C0000181694F0FE01E85AF74FC082D182E282A2
:101C1000F382C501B4010E94C434462F63E0CE01B3
:101C20000E94420B80E001C088E0DF91CF91FF90DD
:101C3000EF90DF90CF90BF90AF909F908F900895DE
:101C4000FC01E05AF74F40835183628373833897D6
:101C5000408151816281738120E00C94B20D5F92CA
:101C60006F927F928F929F92AF92BF92CF92DF92AC
:101C7000EF92FF920F931F93CF93DF931F921F92C8
:101C8000CDB7DEB76C01CB01542E68E270E00E9444
:101C9000ED377B014C015C0123E0B694A7942A95B3
:101CA000E1F73B01772486010459174FF801808141
:101CB000B301680F711D81EF9DE00E94FF09B5011E
:101CC000685F7F4F81EF9DE00E94FD0A81EF9DE0FC
:101CD0000E947B0AF8018081B301680F711D41E009
:101CE00050E081EF9DE00E94780A81EF9DE00E9424
:101CF0005409892B41F1F82DF7708F2E88E08A0D59
:101D0000898381EF9DE00E945C0941E050E060E042
:101D100070E004C0440F551F661F771F8A94D2F7E6
:101D2000511002C0482B02C0409548234A83F80155
:101D300060816E0D22E0AE014F5F5F4FC6010E94D1
:101D4000742180E001C081E00F900F90DF91CF916E
:101D50001F910F91FF90EF90DF90CF90BF90AF90C9
:101D60009F908F907F906F905F9008958F929F9239
:101D7000AF92BF92CF92DF92EF92FF920F931F9399
:101D8000CF93DF93CDB7DEB762970FB6F894DEBF7F
:101D90000FBECDBF8C010E948C1861E085E30E94CC
:101DA0008B2D61E089E00E948B2D60E089E00E942C
:101DB000C42DF801E05AF74F80E090E0A6E9B3E4C3
:101DC00080839183A283B38360E0C8010E94E20B09
:101DD000480185E9881A87EF980AD4014C9160E0A0
:101DE000C8010E94420B6801B2E9CB1AB7EFDB0AC7
:101DF000F601408161E0C8010E94420B5801F3E9FD
:101E0000AF1AF7EFBF0AD5014C9162E0C8010E94FA
:101E1000420B40E063E0C8010E94420BD801ED9103
:101E2000FC910680F781E02DC8011995BC018EE870
:101E30009EE00E9490306BE472E08EE89EE00E948B
:101E40009030D801ED91FC910484F585E02DC80116
:101E50001995BC018EE89EE00E949D306EE472E010
:101E60008EE89EE00E949030D801ED91FC910284B2
:101E7000F385E02DC8011995BC018EE89EE00E9413
:101E80009D3061E672E08EE89EE00E94903078011D
:101E9000BBE9EB1AB7EFFB0AF701608171814AE0F9
:101EA00050E08EE89EE00E949D316AE973E08EE882
:101EB0009EE00E949030F801E959F74F60817181EE
:101EC0004AE050E08EE89EE00E949D316AE973E0AE
:101ED0008EE89EE00E949030F801E759F74F60814C
:101EE00071814AE050E08EE89EE00E94A33168E7ED
:101EF00072E08EE89EE00E9490304AE050E0D4010B
:101F00006C918EE89EE00E9486316EE772E08EE86A
:101F10009EE00E9490304AE050E0F50160818EE83A
:101F20009EE00E9486316EE872E08EE89EE00E949C
:101F300090304AE050E0D6016C918EE89EE00E941D
:101F40008631B12CA12CF1E0BF1202C084E001C0A7
:101F500082E0A81608F0B9C04AE06A2DCE010196C9
:101F60000E9454334AE06B2DCE010D960E945433EB
:101F700064E972E0CE0107960E942633BE01635FDA
:101F80007F4FCE0107960E94AD3366E972E00E9452
:101F9000C033BE016F5F7F4F0E94AD336AEA72E0CB
:101FA0000E94C033BC018EE89EE00E948230CE01C8
:101FB00007960E94B832CE010D960E94B832CE012B
:101FC00001960E94B832CA2CD12CB1E0F601EE0F76
:101FD000FF1FEE0FFF1FEE0DFF1DBB1629F0428500
:101FE00053856485758504C0428D538D648D758DD0
:101FF00022E030E08EE89EE00E94A6324AE06A2DA0
:10200000CE0101960E9454334AE06B2DCE010D960D
:102010000E94543364E972E0CE0107960E94263391
:10202000BE01635F7F4FCE0107960E94AD336DEA1C
:1020300072E00E94C033BE016F5F7F4F0E94AD33DC
:102040006AEA72E00E94C033BC018EE89EE00E9402
:102050008230CE0107960E94B832CE010D960E94C2
:10206000B832CE0101960E94B832E1E0BE1661F0AE
:10207000F601EE0FFF1FEE0FFF1FEE0DFF1D628931
:102080007389848995890BC0F601EE0FFF1FEE0F4F
:10209000FF1FEE0DFF1D62A573A584A595A525EA7A
:1020A00034ED48E653E50E942B36AB01BC0122E03B
:1020B00030E08EE89EE00E94A43262EC72E08EE88E
:1020C0009EE00E949D30A3943ECFB39482E0B8126C
:1020D00039CF66EC72E08EE89EE00E949030F80105
:1020E000E459F74F4AE050E060818EE89EE00E949C
:1020F00086316BE173E08EE89EE00E949030F8013B
:10210000E156F74F408151816281738122E030E0D6
:102110008EE89EE00E94A63263EE72E08EE89EE0BA
:102120000E949030F801ED55F74F40815181628156
:10213000738122E030E08EE89EE00E94A63266EFD6
:1021400072E08EE89EE00E949030F801E955F74F6A
:10215000608170E04AE050E08EE89EE00E945A31D3
:102160006FE073E08EE89EE00E949030F801EC5939
:10217000F74F608170E04AE050E08EE89EE00E94F8
:102180005A316BE273E08EE89EE00E949030F801D5
:10219000E855F74F408151816281738122E030E040
:1021A0008EE89EE00E94A63263E473E08EE89EE033
:1021B0000E949030F801E455F74F408151816281CF
:1021C000738122E030E08EE89EE00E94A6326BE54B
:1021D00073E08EE89EE00E949030F801E055F74FE2
:1021E000408151816281738122E030E08EE89EE07F
:1021F0000E94A63262960FB6F894DEBF0FBECDBF26
:10220000DF91CF911F910F91FF90EF90DF90CF90D2
:10221000BF90AF909F908F9008958F929F92AF92B2
:10222000BF92CF92DF92EF92FF921F93CF93DF93F3
:10223000EC016A017B01FC01E855F74F24EA30E725
:102240004DE75FE360817181828193810E942B362B
:102250009B01AC01C701B6010E94E23587FDAFC00A
:102260002EEA37E441E85FE3FE01E455F74F608171
:102270007181828193810E942B369B01AC01C70141
:10228000B6010E94533418160CF499C020E030E0D7
:1022900048E452E4C701B6010E942B364B015C01B1
:1022A00020E030E04AE754E40E94533487FD87C0C1
:1022B00020E233EB41E85CE4C501B4010E94E23561
:1022C00018160CF47CC020E030EE41E854E4C5015F
:1022D000B4010E9457340E94EB3526EA3BE944E5FD
:1022E00050E40E942B362EE83DE543E150E40E9485
:1022F00057340E94C434162F70E0665F7F4F8827E2
:1023000077FD8095982F0E94F2349B01AC0160E02C
:1023100070E080E090E40E948E3620E030EE41E0F4
:1023200055E40E942B36A50194010E9457349B016D
:10233000AC0160E070E080E095E40E94DB334B018B
:102340005C0120E030E0A9010E94E23520E030E0AD
:1023500040E05FE387FD05C0C501B4010E94DC33A6
:1023600004C0C501B4010E94DB330E94BF345B018D
:10237000CB0166E0969587956A95E1F71295107FF7
:10238000182B67E181EF9DE00E94F509612F81EF35
:102390009DE00E94AC096A2D660F660F626081EFB6
:1023A0009DE00E94AC0981EF9DE00E947B0AC45A27
:1023B000D74FC882D982EA82FB8280E001C088E0E0
:1023C000DF91CF911F91FF90EF90DF90CF90BF9062
:1023D000AF909F908F9008954F925F926F927F92EF
:1023E0008F929F92AF92BF92CF92DF92EF92FF9225
:1023F0000F931F93CF93DF931F921F92CDB7DEB73A
:102400008C01FC01EC5AF74F81E0808348018BEA94
:10241000881A87EF980AF40111821082E8E2AE2E42
:10242000B12CE12CF12CF8E16F2E77247A9468011D
:10243000F4E9CF1AF7EFDF0A4E2C69827A82F601AF
:1024400060816E0D22E0AE014F5F5F4FC8010E94B8
:102450007421F60160816E0D21E0AE014F5F5F4F88
:10246000C8010E94301C89818F3F09F04BC078E180
:10247000572E59821A82F6016081640D22E0AE0166
:102480004F5F5F4FC8010E947421F6016081640DA7
:1024900021E0AE014F5F5F4FC8010E94301C89816F
:1024A000811130C080EF850D89837A82F6016081C9
:1024B000640D22E0AE014F5F5F4FC8010E9474219E
:1024C0005394FDE15F12D5CF66E873E08EE89EE09D
:1024D0000E9490304AE050E0B7018EE89EE00E94F2
:1024E000523160E973E08EE89EE00E949D30F40175
:1024F00020813181C50188972817390719F4F40123
:10250000B182A082FFEFEF1AFF0A88E2A80EB11C89
:10251000E8E0EE16F10409F08FCFF40160817181DB
:102520004AE050E08EE89EE00E949D3161E773E052
:102530008EE89EE00E949D3040E050E46CE176E43D
:10254000C8010E940D110F900F90DF91CF911F9144
:102550000F91FF90EF90DF90CF90BF90AF909F9042
:102560008F907F906F905F904F9008952F923F9241
:102570004F925F926F927F928F929F92AF92BF9293
:10258000CF92DF92EF92FF920F931F93CF93DF933F
:10259000CDB7DEB764970FB6F894DEBF0FBECDBFE0
:1025A0001C01B62E8C010D5A174F81E0D8018C9377
:1025B000F101EC5AF74F8081811103C0C1010E94E3
:1025C000EC11F101E459FF4F2F01FFEABF1609F4A6
:1025D0004EC2FB15D8F126EAB21609F4ACC12B1590
:1025E000D0F032EAB31609F4F9C03B1548F040EADE
:1025F000B41609F466C051EAB51609F479C052C59B
:10260000F101E05CF74F84EAB81609F461C18B155B
:1026100008F067C085C199EAB91609F4D6C19B15BF
:1026200048F0A7EABA1609F4A1C1B8EABB1609F442
:10263000ADC138C5EDEABE1609F4F5C1EB1508F4D5
:102640002EC2FAEABF1609F4D0C12CC526EBB21689
:1026500009F49DC32B15D0F032EBB31609F4DEC29A
:102660003B1548F040EBB41609F453C251EBB516D4
:1026700009F49EC217C5F101E05CF74F84EBB81670
:1026800009F42FC38B1508F01FC368C39AEBB91662
:1026900009F4AAC49B1548F0A8EBBA1609F4CEC4F5
:1026A000B9EBBB1609F4E0C4FDC4E4EFBE1609F4AF
:1026B0009BC3F5EFBF1609F477C42BEBB212F2C43B
:1026C0009FC4F101E05CF74F80819181892B71F407
:1026D00042E050E0B1016B5A774FC1010E94971957
:1026E000DFC480819181029709F488C086E033C3FA
:1026F000F101E05CF74F80819181892BB9F7D2011C
:102700001C92A12C91012B5A374F3A8729876101DE
:1027100034E9C31A37EFD30AEA2CF12CA985BA851C
:102720008D919C9168E270E00E94ED37E616F70605
:1027300008F0B8C408E010E0D6018C91B701680F2A
:10274000711D81EF9DE00E94FF09B80181EF9DE0BE
:102750000E94FD0A81EF9DE00E947B0AF6018081C4
:10276000B701680F711D41E050E081EF9DE00E94CC
:10277000780A81EF9DE00E945409892B51F181EF85
:102780009DE00E945C094C01612C712C9924C401CC
:10279000062C02C0959587950A94E2F781709927D7
:1027A000F1E08F27898341E050E0BE016F5F7F4FEA
:1027B000C1010E9497192FEF621A720A38E063165E
:1027C000710429F70F5F1F4F0D30110509F0B4CFC9
:1027D00003C0E1E0D201EC93A3949ECFF101E05C51
:1027E000F74F2081318175968081918128173907B3
:1027F00009F07CCFC1010E944E0B1DC4D101AB5B1F
:10280000B74F2D913C911197F901E259FF4FE20D1D
:10281000F31D808191812E5F3F4F2D933C93F101F9
:10282000EB5AF74F208131818217930708F04AC293
:1028300068E270E00E94ED378C016B01DD247101CC
:10284000B4E9EB1AB7EFFB0AF7018081B601680F14
:10285000711D81EF9DE00E94FF09B80113E076959C
:1028600067951A95E1F7685F7F4F81EF9DE00E94C1
:10287000FD0A81EF9DE00E947B0AD7018C91B60191
:10288000680F711D41E050E081EF9DE00E94780AE1
:1028900081EF9DE00E945409892B09F483C381EFE5
:1028A0009DE00E945C099927077002C09595879565
:1028B0000A95E2F781709927B1E08B27898341E07F
:1028C00050E0BE016F5F7F4FC1010E949719B3C3F3
:1028D00080819181039709F009CFD101AB5BB74F9C
:1028E0008D919C911197FC01E259FF4FE20DF31D70
:1028F00060817181F101E80FF91FE059FF4F4081BC
:1029000003968D939C93F101EB5AF74F808191814F
:102910006817790708F0D6C1C1010E942F0E1BC2AB
:1029200080819181892B09F0E1CEF201108289E04A
:102930000E94FA2D8FC3F101E05CF74F80819181F5
:10294000019709F0D3CE359680819181D101A80FEE
:10295000B91FA259BF4F6C91019691838083623059
:1029600008F0F8C189E00E94C42D9AC3F101E05C2F
:10297000F74F80819181892B09F0B8CED2011C924A
:1029800044E050E0B101685A774F6AC3F101E05C5E
:10299000F74F80819181049709F0A8CED101AB5BFC
:1029A000B74F8D919C911197FC01E259FF4FE20DB9
:1029B000F31D408151816281738104968D939C93B4
:1029C00021E0C1010E94B20DC6C1F101E05CF74FE8
:1029D00080819181892B09F089CED2011C9244E03B
:1029E00050E0B101645A774F3BC3F101E05CF74F0F
:1029F00080819181049709F079CED101AB5BB74F0B
:102A00008D919C911197FC01E259FF4FE20DF31D4E
:102A1000408151816281738104968D939C93C101A1
:102A20000E940D1198C1F101E05CF74F8081918106
:102A3000019709F05BCED101AB5BB74F8D919C91B3
:102A40001197F101E80FF91FE259FF4FE08101965C
:102A50008D939C93E23008F52BE1E29FF001112465
:102A6000E75BF14F81818983D2011C92F4C2F101AD
:102A7000E05CF74F80819181019709F037CE359660
:102A800080819181D101A80FB91FA259BF4F2C910C
:102A90000196918380832230E8F085E05CC1F101EA
:102AA000E05CF74F80819181029709F01FCE359647
:102AB00020813181A101420F531FDA01A259BF4F7A
:102AC0008C9111966C912E5F3F4F318320830E9431
:102AD000C92107C3F20110823BE1239FF0011124B9
:102AE000E75BF14FE181C1018B59974FF0E0EE0FA9
:102AF000FF1FEE0FFF1FE80FF91F213029F082851D
:102B00009385A485B58547C2828D938DA48DB58D9F
:102B100042C2F101E05CF74F80819181059709F095
:102B2000E5CD359620813181D101A20FB31FA25985
:102B3000BF4F8C91B9016F5F7F4F71836083D2016A
:102B40001C928823E1F0813009F0BCC04091650EF1
:102B5000DB01A259BF4FA20DB31D8D919D910D9028
:102B6000BC91A02D2B5F3F4F31832083F10134E0D6
:102B7000439FE00DF11D1124E158F74F9BC0409198
:102B80004A0ED901A159BF4FA20DB31D8D919D9140
:102B90000D90BC91A02D2B5F3F4F31832083F1011D
:102BA00024E0429FE00DF11D1124E159F74F82C04E
:102BB000F101E05CF74F80819181019709F096CD9A
:102BC000359680819181D101A80FB91FA259BF4FBD
:102BD0002C91019691838083223008F05ECFF20120
:102BE00010823BE1239FF0011124E75BF14FE1816B
:102BF000C1018B59974FF0E0EE0FFF1FEE0FFF1F43
:102C0000E80FF91F213029F082899389A489B589B9
:102C1000C2C182A593A5A4A5B5A5BDC1F101E05C83
:102C2000F74F80819181059709F060CD359620811D
:102C30003181D101A20FB31FA259BF4F4C91C901DD
:102C4000019691838083D2011C924423D9F04130B4
:102C5000C9F54091650ED901A159BF4FA20DB31D11
:102C60008D919D910D90BC91A02D2B5F3F4F318395
:102C70002083F10134E0439FE00DF11D1124E15761
:102C8000F74F18C040914A0ED901A159BF4FA20D6C
:102C9000B31D8D919D910D90BC91A02D2B5F3F4F49
:102CA00031832083F10124E0429FE00DF11D1124C6
:102CB000E958F74F80839183A283B383C1010E94B7
:102CC000BF0BF0C185E00DC280819181892B09F095
:102CD0000DCDF201108244E050E0B101605A774F0F
:102CE000BFC180819181049709F000CDD101AB5B18
:102CF000B74F8D919C911197FC01E259FF4FE20D66
:102D0000F31DC080D180E280F38004968D939C9364
:102D100020E030E0A901C701B6010E94E235181693
:102D2000CCF4F101EC59F74F8081882331F03497CE
:102D3000C082D182E282F382B3C1D101A156B74FE2
:102D4000CD92DD92ED92FC9213971082C1010E9408
:102D5000BF0BA6C188E0F2018083A4C1808191816C
:102D6000892B09F0C3CCD2011C9211E020E030E0A5
:102D7000A901F101E156F74F608171818281938150
:102D80000E94533418160CF410E0198364C1F10149
:102D9000E05CF74F80819181019709F0A7CC3596CF
:102DA00080819181D101A80FB91FA259BF4F2C91E9
:102DB000019691838083E65AFF4F222329F01082E7
:102DC0001182128213820CC0D101A05AB74F8D918B
:102DD0009D910D90BC91A02D80839183A283B3839C
:102DE000C1010E94BF0B27C1F101E05CF74F0081D8
:102DF00011810A30110508F479CC359680819181D2
:102E0000DC01A259BF4FA20DB31D2D913D914D91F3
:102E10005C9129873A874B875C879C012C5F3F4FE9
:102E200031832083DC01AE58BF4FA20DB31D6D90DE
:102E30007C90DC01AC58BF4FA20DB31D2D913D918C
:102E40004D915C91298B3A8B4B8B5C8BD101A80FF8
:102E5000B91FA858BF4FFC900B96918380830B300D
:102E6000110549F07096808191810B96081719071A
:102E700011F086E036C1BBE46B16B1E07B0608F0CA
:102E800091C020E030E04AE754E469857A858B857B
:102E90009C850E94573420E030E44CE157E40E94C6
:102EA0002B3620E030E040E855E40E94533487FFA1
:102EB00079C0D2011C92F101EB5AF74F80819181C8
:102EC0000B960817190719F4C1010E944E0B0E94B6
:102ED000B62B6D877E878F87988B88248394F1FE2D
:102EE000812CAA24A394F0FEA12CF101E45AF74FFF
:102EF000C080D180E280F38009891A892B893C89BE
:102F0000A30169857A858B859C850E948926F201BB
:102F100080838111C7C00E94B62B2D853E854F85C9
:102F20005889621B730B840B950B0E94F0346B0164
:102F30007C01B30180E090E00E94F03420E030E0BA
:102F40004AE754E40E942B369B01AC01C701B6014D
:102F50000E9457346D837E838F83988744E050E0CE
:102F6000BE016B5F7F4FC1010E94971944E050E0A2
:102F700060E67EE0C1010E94971944E050E06BE7F3
:102F80007EE0C1010E949719F101E05AF74F80815C
:102F90009181A281B38189839A83AB83BC8344E00E
:102FA00050E05BC081E09DC0F101E05CF74F8081A3
:102FB0009181019709F09ACBF2011082F101EB5B4C
:102FC000F74F80819181D101A80FB91FA259BF4F3E
:102FD0002C9101969183808361E0211101C060E012
:102FE000C1010E94E20B5EC0F101E05CF74F8081FD
:102FF0009181892B09F07ACBD2011C92729629C05B
:10300000F101E05CF74F80819181019709F06ECB6F
:10301000359680819181D101A80FB91FA259BF4F68
:103020002C910196918380833D96222319F081E0B3
:10303000808301C01082F201108234C0F101E05C93
:10304000F74F80819181892B09F050CBD2011C92DE
:10305000F8018081898341E050E0BE016F5F7F4FBE
:10306000C1010E9497191EC0F101E05CF74F8081F9
:103070009181019709F03ACB359680819181D101F8
:10308000A80FB91FA259BF4F2C910196918380833D
:10309000222321F081E0D8018C9302C0F801108234
:1030A000D2011C926B2DC1010E94571CF20180813C
:1030B00064960FB6F894DEBF0FBECDBFDF91CF91FF
:1030C0001F910F91FF90EF90DF90CF90BF90AF9046
:1030D0009F908F907F906F905F904F903F902F9038
:1030E0000895D2018C93DECF8627682F62956827DA
:1030F000062E669566956025062E66956025677096
:10310000082E892F669507946795902D862706943B
:103110006795902586270895CF92DF92EF92FF92D0
:103120000F931F93CF93DF9300D01F92CDB7DEB7DD
:103130008C01CE0101966C019FE0E92EF12CD801A3
:10314000ED91FC910088F189E02DB701C801199536
:10315000F60181936F01FFEFEF1AFF0A23E1E216F8
:10316000F10469F789819A81AB81BC818F3F9F4FC0
:10317000AF4FBF4FE1F149815A816B817C8126E0DD
:103180008EE89EE00E94352F81EF9DE00E94EB09C2
:103190000E94AD0A0E94D10408591F4FD8016D93B7
:1031A0007D938D939C9313976BE374E08EE89EE080
:1031B0000E949030F801408151816281738122E048
:1031C00030E08EE89EE00E94A4326DE474E08EE868
:1031D0009EE00F900F900F900F90DF91CF911F9175
:1031E0000F91FF90EF90DF90CF900C949D3080E096
:1031F00092ECA1E0B0E089839A83AB83BC83CE01DB
:1032000001966C018FE0E82EF12CD6014D916D01F5
:10321000D801ED91FC910288F389E02DB701C80136
:103220001995BFEFEB1AFB0AE3E1EE16F10469F71B
:10323000A2CFCB010C94903ACB01642F0C94983A16
:1032400008958F929F92AF92BF92CF92DF92EF92AA
:10325000FF920F931F93CF93DF932FE634E0FC018F
:1032600031832083E45BF74F6083399711821082AA
:10327000369610823997118210823596118210820B
:103280003296118210823A961082E12CF12C00E0E5
:1032900010E0C8010E94903AA82EC80107960E942B
:1032A000903A8E2CC0E0D0E0B12CA094B094C82EFF
:1032B000D12CC094D094CE018E0D9F1DC697C4F41E
:1032C000B5010C2E02C0759567950A94E2F76170FE
:1032D0009C2E980C892D0E948B2DB6010C2E02C0BD
:1032E000759567950A94E2F76170892D0E94C42D47
:1032F0002196C830D105F9F60F5F1F4FE8E0EE0EBA
:10330000F11C0730110529F6DF91CF911F910F9124
:10331000FF90EF90DF90CF90BF90AF909F908F90F5
:1033200008952FE634E0FC013183208308951F9334
:10333000CF93DF93FB0120E030E0DC01A95BB74FC6
:103340002417350781F01191BC01620F731FCD91D5
:10335000DC9111976C0F7D1FEB01C259DF4F188371
:103360002F5F3F4FEDCF8D919C911197820F931F4F
:103370008D939C93DF91CF911F910895CF93DF930D
:10338000FC01E359FF4F6081DC01A459BF4F67FF87
:103390000EC020E8260F208322E02C93DC01ED9163
:1033A000FC910488F589E02DDF91CF911994FC01FF
:1033B000E05CF74F2081318121503109820F931F4A
:1033C000EC01C259DF4F88818C9331832083DF91D8
:1033D000CF9108956F927F928F929F92AF92BF92FA
:1033E000CF92DF92EF92FF920F931F93CF93DF93D1
:1033F000EC019C01275B374F59016D3721F481E0C7
:10340000F9018083AEC0F90180819E012D5B374FA9
:103410007901882309F49EC080E26827F701808142
:1034200091819E01245B374F4901FE01EE5BF74F0E
:103430006F018E01005C174F009759F4E55DF7406E
:103440006083F90180818823A9F18FEF9FEF339684
:103450001EC08130910581F467FF08C083E080833E
:10346000862F8F77F8011082818324C082E08083C9
:10347000862F90E0F8010BC08230910559F420812D
:10348000233041F4F80180819181860F911D918351
:10349000808310C0F6012081821B9109F8012081F0
:1034A00031818217930730F48C0F9D1FFC01E25984
:1034B000FF4F6083F4018081882369F03E01F1EBC6
:1034C0006F1AF7EF7F0AF301808191810E947418CF
:1034D000F30191838083F701208131812F5F3F4F7A
:1034E00031832083F4014081F6015081F80180810D
:1034F0009181850F911D840F911D840F911D2817B7
:10350000390711F5F70111821082FE01EB5BF74FCD
:1035100011821082329611821082442329F038964B
:1035200080819181892B19F4CE010E94BE19FE0180
:10353000E55BF74F8081882339F0C359DF4F80580E
:103540009881981301C01082F5018081882349F089
:10355000108207C06E3709F061CFF7011182108227
:10356000F3CFDF91CF911F910F91FF90EF90DF90FC
:10357000CF90BF90AF909F908F907F906F90089565
:10358000FF920F931F93CF93DF931F92CDB7DEB7B8
:103590008C01F62E88E0898369816837E8F581EF30
:1035A0009DE00E94F50981EF9DE00E947B0A811158
:1035B00030C0FF2041F041E050E0BE016F5F7F4F1F
:1035C000C8010E94971960E574E08EE89EE00E94B1
:1035D00090304AE050E069818EE89EE00E947F31A1
:1035E00064E674E08EE89EE00E94903040E150E096
:1035F00069818EE89EE00E947F3169E674E08EE882
:103600009EE00E949D3061E070E080E090E00E94CA
:10361000D92B89818F5FBFCF0F90DF91CF911F9101
:103620000F91FF900895CF93C62F83E8860F8230C5
:1036300090F46DE78EE89EE00E94D02EE0918E0E11
:10364000F0918F0E60E26C270190F081E02D8EE802
:103650009EE0CF9119948EE89EE0CF910C94D02EED
:103660008F929F92AF92BF92CF92DF92EF92FF9292
:103670000F931F93CF93DF93EC018C017C0120EC1F
:10368000E21A27EFF20A845B974F6C015E0193EB1D
:10369000A91A97EFB90AF7018081918198012C1B33
:1036A0003D0BF60128173907C8F48081980122598B
:1036B0003F4F4901882351F0F9016081F501808174
:1036C00091810E947418F50191838083F4016081D7
:1036D000CE010E94131B0F5F1F4FDDCF8081882317
:1036E00069F08E01035B174FF8016081CE010E94E3
:1036F000131BF8016181CE010E94131BF701118297
:103700001082C95BD74F19821882DF91CF911F9128
:103710000F91FF90EF90DF90CF90BF90AF909F9070
:103720008F900895BF92CF92DF92EF92FF920F9306
:103730001F93CF93DF93EC01B62E8C01005C174FE3
:10374000FC01E95BF74F80819181F80191838083CF
:103750006EE78EE89EE00E94D02E7E01F4EBEF1A19
:10376000F7EFFF0AF7018081882381F08FEF9FEF49
:103770006E01F3EBCF1AF7EFDF0AF6019183808336
:103780006B2D0E947418F601918380836B2DCE01FE
:103790000E94131BF80160817181F70180816038FC
:1037A000710580F4882371F17E01F3EBEF1AF7EFD6
:1037B000FF0AF701808191810E947418F7019183BB
:1037C000808320C08823B1F07068672F7E01F3EBFF
:1037D000EF1AF7EFFF0AF701808191810E947418B8
:1037E000F70191838083F80160810E947418F701CA
:1037F00091838083F801808191819068692FCE0147
:103800000E94131BF8016081CE01DF91CF911F91BF
:103810000F91FF90EF90DF90CF90BF900C94131B0F
:103820000F931F93CF93DF931F92CDB7DEB78C0119
:10383000698341E050E0BE016F5F7F4F0E9497199E
:10384000F801E359FF4F6081C8010E94921BC80133
:103850000E94301B0F90DF91CF911F910F9108951F
:10386000FF920F931F93CF93DF938A01422F81EF33
:103870009DE00E94750AC0E081EF9DE00E9454091E
:10388000892B71F0FF24F394FC0EC8018C0F911D5D
:10389000EC0181EF9DE00E945C098883CF2DECCF85
:1038A0008C2FDF91CF911F910F91FF9008956F9210
:1038B0007F928F929F92AF92BF92CF92DF92EF92C0
:1038C000FF920F931F93CF93DF93CDB7DEB7699726
:1038D0000FB6F894DEBF0FBECDBF8C018DB69EB67D
:1038E000862F90E0FC01E058F109EF31F10508F076
:1038F000D6C4EE58FF4F9801205C374F79010C94E5
:103900002338D9018D919C91892BF1F4D801ED9147
:10391000FC910280F381E02DC8011995FC01019012
:103920000020E9F7AF0141505109481B590BD8015C
:10393000ED91FC910280F381E02D62C0D9018D915F
:103940009C91019709F4A0C386E0F801E459FF4F68
:1039500087C4F90180819181892BB1F7D801ED915C
:10396000FC910480F581E02DC8011995FC010190BE
:103970000020E9F7AF0141505109481B590BD8010C
:10398000ED91FC910480F581E02D3AC0F901808130
:103990009181892BC9F6D801ED91FC910680F781C0
:1039A000E02DC8011995FC0101900020E9F7AF0155
:1039B00041505109481B590BD801ED91FC910680EB
:1039C000F781E02D1DC0F90180819181892B09F0DB
:1039D000BBCFD801ED91FC910084F185E02DC801A9
:1039E0001995FC0101900020E9F7AF014150510900
:1039F000481B590BD801ED91FC910084F185E02D15
:103A0000C801498F588F1995498D588DBC0135C40F
:103A1000F90180819181892B09F096CFD801ED9130
:103A2000FC910284F385E02DC8011995FC010190F9
:103A30000020E9F7AF0141505109481B590BD8014B
:103A4000ED91FC910284F385E02DDACFF9018081BC
:103A50009181892B09F078CFD801ED91FC910484F4
:103A6000F585E02DC8011995FC0101900020E9F7CA
:103A7000AF0141505109481B590BD801ED91FC9100
:103A80000484F585E02DBCCFF90180819181892BDB
:103A900009F05ACFD801ED91FC910684F785E02D0D
:103AA000C8011995FC0101900020E9F7AF014150D0
:103AB0005109481B590BD801ED91FC910684F785FB
:103AC000E02D9ECFF90180819181892B09F03CCFB7
:103AD0004AE050E065E874E0D0C3D9018D919C9133
:103AE000029709F031CFF801EB5BF74F208131816C
:103AF000A801420F531FDA01A259BF4F8C911196B2
:103B00006C912E5F3F4F318320830E948B2DC3C366
:103B1000F90180819181029709F016CFF801EB5BE2
:103B2000F74F20813181A801420F531FDA01A259BA
:103B3000BF4F8C9111966C912E5F3F4F3183208344
:103B40000E94C42DA8C3D9018D919C91019709F0C1
:103B5000FBCEF801EB5BF74F20813181D801A20F3A
:103B6000B31FA259BF4F8C912F5F3F4F31832083EA
:103B70000E94FA2DF6C2F90180819181029709F025
:103B8000E3CEF801EB5BF74F20813181D801A20F22
:103B9000B31FA259BF4F8C91A9014F5F5F4F518353
:103BA0004083D901A159BF4FA00FB11F6D917C91E6
:103BB0002D5F3F4F318320830E94712C6CC3C8015D
:103BC00084599F4F26E0DC012C93F701208131813D
:103BD0002230310508F463C3ADB6BEB6F801EB5B25
:103BE000F74F40815181D801A40FB51FA259BF4F93
:103BF0006C914F5F5F4F51834083462F50E0ADB7CC
:103C0000BEB7A41BB50B0FB6F894BEBF0FBEADBFB9
:103C100011966D012230310511F4613031F04D5FA4
:103C20005F4F2417350709F07BC07C2D3601262D08
:103C3000271B261788F420813181A801420F531FCA
:103C400042595F4FDA014C912F5F3F4F3183208300
:103C5000D3014D933D01EBCFD7012D913C91223003
:103C60003105B1F020813181D901A259BF4FA00F98
:103C7000B11FED90FC902E5F3F4F31832083B9EE52
:103C8000EB16B3E0FB0638F029E0FC01208348C0C6
:103C9000EE24E394F12CDC011C92F0927C0DE09276
:103CA0007B0DC80182599F4F9093800D80937F0DAB
:103CB00080E0688F0E94CC02688D613029F4F601A3
:103CC00080810E945A0412C0D092790DC092780D62
:103CD0006093760D1092750D8BE694E09093740DC1
:103CE0008093730DD6018C910E9440040E94D003F2
:103CF00080917B0D90917C0D20917D0D30917E0DFA
:103D000028173907C9F70E94EF03EE0CFF1CF801D2
:103D1000E95BF74F80819181E80EF91EF182E08224
:103D20000FB6F894BEBE0FBEADBEB9C2F901808118
:103D30009181039709F008CED801AB5BB74F8D9105
:103D40009C911197FC01E259FF4FE00FF11F608138
:103D50007181F801E80FF91FE059FF4F4081039688
:103D60008D939C93D801ED91FC910288F389E02D0D
:103D7000C801199590C2F90180819181029709F0DB
:103D8000E3CDD801AB5BB74F8D919C911197FC01AE
:103D9000E259FF4FE00FF11F6081718102968D9310
:103DA0009C93D801ED91FC910088F189E02DC80128
:103DB0001995D7C1F90180819181029709F0C4CD8D
:103DC000F801EB5BF74F808191819801280F391F33
:103DD000D901A259BF4F6C911196EC900296918334
:103DE0008083CE0101960E947D06CE0101960E943D
:103DF0006B06F12C41E0BE01615F7F4FCE01019661
:103E00000E94A006F394EF14A8F7980124593F4F9D
:103E10007901882309F422C248E050E0BE01615FC5
:103E20007F4FC8010E94971916C2D9018D919C91AC
:103E30000B9709F089CDD801AB5BB74F2D913C9121
:103E40001197A801420F531FFA01E259FF4F6081F9
:103E50006901EFEFCE1ADE0A1196DC92CE923E0196
:103E6000FFE06F0E711C80E090E0B62CA72CC00E16
:103E7000D11E7601E80EF91E7EE6E70EF11CF70171
:103E8000F080F301F1923F0101968830910589F7A6
:103E9000FA01E958FF4FF0803196E080255F3F4FEF
:103EA0002D933C93CE0101960E947D06CE01019692
:103EB0000E9448056B2D7A2DCE0101960E94430683
:103EC00040E06F2DCE0101960E94E505F12CFE1415
:103ED00009F4E1C1CE0101960E9427068F8B41E0D3
:103EE00050E0BE01695E7F4FC8010E949719F394AC
:103EF000EECFD9018D919C910B9709F025CDD8017A
:103F0000AB5BB74F2D913C911197A801420F531F06
:103F1000FA01E259FF4F60816901EFEFCE1ADE0A24
:103F20001196DC92CE923E01FFE06F0E711C80E094
:103F300090E0B62CA72CC00ED11E7601E80EF91E1B
:103F40007EE6E70EF11CF701F080F301F1923F01EC
:103F500001968830910589F7FA01E958FF4FF08002
:103F600031964081255F3F4F2D933C93CE010196C2
:103F7000498F0E947D06CE0101960E9448056B2D57
:103F80007A2DCE0101960E944306498D6F2DCE01F8
:103F900001960E94E5057FC1D9018D919C91029700
:103FA00009F0D2CCF801EB5BF74F80819181980149
:103FB000280F391FD901A259BF4F6C911196EC906F
:103FC0000296918380834E2D81EF9DE00E94750AB9
:103FD000F12C81EF9DE00E945409892B79F081EF4B
:103FE0009DE00E945C09898341E050E0BE016F5F63
:103FF0007F4FC8010E949719F394EBCFF801E45961
:10400000FF4FFE1409F44AC181E02AC1F901808101
:104010009181029708F498CC6801FBEBCF1AF7EF77
:10402000DF0AD6018D919C911197F801E80FF91FD5
:10403000E259FF4F608101968D939C9381EF9DE043
:104040000E94F509B12C2B2D30E0F7018081918180
:1040500001972817390798F4F60180819181F801BA
:10406000E80FF91FE259FF4F60810196D6018D9349
:104070009C9381EF9DE00E94AC09B394E4CF81EF63
:104080009DE00E947B0A07C1F801EB5BF74F80813E
:104090009181D801A80FB91FA259BF4F2C91019649
:1040A000918380838CB5211102C0806201C08F7D15
:1040B0008CBDF1C0F90180819181019709F044CC58
:1040C000F801EB5BF74F80819181D801A80FB91FF0
:1040D000A259BF4F2C910196918380839CB5822F6A
:1040E00083709C7F892B8CBD8DB522FB222720F904
:1040F0008E7F822B8DBD18C0D9018D919C91019727
:1041000009F022CCF801EB5BF74F80819181D80157
:10411000A80FB91FA259BF4F2C910196918380839C
:104120008CB5837F282B2CBDE95DF740B7C0F90122
:1041300080819181019709F007CCF801EB5BF74F83
:1041400080819181D801A80FB91FA259BF4F2C912E
:104150000196918380832EBD00000DB407FEFDCF34
:104160008EB5898341E050E0BE016F5F7F4F85C00F
:10417000D9018D919C91892B09F0E6CBF801EA5980
:10418000FF4F40815181B8016E5F7F4F76C0F901CA
:1041900080819181892B09F0D7CB80916D0D909111
:1041A0006E0DA0916F0DB091700D89839A83AB83D2
:1041B000BC8344E050E0D8CFD9018D919C91049705
:1041C00009F0C2CBD801AB5BB74F2D913C91119751
:1041D000F901E259FF4FE00FF11F60817181828187
:1041E00093812C5F3F4F2D933C930E94E10253C07B
:1041F000F90180819181892B09F0A6CB0E94B3023D
:104200009A83898342E050E0AFCFD9018D919C9190
:10421000029709F099CBD801AB5BB74F2D913C9138
:104220001197F901E259FF4FE00FF11F8081918151
:104230002E5F3F4F2D933C939C0122503109F80192
:10424000E459FF4F7F012630310540F40E94AA0255
:1042500080E00E947303D7011C9221C085E0F70122
:1042600080831DC0D9018D919C91892B09F06CCB65
:1042700044E050E0B80168597F4FC8010E94971987
:104280000AC0F90180819181892B09F05DCB61E041
:10429000C8010E94C01AF801E459FF4F108278014A
:1042A000FCE6EF0EF11CD7016C91C8010E94101CB6
:1042B000F70180810FB6F8949EBE0FBE8DBE699641
:1042C0000FB6F894DEBF0FBECDBFDF91CF911F9127
:1042D0000F91FF90EF90DF90CF90BF90AF909F90A5
:1042E0008F907F906F900895EF92FF920F931F939E
:1042F000CF93DF931F921F92CDB7DEB7122F81EFBE
:104300009DE049835A830E94F5094981042FE42ED8
:104310005A81F52E8E2D801B811740F4F701619193
:104320007F0181EF9DE00E94AC09F4CF81EF9DE019
:104330000F900F90DF91CF911F910F91FF90EF9011
:104340000C947B0ACF93DF93EC018EE89EE00E94F1
:10435000232E181619064CF48EE89EE00E943C2E7F
:10436000682FCE010E94EA19F0CFDF91CF91089516
:1043700020917D0D30917E0D80917B0D90917C0D73
:104380002817390721F40E94EF0381E0089580E0A7
:104390000895CF93DF93D82FC62F811109C06623CC
:1043A00021F06130B1F560E001C061E08DE01DC039
:1043B000813079F5613049F030F0623061F063307E
:1043C00041F560E01DC061E01BC060E08CE00E9430
:1043D000C42D61E019C060E08CE00E94C42D60E053
:1043E0008BE00E94C42D61E08AE00E94C42D8BE125
:1043F000D89FF0011124E75BF14FC18380E00AC030
:104400008CE00E94C42D60E08BE00E94C42D60E02F
:10441000EBCF85E0DF91CF9108959093820E80934A
:10442000810E6093490E4093640E60E078EB88E063
:1044300097E40E94E10280E00E946E2C61E08DE032
:104440000E948B2D61E08CE00E948B2D61E08BE05F
:104450000E948B2D61E08AE00E948B2D83E00E94F8
:10446000AA0260914A0E80E00E94C9216091650E07
:1044700081E00E94C92120E032E030935F0E20935A
:104480005E0E80E090E0A0E0B4E48093600E909334
:10449000610EA093620EB093630E41E04093590EFB
:1044A00030937A0E2093790E80937B0E90937C0E3E
:1044B000A0937D0EB0937E0E4093740E08950F93DB
:1044C0001F93CF93DF93AB019BE1899FE001112400
:1044D000C75BD14F9B01235331092A393340B0F0D8
:1044E0009B81911110C09A819F5F9A836981662395
:1044F00021F061500E94C92103C081E080937F0EAA
:1045000083E08B8337C091509B8334C08091800EB1
:10451000882309F18D899E89DB01A81BB90B9D01B8
:104520000E94293809891A892B893C89060F171F8F
:10453000281F391F098B1A8B2B8B3C8B88859985FB
:10454000AA85BB85840F951FA11DB11D88879987FA
:10455000AA87BB870FC08C819D818617970718F4A7
:104560007D836C8307C08E819F816817790710F463
:104570007F836E83DF91CF911F910F91089580E02B
:104580000C945F2281E00C945F222F923F924F9215
:104590005F926F927F928F929F92AF92BF92CF92D3
:1045A000DF92EF92FF920F931F93CF93DF93CDB7DC
:1045B000DEB764970FB6F894DEBF0FBECDBF2901FA
:1045C0003A01E986FA860B871C871601BA8AA98AFE
:1045D0000E942B3620E030E04AE754E40E94573432
:1045E0009B01AC010E94DC336B017C0120E030E0D8
:1045F000A9010E94E23520E030E040E05FE387FD62
:1046000005C0C701B6010E94DC3304C0C701B60172
:104610000E94DB330E94BF340E94F23420E030E07D
:1046200040E05FE30E942B366D837E838F83988703
:10463000A30192016D817E818F8198850E945734FC
:1046400029853A854B855C850E942B360E94403433
:104650000E94C4348B010230110508F42DC3B80147
:1046600080E090E00E94F0342D813E814F8158859A
:104670000E945734A30192010E942B3669837A83EA
:104680008B839C83D1016D937D938D939C93139722
:1046900029853A854B855C850E94E23518160CF415
:1046A00008C3A301920169817A818B819C810E9458
:1046B00057346B017C019B01AC0160E070E080E04D
:1046C00090E40E9457344B015C0120E030E0A901E6
:1046D0000E94E23520E030E040E05FE387FD05C066
:1046E000C501B4010E94DC3304C0C501B4010E94BD
:1046F000DB330E94BF340E94F234A70196010E946E
:104700002B369B01AC0160E070E080E090E40E94F9
:10471000DB3320E030E0A9010E94E23520E030E008
:10472000A901181664F5C501B4010E94E23520E024
:1047300030E040E05FE387FD05C0C501B4010E94A1
:10474000DC3304C0C501B4010E94DB330E94BF34D6
:104750000E94F234A70196010E942B369B01AC0106
:1047600060E070E080E090E40E94DB332DEC3CECF4
:104770004CEC5DE30E94533487FD9BC22CC0C50105
:10478000B4010E94E23520E030E040E05FE387FDC5
:1047900005C0C501B4010E94DC3304C0C501B401E9
:1047A0000E94DB330E94BF340E94F234A7019601BD
:1047B0000E942B369B01AC0160E070E080E090E449
:1047C0000E94DB332DEC3CEC4CEC5DEB0E94E235BF
:1047D00018160CF46EC2A3019201C301B2010E942B
:1047E000DC339B01AC0169817A818B819C810E94C1
:1047F000533487FF61C129813A814B815C81C301B8
:10480000B2010E9457346D877E878F87988B1C8AF0
:104810001B8AEB89FC89BF0180E090E00E94F034A4
:104820004B015C019B01AC016D857E858F8598896C
:104830000E94DB3320E030E040E05FE30E9453342D
:1048400018163CF42B893C892F5F3F4F3C8B2B8BF8
:10485000E0CF29813A814B815C81C501B4010E947E
:104860002B369B01AC01C301B2010E94DB334B012B
:104870005C0120E030E0A9010E94E235181624F026
:10488000B7FAB094B7F8B094A501940169817A8120
:104890008B819C810E94573469837A838B839C83AC
:1048A0009B01AC0160E070E080E090E40E9457342E
:1048B0004B015C0120E030E0A9010E94E23520E0DC
:1048C00030E040E05FE387FD05C0C501B4010E9410
:1048D000DC3304C0C501B4010E94DB330E94BF3445
:1048E0000E94F23429813A814B815C810E942B36EF
:1048F0009B01AC0160E070E080E090E40E94DB335B
:1049000020E030E0A9010E94E23520E030E0A9017A
:10491000181674F5C501B4010E94E23520E030E0BC
:1049200040E05FE387FD05C0C501B4010E94DC33B0
:1049300004C0C501B4010E94DB330E94BF340E9451
:10494000F23429813A814B815C810E942B369B0194
:10495000AC0160E070E080E090E40E94DB332DEC7D
:104960003CEC4CEC5DE30E94533487FF2FC0A1C1A7
:10497000C501B4010E94E23520E030E040E05FE391
:1049800087FD05C0C501B4010E94DC3304C0C50128
:10499000B4010E94DB330E94BF340E94F2342981AB
:1049A0003A814B815C810E942B369B01AC0160E017
:1049B00070E080E090E40E94DB332DEC3CEC4CECAA
:1049C0005DEB0E94E23518160CF473C120E030E074
:1049D000A901C701B6010E94E23520E030E040E0C5
:1049E0005FE387FD05C0C701B6010E94DC3304C048
:1049F000C701B6010E94DB330E94BF340E94F2342B
:104A00009B01AC01C701B6010E94DB3320E030E01E
:104A1000A9010E94E23520E030E0A901181634F522
:104A2000C701B6010E94E23520E030E040E05FE3DC
:104A300087FD05C0C701B6010E94DC3304C0C70171
:104A4000B6010E94DB330E94BF340E94F2349B0106
:104A5000AC01C701B6010E94DB3327E137EB41ED22
:104A600058E30E94533487FF27C023C1C701B60112
:104A70000E94E23520E030E040E05FE387FD05C0C2
:104A8000C701B6010E94DC3304C0C701B6010E9411
:104A9000DB330E94BF340E94F2349B01AC01C7019A
:104AA000B6010E94DB3327E137EB41ED58EB0E9462
:104AB000E23518160CF4FDC020E030E040E251E48D
:104AC000C701B6010E94533487FF76C020E030E072
:104AD000A901C701B6010E94E23520E030E040E0C4
:104AE0005FE387FD05C0C701B6010E94DC3304C047
:104AF000C701B6010E94DB330E94BF340E94F2342A
:104B00009B01AC01C701B6010E94DB3320E030E01D
:104B1000A9010E94E23520E030E0A901181634F521
:104B2000C701B6010E94E23520E030E040E05FE3DB
:104B300087FD05C0C701B6010E94DC3304C0C70170
:104B4000B6010E94DB330E94BF340E94F2349B0105
:104B5000AC01C701B6010E94DB3327E137EB41ED21
:104B600058E30E94533487FF27C0A3C0C701B60192
:104B70000E94E23520E030E040E05FE387FD05C0C1
:104B8000C701B6010E94DC3304C0C701B6010E9410
:104B9000DB330E94BF340E94F2349B01AC01C70199
:104BA000B6010E94DB3327E137EB41ED58EB0E9461
:104BB000E23518160CF47DC02D813E814F81588559
:104BC000C701B6010E942B366B017C0120E030E06A
:104BD000A9010E94E23520E030E040E05FE387FD7C
:104BE00005C0C701B6010E94DC3304C0C701B6018D
:104BF0000E94DB330E94BF340E94F2349B01AC015F
:104C0000C701B6010E94DB3320E030E0A9010E9419
:104C1000E23520E030E0A901181634F5C701B601ED
:104C20000E94E23520E030E040E05FE387FD05C010
:104C3000C701B6010E94DC3304C0C701B6010E945F
:104C4000DB330E94BF340E94F2349B01AC01C701E8
:104C5000B6010E94DB3327E137EB41ED58E30E94B8
:104C6000533487FF26C033C0C701B6010E94E23526
:104C700020E030E040E05FE387FD05C0C701B601FA
:104C80000E94DC3304C0C701B6010E94DB330E94DE
:104C9000BF340E94F2349B01AC01C701B6010E94EF
:104CA000DB3327E137EB41ED58EB0E94E235181674
:104CB00074F001501109CFCC20E030E040E05FE318
:104CC0006D817E818F8198850E94DC33ADCCA9896E
:104CD000BA890D931C9364960FB6F894DEBF0FBE8D
:104CE000CDBFDF91CF911F910F91FF90EF90DF909B
:104CF000CF90BF90AF909F908F907F906F905F907C
:104D00004F903F902F90089510924A0E1092650E8A
:104D100008952F923F924F925F926F927F928F925F
:104D20009F92AF92BF92CF92DF92EF92FF920F933A
:104D30001F93CF93DF93CDB7DEB7C85CD1090FB611
:104D4000F894DEBF0FBECDBFC154DF4F59834883F7
:104D5000CF5BD040CF53DF4F088319832A833B8337
:104D6000C15CD04026013701CD54DF4FA882C35B20
:104D7000D0408092800EAA2031F1A3E8AA2EAEE0A6
:104D8000BA2EAE0149555F4F6A01E12C10E4F12EB5
:104D90000CE916E4A30192010E94C522C955DF4F18
:104DA000688179818A819B81C75AD0409B01AC017F
:104DB0000E94DC33C955DF4F688379838A839B83E4
:104DC000C75AD04017C020E030E040E05FE30E94C7
:104DD0002B36E3E8AE2EEEE0BE2EDE01A955BF4F26
:104DE0006D01E12C10E4F12E0CE117E4A301920116
:104DF0000E94C5228091830E9091840E880F991F86
:104E00009093840E8093830EC955DF4F688179811A
:104E10008A819B81C75AD0400E94E102B0914A0E1C
:104E2000C354DF4FB883CD5BD04081E0C355DF4F23
:104E30008883CD5AD04061E080E00E94C921E09192
:104E4000650EC254DF4FE883CE5BD04083E0C2558D
:104E5000DF4F8883CE5AD04063E081E00E94C921B1
:104E60008091490EFE01E555FF4F80839091640EBD
:104E700091832091830E3091840ECD54DF4F488171
:104E8000C35BD040442311F130937C0D20937B0D04
:104E9000F093790DE093780D92E09093760D109257
:104EA000750D2BE634E03093740D2093730D0E9442
:104EB000400483E894E09093740D8093730D8FE524
:104EC00092E29093720D8093710D06C036952795EE
:104ED00030937C0D20937B0DE090810EF090820E3C
:104EE000F701E859FF4F20E030EC4FE754E46081D0
:104EF0007181828193810E945734C754DF4F688348
:104F000079838A839B83C95BD0401E015FE9250EAC
:104F1000311C3E0183E1680E711CCE01805B9F4F06
:104F20002C01AAE04A0E511CF1013896C155DF4F01
:104F3000F983E883CF5AD040CC54DF4F8883C45BD9
:104F4000D040C854DF4F9883C85BD04087010B59CD
:104F5000174F9701245A374FCF54DF4F3983288397
:104F6000C15BD0408091490EF801CC54DF4FA8813D
:104F7000C45BD040C854DF4FB881C85BD0409FE4C9
:104F800001900D929A95E1F7882341F0813061F408
:104F9000F201208931894289538909C0D2012D91BA
:104FA0003D914D915C9103C020E030E0A901F801F2
:104FB000DE0111969FE401900D929A95E1F7882306
:104FC00041F0813061F4F301C08CD18CE28CF38C20
:104FD00009C0D301CD90DD90ED90FC9003C0C12CB1
:104FE000D12C760160E876E988E19BE40E94573491
:104FF00020E030E040E85FE30E94DC334B015C01DD
:1050000020E836E948E15BE4C701B6010E942B368F
:105010009B01AC010E94DC332BED3FE049E450E4FE
:105020000E942B36CF54DF4FA881B981C15BD0409D
:105030002D913D914D915C910E942B366B017C012D
:10504000A5019401C501B4010E942B364B015C01FE
:10505000A7019601C701B6010E942B369B01AC0146
:10506000C501B4010E94DC330E94DE369B01AC0115
:10507000C754DF4F688179818A819B81C95BD040A9
:105080000E942B36F10161937193819391931F01DB
:10509000F4E06F0E711C24E0420E511CC155DF4F2D
:1050A00048815981CF5AD0402416350609F05ACF8D
:1050B00010927F0ECF54DF4F19821882C15BD0400F
:1050C000CF54DF4F88819981C15BD040C154DF4FFD
:1050D000A881B981CF5BD0408A179B0709F4D1C260
:1050E0008091800E10924B0E10924C0E81110BC0CD
:1050F000EFEFF3E0F093500EE0934F0E10924E0E50
:1051000010924D0E10C01092510E1092520E10922D
:10511000530E1092540E10925A0E10925B0E109273
:105120005C0E10925D0E1092660E1092670E882330
:1051300089F010926C0E10926D0E10926E0E1092FD
:105140006F0E1092750E1092760E1092770E1092CE
:10515000780E0AC08FEF93E090936B0E80936A0EE7
:105160001092690E1092680ECD54DF4F9881C35B88
:10517000D0409923E1F10E94D0030E94B8218823F6
:10518000E1F30E94B62BCC54DF4F688379838A8386
:105190009B83C45BD040A091800EC854DF4FA8838E
:1051A000C85BD0408091830E9091840EFE01E35540
:1051B000FF4FC155DF4FF983E883CF5AD04009E450
:1051C0001EE09E012F5F3F4F2901AE01405B5F4F04
:1051D0001A01612C712C9C0140E050E0CB53DF4F51
:1051E000288339834A835B83C55CD0409AC0809111
:1051F000490E0E945A0443E854E05093740D4093C2
:10520000730D8FEB92E29093720D8093710D0E945B
:10521000D0030E94B8218823E1F38091640E0E949C
:105220005A04A3E8B4E0B093740DA093730DE2ECBC
:10523000F2E2F093720DE093710D0E94D0030E9490
:10524000B8218823E1F39DCFCB53DF4F688179816B
:105250008A819B81C55CD0400E94F0346B017C0147
:10526000D80151966D917D918D919C9154970E949A
:10527000F0349B01AC010E94DC33A70196010E942F
:1052800057340E94DE36F2016083718382839383F8
:1052900020E030E040E852E40E942B369B01AC0154
:1052A0000E94DC3323EF34E045EB5FE30E942B36B2
:1052B0000E94C434D1016D937C93F301E75BF14FFD
:1052C00082818823B9F1F301E75BF14F8281882362
:1052D00009F4B3C08195C155DF4FA881B981CF5A78
:1052E000D0408C93B1E0B08BC155DF4FE881F9819C
:1052F000CF5AD0403196C155DF4FF983E883CF5A5A
:10530000D040FBE16F0E711C055E1F4F22E0220EA4
:10531000311C34E0430E511C46E36416710409F459
:1053200096C0C854DF4FF881C85BD040FF2309F412
:105330005AC08ACF80898111C6CFF80180849184B8
:10534000A284B3846485758586859785680D791DEB
:105350008A1D9B1D0E94F0342AE037ED43E25CE396
:105360000E942B36A70196010E9457346B017C01E5
:1053700024EA30E74DE75FE3D80157966D917D91C0
:105380008D919C915A970E942B369B01AC01C701CD
:10539000B6010E94DC336B017C01F801678B708FD2
:1053A000818F928F20E030E0A9010E94E23520E059
:1053B00030E040E05FE387FD05C0C701B6010E9411
:1053C000DC3304C0C701B6010E94DB330E94BF3446
:1053D000D80156967C936E935597F80184869586EE
:1053E000A686B78670CFD80114966D917C911597DB
:1053F00016968D919C911797681B790B96E0660F16
:10540000771F9A95E1F7F1017183608380E090E066
:105410000E94F03423EF34E045EB5FE30E94573401
:1054200020E030E040E05CE30E942B36D2016D9337
:105430007D938D939C93139746CF8181C155DF4F08
:10544000A881B981CF5AD0408C93108A4DCF00915A
:10545000810E1091820EF801EC59F74F808188235C
:1054600009F470C080914B0E81116CC03C97C080D4
:10547000D180E280F38020E030E0A901C701B601CD
:105480000E94E23518160CF05DC0C355DF4F8881CD
:10549000CD5AD040EFE9F0E0EC0FFD1F24E082028E
:1054A000E00DF11D112420813181428153816981F8
:1054B0007A818B819C810E942B364B015C0180910B
:1054C000660E8111B5C02D813E814F815885C7542C
:1054D000DF4F688179818A819B81C95BD0400E94BE
:1054E0002B369B01AC01C701B6010E94DC332B01B6
:1054F0003C019B01AC01C501B4010E94DB336B018F
:105500007C0120E030E0A9010E94E235181624F069
:10551000F7FAF094F7F8F09420E030E040E05FE331
:10552000F801ED55F74F60817181828193810E946E
:105530002B369B01AC01C701B6010E94E23518165B
:105540000CF47AC00AE41EE0CE01805B9F4F6C0130
:10555000E12CF12CD6018D919C91893C9C4030F43A
:10556000F80160816F5F8E2D0E94C92142E050E0FA
:10557000B6018091810E9091820E0E9497196DEA7A
:1055800070E06C0F7D1F6E0D7F1D41E050E080913B
:10559000810E9091820E0E949719FFEFEF1AFF0A79
:1055A00022E0C20ED11C055E1F4F32E0E316F1046B
:1055B00089F68EE89EE00E94232E181619060CF438
:1055C00060C00E94B62BCC54DF4F288139814A81BC
:1055D0005B81C45BD040621B730B840B950B0E94F4
:1055E000F0346B017C0120E030E04AE754E4CF5313
:1055F000DF4F688179818A819B81C15CD0400E94A4
:105600002B369B01AC01C701B6010E94533487FDC4
:10561000D8CFCF54DF4F48815981C15BD0404F5F15
:105620005F4FCF54DF4F59834883C15BD04048CD93
:1056300020E030E0A90157CFF801E05AF74F208170
:10564000318142815381C501B4010E942B36A301EF
:1056500092010E9457346B017C0120E030E040E869
:105660005FE30E94533487FF06C0C12CD12C80E831
:10567000E82E8FE3F82EB701A601C8010E94200E84
:1056800061CFC354DF4F6881CD5BD04080E00E9482
:10569000C921C254DF4F6881CE5BD04081E00E94B7
:1056A000C92180E0C853DF4F0FB6F894DEBF0FBEAC
:1056B000CDBFDF91CF911F910F91FF90EF90DF90C1
:1056C000CF90BF90AF909F908F907F906F905F90A2
:1056D0004F903F902F9008951F920F920FB60F9208
:1056E00011242F933F938F939F93AF93BF938091F8
:1056F000860E9091870EA091880EB091890E309100
:10570000850E23E0230F2D3720F40196A11DB11D36
:1057100005C026E8230F0296A11DB11D2093850E1A
:105720008093860E9093870EA093880EB093890E77
:1057300080918A0E90918B0EA0918C0EB0918D0E5F
:105740000196A11DB11D80938A0E90938B0EA0939C
:105750008C0EB0938D0EBF91AF919F918F913F9121
:105760002F910F900FBE0F901F9018953FB7F89490
:1057700080918A0E90918B0EA0918C0EB0918D0E1F
:1057800026B5A89B05C02F3F19F00196A11DB11D9C
:105790003FBF6627782F892F9A2F620F711D811DB9
:1057A000911D42E0660F771F881F991F4A95D1F718
:1057B0000895CF92DF92EF92FF92CF93DF936B0128
:1057C0007C010E94B62BEB01C114D104E104F10469
:1057D00089F00E94DA330E94B62B6C1B7D0B683E69
:1057E000734090F381E0C81AD108E108F108C8516C
:1057F000DC4FEACFDF91CF91FF90EF90DF90CF9019
:1058000008958230910538F0880F991F880F991FED
:1058100005970197F1F70895789484B5826084BD67
:1058200084B5816084BD85B5826085BD85B58160A4
:1058300085BDEEE6F0E0808181608083E1E8F0E004
:105840001082808182608083808181608083E0E833
:10585000F0E0808181608083E1EBF0E08081846012
:105860008083E0EBF0E0808181608083E1E9F0E01B
:10587000808182608083808181608083E0E9F0E0C4
:10588000808181608083E1EAF0E0808182608083B2
:10589000808181608083E0EAF0E0808181608083A4
:1058A000E1E2F1E080818260808380818160808399
:1058B000E0E2F1E0808181608083EAE7F0E08081CE
:1058C0008460808380818260808380818160808326
:1058D0008081806880831092C100089580930802BF
:1058E00008951F93CF93DF93182FEB0161E00E947F
:1058F0008B2D209711F460E004C0CF3FD10539F41F
:1059000061E0812FDF91CF911F910C94C42DE12F85
:10591000F0E0E451FE4F449150E0FA013197E2315A
:10592000F10508F09BC0EF56FF4F0C94233884B567
:10593000806884BDC7BD97C084B5806284BDC8BD82
:1059400092C080918000806880938000D09389000D
:10595000C093880088C0809180008062809380001E
:10596000D0938B00C0938A007EC0809180008860B5
:1059700080938000D0938D00C0938C0074C0809180
:10598000B00080688093B000C093B3006CC0809179
:10599000B00080628093B000C093B40064C0809176
:1059A0009000806880939000D0939900C0939800F5
:1059B0005AC080919000806280939000D0939B00A9
:1059C000C0939A0050C080919000886080939000AE
:1059D000D0939D00C0939C0046C08091A000806839
:1059E0008093A0008091A0008F7B8093A000D09333
:1059F000A900C093A80037C08091A0008062809366
:105A0000A000D093AB00C093AA002DC08091A0004D
:105A100088608093A000D093AD00C093AC0023C0F9
:105A200080912001806880932001D0932901C09348
:105A3000280119C080912001806280932001D093B9
:105A40002B01C0932A010FC08091200188608093B0
:105A50002001D0932D01C0932C0105C0C038D10581
:105A60000CF04ECF48CFDF91CF911F91089590E079
:105A7000FC013197E231F10508F04CC0ED55FF4FC4
:105A80000C942338809180008F7703C08091800030
:105A90008F7D80938000089580918000877FF9CF6B
:105AA00084B58F7702C084B58F7D84BD08958091C1
:105AB000B0008F7703C08091B0008F7D8093B000DD
:105AC0000895809190008F7707C0809190008F7D1E
:105AD00003C080919000877F80939000089580910B
